:020000024000BC
:10E000006FD04127000000000018011800280128E7
:10E0100002280328002901290229032904290529A6
:10E02000062907290829002A012A022A032A042A84
:10E03000052AA62A34BC0600780005006C040020DE
:10E04000EE040020EE030020BC0300205403002057
:10E05000E6C10600100105002E020500BC04050003
:10E06000D2050500D4FF040082FF0400B4020020A2
:10E07000540200208A0A05006C080020E600050012
:10E0800090070500D0730600B67506001C760600E2
:10E0900086570600BC57060054170600C20D06003E
:10E0A000C86E0600BE070500185C06007CA20500CD
:10E0B00002A3050058A305008E120500CC1205002E
:10E0C000421105002A6505001A60050004C3060018
:10E0D0001671050060740500EE52050090520500AF
:10E0E0004C5605003A53050070520500E6520500F3
:10E0F00026520500B65305000E540500BE53050018
:10E10000C25305004E540500165405004654050040
:10E11000185905001C590500B2530500BA530500F3
:10E120004C5405001A590500F2540500785A0500B0
:10E13000EA8105005C820500968205007067050093
:10E1400086670500C067050082480500884A05000B
:10E15000504B05003A2F0500A8290500723F050025
:10E16000202A05005E3B0500129C06007E940600F6
:10E170004E990600AEAE060098AD060008B1060046
:10E18000F8B0060000B106003EB10600BC860600ED
:10E19000000000000000000000000000000000007F
:10E1A000AEB106008CAB060028AB060000000000F4
:10E1B000000000000000000000000000000000005F
:10E1C00046F80500C2E605003AEA0500FEE705004C
:10E1D00040F2050080D40600646E0600F08606005A
:10E1E000180C0500CE580600F85B0600F05C06002F
:10E1F0000000000000000000000000001E6B050091
:10E2000048F70500000000000000000000000000CA
:10E2100072E60500320A0020A65906002AB106005F
:10E220000000000000000000FCB0060040040500F3
:10E23000A268050032B10600705F06003660060075
:10E240009E600600B69906002EB1060036B10600A3
:10E25000440D06003AB10600FA150020C015002052
:10E26000969906002C9B0600FEF7050000000000B2
:10E27000000000000000000000000000000000009E
:10E2800097270000938787D11727000013070750AF
:10E290006373F700828023A007009107D5BF9727FB
:10E2A0000000938727C217D706E01307E74F97268A
:10E2B00000009386A6CE63F3F60082801043110718
:06E2C00090C39107CDBFE1
:10E2C8004111B7E700E022C480433707200006C6A3
:10E2D800798C23A0E7180F10000011C199E5B7E762
:10E2E80000E023A08710014579A80D0533450508EE
:10E2F800130740037199B34705086366A7021725FA
:10E3080000000325A5C99726000083A6A6C8639127
:10E31800A60217270000032727E871D3C207DD8D5F
:10E32800054502976DBF172500000325E5C6E1BF27
:10E338007A2131EF5A21636CF704B306F74021487C
:10E34800172600001306C6DF6375D8028328050068
:10E3580003586600938687001D8FAA966117DAA274
:10E3680023A016012393060014C15EA1130788FF9A
:10E378007AA27A226EA12105B307F7407EA2B7E7F9
:10E3880000E023A08710B240224441018280084166
:10E39800BDBFB7E700E08C433707200023A0E7188C
:10E3A800F98D0F10000001E523A0B7108280172314
:10E3B80000000323A3BE9728000083A8A8BD9A875E
:10E3C800814663FE170903A80700636DF508636BB0
:10E3D800A808138787006364E508F2232167050707
:10E3E8006319E60017260000130636C81822050729
:10E3F80018A2172500001305A5D4D2237A21239348
:10E4080007003297334707087AA163856702172305
:10E418000000032363B8630FF30003D36600631B94
:10E428000300DE2223A0060121073E962106D2A280
:10E438007AA1B6879843630417039726000083A63A
:10E44800A6B5630ED700762399EAD623522318433C
:10E45800A106B296D6A398C37E21A1077EA1B7E7ED
:10E4680000E099B7BE86C287A9BFAA871727000010
:10E478000327C7B2172600000326C6B1B305B54067
:10E488006314E6003E8529A8930687001843E3E94C
:10E49800D7FEE3F7E7FE2E85E3E4D5FEE3F2E5FEDB
:10E4A800828023AC05FE1C4199E30CC182803E8723
:10E4B80083A787FFEDFF232CB7FE8280411126C278
:10E4C800B7E400E04AC003A90400B707200006C665
:10E4D80022C43379F90023A0F4180F10000009E5CD
:10E4E80023A0241101452DA09565938505D0C98DDC
:10E4F8002A842105B3C5050833450508D1336DD1F4
:10E50800FD572320050042A17CA123A02411210549
:10E51800B240224492440249410182804111B7E746
:10E5280000E04AC003A9070026C23707200006C634
:10E5380022C4AA843379E90023A0E7180F10000049
:10E548009727000083A7C7A50144014695E311C892
:10E55800A285172500001305A5A4970005E0E7800C
:10E5680020C7A1652685970005E0E780E01B2DA060
:10E5780003C7E7FF631D970221C0A2851725000086
:10E58800130505A2970005E0E78080C4A1652685EC
:10E5980097C006E0E780E0EBB24022852244B7E767
:10E5A80000E023A02711924402494101828011E032
:10E5B8003E8683A787FF59BF3E84E5BF37E700E063
:10E5C8001C43B70620002320D718F58F0F10000032
:10E5D80019C191C111E637E700E02320F7108280C6
:10E5E8002E960F70B650D5BF37E700E01C43B7062C
:10E5F80020002320D718F58F0F10000019C10147FC
:10E6080085E137E700E02320F7108280B386E50034
:10E6180003A80600B306E5007D1623A0060111072E
:10E6280075F6C5B737E700E01C43B706200023207E
:10E63800D718F58F0F10000001C53307C50011E684
:10E6480037E700E02320F71082800505A30FB5FE09
:10E65800E31DE5FEF5B7B7E600E09C42370620006B
:10E668002A87F18F23A0C6180F1000000145B306B2
:10E67800A7008386060091E637E700E02320F7101D
:10E6880082800505EDB70111B7E700E026CA84438B
:10E698004AC83707200006CE22CC2A892E86F98C54
:10E6A80023A0E7180F1000009305F00432C6334585
:10E6B800060839312A8401C53246CA850137F24035
:10E6C80022856244B7E700E023A097104249D2446C
:10E6D8000561828037E700E01C43B706200023204D
:10E6E800D718F58F0F10000001C599C1014711EA2D
:10E6F80037E700E02320F710054582800507E30986
:10E70800E6FE3308E500B386E500034808009422D6
:10E71800E306D8FE37E700E02320F71001458280A2
:10E7280037E700E01C43B70620002320D718F58FF1
:10E738000F1000001307F6FFBA952A966317C50055
:10E7480037E700E02320F71082809821FD150505A2
:10E75800A30FE5FEE5B737E700E01C43B706200046
:10E768002320D718F58F0F10000001C53307C50007
:10E7780019E637E700E02320F710014582801421CD
:10E788000505E398B6FEE31CE5FE37E700E0232025
:10E79800F71005458280797126D29724000093846A
:10E7A800A48122D4804006D64AD04ECE52CC56CA36
:10E7B8005AC85EC662C445C837C9C901814B171B10
:10E7C8000000130BEB7E1309F937172A0000130A10
:10E7D800AA99972A0000938AAA96972900009389F4
:10E7E800A99D3E2091EF5C4463990B009CC0032CCB
:10E7F800C4002285793E628499A823A6FB00C5BF80
:10E8080083270B0082971C443307F5406376F50095
:10E8180003A789001D8F2A97636AE9062E2008201E
:10E8280097C006E0E780E0C25C405844A9CB0C449E
:10E83800172600000326C698AE97BE8663E4B70085
:10E8480063E4C700B386C74014C4A28B3A8451F866
:10E85800172700000327C78F894763E6E700972734
:10E86800000023A7078EB250225492540259F2494D
:10E87800624AD24A424BB24B224C45618280639431
:10E888000B0098C0ADB723A6EB0095B703274A0243
:10E898001DCB63EDA7023385A7401C2099EF0347E2
:10E8A8009A0183A689006117B307A7003E8563E430
:10E8B800E70063E4D7003385D74083A70A01637470
:10E8C800F50023A8AA00A28B404451B703A78900EA
:10E8D800BA97D1B7011126CA06CE972400009384AF
:10E8E800A48D22CC4AC84EC652C49C288844DDC395
:10E8F800B7E700E003A907003707200023A0E718BF
:10E908003379E9000F100000171700000347C769A3
:10E9180019CB23A02711F2406244D2444249B2499C
:10E92800224A0561828017270000130727B98357F9
:10E93800070AB1CB9C440324C7096306F40497195A
:10E9480000009389E97F03A709012285630DF70277
:10E95800171A0000130ACA6583270A008297636E94
:10E96800A40C83270A00098C829783A7090198447D
:10E978003354F40AB307A4003E8563E4870063E4D4
:10E98800E7003385E740B7E700E023A027119C4460
:10E99800639DA702171400001304847A1848971778
:10E9A800000083A7E760631DA70882979444374750
:10E9B80036FE130707C83697B307A7003E8563E4FA
:10E9C800E70063E4D7003385D74017240000130419
:10E9D80064D15C5C99CB9716000083A6E66D9C46D3
:10E9E8003707CDFF7D17F98F9CC611E1884485470D
:10E9F8005CD09717000083A76779829715E15C5C64
:10EA080099CF5C5089CF975006E0E780006F975008
:10EA180006E0E780A0139727000023A707CEA53BB1
:10EA28005C5CE38A07EE171700000327E7681C47BA
:10EA3800B7063300D58F1CC7F9BD9C443E9415B763
:10EA4800829714489844B387A6003E8563E4D700AC
:10EA5800E3EDE7F63385E7408DBF9717000023A362
:10EA6800A75411C5854717170000230FF752828056
:10EA7800AA8799E5171700000347077509C7F1BF6B
:10EA880011476369B700171700001307A771B3C5CB
:10EA9800E5209CC182809717000083A7A75085C3F3
:10EAA800411106C682979717000083C7E74F89E789
:10EAB8009717000023A8074EB2404101828097179C
:10EAC800000083C7674E91E79717000023AC074CF7
:10EAD80082808280411122C426C206C64AC0972479
:10EAE8000000938424C083C7340217140000130461
:10EAF800646BB9C717140000130484641719000065
:10EB08001309C94B032709001C2014300146B3A57B
:10EB1800E7208E21A5CD11C21CA00820636FD50661
:10EB280097170000238E07609717000083A74748B0
:10EB3800C5EFB24022449244024941018280829743
:10EB48001C40F5FF9717000083C7076885E3DC487A
:10EB5800858B89CFD84C9947631EF700972700000B
:10EB680023AC07B8EF00F0735C4482971C44D9D3F8
:10EB7800829749B7D84C9D47E31AF7FE97270000BC
:10EB880023AC07B6EF00F0711C48C5B7850793F7AB
:10EB9800F70F0546E3EDD7F641B73327E5200E23F7
:10EBA80023100700971700002391074097170000CC
:10EBB80083A74740B347F5209C4382971C208326B0
:10EBC8000900171700000357473E3377E540B3A6FF
:10EBD800D7209222518F9AA299C385071CA018208A
:10EBE8001C30E368F7F42DBF9717000083A7475D33
:10EBF8001CC8553683C734028DFF83C7140299CBCE
:10EC0800DC4C89EB97270000A38E07AE975006E0EF
:10EC1800E780A00E9717000083A7475799DB1C4889
:10EC280089DB183083260900814763C9E702D84C7D
:10EC38009147E3E0E7F09727000083C76786918B49
:10EC4800E39907EE9717000083C70736E39307EEAB
:10EC58002244B240924402494101ADB933A6D720BB
:10EC68001222E31806EC8507C9B7B7C70040138717
:10EC7800C72014431396264910C301000100938747
:10EC88008726171500000325654D9C436A0514C3A4
:10EC980093C7F7FF99835D8D82809717000083A73C
:10ECA800673291C382871305F00F8280971700009F
:10ECB80023AAA7308280171600001306A67B971692
:10ECC80000009386267DDC36383E4C4ABA97FD8B89
:10ECD80033D7F5001CB2DCB6058B0DE7943A130563
:10ECE8000002B3F7D702814633D8E5486309080024
:10ECF8006394D70018B28280850693F6F60F05074D
:10ED0800E314A7FE8280011126CA9717000083A783
:10ED1800272A06CE22CC4AC84EC652C482979714D8
:10ED28000000938424779844AA870145630DF7046B
:10ED380063E3E706998F171900001309A97393F97C
:10ED4800F70113D457008347A901636AF402171A1D
:10ED58000000130A6A4685370347A9018C44032635
:10ED68008A0093175700AE97198CBE8663E4B700E4
:10ED780063E4C700B386C74094C4E37EE4FC13157C
:10ED8800540033653501F2406244D2444249B249E5
:10ED9800224A056182809716000083A6664233875F
:10EDA800E640BA9749BF411122C417240000130452
:10EDB80064931C4426C206C6858B9714000083A45E
:10EDC800647591EF97C006E0E780607C2244B2400A
:10EDD80026859244410117C306E067006385D8245D
:10EDE8009727000023A407908947E30DF7FC014605
:10EDF800930550020145EF00D07D8145170506E0D7
:10EE080013058500B531014681450545EF001062BF
:10EE18005C44858BC5DBB240224492444101828028
:10EE28009717000083A7C77263970718011122CCB0
:10EE38002A84094506CE26CA4AC84EC697C006E0A7
:10EE4800E780007D971900009389092603A6090029
:10EE58009307800717190000130909247CD2971714
:10EE68000000238307148327090097140000938464
:10EE7800A424B7053300D8572285719B1367170060
:10EE8800D8D798431377F7CF98C398431377F7CF1A
:10EE98001367072098C398401447CD8E14C7B70648
:10EEA80003009386862534CA5457F59A54D7984355
:10EEB8007420137707F893F6F607558F98C397C011
:10EEC80006E0E780E08983A60900370500827D1502
:10EED800DC4293E71700DCC2032609000307440657
:10EEE8005C569375F703E605E98FCD8F5CD69305DD
:10EEF800A0039C4063D5E508F84FB70500074D8F80
:10EF0800F8CFB7C7898E938767ED1CC6B7575500EA
:10EF1800938757555CC28347640683440406DD8C97
:10EF2800894717170000232DF77C9717000023A1A6
:10EF3800077C3C44BCDE9717000083C7E72899C7C5
:10EF4800FC52FDFF9717000023A2077A58249D471B
:10EF5800814517C506E0130545C06306F700170588
:10EF68000000130585E4293650346244F2404249D2
:10EF7800B249A685D244014505616F00304B93051F
:10EF8800200263DAE500F84FB70500F9FD156D8F2B
:10EF9800B7050005ADB7B70500F96945FD15635715
:10EFA800E500F84F6D8FB705000391BFF84F6D8FDF
:10EFB80013178729B1B782809717000093870750E6
:10EFC800A84F054714256392E60203C787069147B1
:10EFD800631CF700011106CE2AC697B006E0E78049
:10EFE800E0603245F240056125BD828083278511A6
:10EFF800E5CB411122C406C658258345E50494375C
:10F00800D2272A841377C70F1395466063F7C5067E
:10F0180063510506882793F6F60794B70546936665
:10F0280027006314C5009366170054A4D843090742
:10F03800D8C3032504114CB82E86CC430905EFF03C
:10F04800EFD7832784115438D8433697D8C3DA27A3
:10F05800158FDAA789473CBC03476403971700005C
:10F0680083C7A7116369F706B240224401454101ED
:10F0780082801367170058A46DBF9376F60F635507
:10F08800050288278545136627006314B5001366B3
:10F09800170050A454B8A384070085473CBC8327B5
:10F0A80084119C43D5FBC9B71367170058A454B8FB
:10F0B800A384070003250411CC430905EFF00FD002
:10F0C800832784115438D8433697D8C3DA27158F45
:10F0D800DAA78D47E1B75C2493E707015CA469B719
:10F0E8000545828041119717000083A727FA22C49B
:10F0F80006C6858B2A84C5E74165130525F5971053
:10F1080006E0E780602941CD3C253EA5832704120F
:10F11800ADE32320A4122322A41285472311F4046B
:10F12800232005007C2854415EA5583418A50547BE
:10F1380018B513851702171700000327675E158196
:10F148001C437D151375F50F9CC25C43DCC21C473C
:10F158009CC65C47DCC61C4B9CCA5C4BDCCA1C4F7B
:10F168009CCE5C4FDCCE0DC19386060213070702C6
:10F17800C1BF8327441288C3835724042322A412BF
:10F188008507B3C7070859BF1717000013070733C8
:10F198001E2785071EA7B2402244410182805C24B5
:10F1A80023090400054593C747005CA4EDB7142D57
:10F1B800854763EED70A1C3D2A870145DDEB5C27AE
:10F1C80013F507013C2B99CB83466703971700007B
:10F1D80083C7B7FA63ECF60001E5828059E58280BF
:10F1E8008357E71803572719BA9721A08357E718B9
:10F1F80075F90145BDCF9387C71217150000035550
:10F2080065FCB3B5A70237460F0041111306062463
:10F21800814622C426C206C67D543385A70297A01C
:10F2280006E0E78000329714000083C474F5AA94BE
:10F238009717000083A7073103A707099C43335496
:10F24800E40AFDFB9717000083A787D682978147BA
:10F258006364A400B307A440B240224433B59700C6
:10F26800134515009244410182808147A5BF01459D
:10F278008280828017170000032707E33C5BFDFFAD
:10F288000100010082802DC101116C0022CC06CE44
:10F298002A8497C006E0E780E0FC05CDFD576301AE
:10F2A800F504B2479715000083C595ED63EDB700E7
:10F2B800034594026244F240B385B740056117B331
:10F2C80006E06700A31D17170000032767EFBA972A
:10F2D800C5B76244F240056117C306E0670083BD05
:10F2E800F2406244056182808280797152CC171A9B
:10F2F8000000130AAA1C26D283248A0806D622D420
:10F308004AD04ECEC5CC971700009387A73DD44F5F
:10F3180015476388E604DC532A8989CF975006E0AD
:10F32800E780A0DD975006E0E7804082971700004D
:10F3380023AC073CFD596C00268597C006E0E780A2
:10F3480060F20DE917C506E01305C5B6EFF0EFF05A
:10F358009717000083A747D53707100098C70547B8
:10F36800B8DB0D45B250225492540259F249624A10
:10F3780045618280637435013244AA898440C5FCA2
:10F38800FD571305F00FE38FF9FC914763F18702EE
:10F398009307B4FF2320F900232EFA0899E797175B
:10F3A800000083A7E7E12320F900014565BF97170F
:10F3B800000083A7E7E0ED17A297E9BF09455DB70D
:10F3C800797126D206D622D44AD04ECE52CC56CA0D
:10F3D8005AC85EC68347550303447513AA843E94EE
:10F3E8001374F40F9307400263F687001304B4FD07
:10F3F8001374F40F03A9841383A9C413A38B841271
:10F4080022864A85CE8597A006E0E78020110589E7
:10F4180015E503CBD412014A814A337B6403930B6D
:10F42800500252864A85CE8597A006E0E780000FF5
:10F4380005890DC563916A031374FA0F238B84122F
:10F44800B250225492540259F249624AD24A424B6B
:10F45800B24B45618280850A939A4A60050AE31295
:10F468007AFDE9BF8327850903560504797193D688
:10F478000701BD8EB3C60608358E93575640898B53
:10F48800135776485D8F93573640918B5D8F93570E
:10F498001640A18B5D8F93171600C18B5D8F931754
:10F4A800360093F707025D8F9317560093F707040A
:10F4B8005D8F9317760093F7F70F22D45D8F2A8418
:10F4C8009357D6001355B6001189898B935586003A
:10F4D800C98F1355F6002582C98F218AD18F1396BB
:10F4E8001500418AD18F1396350013760602D18F05
:10F4F8001396550013760604D18F1396750013766C
:10F50800F60FD18FA207C5455D8F3307B70226D204
:10F518004AD04ECE032984138329C4135AC806D669
:10F5280052CC56CA36973347070813565740098AAC
:10F5380093577748D18F13563740118AD18F135676
:10F548001740218AD18F13161700418AD18F1316BD
:10F55800370013760602D18F131657001376060468
:10F56800D18F131677001376F60FD18F1358B70083
:10F578001356D70013784800098A13558700336655
:10F5880006011358F700258333660601218B518F36
:10F5980013161500418A518F13163500137606028B
:10F5A800518F1316550013760604518F13167500E4
:10F5B8001376F60F518F2207D98FB387B7025EC62D
:10F5C800B697B3C7070813D55740098913D77748A3
:10F5D800498F13D537401189498F13D51740218991
:10F5E800498F139517004189498F13953700137573
:10F5F8000502498F1395570013750504498F139514
:10F6080077001375F50F598D13D8B70013D7D700A6
:10F6180013784800098B13D687003367070113D87E
:10F62800F700A58333670701A18BD98F131716003D
:10F63800418BD98F1317360013770702D98F131709
:10F648005600137707041E06D98F1376F60FD18F4D
:10F65800A2073367F5003307B702130650024A853D
:10F66800CE853697B98EB3C4060833F6C402137B29
:10F67800F60F97A006E0E78060EA058905E9834A66
:10F68800D412014A930B5002B38A9A02814493DA46
:10F698000A0126864A85CE8597A006E0E78000E81D
:10F6A80005890DC563914A0313FBF40F230B6413FB
:10F6B800B250225492540259F249624AD24A424BF9
:10F6C800B24B45618280050A137AFA0F8504E392EA
:10F6D80074FDE9BF797122D426D22E84AA844146CA
:10F6E80097A506E0938585210A8506D697F004E05C
:10F6F800E780C0A3414697A506E093852520080822
:10F7080097F004E0E78080A23C3010088A85DC8707
:10F718005C2026855C875C30DC86974006E0E780C5
:10F7280080FD0347F1011C200145631EF7000347D4
:10F73800E1011C3001456318F7000345D1013C2065
:10F748001D8D13351500B2502254925445618280A4
:10F75800011122CC26CA4AC84EC606CEAA8417145E
:10F768000000032424E113092500854905C09C30C5
:10F778003830858B6304F700405CCDBF194693058C
:10F7880044004A85EFE01FF5E31835FFF240228573
:10F798006244D2444249B24905618280411122C47F
:10F7A80026C24AC006C6171400000324A4DC93042A
:10F7B8002500054901E8B2402285224492440249C5
:10F7C80041018280A6851305A4022937E30525FF98
:10F7D800405CCDB7011122CC26CA06CE2AC42EC65B
:10F7E80017140000032484D8854419E001450DA0AE
:10F7F8009C841830858B6304F7000044FDB71946D4
:10F808009305A10013052400EFE0DFECE31795FE54
:10F81800F2406244D244056182800000EFF0AFA755
:10F828007300000000000000970200009382C27776
:10F838000383020023800200630F0300F3251034C2
:10F848002EC0970500009385A5FD73901534EF0031
:10F8580080617300203086DCEF00E060E650828033
:10F86800000041114AC0171900001309E982032753
:10F87800090026C206C61C5F22C4971400009384A0
:10F88800648193D76748C1C7930700061CDF171424
:10F898000000130424E5184C930700086317F700C9
:10F8A8009C409C4393F707041CCC1C4093F7070427
:10F8B80099CB9707000083A7A76F829748D81C4069
:10F8C80093F7F7FB1CC01C4093F7070299CF1C4025
:10F8D800170700000327477DB706080093F7F7FDD1
:10F8E8001CC05C5414C786077CD71C4893F70704D0
:10F8F80099EF85475CC8370702009707000083A780
:10F90800A77A98C71307000C18C81854F8D3832788
:10F918000900985F1357474805C3985F13670701A5
:10F9280098DF9707000083A7277823A20706854753
:10F93800171700002320F7DC9C40D84313571748BB
:10F9480019C7D843759BD8C3D843799BD8C3B2404D
:10F9580022449244024941018280213773002030B9
:10F9680097170000938707D83707040088DB698F4B
:10F9780011CF1707000003272773FD5634D79706C2
:10F9880000009386E67BD84E0507D8CE137785000E
:10F998000DC398479706000083A6067013671700E3
:10F9A80098C71307000898CBD856719B13671700A0
:10F9B800D8D61377150011CFD8439706000083A631
:10F9C800A66D13671700D8C3D856719B1367170025
:10F9D800D8D6137765000DC31377450059C79843E8
:10F9E8001367170098C39706000083A6E66AD856DF
:10F9F800719B13671700D8D64167698F0DC3971697
:10FA0800000083C626B2C18A17170000130707AB88
:10FA1800B5C28346870693E606022304D70637074E
:10FA28000200698F11CF984B1377070819C3054750
:10FA380098CB9707000083A727673707020098C766
:10FA4800B70708007D8D0DC117170000034797AD54
:10FA5800058B97170000938767A61DCB03C79706EA
:10FA680013672700A384E7068280D8471367170027
:10FA7800D8C795BF834687060946BD8A6388C600EE
:10FA8800834687060D46BD8AE39BC6F8914671B743
:10FA980003C79706118B69DB03C7970613678700AF
:10FAA800D1B79706000083A6266017170000130732
:10FAB80067C31C43858B91E75C43858B99E3FC52B4
:10FAC800EDFB9717000023A907C282809706000064
:10FAD8009386865C2A8788421C5D93D75748C1EB7A
:10FAE80081C51C59BD839CA115C69C42945BC60662
:10FAF80093D7660163D6060093E707C0B3C7070824
:10FB08008316060093975760A9CABE968947B3C65D
:10FB1800F60216A29707000083A70759BC4B0833C3
:10FB280093D757488DCF29C59716000083A606BDE1
:10FB380093F606049307950009459DCABA979C2336
:10FB48000547194593F6F7066394E602014593972E
:10FB5800476063DF0700394582801EA265BF2A9788
:10FB680048331375F5077D153335A00082800545A8
:10FB780082809707000083A7A75299CB944BD04B5C
:10FB88009842518F98C294439C479842D98F9CC2FF
:10FB9800170600001306465105481842970600004C
:10FBA80083A6864F971700009387C7B3631405058C
:10FBB80003A806001368080823A0060183C62702C5
:10FBC800B3C5D52054479385A50C13981649232609
:10FBD80007010F100000184237060200860510C7FB
:10FBE8001306000890CB6CD354C7970700002387EF
:10FBF800A74A828088421375F5F788C283C6270210
:10FC0800B3E5D52054479385E50E1395164948C7A3
:10FC18000F100000184237060200860510C71306A9
:10FC2800000890CB6CD354C70945C1B7411122C411
:10FC3800AA8706C626C22E85170400001304C446E8
:10FC4800B285CDEB1C40F8537DFF3707020098C7FB
:10FC58009717000023AC07A8970400009384C450AA
:10FC6800DC5085C7B7E700E03707200023A0E72866
:10FC7800B7F700E0938707D0984B6D9B98CB984BCC
:10FC88001367870398CB73005010E535970700007A
:10FC980083A7874098431317772998C3D857719B30
:10FCA800D8D79717000023A907A49717000023ADFA
:10FCB80007A21C40094798C3DC5099CB37F700E0EE
:10FCC800832707D193E787002328F7D073005010C4
:10FCD8001440171700001307E7A01C47858B91E70E
:10FCE8005C47858B99E3FC52EDFBB2402244924479
:10FCF800410182800D476390E7069717000023A70C
:10FD0800079E9717000023A5079E97040000938479
:10FD1800A445DC5085C7B7E700E03707200023A0DB
:10FD2800E728B7F700E0938707D0984B6D9B98CBEF
:10FD3800984B1367870398CB730050101D3D9707A6
:10FD4800000083A7673598431317772998C3D857B6
:10FD5800719BD8D795B70547E39CE7F6970600004F
:10FD680093868640DC5285C7B7E700E03707200056
:10FD780023A0E728B7F700E0938707D0984B6D9B3F
:10FD880098CB984B1367870398CB730050101C408F
:10FD9800D04713171649D8C70F1000001C40370763
:10FDA800020098C7130700089715000023A4E594DC
:10FDB800170700000327472E18431357774819C71A
:10FDC8001307E018F8D3D0C7DC52C5BD1307E01AF3
:10FDD800D5BF9707000083A7A72C89CFD44303A8D2
:10FDE800870098423367070198C2D447DC4B984292
:10FDF800D98F9CC205479707000083A7E729950577
:10FE08006310E50498431367070898C3984F13775E
:10FE180007C01367A71398CF13078007B8BB93973A
:10FE280035009387C703171700001307A78B1CD744
:10FE3800970700002384A72619C2060610D78280D8
:10FE4800984309451377F7F798C3984F137707C076
:10FE58001367271398CF1307F007B8BB939745008C
:10FE68009387C703C9B79707000083A7E723884785
:10FE7800D847798D01C988C79707000083A78722CB
:10FE880091C3828782808967170700000327C721EB
:10FE9800938707F47CD39706000083A6E62183A7FF
:10FEA800060993D7A74991C783A7060993D7974906
:08FEB80099E37C53EDF7828011
:10FEC0002A8309CA83830500230073007D16050376
:10FED00085056DFA82809727FB1F83A7A7E5172763
:10FEE000FB1F0327A7E401456313F7008280F62375
:10FEF00099E2D62336959C43C5BF1727FB1F1307EE
:10FF000027001C435A23411193860711E117BA9722
:10FF100085651726FB1F232FD6E01726FB1F2327F7
:10FF2000F6E006C69D051356370063F4E500130698
:10FF300000203387C6009725FB1F23ABE5DE611643
:10FF400098C2D2A2239306001CC3998FE1175EA327
:10FF5000231307004937B2409727FB1F2391A7F8C7
:10FF600041018280184183A785FF6319B7001CC136
:10FF7000FD5723AC05FE238FF5FE8280232CF6FE71
:10FF8000C5BF411122C437E400E026C20440370750
:10FF9000200006C6F98C2320E4180F10000009E9A0
:10FFA000232094101545B24022449244410182809E
:10FFB0000347E5FF9307F00F6306F7002320941033
:10FFC0001145D5B79700FB1FE78060160145232038
:10FFD0009410D1BF41114AC037E900E022C4032484
:10FFE0000900B707200006C626C27D8C2320F91819
:10FFF0000F10000089E523208910154515A0AA845B
:020000025000AC
:100000009727FB1F83C757ED2E8563F5F4008947BB
:1000100063EE9700BD37B7E700E023A087100D45DA
:10002000B2402244924402494101828083A785FF65
:1000300099E703C7E5FF9307F00F6308F7009137CF
:10004000B7E700E023A087104DBF238F95FE17254B
:10005000FB1F130565CE9700FB1FE780401EA165BF
:100060002685EFC0411801452320891055BF9727E9
:10007000FB1F23A307CC82804111B7E700E026C213
:1000800084433707200006C622C4F98C23A0E71852
:100090000F1000009727FB1F83A787E81724FB1F7B
:1000A0001304C4C091C782971C40AA971CC031A0FA
:1000B0009727FB1F83A747C9FDF70840B7470300F1
:1000C0009387D73F3305F502B7A72600938737EC10
:1000D000B2403E9508C02244B7E700E023A0971045
:1000E000924441018280411122C406C69727FB1F1A
:1000F00083A747C51724FB1F130404DE89C7829713
:100100005C48AA975CC84848B240224441018280BA
:10011000B7E700E09843B706200023A0D718758FF3
:100120000F1000009726FB1F83C616DB6370D502F5
:100130009726FB1F83A606C23325D5201621B3F5CB
:10014000B6400EA123A0E7100145828023A0E7104E
:100150000D4582807971B7E700E026D284433707E6
:10016000200006D622D44AD04ECE52CCF98C23A001
:10017000E7180F100000930705FF93F7F70F7D476F
:100180006361F70A31473307E5029727FB1F83A70F
:10019000A7BCBA979C43D1C7135445003D8933157A
:1001A000A028AE89B345050822852EC6EFB0D170D0
:1001B0002A8939C9B2452285172AFB1F130A4AD951
:1001C000813F9727FB1F83A727B882978357CA00D1
:1001D0002A8481463387370313060064B3B7370395
:1001E00013050732B335E500BE95EFB0C10EB30776
:1001F000850083268A003E8763E4A70063E4D70076
:100200003387D7402324E900B7E700E023A0971005
:100210000145B250225492540259F249624A456152
:100220008280B7E700E023A097100945DDB7797118
:1002300022D437E400E04AD003290400B7072000A5
:1002400006D626D24ECE52CC56CA5AC85EC633798E
:10025000F9002320F4180F1000009727FB1F83C715
:10026000B7C76378F500972BFB1F83ABEBAD6397A4
:100270000B00B7E700E023A0271199A0972AFB1FE6
:10028000938A0ACD03AB8A00B74736FE938707C827
:100290003E9B83D7CA002E8AAA84B385C702B2893F
:1002A0008146B3B7C70213850532B335B5001306CF
:1002B0000064BE95EFB021026370AB0223202411CD
:1002C0000145B250225492540259F249624AD24A2C
:1002D000424BB24B45618280829B83D7CA002A84FD
:1002E00013060064B38537038146B3B7370313851C
:1002F0000532B335B500BE95EFA0F17DB30785009B
:1003000003A78A003E8463E4A70063E4E700338424
:10031000E740D2852685EFB0315A01C900C5B7E75D
:1003200000E023A02711054569BF93E504F041458E
:10033000B3C505089700FB1FE78040D211E9972756
:10034000FB1F83A7E7BE95D7A6851145829715B7F2
:100350001727FB1F1307C79F1C4389EF08C3854757
:100360002326050000C52311450104A11CB1232249
:10037000050075B73E87DC47F5FF48C7CDB77971F3
:10038000B7E700E026D284433707200006D622D400
:100390004AD04ECE52CC56CA5AC85EC662C466C255
:1003A000F98C23A0E7180F10000035C12A892E8A86
:1003B000B28AB6894144B14C172BFB1F130BCB9962
:1003C000130C0003B30B940383270B00DE979C43AD
:1003D000B9EF135544409375F40056861375F50F25
:1003E000B315B028B3C50508993531C183270B0073
:1003F000DE9723A0270123A24701638409002380FD
:100400008900B7E700E023A09710014521A023A0B1
:1004100097100945B250225492540259F249624A47
:10042000D24A424BB24B224C924C45618280050429
:10043000E31A84F9B7E700E023A097102145D9BF5C
:10044000011122CC37E400E026CA04404AC84EC657
:1004500052C406CEB70720002A892E8AB289FD8CA5
:100460002320F4180F100000D933D2854A85EFB04D
:10047000B14401ED232094102145F2406244D2445E
:100480004249B249224A056182809727FB1F83D7E0
:10049000E7ACB38537032A89130600648146B3B7F6
:1004A000370313850532B335B500BE95EFA0B162B1
:1004B0002322A900232094100145C1B7011126CAA7
:1004C000B7E400E04AC803A9040022CC4EC6B7072F
:1004D000200006CE52C4AA892E843379F90023A0C5
:1004E000F4180F100000EFB0313D172AFB1F130A5C
:1004F000AA9E1DE1A2854E85213983470A006382A9
:10050000370523A024111945F2406244D2444249E0
:10051000B249224A0561828023110500A2854E85D9
:10052000C53E83470A006386370123A02411014595
:10053000E1BF1727FB1F1307C7801E23C18F1EA310
:10054000EDB79717FB1F9387C77F9A23598C82A318
:100550004DBF01114AC837E900E022CC032409004D
:10056000B707200006CE26CA4EC67D8C2320F91878
:100570000F1000009307F00263E7A704B144B3042F
:1005800095029719FB1F9389297D83A70900A697D8
:100590009C4395CB9375F5001181B315B028B3C575
:1005A0000508293F83A709000145A69723A0070056
:1005B00023A2070023208910F2406244D24442491A
:1005C000B24905618280B7E700E023A087100945A2
:1005D000E5B74111B7E700E026C2844306C622C44E
:1005E00037072000F98C23A0E7180F100000EFB0A8
:1005F000B12C19E90145B2402244B7E700E023A03D
:10060000971092444101828000459717FB1F83A7F2
:10061000A77382979727FB1F938787936367A4022B
:100620009847B74636FE938606C83305A4403697EA
:10063000E372E5FC13070064B335E502D227814677
:100640003305E502EFA031497DB798473A94C9BF19
:10065000411106C69717FB1F23A6A76E0295B2404D
:100660009727FB1F23A6A7880145410182804111DE
:10067000514681451725FB1F1305458C06C622C42C
:1006800026C29717FB1F23A5076C9717FB1F23ABE9
:10069000076A9717FB1F23A9076A9717FB1F238178
:1006A000076A9717FB1F23AB07689700FB1FE780BC
:1006B00020D11306800281451725FB1F1305C58134
:1006C0009700FB1FE780C0CFEFF03F839727FB1F0A
:1006D00093870783E82BFC3B1714FB1F1304C47F8D
:1006E00085453E958D473305F50299479714FB1FC5
:1006F0009384846639051375F50F28A03305F50238
:1007000013050524334505089700FB1FE780009576
:1007100088C035C93020994781453306F602130653
:1007200006249700FB1FE780A0C99C40382097143F
:10073000FB1F9384A461938707249CC0B347F720D1
:100740001717FB1F2328F7601D3225211C3094400A
:1007500017C601001306668E33C7D72010C3138750
:1007600017001377F70F17C601001306A686334745
:10077000D72010C313873700890718B093F7F70FF6
:10078000B3C7D72090C3B240224492444101828033
:100790009716FB1F938646742A87BC228832637D96
:1007A000F500130615009717FB1F83A7275A90B271
:1007B000B347F52098C382801305F00F82801C4157
:1007C000E5CB370700F07D8FB7060020894763121D
:1007D000D70E5A21411122C406C62A8469C7194678
:1007E0009305F00F69059700FB1FE78080D0054750
:1007F0008D47630AE50A1C4491C75858994745C775
:10080000185C55C31306C00381451715FB1F13055C
:10081000256F9700FB1FE780A0BA1306C003A285CF
:100820001715FB1F1305C56D9700FB1FE780C0B2AE
:100830009717FB1F9387C76CDA2701E71307001090
:10084000DAA7F82719E30547F8A79A2B19E36D47AC
:100850009AABF83719E31547F8B7B82B19E30547F2
:10086000B8ABB83B19E3F837B8BBD83B11C79376A0
:1008700037000983F4ABF8BBD82B19E35547D8AB45
:10088000182C01E71307C00398AF9C5791C78297B4
:100890009717FB1F2396A764FD571717FB1F230B02
:1008A000F762F1338147B24022443E8541018280A4
:1008B00089473E85828079714ECE9719FB1F9389B7
:1008C000296983A7090006D622D426D24AD052CC61
:1008D000829713090064B335250303D6C900814606
:1008E000171AFB1F130A4A5F32C633052503EFA010
:1008F000911E83248A012A8401456386840232463C
:100900003305944063EF840003A589008146B33525
:10091000A9023305A902EFA0111CB3079540338546
:100920008700232C8A00B250225492540259F24973
:10093000624A45618280011122CC0A852E8441469B
:1009400097B50100938505D306CEEFF06FD7180851
:100950003324E420035704FFF24062449717FB1F3F
:1009600083D7E75F37450F00BA9713050524335542
:10097000F502056182809717FB1F83D7475E5147B9
:100980001D45637CF702794719456378F702130721
:10099000200315456373F7021307B0041145637E06
:1009A000F700130740060D456379F7001307600948
:1009B00009456374F70013B5B70F8280411122C453
:1009C00026C22E84AA8406C6058CEFF0EFEAB32770
:1009D000A402B2402244338597001375F50F924468
:1009E00041018280411122C426C22E84AA8406C6F7
:1009F000058CEFF06FE8B327A402B24022443385A0
:100A0000970033450508924441018280411122C478
:100A100026C22E84AA8406C6058CEFF0EFE5333596
:100A2000A402B240224426959244410182804111A1
:100A30004AC01719FB1F1309A94C8327890206C650
:100A400022C426C28DCF82979714FB1F9384C4487B
:100A50009E242A848DC733F7A70A33470708B3D7E4
:100A6000A70AB3C70708B307F74051476359F70010
:100A70008327C90291C38297EF50812782A4B24095
:100A800022449244024941018280011122CC9717ED
:100A9000FB1F23A5072C1714FB1F130464465C548B
:100AA00006CEAA8581C72AC68297B245D1C59C4188
:100AB0000545BDCF9C45ADCFDE25BDCBFE25ADCBDD
:100AC0009C2981CB7C287838BA976343F506DC41B2
:100AD000A5C3130640021715FB1F130565479700B2
:100AE000FB1FE78060879717FB1F93876746984334
:100AF0009716FB1F23AAE624183C19EFCA27930771
:100B0000805737460F003305F50213060624814649
:100B10008145EFA0417C08BC183C9D4763E4E70099
:100B2000A1471CBC17050000130525D91536014542
:100B3000F2406244056182809717FB1F23AC073A9D
:100B40009717FB1F9387C7401707FB1F1307A7EBD8
:100B500098C337873200FD56130727A194C7D8C71B
:100B60009717FB1F238E073EB7C7004023A4D72645
:100B70009DBF011122CC1714FB1F130464380844D5
:100B800006CE26CA4AC801E90545F2406244D2446D
:100B90004249056182805C58E5DB185C75D77000BE
:100BA000854582971844B247E300F7FE4A2493052F
:100BB000E0041719FB1F1309293297F0FA1FE78089
:100BC000E0492320A90269D152249305F00F814402
:100BD00097F0FA1FE780C07E7C240326090263C1D8
:100BE000F402328597F0FA1FE780605401459717A9
:100BF000FB1F23A307309717FB1F23A1073071B7F3
:100C00004E241844B3879502898185043385E70013
:100C10001C5C08C28297C9B7011122CC1714FB1FB4
:100C20001304042E1C4426CA4EC656C206CE4AC819
:100C300052C45AC0AA84AE89B28A6388071A585827
:100C400039CB1307F01F6366A710171AFB1F130A8F
:100C5000AA2803290A02631209044A249565938588
:100C600015E097F0FA1FE780603F2320AA022A864A
:100C70001DC14E245C580844898182971C44032975
:100C80000A022322FA028947639EF402C1479305B0
:100C9000090C6381F9042945BDA003274A02E384B6
:100CA000E7FE4A249565938525E097F0FA1FE780D3
:100CB000E03A2A896DD14E242A865C5808448981FD
:100CC0008297D1B78D47639AF404C1479305490DC4
:100CD000E393F9FCB8219307A0056312F7069E2160
:100CE000639F97044E869105568597F0FA1FE7801B
:100CF000A06683270A02638727014A8597F0FA1FB7
:100D0000E780E0420145F2406244D2444249B249A0
:100D1000224A924A024B0561828091476397F40010
:100D20009305890EE39999F675B793070010E3943C
:100D3000F4F6A147E3E137F79305090F61BF832775
:100D40000A02E38A27F54A8597F0FA1FE780203EDA
:100D500099B71D67637FE506130705E0994633479A
:100D6000D7025624171BFB1F130B0B173307D70291
:100D7000330AF70083274B026396470103290B02CE
:100D8000631109024A249305E00497F0FA1FE780F3
:100D9000E02C2A8909D14E245C582A868981528503
:100DA000829791451307A00593F5C50FB307B900C6
:100DB000B4236399E60296236394960291054E86C6
:100DC000CA95568597F0FA1FE780005983270B02D2
:100DD0001DB7A166F916E3E0A6EC3307E54051B76D
:100DE000AC33D9B783270B02A9BF9715FB1F83A587
:100DF000A510E38205EA91479306A00593F7C70F74
:100E00003387F5003023E318D6E81223631B9600DE
:100E100091074E86BE95568597F0FA1FE780C0531E
:100E2000D5B53C33E1BF9717FB1F9387670D9847F4
:100E300021C7985F31C385466310D504411122C490
:100E40001714FB1F13044409105006C615C2CE2701
:100E5000485089810297085097F0FA1FE780202DAB
:100E60009717FB1F23AA07089717FB1F23A807083C
:100E7000B240224441018280828001114AC8171980
:100E8000FB1F1309E9074EC68329890022CC26CA15
:100E900052C406CE56C2AA842E84328A638D091AA1
:100EA0008327890399EB2945F2406244D2444249A1
:100EB000B249224A924A0561828083274903E5D7D5
:100EC0009307F01F63E0A70C9719FB1F9389C900D4
:100ED00083A7090295CF0325890083A7490263955B
:100EE000A7048947639FF404C147E31EF4FA03A5EE
:100EF00009021305050C9307A0053CA106A1228653
:100F0000D285110597F0FA1FE7800045014569BFBA
:100F10000355C9009305E00497F0FA1FE780001419
:100F200023A0A9024DF941B78355C900832749037E
:100F300003A60902898182978327890023A2F902E7
:100F40004DB78D47639AF400C147E31EF4F403A53F
:100F500009021305450D45B791476399F400E31461
:100F600094F403A509021305850E71B793070010C9
:100F7000E39BF4F2A147E3E887F203A50902130516
:100F8000050F95BF9D676373F506930705E0194745
:100F9000B3C7E7020357C900971AFB1F938ACAF326
:100FA000B387E702BE9983A70A02A1CB83A74A02AF
:100FB0006391370703A50A0291479305A00513081B
:100FC000F00F13F7C70FB306E500B0226313B606A0
:100FD00083D80600B032639C9804B307F64063C61A
:100FE000870411072286D2853A9529BF2167791790
:100FF000E36BA7EAB307F54071BF0355C90093053A
:10100000E00497F0FA1FE780600523A0AA0259FDCB
:1010100059BD8355C9008327490303A60A02898164
:101020004E85829723A23A0371B723900601B287B7
:1010300049BF3386870011061308F00B6374C8009C
:101040002D459DB5ACA213063400719A1106B297D6
:1010500086A2BCB279B79719FB1F9389E9E783A7EA
:1010600009029DCB03A5090291471308A00593052A
:10107000F00F13F7C70FB306E500B02263100605A3
:1010800083D80600B03263979800B307F640E3DADE
:1010900087F48EA2B287F1BF8347E9000355C900E8
:1010A0009305E0043305F5023345050897F0FA1F70
:1010B000E780C0FA23A0A90255F5F5B30356C9008D
:1010C0008345E900B385C502338687001106E3E94D
:1010D000C5F62381060185BF014582809C211CA1A4
:1010E000BE211CB1BE21A1833CA1DC213CB1114534
:1010F00082809717FB1F23A707C69717FB1F23A103
:1011000007C682800DCD411122C426C206C6AA841C
:101110002E84014585C12285414697A5010093850E
:10112000655897F0FA1FE78020239C2005455CA4B2
:101130009C305CB4B240224492444101828001451B
:101140008280011122CC26CA06CE8947AA84328425
:10115000639EF5006383B602414781476395E604C9
:101160008A854D3741468A8522850DA8414763927D
:10117000E504638FF600639EB6022E86A285624464
:10118000F2402685D244056117F3FA1F6700432E0B
:101190008A853285853F41468A85268597F0FA1FE4
:1011A000E780002DAA87F2406244D2443E85056163
:1011B00082808147CDBF9717FB1F23A3A7BA8280E8
:1011C0009717FB1F23A0A7BA8280011122CC6221AE
:1011D00006CE26CA4AC84EC63DC8832985002A883D
:1011E000AE8403C90900814713174960635507029C
:1011F000B147054563F6870403552800511433446D
:1012000004084E8633878900A2868545EFA0E00E4C
:10121000B337A0008507135569487D141379F90386
:10122000334404089CA088B023812401C2A0014754
:1012300019C01387190098C409476383E700014563
:10124000F2406244D2444249B24905618280054578
:10125000C5BFC167F917630AF502D94763F7B7023B
:10126000011122CC2EC606CE2A84EF70701AB24528
:101270006368B50022856244F24005616F90400BBF
:10128000F240624405450561828005458280C16760
:10129000F9176314F5006F70B017411106C6EF809F
:1012A000D07811E15D45B240410182809147639D54
:1012B000F5001C211CA23C211831A207D98F3EA2A7
:1012C0003C3101455CA282801145828041118145FB
:1012D00022C426C206C6AA849D232A8409E9971738
:1012E000FB1F83A7E7A781C7F94526858297B240F0
:1012F0002285224492444101828039714ED652D4D3
:101300005AD05ECE06DE22DC26DA4AD856D22A8AA7
:101310002E8BB289B68B0DE79D3F9145EF70701D06
:101320002A844D49854A19EDF2506254D254B2597B
:10133000225A925A025BF24B4A85425921618280BD
:101340003A84814A230034018544630A0B00DE8518
:1013500013051400029B93041500B3C40408939969
:10136000496063D30902C1455285EF809079654990
:1013700015E533069400A6852285EF90F03D2A8975
:1013800011EDB104B3C4040891472C0052857C844C
:1013900022C66485EF80B0112A8959D5E3860AF800
:1013A000228597F0FA1FE78080D8BDBF011122CCBB
:1013B00026CA4AC84EC606CE2A893284B689353F27
:1013C000AA840DE19717FB1F83A7C79981CF054713
:1013D0006317E40003C4090005041374F40FA28525
:1013E0004A858297F24062444249B2492685D244F6
:1013F00005618280AE86014705469705000093850A
:1014000025CE6DB79E211CA19E21A1831CB109454B
:1014100082809E211CA19E21A1831CB1BE213CA1E2
:10142000BE21A1833CB1114582809E211CA19E2139
:10143000A1831CB1BE213CA1BE21A1833CB1DC3102
:101440005CA1FC215CB18A25190533450508828021
:101450009E211CA19E21A1831CB1094582809E2151
:101460001CA19E21A1831CB1BE213CA1BE21A18350
:101470003CB111458280CA210605334505088280AA
:101480009E211CA19E21A1831CB1AA2109053345DF
:10149000050882809E211CA19E21A1831CB1BE2132
:1014A0003CA1BE21A1833CB1CA21110533450508E9
:1014B00082809C211CA1054582809E21411122C46D
:1014C00006C61CA19E212E841105A183A30EF5FE44
:1014D000BE219505230FF5FE83D7D5FFA183A30F6A
:1014E000F5FE03C6F5FF97F0FA1FE780E0E6482017
:1014F000B240224411054101828089476399F50079
:101500001C3118210145A207D98F1EA282801145E6
:1015100082809A21011106CE22CC2EC6D94763F4CF
:10152000E7022A84EF70C06EB2469E22636DF5001A
:1015300022856244F24001470946970500009385E1
:10154000A5EC05615DBBF2406244094505618280FE
:10155000AA87A9C11421FD150547B3C505086398DD
:10156000E60013D725008D89114589CD8280094772
:1015700011456392E602494533D7A502B3F5A502AA
:10158000114591E9114501CB850734A21AA25CC22D
:101590000145828011458280AE860147114697053C
:1015A0000000938545E791BB13F73500AA8701EB4F
:1015B0008981114591C50EA25CC201458280114509
:1015C0008280D8218947631BF702011122CC2A842B
:1015D000C84506CEAE8601C92EC69D4597F0FA1FB6
:1015E000E78060C2B2462A8722856244F2401946EB
:1015F000970500009385A5E3056101B30945828045
:1016000099E1114582801C2105473EA2E37BF7FE4C
:10161000FD1593F5F50F33D7F502B387E702E39293
:10162000F5FE050548C21AA201458280DC21094762
:10163000AE866385E70041476399E700014721468D
:10164000970500009385A5E74DB9094582800EA254
:1016500091E1014548C201458280AE860147294695
:1016600097050000938505DF49B90EA291E1014578
:1016700048C201458280AE86014731469705000089
:10168000938525DE9DB90EA291E1014548C2014531
:101690008280DA21854763FFE702011122CC2A8488
:1016A000884106CE2EC615C1854597F0FA1FE78002
:1016B00080B52A8722856244B246F24039469705B2
:1016C0000000938585DB05610DB9F2406244094550
:1016D0000561828009458280AA878DC518218D46C3
:1016E000114563F2E602FD15B3C50508B3C6E50270
:1016F0003308D70263990501850716A23AA25CC296
:101700000145828011458280DC210947AE866385D0
:10171000E70041476399E70001474146970500000C
:101720009385E5D9D9BE094582803335B0000A05D5
:101730008280011122CC26CA06CE98258547AA842C
:101740002E844946631FF70099363E20491513063B
:10175000200963C8A700F2406244D24409450561EC
:101760008280183485476314F700136606044840E6
:1017700001C98D4532C697F0FA1FE780C0A83246EE
:10178000A2866244F2402A872685D244970500004B
:10179000938545CF056195B68D4763F7B7021C3138
:1017A0001821F115A207D98F1EA23C313821B3C5EB
:1017B0000508A207D98F014799C1130745003EA22A
:1017C0004EA218C60145828011458280011122CCAB
:1017D0002A84884506CEAE8601C92EC6954597F067
:1017E000FA1FE78040A2B2462A8722856244F2406F
:1017F000594697050000938525CA0561FDBC333520
:10180000B0000A058280AE86014761469705000058
:10181000938565CADDB48547114563F1D7021C3253
:101820000C220945A207CD8F81456384A60093054C
:101830002600F9161EA336A34CC30145828001473A
:1018400081467946814555BC9E211CA19E21A183DC
:101850001CB109458280BC2105471CA18A216397E0
:10186000E7000A050505334505088280C9473305A9
:10187000F502CDBF8A210A05334505088280BE21C5
:101880001CA18A21BE213305F50205053345050853
:1018900082808A2182808A2182808A218280BE2160
:1018A0001CA18A21BE213305F50205053345050833
:1018B00082809E211CA19E21A1831CB1BE213CA13E
:1018C000BE21A1833CB1CA211105334505088280A0
:1018D0009E211CA19E21A1831CB1AA21090533458B
:1018E00005088280894711456398F6001C3214224E
:1018F0000145A207D58F1EA382809A21D947AE86C3
:1019000063F9E70001470D4697050000938505F44C
:1019100071BC094582801145639DA6001C321422CA
:101920000145A207D58F1EA33C323422A207D58FD2
:101930003EA38280BC210547FD1793F7F70F636133
:10194000F7049E2195CF011122CC2A84C84106CEEE
:101950002EC615C1894597F0FA1FE780C08A2A87ED
:1019600022856244B246F2401546970500009385F1
:10197000C5EE056125BCF2406244094505618280DF
:1019800009458280954763F0D706411122C426C2DB
:101990004AC006C61C323A841822A207B284D98FE4
:1019A0001EA03C32382293854400A207D98F3EA066
:1019B00089475CA0094613055400368997F0FA1F41
:1019C000E7808099194781476304E90093876400A1
:1019D000691923142401B2405CC422449244024990
:1019E000014541018280114582809E2195CF0111E0
:1019F00022CC2A84C84106CE2EC615C1854597F053
:101A0000FA1FE78040802A8722856244B246F2406E
:101A10001D4697050000938525E6056141BAF24011
:101A20006244094505618280094582809947B285F3
:101A30006388F600D147114541466384F6008280F1
:101A40000946411106C650A39C3194211305570045
:101A5000A207D58F1EA3BC31B4219105A207D58F53
:101A60003EA397F0FA1FE780208FB2400145410165
:101A700082809E219DCF011122CC2A84C84106CEAE
:101A80002EC61DC1894597E0FA1FE780C0772A87D7
:101A900022856244B246F2402546970500009385B0
:101AA00045DE05616FF09F90F24062440945056193
:101AB000828009458280894711456398F6001C326F
:101AC00014220145A207D58F1EA38280011122CCCA
:101AD0002A84C84106CEAE8601C92EC6854597E048
:101AE000FA1FE7804072B2462A8722856244F2409C
:101AF0002D4697050000938505DA05616FF01F8B71
:101B000019BD011122CC2A84C84106CEAE8601C976
:101B10002EC6854597E0FA1FE780E06EB2462A8719
:101B200022856244F2403546970500009385E5D64C
:101B300005616FF0BF8793F71600114581EB894768
:101B40006386F600858256A310C301458280011189
:101B500022CC2A84C84106CE2EC61DC1854597E0F9
:101B6000FA1FE780406A2A8722856244B246F24023
:101B70003D4697050000938585D205616FF01F8370
:101B8000F24062440945056182809E219DCF01118A
:101B900022CC2A84C84106CE2EC61DC1894597E0B5
:101BA000FA1FE78040662A8722856244B246F240E7
:101BB0004546970500009385C5CE05616FF00FFF80
:101BC000F24062440945056182800945828085476B
:101BD00063F4D70208A70CB71C320C220945A207F0
:101BE000CD8F81456384A60093052600F9161EA3B8
:101BF00036A34CC30145828011458280014781464E
:101C00004D4681456FF08FFA8D47114563F5D70238
:101C10001C320C22A207CD8F1EA33C322C22A2071D
:101C2000CD8F81456384A60093054600F1163EA33F
:101C300056A30CC701458280011122CC2A84884515
:101C400006CEAE8601C92EC6954597E0FA1FE780FD
:101C5000805BB2462A8722856244F2405D46970542
:101C60000000938545C505616FF04FF48547114528
:101C70006395F6001C2201451CA382800147814622
:101C8000654681456FF08FF2011122CC2A84C8414C
:101C900006CEAE8601C92EC68D4597E0FA1FE780B5
:101CA0008056B2462A8722856244F2406D469705E7
:101CB0000000938525C205616FF02FE4011122CC4D
:101CC0002A84C84106CEAE8601C92EC68D4597E04E
:101CD000FA1FE7804053B2462A8722856244F240C9
:101CE0007546970500009385E5BE05616FF0EFE04E
:101CF000011106CE2EC6EF80604F19C5B245F240E5
:101D00002A2105616FC0802FF2404945056182801C
:101D10009707FB1FA38E07069707FB1F238A07065B
:101D20009707FB1F23A407069707FB1F23AE070493
:101D30009707FB1F23A807049707FB1F23A207048D
:101D40009707FB1F23A407029707FB1F23AE07007B
:101D50009707FB1F938707223706840390D3370723
:101D6000B40037C6070098C3130606B83747A0006B
:101D7000D8C3D0D33707100041669306070AB705CA
:101D800050009308060194C723A417039386050106
:101D9000930816F8D4C723A61703B706D007B708C9
:101DA0007F001308070513850601410723A81703C1
:101DB000B0C3930816009386060513861500D8CB8A
:101DC000F8C323A8070188CF23AE070023AA17036F
:101DD00023AC070223AE070223A40704F0C7B4CB49
:101DE00023AA0704ACCF23AE0705B8D33707A0005A
:101DF000F8D71307000AB8DB1307C01CF8DBE8D3D9
:101E000023A40706930710F81707FB1F2324F71EC8
:101E10008280011152C42A8A214522CC26CA4AC88E
:101E20004EC606CE2E84B2893689BA8497E0FA1F50
:101E3000E780804205C9930700FD1CA19947A300D4
:101E400045013CA12303250164B123123501AA8574
:101E500022856244F240D2444249B249224A056195
:101E60006FE04F97F2406244D2444249B249224A5D
:101E7000056182809707FB1F23A6A7F08280970742
:101E8000FB1F23AFA7EE8280011122CC26CA4AC8CD
:101E900006CE4EC62A89AE840144B309890063691F
:101EA0009400F2406244D2444249B24905618280C2
:101EB000EFE08F9CB3470508A1832380F9009307C7
:101EC000140093F7F70F850963F89700CA97090480
:101ED00088A31374F40FD1B73E84D1B7411122C443
:101EE0001704FB1F130444116A20C16706C6FD17BF
:101EF000630EF5001706FB1F034686309705FB1F90
:101F0000938505E7EF80E010FD577EA0B2402244A4
:101F10004101828009C925151375F50F1335850E0A
:101F20001345150082800145828023900500C9C2B7
:101F3000797122D426D252CC56CA5AC806D64AD073
:101F40004ECE5EC62A8B2E8AB28A3684814463FFC7
:101F50005405B307940083C907001389140033495B
:101F6000090863850904B387290163C1FA04B3072B
:101F7000240183CB07005E85713F0DC99387F9FF6C
:101F80002310FA0063906B03050933052401B25056
:101F9000225492540259F249624AD24A424BB24BFD
:101FA00045618280CE94B3C4040855B70145C5B7D6
:101FB00001458280011122CC26CA4AC84EC606CEEF
:101FC0009704FB1F938444032E89D0C88CC8C8C4CF
:101FD0002A8441469305F00F4A8597E0FA1FE7806F
:101FE00040518549631935038848C145713D4146D3
:101FF0009305F00F228597E0FA1FE780804F05498F
:10200000631525036244C844F240D2444249B249B0
:10201000C145056195BD414681454A8597E0FA1F56
:10202000E780204DE31535FDC1B741468145228546
:1020300097E0FA1FE780E04BE30625FDF24062449B
:10204000D2444249B24905618280411122C426C26C
:102050002E84AA841306000281451705FB1F130571
:10206000A5F906C64AC097E0FA1FE7806035170950
:10207000FB1F130969F89707FB1F23858718A30126
:102080009900EFB0F079854719C181474945230090
:10209000F900B240224492440249410182809DC924
:1020A0001DC985476318F500DC3193E707FCDCB1F7
:1020B0000545828089476316F500DC3193F7F70305
:1020C000FDB78D47E316F5FEDC3193F7F70393E791
:1020D0000704F1BF014582808DC10DC1DC311307BA
:1020E000000C054593F7070C638AE700130700040B
:1020F00009456395E7000D458280014582804111C5
:1021000022C4005D06C626C21DC8AA84085009C59F
:1021100097E0FA1FE780A001485009C597E0FA1F31
:10212000E780E000085409C597E0FA1FE780200027
:10213000228597E0FA1FE78080FF23AC0402B240BB
:10214000224492444101828019ED9707FB1F83C707
:10215000C7EA1705FB1F1305A5EB91CB1705FB1F5E
:10216000130585C182801705FB1F130565EA828070
:102170001705FB1F034565E882801705FB1F032534
:1021800065E882801705FB1F032505E88280970715
:10219000FB1F83A7A7E7884382801707FB1F13074E
:1021A000A7E5544B9C4285079CC228339307F00F48
:1021B0006305F50091656FA001038280011122CCB7
:1021C00006CE2E8432C6EF8060129147B245631E60
:1021D000F5009707FB1F83A7A7BA99CF9C4389CF28
:1021E00022856244F240056182879707FB1F83A71F
:1021F000A7B999C3DC43E5B7F240624405450561E0
:102200008280797122D42A844A214ECE06D626D2E3
:102210004AD0EFA0C1139709FB1F938969B729E939
:1022200083C409009307F00F639DF4009705FB1F1B
:1022300083C515B626856D3C09E59707FB1F2389E5
:1022400007B44A20EF80800A9147631CF500970786
:10225000FB1F938767DA5620FA236394E6007D57C5
:10226000FAA3B250225492540259F2494561828035
:10227000582504212A893AC659354A85EF804044B9
:102280004A20EF80200283C70900324799C3E38FB9
:1022900097F89307F00F5220E385F4FA7420282072
:1022A000A685853E79BF79715AC82A8B2E854ECE78
:1022B00052CC56CA06D622D426D24AD05EC62E8A20
:1022C000B28AB689EFA0A10875C5045D2A89FDC050
:1022D0009C501305400391E361459C5489C79307C3
:1022E000450133C50708638609009307C50133C557
:1022F0000708DC5089C79307750133C5070897E0C5
:10230000FA1FE78060F52A8455C56146814597E04C
:10231000FA1FE780E00A970BFB1F83CBABC86394DF
:102320000B00834B0900930700FD1CA0A947A300E5
:1023300064013CA0230354018C5023124401130573
:10234000840191C908C47146130A440397E0FA1F37
:10235000E780800052858C5491C948C45146130AC5
:10236000450197E0FA1FE78020FF5285638C090042
:1023700008C87146CE85130AC50197E0FA1FE780A9
:10238000A0FD5285CC5099C548C85D4697E0FA1F1C
:10239000E78080FCA2855E85EFD0DFC32254B25077
:1023A0009254F249624AD24A424BB24B4A85025990
:1023B0004561B1B3B250225492540259F249624A73
:1023C000D24A424BB24B4561828001114EC6AA8966
:1023D0002E8526CA06CE22CC4AC8AE84EF9031772D
:1023E00021C91709FB1F0349E9BB6314090003490D
:1023F0000500194597E0FA1FE78000E62A840DC919
:102400008145194697E0FA1FE78080FB930700FD9E
:102410001CA0B947A30034013CA046A0A285624499
:10242000F240D244B2494A85424905616FD09FBA11
:10243000F2406244D2444249B249056182807971D6
:1024400062C42A8C2E8526D24ECE52CC56CA5AC889
:102450005EC606D622D44AD0AE84B28B368BBA8AF8
:102460003E8AC289EF90B16E35C52A89414597E011
:10247000FA1FE78060DE2A8431CD4146814597E02E
:10248000FA1FE780E0F31705FB1F0345A5B119E12B
:1024900003450900930700FD1CA0BD47A30084016C
:1024A0003CA023047401A304640123055401A30583
:1024B000440146A023263401A2852254B2509254EE
:1024C0000259F249624AD24A424BB24B224C456110
:1024D0006FD05FB0B250225492540259F249624A0E
:1024E000D24A424BB24B224C45618280011126CA2E
:1024F000AA8439454AC84EC652C406CE22CC2E8A7A
:10250000B289368997E0FA1FE78000D515CD930789
:10251000000D1EA1B1472A84231245013CA1CE859E
:102520001905194697E0FA1FE78000E32306240106
:10253000A2856244F2404249B249224A13F5F40F9F
:10254000D24405616FD01FA9F2406244D24442498F
:10255000B249224A05618280411126C206C622C4C0
:102560004AC09704FB1F938424A9B8309307F00F47
:102570006308F7042A89394597E0FA1FE780C0CD40
:102580002A841DCD930700FD1CA1A3002501230172
:1025900005009705FB1F9385A5A70D05194697E034
:1025A000FA1FE78060DB9E24A285A8303EA49C3001
:1025B0005CA42244B2409244024941016FD09FA1E1
:1025C000B24022449244024941018280011156C224
:1025D000AA8A314526CA4AC84EC652C406CE22CC63
:1025E0005AC0AE84328AB6893A8997E0FA1FE780EA
:1025F000A0C63DC92A842685EF90715509C5582586
:10260000A1476311F704170BFB1F034B1B9F930795
:1026100000FD1CA09D47A30054013CA046A023132D
:1026200044012314340123152401A2856244F2409D
:10263000D2444249B249224A924A5A85024B056124
:102640006FD05F99170BFB1F034BDBBBE3910AFCB9
:102650009707FB1F83A707859C47D5DBCA864E8655
:10266000D2852685829765B7F2406244D2444249BA
:10267000B249224A924A024B05618280411126C228
:10268000AA84214522C406C62E8497E0FA1FE7805B
:10269000A0BC15C5930700FD1CA1C5473CA13C305B
:1026A000AA853CB15E205EA17C207CA17C307CB1FF
:1026B0002244B2402685924441016FD0BF91B2407E
:1026C000224492444101828001114AC82A8961450D
:1026D00026CA4EC606CE22CCAE89B28497E0FA1F37
:1026E000E78080B725C1930700FD1CA1BC302A8478
:1026F000938584001CB195473CA1FC301105194617
:10270000A30FF5FE97E0FA1FE78000C5DE20230641
:102710003401A2853EA4BE2C4A857EA4DE2C1EA8D0
:10272000FE2C3EA883C704025CA883C714025CB8D1
:10273000BE30F240D2447EA862444249B2490561AB
:102740006FD05F89F2406244D2444249B249056188
:102750008280411122C406C61704FB1F1304C489DA
:102760003C209DCBAA85194617F5FA1F1305C560B5
:1027700097E0FA1FE78040BE282097F5FA1F93855F
:10278000A55FEFF0DF912244B24017F5FA1F130561
:10279000A55E41016FB09009B2402244014541015C
:1027A0008280411126C206C622C44AC09704FB1F7C
:1027B00093848484B8309307F00F6302F7042A8966
:1027C000294597E0FA1FE78020A92A840DC99307BD
:1027D00000FD1CA1A147A30025013CA1BC2097F549
:1027E000FA1F938565591105A30FF5FE194697E069
:1027F000FA1FE78060B6A830A285EFD0AFFDB82001
:102800008D47631FF70097F7FA1F83A7A75789CB58
:102810009C4799C72244B2409244024941018287B1
:10282000B24022449244024941018280797122D40B
:1028300006D626D24AD04ECE52CC56CA09445DC9DD
:102840002A890A212E8A5144EF907130AA845DC1F1
:10285000970AFB1F938ACA9A83C74A0005474944CF
:10286000FD1793F7F70F6377F7085825A14763140F
:10287000F70063110A089C5C4544ADEF91659385B0
:1028800045711305C00297D0FA1FE780207D88DCD0
:10289000AA894D4425C11306C002814597E0FA1F5D
:1028A000E78000B28357090093864900368523915B
:1028B000F90071469305490036C697E0FA1FE78094
:1028C000A0A989472380F900DC24B24603560900F9
:1028D00083C50A00E11713B51700EF80D0152A84CD
:1028E00063060A00D2852685EF80A00B01C42685E9
:1028F000EFF0FF80B2502285225492540259F249DF
:10290000624AD24A456182809707FB1F83C7878F3F
:10291000FD1793F7F70F05476375F70801114AC8CC
:1029200006CE22CC26CA4EC652C43289894739CE39
:102930002A8AAE893684EF909121AA84D14739C57D
:10294000485509C597D0FA1FE780607EF1454A8552
:1029500097E0FA1FE780E0ACC8D4AA85CD471DC533
:10296000D824A147631DF70209C8382D1229930600
:1029700025015285EF8040092A84D82093674700BB
:102980006384090093676700DCA0A287F240624479
:10299000D2444249B249224A3E85056182800144BF
:1029A000E9BFC9473E8582809307000463EAA70018
:1029B00097F7FA1F9387075C3325F5200A21828059
:1029C00041657D158280011122CC2A842E8526CA7C
:1029D00006CEAE84EF90B1170DCDB7470F009387A9
:1029E000F723094563E2870281450A85414697E05E
:1029F000FA1FE780E09CA68560800A8541804081BF
:102A0000A3010100EF806063F2406244D24405619B
:102A100082804945D5BF97F7FA1F2384A77E82801D
:102A20006F80C07B797152CC2A8A328526D24AD0F7
:102A30004ECE56CA5AC85EC662C406D622D42E8C62
:102A4000B28A368BBA8B3E89C289C684EF90311028
:102A500005C92A84631A0A1893774B00034345007B
:102A600085CF1363230163940B1663100914639FCE
:102A7000090885E81C5C1373B3FF23026400C5EBEF
:102A8000B250225492540259F249624AD24A424BFD
:102A9000B24B224C456182801373D3FF1363030151
:102AA000D9B713634300230264009C484146A685BE
:102AB0001CD41305840197E0FA1FE780E0896313B3
:102AC0000C12638C0B0A485409C597D0FA1FE78093
:102AD0000066F1455E8597E0FA1FE780809448D450
:102AE000005C59DC1C5091EB916593853571714503
:102AF00097D0FA1FE780805608D008500DC1714664
:102B0000DE8597E0FA1FE780208511A81363430054
:102B100023026400D9F8005C630C0C0235D0639A80
:102B20000902A5E029A0005C21DC6394090222547B
:102B3000B2509254F249B24B224CCA865A8602597C
:102B4000424BD6855285D24A624A45616FF0AFF555
:102B500005D85C5091EB9165938525715D4597D0C3
:102B6000FA1FE780A04F48D0485045DD5D46CE852E
:102B700097D0FA1FE780407E6DB7005C11D0E39AD2
:102B800009FC1C5491EB916593851571514597D0C3
:102B9000FA1FE780A04C08D4085451D95146A685A5
:102BA00097D0FA1FE780407B59B713634300230295
:102BB0006400E39C04EEE3080CF6485405EDF1458F
:102BC0004A8597E0FA1FE780C08548D431A813638F
:102BD000430023026400E39A04ECE3060CEEE31ED8
:102BE00009FCFDBDE31B09FC005CE30B04E8E39B6F
:102BF0000BEE35B797D0FA1FE7806053C9B70111C4
:102C000026CA52C406CE22CC4AC84EC62A8AAE84F0
:102C1000EF90E17335C12A89394597D0FA1FE780D3
:102C2000A0632A8431C997F9FA1F83C9A93763942D
:102C30000900834909009307000D1EA0AD473CA081
:102C40009305690013053400194697D0FA1FE780F1
:102C5000A07093F714005CA493D4144844B42315D3
:102C60004401A2856244F240D2444249224A4E8540
:102C7000B24905616FD00FB6F2406244D244424976
:102C8000B249224A0561828001114EC652C456C221
:102C900006CE22CC26CA4AC8AA8A2E8AB289EF90CA
:102CA000016B35CDAA841305C00297D0FA1FE780C7
:102CB000A05A2A842DC517F9FA1F0349A92E6314B7
:102CC000090003C904009307000D1EA0E9473CA0BA
:102CD0009385640013053400194697D0FA1FE780E6
:102CE000A067D285231554011305C400414697D02F
:102CF000FA1FE7806066CE851305C401414697D070
:102D0000FA1FE7806065A2856244F240D244B2496E
:102D1000224A924A4A85424905616FD0AFABF240E0
:102D20006244D2444249B249224A924A05618280B1
:102D300017F5FA1F0325450311CD411106C697D09B
:102D4000FA1FE780C03EB24097F7FA1F23AE070094
:102D5000410182808280411122C406C626C24AC037
:102D60002E84EF90C15E29CD00D517F9FA1F0349D3
:102D70006923AA846314090003490500414597D0DB
:102D8000FA1FE780604D2A8405CD9307000D1EA130
:102D9000A5473CA1DC30938564001105A30FF5FE27
:102DA000194697D0FA1FE780205B9C54A285B24059
:102DB0005CC4224492444A85024941016FD08FA1EC
:102DC000B240224492440249410182805D71A2C412
:102DD000A6C286C6AA842E84EF9061570DC95425D9
:102DE0001147AA874945639FE6009C5F91C3E02B8A
:102DF000979600009386E6300A86894526854080AE
:102E0000EF703031B640264496446161828051456E
:102E1000D5BF97F7FA1F83C7E73EFD1793F7F70F64
:102E200005476378F704411126C206C622C44AC08A
:102E3000B284894705CA2E89EF9061512A84D1470F
:102E400015C1630609005C2193E727005CA1414698
:102E5000A6851305840197D0FA1FE780E04F9C48B0
:102E60001CD48147B2402244924402493E8541012C
:102E70008280C9473E858280011122CC26CA06CEB7
:102E80002A84AE84EF90A14C19C96C002285448637
:102E9000EF70D02DF2406244D244056182805145EA
:102EA000D5BF6F70E039C1671387E7FF6393E50211
:102EB00097F7FA1F83A747ED91EB49458280494573
:102EC000B240224492440249410182809C43F5D79A
:102ED0008287411122C426C24AC006C6FD172A892C
:102EE0002E84B284639AF50297F7FA1F83A7C7E985
:102EF00089C79C4399C3829711C5A6854A85EFE08F
:102F00003FDF5DFD97F7FA1F238427E997F7FA1F44
:102F1000A38097E801456DB72E85EF90414345D1D9
:102F20001C210D45E39E27F922852244B240024927
:102F3000A685924441016FB0600C9307000463E1E1
:102F4000A7064111C16722C426C206C6FD172A84FE
:102F5000AE8409456380F502C5476312F4022E85ED
:102F6000EFB0201197F7FA1F9387C7003324F4209E
:102F7000014506A0B2402244924441018280930759
:102F8000A0036316F4002E85EFB00008E1BF93079D
:102F9000B003E319F4FC13F5F50FEFB02007D9B730
:102FA00009458280011106CE2AC6EFE07FD6EF10D8
:102FB0008011EF709156324597F7FA1F9387C70338
:102FC000130700F0BAA3238207007D5797F7FA1F73
:102FD00093870723B8A388A3F240954505616F50F6
:102FE000704C757126C306C722C54AC1CEDED2DC3D
:102FF000D6DADAD8DED6E2D4E6D2EAD0EECEAE84A5
:103000009397556063D1075617FAFA1F130A4A1FA0
:1030100003450A00130B200A930BF00F97D0FA1FF9
:10302000E7808029C167FD172A84130C1009954C8D
:10303000394D97FDFA1F938D2DFC3ECC15E013956D
:10304000F468BA402A449A440A49F659665AD65A4C
:10305000465BB65B265C965C065DF64D49618280F8
:103060001C20639A670103C93D00E2452A2022869D
:10307000EFF0CF94E1A003492A00639A87091C303E
:10308000639097032285EFF0CF972285EFC07FEF03
:1030900003450A0097D0FA1FE78000222A8479BFEF
:1030A000639BA7194A208567A507631AF5040C449A
:1030B00097F9FA1F938949F4882115E51946850582
:1030C00017F5FA1F1305C5F497D0FA1FE780C0283B
:1030D00003C709008547631CF70289472380F9006D
:1030E000EFA090745DB703C7090085476311F7022D
:1030F00097F7FA1F238207F0EFF00FC679B7096739
:103100009307C70063EFA7040507636BA702E30EED
:1031100079F7A2854A85EFC0FFEB9DBF37070018FE
:103120001307F770B357F748E5CB97F7FA1F83A754
:1031300067C5A1DF9C43B1DB2285829739F5C1BF0A
:10314000F977F917AA972947B3C707086366F70CF9
:103150001787010013070756B3C7E7209C43BA97A8
:103160008287F9779387A7FCAA97F146B3C7070828
:10317000E3F6F6FA3907E31CE5F897F7FA1F83A799
:10318000A7C0E38407F0DC43E38107F00965A2856B
:103190003905A5A883298400E38B09F603C7090034
:1031A00097F7FA1F938747E519EB03C7290083C6F2
:1031B00019002207558F9AA703C7390098B39423A3
:1031C0000947E396E6F403C7090001CB97F7FA1F16
:1031D000238407E203C5090005B78C338A270D470E
:1031E00098A3EF50D02EFDB71C448823EFF06FDB7F
:1031F00069BD97F7FA1F83A767B9E38807E89C437F
:10320000E38507E80965A2852D05829705BF1C4463
:103210009C23E39E07EE95BD896793871704E31807
:10322000F5EE97F7FA1F83A767B6E38007E69C439E
:10323000A285E1FF99BD3D476394E7064A2089676F
:103240001387D7006306E50013879701631AE5002B
:1032500097F7FA1F83A747B3E38907E2DC43C9BFA7
:10326000CD07E316F5EAC16717F7FA1F035727D909
:10327000FD17631FF70097F7FA1F83A7E7B0E386F0
:1032800007E0DC43E38307E00965A2854D05B5BF90
:1032900097F7FA1F83A7C7AEE38907DE9C43DDB724
:1032A0001307E003E395E7E63C2005476398E71240
:1032B0007C2097FAFA1F938A2AAB6390071083A7A2
:1032C0000A006387070E83C9070021496830930706
:1032D0008400BE853ECEEFE03FE068B013064002BA
:1032E0008145681097D0FA1FE780800D3C30194661
:1032F00093058400A307F1027C304818A309F1026A
:1033000097D0FA1FE78040055E207010CA85231809
:10331000F1027E244E852313F1041E282314F104A8
:103320003E282315F1045C282306F104FD57A3066B
:10333000F1042317F104EFF02FB93C309DE3DD4792
:10334000835804010358E40074304E203EC23E28E6
:10335000130784003EC0CA8705464E85EF70800F74
:1033600028B083A70A0081C71145EFF07F9C97F929
:10337000FA1F9389E9A103C50900E30805D097F571
:10338000FA1F83C5F5A0EFE0BF96E30005D0343007
:10339000930710036389F600522083C509004A870A
:1033A0003685EFE01FA797F7FA1F2383079EF1B931
:1033B00097F9FA1F83C979C409BF97F7FA1F83A742
:1033C000679C97F9FA1F83C959C399C3DC4399E3F2
:1033D0001149EDBD814501458297DDBFCD4663E3CF
:1033E000F602E376F7D2F91793F7F70F4547E36054
:1033F000F7D2178701001307A72EB3C7E7209C4316
:10340000BA97828713079002E393E7D07C2097FA5C
:10341000FA1F938A6A95A9EB83A70A00A9C383C9F7
:1034200007002149683093772500A5C30589130754
:10343000440168B02286CA854E853ACEEFF0CFA807
:103440003C30724799FFDD478358C4010358A401FB
:1034500074304E203EC27E2C3EC0CA87F5BD97F91F
:10346000FA1F83C999B975BF97F7FA1F83A7879188
:1034700097F9FA1F83C979B899C3DC4399E31149D5
:1034800055B7814501458297DDBF13078400BA8592
:103490003ACEEFE07FC4724769BF97F7FA1F83A760
:1034A000E78EE38407BEDC43E38107BE2285829773
:1034B000E9BE97F7FA1F83A7678DE38807BC9C478F
:1034C000E5B722868D454A2065B69305A10213050E
:1034D0001031EF70710C6C1013052031EF70D10BAF
:1034E00072208357C1024A2063E7C700162403579E
:1034F000A10263F7E60093050002EFA0903671B6D3
:103500006373E6007AA063F3D7001EA45A2436241E
:1035100012246E2001488147EFA07034BDB6228688
:10352000B14555B797F7FA1F83A74786E38F07B4CE
:10353000DC479DBF97F7FA1F83A7C784E38907BCC1
:10354000DC43E38607BC814505458297C9B697F7FA
:10355000FA1F83A72783E38C07BADC43E38907BA02
:10356000A2850945DDB793F7150089CF97F7FA1FB4
:1035700083A7C78189C7DC4399C30145829713C5D7
:103580001400C1B493F7250091CF97E7FA1F83A7E2
:10359000677F91C7DC4381C781450545829713C585
:1035A000240045B413F54500E30D05A897E7FA1F7D
:1035B00083A7C77B17F4FA1F130404A489CF854798
:1035C0005CA097E7FA1F83A7E77B91C7DC4381C71D
:1035D00081450545829748446C10EF709012681041
:1035E000EFF02F9797F7FA1F83D7E79A81CF13064B
:1035F00000643386C702914517F5FA1F034545C09D
:10360000EFC0FFC213C544002DBC17E5FA1F032508
:10361000E57511CD411106C697D0FA1FE78020B19C
:10362000B24097E7FA1F23A307744101828082808A
:10363000011122CC06CE26CA0D472E846315E5045F
:10364000B831E947CA2197F4FA1F9384E49A6315C5
:10365000F700FE206385A704EF80714F722011C12F
:1036600072A53A2416244E202830EFE03FF65A2067
:10367000FE206314F700FD57FEA00545F2406244AA
:10368000D2440561828009674D07AA87631CE50063
:10369000BC2131476385E7004547E390E7FEEFE053
:1036A000FF83E1BF31476319E50017F5FA1F0345B2
:1036B00075B5EFE0BFFCD1B741677D170145E39FCA
:1036C000E7FAD831C947E31BF7FACC212A203000AA
:1036D00023140100EF6050104DB71971A2DC17E4FC
:1036E000FA1F1304A4681C4086DEA6DACAD8CED618
:1036F000D2D4D6D2DAD00545638A070C9305F105FA
:103700001305F041EF50B1579305F1051305F04152
:10371000EF50F15697F7FA1F9387078EBC230347A4
:10372000F105B337F00011C389071840BEC628332E
:1037300093054700EFE0BF961840AAC40D452C231F
:10374000AEC2EFF06FA6AAC01145EFF0EFA5832A35
:1037500004002ADE654503C7AA0003CBBA003ADCA1
:10376000EFF08FA42A846945EFF00FA4AA84714575
:10377000EFF08FA32A896D45EFF00FA3AA89754555
:10378000EFF08FA22A8A7945EFF00FA22648B647BC
:103790006257F256064696451375F50F137AFA0FDF
:1037A00093F9F90F1379F90F93F4F40F2ACC13144A
:1037B000446002D002CE52CA4EC84AC626C422C2B3
:1037C0005AC093884A000545EFA0700BF650665426
:1037D000D6544659B659265A965A065B09618280D4
:1037E000411122C44AC006C626C217E9FA1F1309AE
:1037F000A95B834709001307E00F2E846382E70467
:103800001307F00F6385E702114597D0FA1FE78091
:10381000A0A4AA8509CD930700FD1CA189473CA15E
:10382000854700B13CB103450900EFC0AFFAF95735
:103830002300F900B24022449244024941018280AF
:10384000AA84114597D0FA1FE78000A1AA857DD1EF
:10385000930700FD1CA1894700B13CA124B122447B
:10386000B2409244024917E5FA1F0345D55341017E
:103870006FC04FF679714AD017E9FA1F1309094F43
:103880008327090022D406D626D24ECE52CC4544F8
:10389000C5EB97F4FA1F9384A496DC204944958BDA
:1038A000C5C32E8A916597E7FA1FA38EA74EAA89F2
:1038B00093857571314597C0FA1FE780207A2320E0
:1038C000A9004D4435CD23003501A300050029464C
:1038D000D285090597D0FA1FE78000A803270900C1
:1038E00091463C2363E7F606CD4691CF0546F54663
:1038F000638BC7000946C9466387C7000D46C146AA
:103900006383C700D54634A3930571001305F041C6
:10391000EF50F1369C83C5E317E7FA1F0347E76DC5
:103920008D47631AF708EFE05F852C00EF70605D4C
:103930002800EFE01FE24545EFF00F8725E5014441
:10394000B2502285225492540259F249624A45618A
:103950008280ED1793F7F70F95460544E3E2F6FEF4
:1039600097860100938646DCB3C7D7209C43B69761
:10397000828789473CA319A0230107006545EFF022
:10398000AF829307F007E301F5F8032709003C2312
:1039900093E707043CA38DBF8547E9BF9947D9BF8B
:1039A0009147C9BF130600643306C50288209145BC
:1039B000EFC0FF8769B715332A8451D1B93149B7B0
:1039C000011126CA97E4FA1F9384443A9C4022CC02
:1039D00006CE4AC84944A1C79C230D446391A7045D
:1039E00017F9FA1F1309C981034509008945EFC07A
:1039F000FFAC03450900914597E7FA1F2394073A66
:103A0000EFC0DFAB9C400147814680B31306F10055
:103A1000854785450145DC87EFA0C0692A84F240CF
:103A200022856244D244424905618280011106CE5A
:103A300022CC26CA4AC84EC68547631EF50617E43F
:103A4000FA1F130424361E20B1CB17E7FA1F0347D1
:103A5000E75A29E71307B003636EF70297E4FA1FEA
:103A60009384047A88208945EFC05FA512209307CC
:103A7000006488203306F6028945EFC04FFB97E7C4
:103A8000FA1F23910732F2406244D2444249B249BC
:103A900005618280938747FC1EA0F5B797E7FA1F60
:103AA00083A7C72CEDD36244F240D2444249B249C5
:103AB0008823056131B797E9FA1F9389292B83A7DA
:103AC0000900F1D317E9FA1F1309897383474900E5
