:020000024000BC
:10E000006FD0A11D00000000001801180028012891
:10E0100002280328002901290229032904290529A6
:10E02000062907290829002A012A022A032A042A84
:10E03000052AA62A9CBB0600300005006C040020BF
:10E04000EE040020EE030020BC0300205403002057
:10E050004AC10600C8000500E60105007404050079
:10E060008A0505008CFF04003AFF0400B40200207A
:10E0700054020020620A0500240800209E000500CA
:10E080005E0705007273060058750600BE7506002F
:10E0900072560600A856060040160600BA0C060086
:10E0A000B66D06008C070500045B060032A2050071
:10E0B000B8A205000EA305005A120500981205002B
:10E0C0000E110500E0640500D05F050060C2060087
:10E0D000CC70050016740500A452050046520500D8
:10E0E00002560500F0520500265205009C5205001C
:10E0F000DC5105006C530500C45305007453050042
:10E100007853050004540500CC530500FC5305006A
:10E11000CE580500D258050068530500705305001D
:10E1200002540500D0580500A85405002E5A0500D9
:10E13000A0810500128205004C82050026670500BB
:10E140003C67050076670500384805003E4A050033
:10E15000064B0500062F0500742905003E3F05000B
:10E16000EC2905002A3B0500B49B0600209406001C
:10E17000F098060014AE0600FEAC06006EB0060075
:10E180005EB0060066B00600A4B006005E8606001B
:10E19000000000000000000000000000000000007F
:10E1A00014B10600F2AA06008EAA060000000000C4
:10E1B000000000000000000000000000000000005F
:10E1C0005AF70500DAE5050052E9050016E70500F3
:10E1D00058F105005A6E0600526D06009286060040
:10E1E000E40B0500BA570600E45A0600DC5B0600A3
:10E1F000000000000000000000000000D46A0500DC
:10E200005CF60500000000000000000000000000B7
:10E210008AE50500E40900209258060090B0060047
:10E22000000000000000000062B00600F8030500D6
:10E230005868050098B006005C5E0600225F060084
:10E240008A5F06005899060094B006009CB006004C
:10E250003C0C0600A0B006001A160020E0150020B5
:10E2600038990600CE9A060012F70500000000005B
:10E27000000000000000000000000000000000009E
:10E2800097270000938707CD172700001307074B38
:10E290006373F700828023A007009107D5BF9727FB
:10E2A00000009387A7BD17D706E01307A72A972674
:10E2B0000000938626CA63F3F6008280104311079C
:06E2C00090C39107CDBFE1
:10E2C8004111B7E700E022C480433707200006C6A3
:10E2D800798C23A0E7180F10000011C199E5B7E762
:10E2E80000E023A08710014579A80D0533450508EE
:10E2F800130740037199B34705086366A7021725FA
:10E308000000032525C59726000083A626C463912F
:10E31800A60217270000032767E371D3C207DD8D24
:10E32800054502976DBF17250000032565C2E1BFAB
:10E338007A2131EF5A21636CF704B306F74021487C
:10E3480017260000130606DB6375D802832805002C
:10E3580003586600938687001D8FAA966117DAA274
:10E3680023A016012393060014C15EA1130788FF9A
:10E378007AA27A226EA12105B307F7407EA2B7E7F9
:10E3880000E023A08710B240224441018280084166
:10E39800BDBFB7E700E08C433707200023A0E7188C
:10E3A800F98D0F10000001E523A0B7108280172314
:10E3B8000000032323BA9728000083A828B99A8766
:10E3C800814663FE170903A80700636DF508636BB0
:10E3D800A808138787006364E508F2232167050707
:10E3E8006319E600172600001306B6C318220507AE
:10E3F80018A2172500001305E5CFD2237A2123930D
:10E4080007003297334707087AA163856702172305
:10E4180000000323E3B3630FF30003D36600631B19
:10E428000300DE2223A0060121073E962106D2A280
:10E438007AA1B6879843630417039726000083A63A
:10E4480026B1630ED700762399EAD62352231843C0
:10E45800A106B296D6A398C37E21A1077EA1B7E7ED
:10E4680000E099B7BE86C287A9BFAA871727000010
:10E47800032747AE17260000032646ADB305B5406F
:10E488006314E6003E8529A8930687001843E3E94C
:10E49800D7FEE3F7E7FE2E85E3E4D5FEE3F2E5FEDB
:10E4A800828023AC05FE1C4199E30CC182803E8723
:10E4B80083A787FFEDFF232CB7FE8280411126C278
:10E4C800B7E400E04AC003A90400B707200006C665
:10E4D80022C43379F90023A0F4180F10000009E5CD
:10E4E80023A0241101452DA09565938505D0C98DDC
:10E4F8002A842105B3C5050833450508D1336DD1F4
:10E50800FD572320050042A17CA123A02411210549
:10E51800B240224492440249410182804111B7E746
:10E5280000E04AC003A9070026C23707200006C634
:10E5380022C4AA843379E90023A0E7180F10000049
:10E548009727000083A747A10144014695E311C816
:10E55800A28517250000130525A0970005E0E78090
:10E56800A0C2A1652685970005E0E78060172DA069
:10E5780003C7E7FF631D970221C0A2851725000086
:10E588001305859D970005E0E78000C0A1652685F5
:10E5980097C006E0E78020E2B24022852244B7E730
:10E5A80000E023A02711924402494101828011E032
:10E5B8003E8683A787FF59BF3E84E5BF37E700E063
:10E5C8001C43B70620002320D718F58F0F10000032
:10E5D80019C191C111E637E700E02320F7108280C6
:10E5E8002E960F70B650D5BF37E700E01C43B7062C
:10E5F80020002320D718F58F0F10000019C10147FC
:10E6080085E137E700E02320F7108280B386E50034
:10E6180003A80600B306E5007D1623A0060111072E
:10E6280075F6C5B737E700E01C43B706200023207E
:10E63800D718F58F0F10000001C53307C50011E684
:10E6480037E700E02320F71082800505A30FB5FE09
:10E65800E31DE5FEF5B7B7E600E09C42370620006B
:10E668002A87F18F23A0C6180F1000000145B306B2
:10E67800A7008386060091E637E700E02320F7101D
:10E6880082800505EDB70111B7E700E026CA84438B
:10E698004AC83707200006CE22CC2A892E86F98C54
:10E6A80023A0E7180F1000009305F00432C6334585
:10E6B800060839312A8401C53246CA850137F24035
:10E6C80022856244B7E700E023A097104249D2446C
:10E6D8000561828037E700E01C43B706200023204D
:10E6E800D718F58F0F10000001C599C1014711EA2D
:10E6F80037E700E02320F710054582800507E30986
:10E70800E6FE3308E500B386E500034808009422D6
:10E71800E306D8FE37E700E02320F71001458280A2
:10E7280037E700E01C43B70620002320D718F58FF1
:10E738000F1000001307F6FFBA952A966317C50055
:10E7480037E700E02320F71082809821FD150505A2
:10E75800A30FE5FEE5B737E700E01C43B706200046
:10E768002320D718F58F0F10000001C53307C50007
:10E7780019E637E700E02320F710014582801421CD
:10E788000505E398B6FEE31CE5FE37E700E0232025
:10E79800F71005458280797126D29714000093847A
:10E7A800247D22D4804006D64AD04ECE52CC56CABA
:10E7B8005AC85EC662C45DC837C9C901814B971A79
:10E7C8000000938A6A7A1309F937172B0000130B94
:10E7D800EB94972900009389E991172A0000130AFE
:10E7E800EA983E2091EF5C4463990B009CC0032C8F
:10E7F800C4002285793E6284B9A823A6FB00C5BF60
:10E8080083A70A0082971C443307F5406376F50016
:10E8180003278A001D8F2A97636DE9069727000052
:10E8280023A2078E2E20082097C006E0E780A0B814
:10E838005C405844A1CB0C4417260000032686935D
:10E84800AE97BE8663E4B70063E4C700B386C740EB
:10E8580014C4A28B3A8451F4172700001307878940
:10E868001C4B854663FBF604FD171CCBB2502254A3
:10E8780092540259F249624AD24A424BB24B224C54
:10E888004561828063940B0098C095B723A6EB007E
:10E89800B9BF03274B0219CB63EDA7003385A74007
:10E8A80083A709016374F50023A8A900A28B40443B
:10E8B8005DB703278A00BA97D5B79727000023A327
:10E8C80007846DB70111B7E700E04AC803A907003C
:10E8D8003707200006CE22CC26CA4EC652C433794A
:10E8E800E90023A0E7180F10000097240000938484
:10E8F800E4879C288844B9CF97270000938707B7F7
:10E9080003D7070A21CB03A4C7096305A4049719F1
:10E9180000009389297E83A709016380A710171A2D
:10E928000000130A6A6483270A0082976364A40EAE
:10E9380083270A00098C829783A7090198443354D6
:10E94800F40AB307A4003E8563E4870063E4E700A4
:10E958003385E740B7E700E023A027119C44639D77
:10E96800A702171400001304E4781848971700004A
:10E9780083A7875F6315A70A82979444374736FEB3
:10E98800130707C83697B307A7003E8563E4E70077
:10E9980063E4D7003385D74017240000130484CFDD
:10E9A8005C5C99CB9716000083A6466C9C4637079B
:10E9B800CDFF7D17F98F9CC611E1884485475CD04F
:10E9C8009717000083A7C777829715E15C5C99CFFA
:10E9D8005C5089CF975006E0E780E060975006E0EA
:10E9E800E78080059727000023A807CC6D335C5C7F
:10E9F80091CB17170000032767671C47B70633003A
:10EA0800D58F1CC7F2406244D2444249B249224AD7
:10EA1800056182809C443E9421BF228525BF829750
:10EA280014489844B387A6003E8563E4D700E3E51D
:10EA3800E7F63385E7408DB79717000023A0A75264
:10EA480011C5854717170000230CF75082809717C8
:10EA5800000083A7A75085C3411106C68297971760
:10EA6800000083C7E74F89E79717000023A8074EE0
:10EA7800B240410182809717000083C7674E91E733
:10EA88009717000023AC074C82808280411122C472
:10EA980026C206C64AC0972400009384A4BF83C731
:10EAA8003402171400001304246BB9C717140000AC
:10EAB80013044464171900001309C94B03270900FC
:10EAC8001C2014300146B3A5E7208E21A5CD11C224
:10EAD8001CA00820636FD50697170000238C0760D9
:10EAE8009717000083A74748C5EFB24022449244D5
:10EAF80002494101828082971C40F5FF9717000068
:10EB080083C7C76785E3DC48858B89CFD84C99478D
:10EB1800631EF7009727000023A807B8EF00707A54
:10EB28005C4482971C44D9D3829749B7D84C9D47F7
:10EB3800E31AF7FE9727000023A807B6EF007078BE
:10EB48001C48C5B7850793F7F70F0546E3EDD7F6D9
:10EB580041B73327E5200E2323100700971700003D
:10EB6800239107409717000083A74740B347F52034
:10EB78009C4382971C20832609001717000003571F
:10EB8800473E3377E540B3A6D7209222518F9AA209
:10EB980099C385071CA018201C30E368F7F42DBF23
:10EBA8009717000083A7075D1CC8F53683C7340292
:10EBB8008DFF83C7140299CBDC4C89EB97270000A3
:10EBC800A38A07AE975006E0E780E0019717000098
:10EBD80083A7075799DBD84C9147E3E8E7F09727D5
:10EBE800000083C72787918BE39107F097170000F0
:10EBF80083C70737E39B07EE18308326090063C8ED
:10EC0800E7002244B24092440249410165B933A663
:10EC1800D7201222E31B06EC8507D5B7B7C70040FB
:10EC28001387C72014431396264910C30100010017
:10EC380093878726171500000325854D9C436A0591
:10EC480014C393C7F7FF99835D8D828097170000DF
:10EC580083A7C73291C382871305F00F82801716E6
:10EC680000001306667C971600009386E67DDC3666
:10EC7800383E4C4ABA97FD8B33D7F5001CB2DCB648
:10EC8800058B0DE7943A13050002B3F7D7028146C6
:10EC980033D8E548630908006394D70018B2828026
:10ECA800850693F6F60F0507E314A7FE8280011187
:10ECB80026CA9717000083A7272B06CE22CC4AC85E
:10ECC8004EC652C48297971400009384E477984400
:10ECD800AA870145630DF70463E3E706998F1719BF
:10ECE80000001309697493F9F70113D45700834797
:10ECF800A901636AF402171A0000130A2A47853724
:10ED08000347A9018C4403268A0093175700AE973E
:10ED1800198CBE8663E4B70063E4C700B386C740B6
:10ED280094C4E37EE4FC1315540033653501F240C6
:10ED38006244D2444249B249224A05618280971608
:10ED4800000083A626433387E640BA9749BF41119E
:10ED580026C2972400009384E4939C4422C406C6E8
:10ED6800858B171400000324E475A1C7582497273E
:10ED7800000023A507928947630DF7020146930512
:10ED880050020145EF104001014681450545EF005D
:10ED98001069DC44858B91CF2244B240924481456E
:10EDA800170506E0130505F64101170305E067009E
:10EDB80043AE97C006E0E780806322852244B240D4
:10EDC8009244410117B306E06700037C97170000DF
:10EDD80083A707736393071E011122CC2A84094570
:10EDE80006CE26CA4AC84EC6971400009384042744
:10EDF80097C006E0E780C06790409307800717191F
:10EE080000001309E9247CD2832709009719000020
:10EE18009389C925B7053300D8572285719B136795
:10EE28001700D8D798431377F7CF98C39843137729
:10EE3800F7CF1367072098C303A709001447CD8E9F
:10EE480014C7B70603009386862534CA5457F59A23
:10EE580054D798437420137707F893F6F607558F1D
:10EE680098C397C006E0E780A082944037050082E7
:10EE78007D15DC4293E71700DCC20326090003076F
:10EE880044065C569375F703E605E98FCD8F5CD68B
:10EE98009305A00383A7090063D9E50AF84FB705CE
:10EEA80000074D8FF8CFB7C7898E938767ED1CC6CB
:10EEB800B7575500938757555CC283476406834903
:10EEC8000406B3E9F9008947171700002322F77EE3
:10EED8009717000023A6077C3C44BCDE9717000068
:10EEE80083C7C729D9CFFC52FDFF4C344E859717ED
:10EEF800000023A5077AEF00F04958249D4717C55D
:10EF080006E0130585B86306F7001705000013052A
:10EF180045E41D368327090098431317772998C3BA
:10EF2800D857719BD8D79717000023AF0776971744
:10EF3800000023A307769C40F2406244094798C327
:10EF4800D2444249B249056182809305200263DABE
:10EF5800E500F84FB70500F9FD156D8FB7050005F9
:10EF680089B7B70500F96945FD156357E500F84FFE
:10EF78006D8FB705000335B7F84F6D8F13178729C5
:10EF880015B758249D47814517C506E01305E5AF19
:10EF98006306F700170500001305A5DB970005E0D9
:10EFA800E780208F50346244F240D2444249CE85F3
:10EFB800B249014505616F009046828097170000AD
:10EFC8009387C74AA84F054714256392E60203C7EB
:10EFD80087069147631CF700011106CE2AC697B031
:10EFE80006E0E78060563245F2400561C5B382808D
:10EFF80083278511E5CB411122C406C658258345D0
:10F00800E5049437D2272A841377C70F13954660EF
:10F0180063F7C50663510506882793F6F60794B784
:10F028000546936627006314C5009366170054A429
:10F03800D8430907D8C3032504114CB82E86CC43FE
:10F048000905EFF0AFD7832784115438D843369792
:10F05800D8C3DA27158FDAA789473CBC034764036E
:10F068009717000083C7A70C6369F706B2402244CC
:10F078000145410182801367170058A46DBF93763C
:10F08800F60F635505028827854513662700631424
:10F09800B5001366170050A454B8A3840700854729
:10F0A8003CBC832784119C43D5FBC9B71367170061
:10F0B80058A454B8A384070003250411CC430905B8
:10F0C800EFF0CFCF832784115438D8433697D8C36D
:10F0D800DA27158FDAA78D47E1B75C2493E7070194
:10F0E8005CA469B70545828041119717000083A782
:10F0F80067F522C406C6858B2A84C5E741651305D2
:10F1080025F5971006E0E780E01741CD3C253EA5A0
:10F1180083270412ADE32320A4122322A4128547D7
:10F128002311F404232005007C2854415EA558349B
:10F1380018A5054718B513851702171700000327E8
:10F14800275915811C437D151375F50F9CC25C4327
:10F15800DCC21C479CC65C47DCC61C4B9CCA5C4B8B
:10F16800DCCA1C4F9CCE5C4FDCCE0DC193860602D8
:10F1780013070702C1BF8327441288C38357240497
:10F188002322A4128507B3C7070859BF1717000021
:10F198001307C72D1E2785071EA7B2402244410129
:10F1A80082805C2423090400054593C747005CA4BA
:10F1B800EDB7142D854763EED70A1C3D2A87014514
:10F1C800DDEB5C2713F507013C2B99CB83466703DE
:10F1D8009717000083C7B7F563ECF60001E5828056
:10F1E80059E582808357E71803572719BA9721A052
:10F1F8008357E71875F90145BDCF9387C7121715CF
:10F208000000035565F7B3B5A70237460F00411153
:10F2180013060624814622C426C206C67D543385B9
:10F22800A70297A006E0E78020289714000083C46F
:10F2380074F0AA949717000083A7C72B03A70709A0
:10F248009C433354E40AFDFB9717000083A7C7D1FA
:10F25800829781476364A400B307A440B240224464
:10F2680033B59700134515009244410182808147C8
:10F27800A5BF01458280828017170000032707DE9B
:10F288003C5BFDFF01000100828041C101116C005F
:10F2980022CC06CE2A8497C006E0E78040F039C920
:10F2A800FD576300F50617170000130727E75453A7
:10F2B800B2478DC62547637DF700938567FF0345F1
:10F2C80094026244F240056117B306E06700C31276
:10F2D80017170000032707EABA97C5B70C3F63E57D
:10F2E800B700B385B740E1BF17170000032787E8C9
:10F2F800BA97C5BF6244F240056117C306E06700CC
:10F3080063AEF2406244056182808280797152CC9A
:10F31800171A0000130A8A1526D283248A0806D6EB
:10F3280022D44AD04ECEC5CC971700009387873693
:10F33800D44F15476388E604DC532A8989CF975050
:10F3480006E0E78040CA974006E0E780E06E97173E
:10F35800000023A30736FD596C00268597C006E0F8
:10F36800E780E0E30DE917C506E01305A5A7EFF070
:10F37800AFEC9717000083A767CE3707100098C730
:10F388000547B8DB0D45B250225492540259F24950
:10F39800624A45618280637435013244AA89844097
:10F3A800C5FCFD571305F00FE38FF9FC914763F196
:10F3B80087029307B4FF2320F900232EFA0899E760
:10F3C8009717000083A707DB2320F900014565BFD5
:10F3D8009717000083A707DAED17A297E9BF094539
:10F3E8005DB7797126D206D622D44AD04ECE52CCF9
:10F3F80056CA5AC85EC68347550303447513AA8480
:10F408003E941374F40F9307400263F687001304C5
:10F41800B4FD1374F40F03A9841383A9C413A38B35
:10F42800841222864A85CE8597A006E0E78060058B
:10F43800058915E503CBD412014A814A337B64035D
:10F44800930B500252864A85CE8597A006E0E78046
:10F45800400305890DC563916A031374FA0F238B62
:10F468008412B250225492540259F249624AD24A42
:10F47800424BB24B45618280850A939A4A60050ADD
:10F48800E3127AFDE9BF83278509035605047971DC
:10F4980093D60701BD8EB3C60608358E93575640DE
:10F4A800898B135776485D8F93573640918B5D8FC4
:10F4B80093571640A18B5D8F93171600C18B5D8FF4
:10F4C8009317360093F707025D8F9317560093F74B
:10F4D80007045D8F9317760093F7F70F22D45D8F9B
:10F4E8002A849357D6001355B6001189898B9355F2
:10F4F8008600C98F1355F6002582C98F218AD18FBE
:10F5080013961500418AD18F13963500137606029B
:10F51800D18F1396550013760604D18F1396750074
:10F528001376F60FD18FA207C5455D8F3307B70253
:10F5380026D24AD04ECE032984138329C4135AC82D
:10F5480006D652CC56CA3697334707081356574043
:10F55800098A93577748D18F13563740118AD18F2C
:10F5680013561740218AD18F13161700418AD18F5D
:10F578001316370013760602D18F13165700137629
:10F588000604D18F131677001376F60FD18F135810
:10F59800B7001356D70013784800098A1355870017
:10F5A800336606011358F700258333660601218B5D
:10F5B800518F13161500418A518F13163500137693
:10F5C8000602518F1316550013760604518F131631
:10F5D80075001376F60F518F2207D98FB387B702BC
:10F5E8005EC6B697B3C7070813D55740098913D71E
:10F5F8007748498F13D537401189498F13D517405C
:10F608002189498F139517004189498F1395370030
:10F6180013750502498F1395570013750504498F13
:10F62800139577001375F50F598D13D8B70013D7B5
:10F63800D70013784800098B13D687003367070172
:10F6480013D8F700A58333670701A18BD98F131748
:10F658001600418BD98F1317360013770702D98FFD
:10F6680013175600137707041E06D98F1376F60F63
:10F67800D18FA2073367F5003307B702130650028C
:10F688004A85CE853697B98EB3C4060833F6C402C8
:10F69800137BF60F97A006E0E780A0DE058905E951
:10F6A800834AD412014A930B5002B38A9A028144C6
:10F6B80093DA0A0126864A85CE8597A006E0E78078
:10F6C80040DC05890DC563914A0313FBF40F230B36
:10F6D8006413B250225492540259F249624AD24AEF
:10F6E800424BB24B45618280050A137AFA0F8504B2
:10F6F800E39274FDE9BF797122D426D22E84AA84BC
:10F70800414697A506E09385E5150A8506D697F044
:10F7180004E0E780209D414697A506E0938585147F
:10F72800080897F004E0E780E09B3C3010088A85E1
:10F73800DC875C2026855C875C30DC86974006E0A9
:10F74800E78020EA0347F1011C200145631EF7000A
:10F758000347E1011C3001456318F7000345D10157
:10F768003C201D8D13351500B2502254925445612A
:10F778008280011122CC26CA4AC84EC606CEAA8467
:10F7880017140000032404DA13092500854905C06D
:10F798009C303830858B6304F700405CCDBF194638
:10F7A800930544004A85EFE0FFF2E31835FFF24085
:10F7B80022856244D2444249B2490561828041119E
:10F7C80022C426C24AC006C617140000032484D5E2
:10F7D80093042500054901E8B24022852244924459
:10F7E800024941018280A6851305A4022937E30551
:10F7F80025FF405CCDB7011122CC26CA06CE2AC40B
:10F808002EC617140000032464D1854419E001456D
:10F818000DA09C841830858B6304F7000044FDB765
:10F8280019469305A10013052400EFE0BFEAE3178A
:10F8380095FEF2406244D24405618280EFF02FA128
:10F8480073000000000000009702000093824271DC
:10F858000383020023800200630F0300F3251034A2
:10F868002EC0970500009385A5FD73901534EF0011
:10F87800E05A7300203086DCEF00405AE650828060
:10F88800000041114AC0170900001309697C0327C9
:10F89800090026C206C61C5F22C497040000938490
:10F8A800E47A93D76748C1C7930700061CDF17148B
:10F8B8000000130424DE184C930700086317F700B0
:10F8C8009C409C4393F707041CCC1C4093F7070407
:10F8D80099CB9707000083A72769829748D81C40CF
:10F8E80093F7F7FB1CC01C4093F7070299CF1C4005
:10F8F8001707000003278776B706080093F7F7FD78
:10F908001CC05C5414C786077CD71C4893F70704AF
:10F9180099EF85475CC8370702009707000083A75F
:10F92800E77398C71307000C18C81854F8D383272F
:10F938000900985F1357474805C3985F1367070185
:10F9480098DF9707000083A7677123A207068547FA
:10F95800171700002328F7D49C40D843135717489B
:10F9680019C7D843759BD8C3D843799BD8C3B2402D
:10F978002244924402494101828021377300203099
:10F9880097170000938707D13707040088DB698F32
:10F9980011CF170700000327676CFD5634D7970669
:10F9A800000093862675D84E0507D8CE13778500B4
:10F9B8000DC398479706000083A68669136717004A
:10F9C80098C71307000898CBD856719B1367170080
:10F9D800D8D61377150011CFD8439706000083A611
:10F9E800266713671700D8C3D856719B136717008B
:10F9F800D8D6137765000DC31377450059C79843C8
:10FA08001367170098C39706000083A66664D85644
:10FA1800719B13671700D8D64167698F0DC3971676
:10FA2800000083C626ABC18A17170000130707A476
:10FA3800B5C28346870693E606022304D70637072E
:10FA48000200698F11CF984B1377070819C3054730
:10FA580098CB9707000083A767603707020098C70D
:10FA6800B70708007D8D0DC117170000034797A63B
:10FA7800058B971700009387679F1DCB03C79706D1
:10FA880013672700A384E7068280D8471367170007
:10FA9800D8C795BF834687060946BD8A6388C600CE
:10FAA800834687060D46BD8AE39BC6F8914671B723
:10FAB80003C79706118B69DB03C79706136787008F
:10FAC800D1B79706000083A6665997170000938759
:10FAD80067BC9843058B19E7D843058B01E7F852B3
:10FAE8006DFBDC4B9717000023A007BC82809706AC
:10FAF80000009386E6552A8788421C5D93D75748AD
:10FB0800C1EB81C51C59BD839CA115C69C42945B61
:10FB1800C60693D7660163D6060093E707C0B3C746
:10FB280007088316060093975760A9CABE968947A7
:10FB3800B3C6F60216A29707000083A72752BC4B4C
:10FB4800083393D757488DCF29C59716000083A649
:10FB5800E6B593F606049307950009459DCABA973A
:10FB68009C230547194593F6F7066394E602014579
:10FB78009397476063DF0700394582801EA265BFFF
:10FB88002A9748331375F5077D153335A000828011
:10FB9800054582809707000083A7C74B99CB944BF4
:10FBA800D04B9842518F98C294439C479842D98F22
:10FBB8009CC2170600001306664A054818429706B5
:10FBC800000083A6E648971700009387A7AC631D3B
:10FBD800050388421365050888C283C62702B3C592
:10FBE800D5209385A50C54471395164948C70F107F
:10FBF8000000184237060200860510C713060008E1
:10FC080090CB6CD354C7828088421375F5F788C2AD
:10FC180083C62702B3E5D5209385E50EE9B74111E0
:10FC280026C2AA8706C622C42E859704000093849C
:10FC3800E442B285C9EF9C40F8537DFF37070200C4
:10FC480098C79717000023AB07A4B7E700E037076A
:10FC5800200037F400E023A0E728130404D01C4850
:10FC6800ED9B1CC81C4893E787031CC87300501001
:10FC780015379707000083A7A73D984313177729DF
:10FC880098C3D857719BD8D79717000023AE07A001
:10FC98009717000023A207A09C40094798C31C4857
:10FCA80093E787001CC87300501094401717000092
:10FCB8001307479E1C47858B91E75C47858B99E323
:10FCC800FC52EDFBB24022449244410182800D4730
:10FCD800639AE7049717000023A2079C9717000070
:10FCE80023A0079CB7E700E03707200037F400E0BF
:10FCF80023A0E728130404D01C48ED9B1CC81C480B
:10FD080093E787031CC873005010693597070000F4
:10FD180083A7073498431317772998C3D857719B3B
:10FD2800D8D7B5BF0547E392E7F837F700E01307E0
:10FD380007D0144BED9A14CB144B93E6860314CBDF
:10FD480073005010984050479316164954C70F1027
:10FD580000009840B706020014C7930600089715DC
:10FD6800000023A1D5949706000083A6662E94422E
:10FD780093D67648639FF6009307E0187CD350C764
:10FD880037F700E0832707D193E787002328F7D0C8
:10FD980019BF9307E01ADDB79707000083A7872BE1
:10FDA80089CFD44303A8870098423367070198C2D4
:10FDB800D447DC4B9842D98F9CC20547970700006F
:10FDC80083A707299505631BE5029843136707086E
:10FDD80098C3984F137707C01367A71398CF1307D3
:10FDE8008007B8BB939735009387C70319C2931749
:10FDF8001600171700002323F78C82809843137787
:10FE0800F7F798C3984F137707C01367271398CF4E
:10FE18001307F007B8BB93974500F9B79707000099
:10FE280083A7C7238847D847798D01C988C797070B
:10FE3800000083A7672291C382878280896717079A
:10FE480000000327A721938707F47CD397060000B7
:10FE580083A6C62183A7060993D7A74991C783A775
:10FE6800060993D7974999E37C53EDF78280000000
:10FE78002A8309CA83830500230073007D160503BE
:10FE880085056DFA82809727FB1F83A7A7E51727AB
:10FE9800FB1F0327A7E401456313F7008280F623BD
:10FEA80099E2D62336959C43C5BF1727FB1F130736
:10FEB800E7FF1C435A23411193860711E117BA97AC
:10FEC80085651726FB1F232FD6E01726FB1F232740
:10FED800F6E006C69D051356370063F4E5001306E1
:10FEE80000203387C6009725FB1F23ABE5DE61168C
:10FEF80098C2D2A2239306001CC3998FE1175EA370
:10FF0800231307004937B2409727FB1F239FA7F603
:10FF180041018280184183A785FF6319B7001CC17E
:10FF2800FD5723AC05FE238FF5FE8280232CF6FEB9
:10FF3800C5BF411122C437E400E026C20440370798
:10FF4800200006C6F98C2320E4180F10000009E9E8
:10FF5800232094101545B2402244924441018280E6
:10FF68000347E5FF9307F00F6306F700232094107B
:10FF78001145D5B79700FB1FE780E01A01452320FC
:10FF88009410D1BF41114AC037E900E022C40324CC
:10FF98000900B707200006C626C27D8C2320F91861
:10FFA8000F10000089E523208910154515A0AA84A3
:10FFB8009727FB1F83C717ED2E8563F5F400894744
:10FFC80063EE9700BD37B7E700E023A087100D4523
:10FFD800B2402244924402494101828083A785FFAE
:10FFE80099E703C7E5FF9307F00F6308F700913718
:08FFF800B7E700E023A0871029
:020000025000AC
:100000004DBF238F95FE1725FB1F130565CE970067
:10001000FB1FE780C022A1652685EFC001130145C3
:100020002320891055BF9727FB1F23A307CC82806D
:100030004111B7E700E026C284433707200006C617
:1000400022C4F98C23A0E7180F1000009727FB1F8C
:1000500083A747E81724FB1F1304C4C091C78297E6
:100060001C40AA971CC031A09727FB1F83A747C934
:10007000FDF70840B74703009387D73F3305F502E4
:10008000B7A72600938737ECB2403E9508C02244BC
:10009000B7E700E023A0971092444101828041110C
:1000A00022C406C69727FB1F83A747C51724FB1F3B
:1000B0001304C4DD89C782975C48AA975CC8484886
:1000C000B240224441018280B7E700E09843B7067E
:1000D000200023A0D718758F0F1000009726FB1F54
:1000E00083C6D6DA6370D5029726FB1F83A606C2A5
:1000F0003325D5201621B3F5B6400EA123A0E71075
:100100000145828023A0E7100D4582807971B7E711
:1001100000E026D284433707200006D622D44AD0F6
:100120004ECE52CCF98C23A0E7180F100000930795
:1001300005FF93F7F70F7D476361F70A31473307F0
:10014000E5029727FB1F83A7A7BCBA979C43D1C79B
:10015000135445003D893315A028AE89B3450508E1
:1001600022852EC6EFB0115D2A8939C9B245228594
:10017000172AFB1F130A0AD9813F9727FB1F83A762
:1001800027B882978357CA002A848146338737036A
:1001900013060064B3B7370313050732B335E50020
:1001A000BE95EFB0A109B307850083268A003E877C
:1001B00063E4A70063E4D7003387D7402324E90032
:1001C000B7E700E023A097100145B25022549254A3
:1001D0000259F249624A45618280B7E700E023A0F4
:1001E00097100945DDB7797122D437E400E04AD091
:1001F00003290400B707200006D626D24ECE52CCE3
:1002000056CA5AC85EC63379F9002320F4180F1075
:1002100000009727FB1F83C777C76378F500972BEC
:10022000FB1F83ABEBAD63970B00B7E700E023A0A8
:10023000271199A0972AFB1F938ACACC03AB8A0087
:10024000B74736FE938707C83E9B83D7CA002E8ADE
:10025000AA84B385C702B2898146B3B7C7021385A2
:100260000532B335B50013060064BE95EFA0117DCD
:100270006370AB02232024110145B25022549254E2
:100280000259F249624AD24A424BB24B45618280DE
:10029000829B83D7CA002A8413060064B385370380
:1002A0008146B3B7370313850532B335B500BE9524
:1002B000EFA0D178B307850003A78A003E8463E4EA
:1002C000A70063E4E7003384E740D2852685EFB0DA
:1002D000714601C900C5B7E700E023A02711054515
:1002E00069BF93E504F04145B3C505089700FB1FBE
:1002F000E780C0D611E99727FB1F83A7A7BE95D734
:10030000A6851145829715B71727FB1F1307C79FAF
:100310001C4389EF08C385472326050000C5231128
:10032000450104A11CB12322050075B73E87DC47B7
:10033000F5FF48C7CDB77971B7E700E026D284430F
:100340003707200006D622D44AD04ECE52CC56CA09
:100350005AC85EC662C466C2F98C23A0E7180F10A3
:10036000000035C12A892E8AB28AB6894144B14C2F
:10037000172BFB1F130BCB99130C0003B30B940328
:1003800083270B00DE979C43B9EF135544409375C8
:10039000F40056861375F50FB315B028B3C50508DC
:1003A000993531C183270B00DE9723A0270123A2B3
:1003B00047016384090023808900B7E700E023A098
:1003C0009710014521A023A097100945B25022544F
:1003D00092540259F249624AD24A424BB24B224CE1
:1003E000924C456182800504E31A84F9B7E700E086
:1003F00023A097102145D9BF011122CC37E400E09A
:1004000026CA04404AC84EC652C406CEB7072000CA
:100410002A892E8AB289FD8C2320F4180F1000003F
:10042000D933D2854A85EFB0F13001ED2320941005
:100430002145F2406244D2444249B249224A056110
:1004400082809727FB1F83D7A7ACB38537032A8900
:10045000130600648146B3B7370313850532B335FD
:10046000B500BE95EFA0915D2322A9002320941032
:100470000145C1B7011126CAB7E400E04AC803A983
:10048000040022CC4EC6B707200006CE52C4AA896B
:100490002E843379F90023A0F4180F100000EFB078
:1004A0007129172AFB1F130A6A9E1DE1A2854E853A
:1004B000213983470A006382370523A02411194597
:1004C000F2406244D2444249B249224A05618280E4
:1004D00023110500A2854E85C53E83470A00638629
:1004E000370123A024110145E1BF1727FB1F130784
:1004F000C7801E23C18F1EA3EDB79717FB1F9387DD
:10050000C77F9A23598C82A34DBF01114AC837E98E
:1005100000E022CC03240900B707200006CE26CA3B
:100520004EC67D8C2320F9180F1000009307F002AF
:1005300063E7A704B144B30495029719FB1F93899D
:10054000297D83A70900A6979C4395CB9375F50059
:100550001181B315B028B3C50508293F83A7090049
:100560000145A69723A0070023A207002320891096
:10057000F2406244D2444249B24905618280B7E701
:1005800000E023A087100945E5B74111B7E700E077
:1005900026C2844306C622C437072000F98C23A054
:1005A000E7180F100000EFB0F11819E90145B2404B
:1005B0002244B7E700E023A09710924441018280D3
:1005C00000459717FB1F83A7A77382979727FB1FE9
:1005D000938747936367A4029847B74636FE93868E
:1005E00006C83305A4403697E372E5FC13070064A0
:1005F000B335E502D22781463305E502EFA0114469
:100600007DB798473A94C9BF411106C69717FB1F9B
:1006100023A6A76E0295B2409727FB1F23A4A788A5
:10062000014541018280914763E9B7009727FB1F8D
:100630009387078CB3C5F52088C18280411151464C
:1006400081451725FB1F1305A58A06C622C426C2AD
:100650009717FB1F23AA076A9717FB1F23A0076A98
:100660009717FB1F23AE07689717FB1F23860768A2
:100670009717FB1F23A007689700FB1FE78040D454
:100680001306800281451725FB1F1305258097005F
:10069000FB1FE780E0D2EFF0DF819727FB1F9387F6
:1006A0006781E82BFC3B1714FB1F1304247E854550
:1006B0003E958D473305F50299479714FB1F9384A8
:1006C000246539051375F50F28A03305F5021305C8
:1006D0000524334505089700FB1FE780209888C054
:1006E00035C93020994781453306F60213060624A2
:1006F0009700FB1FE780C0CC9C4038209714FB1F5D
:1007000093844460938707249CC0B347F72017174E
:10071000FB1F232DF75E013A1D211C30944017C6A4
:1007200001001306A68933C7D72010C3138717000B
:100730001377F70F17C601001306E6813347D7205A
:1007400010C313873700890718B093F7F70FB3C7A3
:10075000D72090C3B2402244924441018280971630
:10076000FB1F9386A6722A87BC228832637DF50020
:10077000130615009717FB1F83A7C75890B2B347FE
:10078000F52098C382801305F00F82801C41E5CBD1
:10079000370700F07D8FB706002089476312D70E18
:1007A0005A21411122C406C62A8469C719469305F5
:1007B000F00F69059700FB1FE780A0D305478D4721
:1007C000630AE50A1C4491C75858994745C7185C05
:1007D00055C31306C00381451715FB1F1305856D0F
:1007E0009700FB1FE780C0BD1306C003A285171545
:1007F000FB1F1305256C9700FB1FE780E0B59717DB
:10080000FB1F9387276BDA2701E713070010DAA78E
:10081000F82719E30547F8A79A2B19E36D479AAB18
:10082000F83719E31547F8B7B82B19E30547B8AB04
:10083000B83B19E3F837B8BBD83B11C793763700FC
:100840000983F4ABF8BBD82B19E35547D8AB182C68
:1008500001E71307C00398AF9C5791C7829797177A
:10086000FB1F2399A762FD571717FB1F230EF76085
:10087000F1338147B24022443E854101828089475D
:100880003E85828079714ECE9719FB1F93898967C7
:1008900083A7090006D622D426D24AD052CC82970A
:1008A00013090064B335250303D6C9008146171A1E
:1008B000FB1F130AAA5D32C633052503EFA01118EA
:1008C00083248A012A8401456386840232463305E3
:1008D000944063EF840003A589008146B335A902E3
:1008E0003305A902EFA09115B30795403385870022
:1008F000232C8A00B250225492540259F249624A7F
:1009000045618280011122CC0A852E84414697B52B
:1009100001009385A5CC06CEEFF00FD6180833243E
:10092000E420035704FFF24062449717FB1F83D76C
:10093000475E37450F00BA97130505243355F50276
:10094000056182809717FB1F83D7A75C51471D4520
:10095000637CF702794719456378F7021307200390
:1009600015456373F7021307B0041145637EF70062
:10097000130740060D456379F70013076009094521
:100980006374F70013B5B70F8280411122C426C2E9
:100990002E84AA8406C6058CEFF08FE9B327A40243
:1009A000B2402244338597001375F50F92444101FC
:1009B0008280411122C426C22E84AA8406C6058CD8
:1009C000EFF00FE7B327A402B2402244338597002B
:1009D00033450508924441018280411122C426C258
:1009E0002E84AA8406C6058CEFF08FE43335A4026A
:1009F000B240224426959244410182809717FB1F02
:100A000023AAA730828041114AC01719FB1F13097E
:100A1000694A8327890206C622C426C28DCF8297DF
:100A20009714FB1F938484469E242A848DC733F732
:100A3000A70A33470708B3D7A70AB3C70708B307FE
:100A4000F74051476359F7008327C90291C3829742
:100A5000EF50C11882A4B24022449244024941019D
:100A60008280011122CC9717FB1F23A5072A171498
:100A7000FB1F130424445C5406CEAA8581C72AC6F2
:100A80008297B245C1C19C410545ADCB9C45BDC7D0
:100A9000DE25ADC7FE25BDC39C2981CB7C287838D7
:100AA000BA97634DF504DC41B1CB1306400217152C
:100AB000FB1F130525459700FB1FE780E08997176B
:100AC000FB1F9387274498439716FB1F23AAE62210
:100AD000183C19EFCA279307805737460F00330594
:100AE000F5021306062481468145EFA0217508BC56
:100AF00017050000130545D9013E0145F240624447
:100B0000056182809717FB1F23A0073A9717FB1FE9
:100B10009387473F1707FB1F130707EA98C33787D9
:100B20003200FD56130727A194C7D8C79717FB1F9C
:100B30002382073EB7C7004023A4D72649B7011137
:100B400022CC1714FB1F1304E436084406CE26CA31
:100B50004AC801E90545F2406244D2444249056170
:100B600082805C58E5DB185C75D7700085458297FC
:100B70001844B247E300F7FE4A249305E00417192E
:100B8000FB1F1309A93097F0FA1FE780204D23209F
:100B9000A90269D152249305F00F81449700FB1FED
:100BA000E78000827C240326090263C1F4023285B7
:100BB00097F0FA1FE780A05701459717FB1F23A75F
:100BC000072E9717FB1F23A5072E71B74E24184435
:100BD000B3879502898185043385E7001C5C08C2D0
:100BE0008297C9B7011122CC1714FB1F1304842C60
:100BF0001C4426CA4EC656C206CE4AC852C45AC063
:100C0000AA84AE89B28A6388071A585839CB130769
:100C1000F01F6366A710171AFB1F130A2A27032960
:100C20000A02631209044A249565938515E097F03A
:100C3000FA1FE780A0422320AA022A861DC14E2463
:100C40005C580844898182971C4403290A022322A4
:100C5000FA028947639EF402C1479305090C638138
:100C6000F9042945BDA003274A02E384E7FE4A248C
:100C70009565938525E097F0FA1FE780203E2A8945
:100C80006DD14E242A865C58084489818297D1B759
:100C90008D47639AF404C1479305490DE393F9FC2A
:100CA000B8219307A0056312F7069E21639F97045E
:100CB0004E869105568597F0FA1FE780E0698327F5
:100CC0000A02638727014A8597F0FA1FE7802046CA
:100CD0000145F2406244D2444249B249224A924A12
:100CE000024B0561828091476397F4009305890E5A
:100CF000E39999F675B793070010E394F4F6A147CA
:100D0000E3E137F79305090F61BF83270A02E38AFE
:100D100027F54A8597F0FA1FE780604199B71D676C
:100D2000637FE506130705E099463347D70256244B
:100D3000171BFB1F130B8B153307D702330AF70062
:100D400083274B026396470103290B0263110902B3
:100D50004A249305E00497F0FA1FE78020302A899F
:100D600009D14E245C582A86898152858297914503
:100D70001307A00593F5C50FB307B900B423639912
:100D8000E60296236394960291054E86CA9556858F
:100D900097F0FA1FE780405C83270B021DB7A1661E
:100DA000F916E3E0A6EC3307E54051B7AC33D9B709
:100DB00083270B02A9BF9715FB1F83A5250FE3828D
:100DC00005EA91479306A00593F7C70F3387F5000F
:100DD0003023E318D6E81223631B960091074E8652
:100DE000BE95568597F0FA1FE7800057D5B53C337E
:100DF000E1BF9717FB1F9387E70B984721C7985FC1
:100E000031C385466310D504411122C41714FB1F5A
:100E10001304C407105006C615C2CE274850898156
:100E20000297085097F0FA1FE78060309717FB1F72
:100E300023AE07069717FB1F23AC0706B2402244D8
:100E400041018280828001114AC81719FB1F1309D2
:100E500069064EC68329890022CC26CA52C406CE12
:100E600056C2AA842E84328A638D091A8327890385
:100E700099EB2945F2406244D2444249B249224AA0
:100E8000924A0561828083274903E5D79307F01FC3
:100E900063E0A70C9719FB1F938949FF83A70902F9
:100EA00095CF0325890083A749026395A704894745
:100EB000639FF404C147E31EF4FA03A50902130576
:100EC000050C9307A0053CA106A12286D285110539
:100ED00097F0FA1FE7804048014569BF0355C900F4
:100EE0009305E00497F0FA1FE780401723A0A902BA
:100EF0004DF941B78355C9008327490303A6090269
:100F0000898182978327890023A2F9024DB78D47F3
:100F1000639AF400C147E31EF4F403A50902130524
:100F2000450D45B791476399F400E31494F403A584
:100F300009021305850E71B793070010E39BF4F2C5
:100F4000A147E3E887F203A509021305050F95BF42
:100F50009D676373F506930705E01947B3C7E7027A
:100F60000357C900971AFB1F938A4AF2B387E70217
:100F7000BE9983A70A02A1CB83A74A0263913707D0
:100F800003A50A0291479305A0051308F00F13F774
:100F9000C70FB306E500B0226313B60683D8060078
:100FA000B032639C9804B307F64063C68704110708
:100FB0002286D2853A9529BF21677917E36BA7EA84
:100FC000B307F54071BF0355C9009305E00497F0DE
:100FD000FA1FE780A00823A0AA0259FD59BD835536
:100FE000C9008327490303A60A0289814E85829797
:100FF00023A23A0371B723900601B28749BF338613
:10100000870011061308F00B6374C8002D459DB5C9
:10101000ACA213063400719A1106B29786A2BCB234
:1010200079B79719FB1F938969E683A709029DCBBE
:1010300003A5090291471308A0059305F00F13F7C4
:10104000C70FB306E500B0226310060583D806007B
:10105000B03263979800B307F640E3DA87F48EA2C4
:10106000B287F1BF8347E9000355C9009305E00447
:101070003305F5023345050897F0FA1FE78000FEB7
:1010800023A0A90255F5F5B30356C9008345E9002D
:10109000B385C502338687001106E3E9C5F62381CF
:1010A000060185BF014582809C211CA1BE211CB187
:1010B000BE21A1833CA1DC213CB111458280971760
:1010C000FB1F23AD07C49717FB1F23A707C482800C
:1010D0000DCD411122C426C206C6AA842E84014524
:1010E00085C12285414697A501009385255297F039
:1010F000FA1FE78060269C2005455CA49C305CB408
:10110000B240224492444101828001458280011113
:1011100022CC26CA06CE8947AA843284639EF50073
:101120006383B602414781476395E6048A854D375C
:1011300041468A8522850DA841476392E504638F65
:10114000F600639EB6022E86A2856244F240268592
:10115000D244056117F3FA1F670083318A8532850F
:10116000853F41468A85268597F0FA1FE780403003
:10117000AA87F2406244D2443E850561828081475D
:10118000CDBF9717FB1F23A9A7B882809717FB1F16
:1011900023A6A7B88280011122CC622106CE26CADE
:1011A0004AC84EC63DC8832985002A88AE8403C933
:1011B000090081471317496063550702B147054588
:1011C00063F68704035528005114334404084E86FF
:1011D00033878900A2868545EFA0800CB337A00035
:1011E0008507135569487D141379F90333440408BE
:1011F0009CA088B023812401C2A0014719C0138795
:10120000190098C409476383E7000145F24062442E
:10121000D2444249B249056182800545C5BFC167D4
:10122000F917630AF502D94763F7B702011122CC17
:101230002EC606CE2A84EF701019B2456368B50039
:1012400022856244F24005616F90E009F2406244F9
:1012500005450561828005458280C167F9176314E1
:10126000F5006F705016411106C6EF80707711E1DE
:101270005D45B240410182809147639DF5001C218C
:101280001CA23C211831A207D98F3EA23C31014556
:101290005CA28280114582804111814522C426C210
:1012A00006C6AA849D232A8409E99717FB1F83A7F2
:1012B000A7A681C7F94526858297B2402285224498
:1012C00092444101828039714ED652D45AD05ECEBA
:1012D00006DE22DC26DA4AD856D22A8A2E8BB2893A
:1012E000B68B0DE79D3F9145EF70101C2A844D4948
:1012F000854A19EDF2506254D254B259225A925A88
:10130000025BF24B4A854259216182803A84814ACC
:10131000230034018544630A0B00DE8513051400A5
:10132000029B93041500B3C404089399496063D3E6
:101330000902C1455285EF803078654915E53306CD
:101340009400A6852285EF90903C2A8911EDB10486
:10135000B3C4040891472C0052857C8422C664855E
:10136000EF8050102A8959D5E3860AF8228597F034
:10137000FA1FE780C0DBBDBF011122CC26CA4AC8D4
:101380004EC606CE2A893284B689353FAA840DE13D
:101390009717FB1F83A7879881CF05476317E40042
:1013A00003C4090005041374F40FA2854A858297CB
:1013B000F24062444249B2492685D24405618280A6
:1013C000AE860147054697050000938525CE6DB78B
:1013D0009E211CA19E21A1831CB1094582809E21D2
:1013E0001CA19E21A1831CB1BE213CA1BE21A183D1
:1013F0003CB1114582809E211CA19E21A1831CB17C
:10140000BE213CA1BE21A1833CB1DC315CA1FC2109
:101410005CB18A2519053345050882809E211CA1EF
:101420009E21A1831CB1094582809E211CA19E2181
:10143000A1831CB1BE213CA1BE21A1833CB11145B9
:101440008280CA2106053345050882809E211CA1A1
:101450009E21A1831CB1AA2109053345050882807C
:101460009E211CA19E21A1831CB1BE213CA1BE21B5
:10147000A1833CB1CA2111053345050882809C2116
:101480001CA1054582809E21411122C406C61CA1D3
:101490009E212E841105A183A30EF5FEBE21950584
:1014A000230FF5FE83D7D5FFA183A30FF5FE03C657
:1014B000F5FF97F0FA1FE78020EA4820B240224467
:1014C00011054101828089476399F5001C3118217B
:1014D0000145A207D98F1EA28280114582809A21E0
:1014E000011106CE22CC2EC6D94763F4E7022A8426
:1014F000EF70606DB2469E22636DF50022856244F6
:10150000F24001470946970500009385A5EC056167
:101510005DBBF2406244094505618280AA87A9C18A
:101520001421FD150547B3C505086398E60013D7D8
:1015300025008D89114589CD828009471145639227
:10154000E602494533D7A502B3F5A502114591E955
:10155000114501CB850734A21AA25CC201458280E5
:1015600011458280AE86014711469705000093859C
:1015700045E791BB13F73500AA8701EB8981114537
:1015800091C50EA25CC20145828011458280D8219E
:101590008947631BF702011122CC2A84C84506CE75
:1015A000AE8601C92EC69D4597F0FA1FE780A0C5FB
:1015B000B2462A8722856244F24019469705000008
:1015C0009385A5E3056101B30945828099E1114541
:1015D00082801C2105473EA2E37BF7FEFD1593F5B3
:1015E000F50F33D7F502B387E702E392F5FE050561
:1015F00048C21AA201458280DC210947AE86638574
:10160000E70041476399E70001472146970500003D
:101610009385A5E74DB9094582800EA291E1014568
:1016200048C201458280AE860147294697050000E1
:10163000938505DF49B90EA291E1014548C20145F4
:101640008280AE860147314697050000938525DEEE
:101650009DB90EA291E1014548C201458280DA217F
:10166000854763FFE702011122CC2A84884106CE18
:101670002EC615C1854597F0FA1FE780C0B82A87A6
:1016800022856244B246F2403946970500009385B0
:1016900085DB05610DB9F240624409450561828030
:1016A00009458280AA878DC518218D46114563F2B0
:1016B000E602FD15B3C50508B3C6E5023308D70237
:1016C00063990501850716A23AA25CC20145828092
:1016D00011458280DC210947AE866385E7004147DA
:1016E0006399E70001474146970500009385E5D9D6
:1016F000D9BE094582803335B0000A0582800111C8
:1017000022CC26CA06CE98258547AA842E8449462F
:10171000631FF70099363E2049151306200963C858
:10172000A700F2406244D244094505618280183422
:1017300085476314F70013660604484001C98D45C8
:1017400032C697F0FA1FE78000AC3246A2866244A8
:10175000F2402A872685D24497050000938545CF1D
:10176000056195B68D4763F7B7021C311821F11555
:10177000A207D98F1EA23C313821B3C50508A207A4
:10178000D98F014799C1130745003EA24EA218C642
:101790000145828011458280011122CC2A8488452E
:1017A00006CEAE8601C92EC6954597F0FA1FE78092
:1017B00080A5B2462A8722856244F24059469705A1
:1017C0000000938525CA0561FDBC3335B0000A05CC
:1017D0008280AE860147614697050000938565CA01
:1017E000DDB48547114563F1D7021C320C2209454F
:1017F000A207CD8F81456384A60093052600F916C4
:101800001EA336A34CC30145828001478146794619
:10181000814555BC9E211CA19E21A1831CB1094577
:101820008280BC2105471CA18A216397E7000A0535
:101830000505334505088280C9473305F502CDBF4C
:101840008A210A05334505088280BE211CA18A2110
:10185000BE213305F50205053345050882808A213E
:1018600082808A2182808A218280BE211CA18A21D5
:10187000BE213305F50205053345050882809E210A
:101880001CA19E21A1831CB1BE213CA1BE21A1832C
:101890003CB1CA2111053345050882809E211CA157
:1018A0009E21A1831CB1AA21090533450508828028
:1018B000894711456398F6001C3214220145A2079E
:1018C000D58F1EA382809A21D947AE8663F9E7009F
:1018D00001470D4697050000938505F471BC094545
:1018E00082801145639DA6001C3214220145A20787
:1018F000D58F1EA33C323422A207D58F3EA382800F
:10190000BC210547FD1793F7F70F6361F7049E218C
:1019100095CF011122CC2A84C84106CE2EC615C10E
:10192000894597F0FA1FE780008E2A872285624456
:10193000B246F2401546970500009385C5EE056155
:1019400025BCF240624409450561828009458280D8
:10195000954763F0D706411122C426C24AC006C685
:101960001C323A841822A207B284D98F1EA03C32BE
:10197000382293854400A207D98F3EA089475CA0F6
:10198000094613055400368997F0FA1FE780C09C7A
:10199000194781476304E900938764006919231498
:1019A0002401B2405CC422449244024901454101F1
:1019B0008280114582809E2195CF011122CC2A84FC
:1019C000C84106CE2EC615C1854597F0FA1FE7809F
:1019D00080832A8722856244B246F2401D469705DD
:1019E0000000938525E6056141BAF240624409454D
:1019F00005618280094582809947B2856388F60037
:101A0000D147114541466384F60082800946411161
:101A100006C650A39C31942113055700A207D58F09
:101A20001EA3BC31B4219105A207D58F3EA397F028
:101A3000FA1FE7806092B2400145410182809E21F9
:101A40009DCF011122CC2A84C84106CE2EC61DC1CD
:101A5000894597E0FA1FE780007B2A872285624448
:101A6000B246F240254697050000938545DE0561A4
:101A70006FF09F90F24062440945056182800945FC
:101A80008280894711456398F6001C321422014573
:101A9000A207D58F1EA38280011122CC2A84C841BF
:101AA00006CEAE8601C92EC6854597E0FA1FE780AF
:101AB0008075B2462A8722856244F2402D469705FA
:101AC0000000938505DA05616FF01F8B19BD0111C8
:101AD00022CC2A84C84106CEAE8601C92EC68545D1
:101AE00097E0FA1FE7802072B2462A872285624477
:101AF000F2403546970500009385E5D605616FF005
:101B0000BF8793F71600114581EB89476386F6007E
:101B1000858256A310C301458280011122CC2A84FC
:101B2000C84106CE2EC61DC1854597E0FA1FE78045
:101B3000806D2A8722856244B246F2403D46970571
:101B40000000938585D205616FF01F83F2406244E7
:101B50000945056182809E219DCF011122CC2A84F6
:101B6000C84106CE2EC61DC1894597E0FA1FE78001
:101B700080692A8722856244B246F240454697052D
:101B800000009385C5CE05616FF00FFFF2406244FF
:101B900009450561828009458280854763F4D70243
:101BA00008A70CB71C320C220945A207CD8F81452E
:101BB0006384A60093052600F9161EA336A34CC322
:101BC0000145828011458280014781464D4681450D
:101BD0006FF08FFA8D47114563F5D7021C320C2246
:101BE000A207CD8F1EA33C322C22A207CD8F8145A8
:101BF0006384A60093054600F1163EA356A30CC7C6
:101C000001458280011122CC2A84884506CEAE8609
:101C100001C92EC6954597E0FA1FE780C05EB2461F
:101C20002A8722856244F2405D469705000093852D
:101C300045C505616FF04FF4854711456395F60082
:101C40001C2201451CA382800147814665468145CF
:101C50006FF08FF2011122CC2A84C84106CEAE86E5
:101C600001C92EC68D4597E0FA1FE780C059B246DC
:101C70002A8722856244F2406D46970500009385CD
:101C800025C205616FF02FE4011122CC2A84C841DE
:101C900006CEAE8601C92EC68D4597E0FA1FE780B5
:101CA0008056B2462A8722856244F24075469705DF
:101CB00000009385E5BE05616FF0EFE0011106CEEF
:101CC0002EC6EF80004E19C5B245F2402A210561AB
:101CD0006FC04024F2404945056182809707FB1F91
:101CE000A38407069707FB1F238007069707FB1FA0
:101CF00023AA07049707FB1F23A407049707FB1FCA
:101D000023AE07029707FB1F23A807029707FB1FB5
:101D100023AA07009707FB1F23A407009707FB1FB1
:101D2000938787203706840390D33707B40037C6DC
:101D3000070098C3130606B83747A000D8C3D0D30E
:101D40003707100041669306070AB705500093084D
:101D5000060194C723A4170393860501930816F878
:101D6000D4C723A61703B706D007B7087F00130808
:101D7000070513850601410723A81703B0C393087D
:101D800016009386060513861500D8CBF8C323A842
:101D9000070188CF23AE070023AA170323AC07024D
:101DA00023AE070223A40704F0C7B4CB23AA070479
:101DB000ACCF23AE0705B8D33707A000F8D7130779
:101DC000000AB8DB1307C01CF8DBE8D323A407061E
:101DD000930710F81707FB1F2328F71C82800111B7
:101DE00052C42A8A214522CC26CA4AC84EC606CEEB
:101DF0002E84B2893689BA8497E0FA1FE780C045FD
:101E000005C9930700FD1CA19947A30045013CA10A
:101E10002303250164B123123501AA85228562447A
:101E2000F240D2444249B249224A05616FE00F961E
:101E3000F2406244D2444249B249224A056182805A
:101E40009707FB1F23ACA7EE82809707FB1F23A5F4
:101E5000A7EE8280011122CC26CA4AC806CE4EC601
:101E60002A89AE840144B309890063699400F24071
:101E70006244D2444249B24905618280EFE04F9BFF
:101E8000B3470508A1832380F9009307140093F753
:101E9000F70F850963F89700CA97090488A313749C
:101EA000F40FD1B73E84D1B7411122C41704FB1FF0
:101EB0001304C40F6A20C16706C6FD17630EF50040
:101EC0001706FB1F0346062F9705FB1F9385C5E5E5
:101ED000EF80800FFD577EA0B240224441018280F6
:101EE00009C925151375F50F1335850E1345150012
:101EF00082800145828023900500C9C2797122D475
:101F000026D252CC56CA5AC806D64AD04ECE5EC643
:101F10002A8B2E8AB28A3684814463FF5405B30724
:101F2000940083C9070013891400334909086385A5
:101F30000904B387290163C1FA04B307240183CBE1
:101F400007005E85713F0DC99387F9FF2310FA00E2
:101F500063906B03050933052401B2502254925457
:101F60000259F249624AD24A424BB24B45618280E1
:101F7000CE94B3C4040855B70145C5B70145828066
:101F8000011122CC26CA4AC84EC606CE9704FB1FB2
:101F90009384C4012E89D0C88CC8C8C42A84414601
:101FA0009305F00F4A8597E0FA1FE7808054854932
:101FB000631935038848C145713D41469305F00FCB
:101FC000228597E0FA1FE780C05205496315250373
:101FD0006244C844F240D2444249B249C145056115
:101FE00095BD414681454A8597E0FA1FE7806050DC
:101FF000E31535FDC1B741468145228597E0FA1FBB
:10200000E780204FE30625FDF2406244D244424976
:10201000B24905618280411122C426C22E84AA845D
:102020001306000281451705FB1F130525F806C698
:102030004AC097E0FA1FE780A0381709FB1F130971
:10204000E9F69707FB1F23898716A3019900EFB0D4
:10205000B06E854719C1814749452300F900B24058
:10206000224492440249410182809DC91DC985478D
:102070006318F500DC3193E707FCDCB1054582808D
:1020800089476316F500DC3193F7F703FDB78D47F9
:10209000E316F5FEDC3193F7F70393E70704F1BF8E
:1020A000014582808DC10DC1DC311307000C05454F
:1020B00093F7070C638AE70013070004094563954B
:1020C000E7000D45828001458280411122C4005DF8
:1020D00006C626C21DC8AA84085009C597E0FA1F83
:1020E000E780E004485009C597E0FA1FE780200424
:1020F000085409C597E0FA1FE7806003228597E03E
:10210000FA1FE780C00223AC0402B240224492448A
:102110004101828019ED9707FB1F83C747E9170527
:10212000FB1F130525EA91CB1705FB1F130545C0BF
:1021300082801705FB1F1305E5E882801705FB1F4A
:102140000345E5E682801705FB1F0325E5E682804F
:102150001705FB1F032585E682809707FB1F83A7D2
:1021600027E6884382801707FB1F130727E4544B99
:102170009C4285079CC228339307F00F6305F50046
:1021800091656F90917C8280011122CC06CE2E84C5
:1021900032C6EF8000119147B245631EF5009707E4
:1021A000FB1F83A767B999CF9C4389CF22856244DF
:1021B000F240056182879707FB1F83A767B899C321
:1021C000DC43E5B7F24062440545056182807971E0
:1021D00022D42A844A214ECE06D626D24AD0EFA057
:1021E000C10C9709FB1F938929B629E983C409000B
:1021F0009307F00F639DF4009705FB1F83C5D5B4CB
:1022000026856D3C09E59707FB1F238F07B24A20FF
:10221000EF8020099147631CF5009707FB1F938708
:10222000E7D85620FA236394E6007D57FAA3B2500C
:10223000225492540259F249456182805825042162
:102240002A893AC659354A85EF80E0424A20EF8014
:10225000C00083C70900324799C3E38F97F89307FB
:10226000F00F5220E385F4FA74202820A685853EDD
:1022700079BF79715AC82A8B2E854ECE52CC56CA58
:1022800006D622D426D24AD05EC62E8AB28AB68913
:10229000EFA0A10175C5045D2A89FDC09C501305FE
:1022A000400391E361459C5489C79307450133C5B9
:1022B0000708638609009307C50133C50708DC508A
:1022C00089C79307750133C5070897E0FA1FE780B0
:1022D000A0F82A8455C56146814597E0FA1FE7803A
:1022E000200E970BFB1F83CB2BC763940B00834BF4
:1022F0000900930700FD1CA0A947A30064013CA0AE
:10230000230354018C50231244011305840191C905
:1023100008C47146130A440397E0FA1FE780C0031C
:1023200052858C5491C948C45146130A450197E01F
:10233000FA1FE78060025285638C090008C8714665
:10234000CE85130AC50197E0FA1FE780E0005285A9
:10235000CC5099C548C85D4697E0FA1FE780C0FF9A
:10236000A2855E85EFD09FC22254B2509254F249AA
:10237000624AD24A424BB24B4A8502594561B1B3D7
:10238000B250225492540259F249624AD24A424B04
:10239000B24B4561828001114EC6AA892E8526CA9C
:1023A00006CE22CC4AC8AE84EF90317021C91709FD
:1023B000FB1F034969BA6314090003490500194565
:1023C00097E0FA1FE78040E92A840DC98145194644
:1023D00097E0FA1FE780C0FE930700FD1CA0B947F5
:1023E000A30034013CA046A0A2856244F240D2443E
:1023F000B2494A85424905616FD05FB9F2406244F3
:10240000D2444249B24905618280797162C42A8C02
:102410002E8526D24ECE52CC56CA5AC85EC606D695
:1024200022D44AD0AE84B28B368BBA8A3E8AC28915
:10243000EF90B16735C52A89414597E0FA1FE780DB
:10244000A0E12A8431CD4146814597E0FA1FE7801B
:1024500020F71705FB1F034525B019E103450900C7
:10246000930700FD1CA0BD47A30084013CA02304EA
:102470007401A304640123055401A305440146A08B
:1024800023263401A2852254B25092540259F249B3
:10249000624AD24A424BB24B224C45616FD01FAFC9
:1024A000B250225492540259F249624AD24A424BE3
:1024B000B24B224C45618280011126CAAA8439455B
:1024C0004AC84EC652C406CE22CC2E8AB28936895C
:1024D00097E0FA1FE78040D815CD9307000D1EA1A5
:1024E000B1472A84231245013CA1CE85190519461E
:1024F00097E0FA1FE78040E623062401A2856244A4
:10250000F2404249B249224A13F5F40FD244056120
:102510006FD0DFA7F2406244D2444249B249224A16
:1025200005618280411126C206C622C44AC09704B2
:10253000FB1F9384A4A7B8309307F00F6308F70438
:102540002A89394597E0FA1FE78000D12A841DCDFA
:10255000930700FD1CA1A300250123010500970599
:10256000FB1F938525A60D05194697E0FA1FE78006
:10257000A0DE9E24A285A8303EA49C305CA4224408
:10258000B2409244024941016FD05FA0B240224460
:102590009244024941018280011156C2AA8A314502
:1025A00026CA4AC84EC652C406CE22CC5AC0AE84F1
:1025B000328AB6893A8997E0FA1FE780E0C93DC9B7
:1025C0002A842685EF90714E09C55825A1476311CD
:1025D000F704170BFB1F034B9B9D930700FD1CA0EB
:1025E0009D47A30054013CA046A02313440123149B
:1025F000340123152401A2856244F240D2444249A9
:10260000B249224A924A5A85024B05616FD01F98FF
:10261000170BFB1F034B5BBAE3910AFC9707FB1FE9
:1026200083A787839C47D5DBCA864E86D2852685BD
:10263000829765B7F2406244D2444249B249224A85
:10264000924A024B05618280411126C2AA8421452B
:1026500022C406C62E8497E0FA1FE780E0BF15C5A6
:10266000930700FD1CA1C5473CA13C30AA853CB1A5
:102670005E205EA17C207CA17C307CB12244B240F3
:102680002685924441016FD07F90B240224492440B
:102690004101828001114AC82A89614526CA4EC675
:1026A00006CE22CCAE89B28497E0FA1FE780C0BA8A
:1026B00025C1930700FD1CA1BC302A8493858400AA
:1026C0001CB195473CA1FC3011051946A30FF5FE3E
:1026D00097E0FA1FE78040C8DE2023063401A28578
:1026E0003EA4BE2C4A857EA4DE2C1EA8FE2C3EA84D
:1026F00083C704025CA883C714025CB8BE30F240F2
:10270000D2447EA862444249B24905616FD01F8815
:10271000F2406244D2444249B2490561828041118B
:1027200022C406C61704FB1F130444883C209DCB1B
:10273000AA85194617F5FA1F1305855F97E0FA1F5A
:10274000E78080C1282097F5FA1F9385655EEFF03A
:10275000DF912244B24017F5FA1F1305655D410170
:102760006FB0407EB2402244014541018280411158
:1027700026C206C622C44AC09704FB1F9384048362
:10278000B8309307F00F6302F7042A89294597E0D0
:10279000FA1FE78060AC2A840DC9930700FD1CA1D5
:1027A000A147A30025013CA1BC2097F5FA1F938502
:1027B00025581105A30FF5FE194697E0FA1FE7808B
:1027C000A0B9A830A285EFD06FFCB8208D47631F59
:1027D000F70097F7FA1F83A7675689CB9C4799C7DD
:1027E0002244B2409244024941018287B2402244CD
:1027F0009244024941018280797122D406D626D2C0
:102800004AD04ECE52CC56CA09445DC92A890A2103
:102810002E8A5144EF907129AA845DC1970AFB1F4B
:10282000938A4A9983C74A0005474944FD1793F79D
:10283000F70F6377F7085825A1476314F700631172
:102840000A089C5C4544ADEF91659385457113057D
:10285000C00297E0FA1FE780608088DCAA894D44B7
:1028600025C11306C002814597E0FA1FE78040B5F5
:10287000835709009386490036852391F9007146F4
:102880009305490036C697E0FA1FE780E0AC894718
:102890002380F900DC24B2460356090083C50A00F0
:1028A000E11713B51700EF8070132A8463060A003E
:1028B000D2852685EF80400A01C42685EFF0FF808F
:1028C000B2502285225492540259F249624AD24AA5
:1028D000456182809707FB1F83C7078EFD1793F71B
:1028E000F70F05476375F70801114AC806CE22CCD9
:1028F00026CA4EC652C43289894739CE2A8AAE8941
:102900003684EF90911AAA84D14739C5485509C534
:1029100097E0FA1FE780A081F1454A8597E0FA1F0A
:10292000E78020B0C8D4AA85CD471DC5D824A147CB
:10293000631DF70209C8382D122993062501528517
:10294000EF80E0072A84D82093674700638409005A
:1029500093676700DCA0A287F2406244D2444249F8
:10296000B249224A3E85056182800144E9BFC947D8
:102970003E8582809307000463EAA70097F7FA1F59
:102980009387875A3325F5200A21828041657D157A
:102990008280011122CC2A842E8526CA06CEAE84DE
:1029A000EF90B1100DCDB7470F009387F72309457E
:1029B00063E2870281450A85414697E0FA1FE78076
:1029C00020A0A68560800A8541804081A301010086
:1029D000EF800062F2406244D24405618280494542
:1029E000D5BF97F7FA1F2388A77C82806F80607914
:1029F000797152CC2A8A328526D24AD04ECE56CA16
:102A00005AC85EC662C406D622D42E8CB28A368BD1
:102A1000BA8B3E89C289C684EF90310905C92A84E0
:102A2000631A0A1893774B000343450085CF13635D
:102A3000230163940B1663100914639F090885E84A
:102A40001C5C1373B3FF23026400C5EBB250225425
:102A500092540259F249624AD24A424BB24B224C3A
:102A6000456182801373D3FF13630301D9B71363E6
:102A70004300230264009C484146A6851CD41305EC
:102A8000840197E0FA1FE780208D63130C12638C9A
:102A90000B0A485409C597D0FA1FE7804069F145F1
:102AA0005E8597E0FA1FE780C09748D4005C59DC48
:102AB0001C5091EB916593853571714597D0FA1F44
:102AC000E780C05908D008500DC17146DE8597E0F7
:102AD000FA1FE780608811A8136343002302640093
:102AE000D9F8005C630C0C0235D0639A0902A5E0AA
:102AF00029A0005C21DC639409022254B250925454
:102B0000F249B24B224CCA865A860259424BD685AC
:102B10005285D24A624A45616FF0AFF505D85C50E4
:102B200091EB9165938525715D4597D0FA1FE780FC
:102B3000E05248D0485045DD5D46CE8597E0FA1F0B
:102B4000E78080816DB7005C11D0E39A09FC1C54CA
:102B500091EB916593851571514597D0FA1FE780E8
:102B6000E04F08D4085451D95146A68597D0FA1F92
:102B7000E780807E59B71363430023026400E39C1F
:102B800004EEE3080CF6485405EDF1454A8597E05C
:102B9000FA1FE780008948D431A813634300230259
:102BA0006400E39A04ECE3060CEEE31E09FCFDBDB1
:102BB000E31B09FC005CE30B04E8E39B0BEE35B779
:102BC00097D0FA1FE780A056C9B7011126CA52C490
:102BD00006CE22CC4AC84EC62A8AAE84EF90E16C5B
:102BE00035C12A89394597D0FA1FE780E0662A84E3
:102BF00031C997F9FA1F83C92936639409008349BB
:102C000009009307000D1EA0AD473CA09305690085
:102C100013053400194697D0FA1FE780E07393F745
:102C200014005CA493D4144844B423154401A28531
:102C30006244F240D2444249224A4E85B24905617B
:102C40006FD0CFB4F2406244D2444249B249224AE2
:102C50000561828001114EC652C456C206CE22CCF6
:102C600026CA4AC8AA8A2E8AB289EF90016435CD55
:102C7000AA841305C00297D0FA1FE780E05D2A847A
:102C80002DC517F9FA1F0349292D6314090003C93B
:102C900004009307000D1EA0E9473CA09385640043
:102CA00013053400194697D0FA1FE780E06AD285F1
:102CB000231554011305C400414697D0FA1FE7803D
:102CC000A069CE851305C401414697D0FA1FE7805D
:102CD000A068A2856244F240D244B249224A924A94
:102CE0004A85424905616FD06FAAF2406244D244DE
:102CF0004249B249224A924A0561828017F5FA1F79
:102D00000325050211CD411106C697D0FA1FE780B1
:102D10000042B24097F7FA1F23A4070041018280C6
:102D20008280411122C406C626C24AC02E84EF907A
:102D3000C15729CD00D517F9FA1F0349E921AA8403
:102D40006314090003490500414597D0FA1FE78045
:102D5000A0502A8405CD9307000D1EA1A5473CA1D4
:102D6000DC30938564001105A30FF5FE194697D05A
:102D7000FA1FE780605E9C54A285B2405CC4224486
:102D800092444A85024941016FD04FA0B24022448B
:102D900092440249410182805D71A2C4A6C286C6E6
:102DA000AA842E84EF9061500DC954251147AA873B
:102DB0004945639FE6009C5F91C3E02B9796000016
:102DC0009386A6290A86894526854080EF70D02FF4
:102DD000B64026449644616182805145D5BF97F73D
:102DE000FA1F83C7673DFD1793F7F70F0547637811
:102DF000F704411126C206C622C44AC0B2848947DC
:102E000005CA2E89EF90614A2A84D14715C163060D
:102E100009005C2193E727005CA14146A6851305C4
:102E2000840197D0FA1FE78020539C481CD4814727
:102E3000B2402244924402493E8541018280C94702
:102E40003E858280011122CC26CA06CE2A84AE8419
:102E5000EF90A14519C96C0022854486EF70702C53
:102E6000F2406244D244056182805145D5BF6F7003
:102E70008038C1671387E7FF6393E50297F7FA1F6E
:102E800083A707EC91EB494582804945B240224433
:102E900092440249410182809C43F5D782874111C7
:102EA00022C426C24AC006C6FD172A892E84B284CF
:102EB000639AF50297F7FA1F83A787E889C79C43AF
:102EC00099C3829711C5A6854A85EFE03FDF5DFD76
:102ED00097F7FA1F238A27E797F7FA1FA38697E643
:102EE00001456DB72E85EF90413C45D11C210D4524
:102EF000E39E27F922852244B2400249A6859244E6
:102F000041016FB020019307000463E1A70641115E
:102F1000C16722C426C206C6FD172A84AE840945AD
:102F20006380F502C5476312F4022E85EFB0E00519
:102F300097F7FA1F938747FF3324F420014506A033
:102F4000B24022449244410182809307A003631659
:102F5000F4002E85EFA0D07CE1BF9307B003E31906
:102F6000F4FC13F5F50FEFA0F07BD9B7094582808B
:102F7000011106CE2AC6EFE07FD6EF108011EF7068
:102F80003150324597F7FA1F93874702130700F035
:102F9000BAA3238207007D5797F7FA1F93878721EB
:102FA000B8A388A3F240954505616F50104B757129
:102FB00026C306C722C54AC1CEDED2DCD6DADAD8AD
:102FC000DED6E2D4E6D2EAD0EECEAE849397556058
:102FD00063D1075617FAFA1F130ACA1D03450A00E0
:102FE000130B200A930BF00F97D0FA1FE780C02C29
:102FF000C167FD172A84130C1009954C394D97FDB4
:10300000FA1F938DADFA3ECC15E01395F468BA40E3
:103010002A449A440A49F659665AD65A465BB65B20
:10302000265C965C065DF64D496182801C20639AA1
:10303000670103C93D00E2452A202286EFF0CF94C4
:10304000E1A003492A00639A87091C306390970323
:103050002285EFF0CF972285EFC03FEE03450A00AF
:1030600097D0FA1FE78040252A8479BF639BA71970
:103070004A208567A507631AF5040C4497F9FA1FDF
:103080009389C9F2882115E51946850517F5FA1FB8
:10309000130545F397D0FA1FE780002C03C70900FA
:1030A0008547631CF70289472380F900EFA0506928
:1030B0005DB703C7090085476311F70297F7FA1F49
:1030C000238607EEEFF00FC679B709679307C700AD
:1030D00063EFA7040507636BA702E30E79F7A285E8
:1030E0004A85EFC0BFEA9DBF370700181307F77086
:1030F000B357F748E5CB97F7FA1F83A727C4A1DF9B
:103100009C43B1DB2285829739F5C1BFF977F91766
:10311000AA972947B3C707086366F70C178701000A
:103120001307C74FB3C7E7209C43BA978287F97745
:103130009387A7FCAA97F146B3C70708E3F6F6FA08
:103140003907E31CE5F897F7FA1F83A767BFE38405
:1031500007F0DC43E38107F00965A2853905A5A8DE
:1031600083298400E38B09F603C7090097F7FA1F48
:103170009387C7E319EB03C7290083C61900220709
:10318000558F9AA703C7390098B394230947E3964C
:10319000E6F403C7090001CB97F7FA1F238807E07D
:1031A00003C5090005B78C338A270D4798A3EF5054
:1031B000702DFDB71C448823EFF06FDB69BD97F7D6
:1031C000FA1F83A727B8E38807E89C43E38507E84D
:1031D0000965A2852D05829705BF1C449C23E39EAB
:1031E00007EE95BD896793871704E318F5EE97F707
:1031F000FA1F83A727B5E38007E69C43A285E1FF7A
:1032000099BD3D476394E7064A2089671387D70035
:103210006306E50013879701631AE50097F7FA1F25
:1032200083A707B2E38907E2DC43C9BFCD07E316F2
:10323000F5EAC16717F7FA1F0357A7D7FD17631FF2
:10324000F70097F7FA1F83A7A7AFE38607E0DC43F1
:10325000E38307E00965A2854D05B5BF97F7FA1F1F
:1032600083A787ADE38907DE9C43DDB71307E0033F
:10327000E395E7E63C2005476398E7127C2097FA40
:10328000FA1F938AEAA96390071083A70A0063874D
:10329000070E83C907002149683093078400BE8563
:1032A0003ECEEFE03FE068B0130640028145681073
:1032B00097D0FA1FE780C0103C3019469305840070
:1032C000A307F1027C304818A309F10297D0FA1F36
:1032D000E78080085E207010CA852318F1027E24E2
:1032E0004E852313F1041E282314F1043E282315D0
:1032F000F1045C282306F104FD57A306F10423170B
:10330000F104EFF02FB93C309DE3DD478358040111
:103310000358E40074304E203EC23E281307840058
:103320003EC0CA8705464E85EF70200E28B083A7A1
:103330000A0081C71145EFF07F9C97F9FA1F938926
:10334000A9A003C50900E30805D097F5FA1F83C5B6
:10335000B59FEFE0BF96E30005D03430930710032C
:103360006389F600522083C509004A873685EFE05D
:103370001FA797F7FA1F2389079CF1B997F9FA1F3E
:1033800083C9F9C209BF97F7FA1F83A7279B97F94B
:10339000FA1F83C9D9C199C3DC4399E31149EDBD33
:1033A000814501458297DDBFCD4663E3F602E376B2
:1033B000F7D2F91793F7F70F4547E360F7D217876E
:1033C000010013076728B3C7E7209C43BA97828799
:1033D00013079002E393E7D07C2097FAFA1F938AB1
:1033E0002A94A9EB83A70A00A9C383C9070021492E
:1033F000683093772500A5C305891307440168B099
:103400002286CA854E853ACEEFF0CFA83C3072476F
:1034100099FFDD478358C4010358A40174304E203E
:103420003EC27E2C3EC0CA87F5BD97F9FA1F83C9FC
:1034300019B875BF97F7FA1F83A7479097F9FA1F36
:1034400083C9F9B699C3DC4399E3114955B781455E
:1034500001458297DDBF13078400BA853ACEEFE0BD
:103460007FC4724769BF97F7FA1F83A7A78DE384CC
:1034700007BEDC43E38107BE22858297E9BE97F74A
:10348000FA1F83A7278CE38807BC9C47E5B72286F1
:103490008D454A2065B69305A10213051031EF70E2
:1034A00011066C1013052031EF70710572208357DF
:1034B000C1024A2063E7C70016240357A10263F73D
:1034C000E60093050002EFA0502B71B66373E6008F
:1034D0007AA063F3D7001EA45A24362412246E2047
:1034E00001488147EFA03029BDB62286B14555B7C6
:1034F00097F7FA1F83A70785E38F07B4DC479DBFC3
:1035000097F7FA1F83A78783E38907BCDC43E38629
:1035100007BC814505458297C9B697F7FA1F83A76F
:10352000E781E38C07BADC43E38907BAA285094542
:10353000DDB793F7150089CF97F7FA1F83A7878028
:1035400089C7DC4399C30145829713C51400C1B4F0
:1035500093F7250091CF97E7FA1F83A7277E91C79E
:10356000DC4381C781450545829713C5240045B4D6
:1035700013F54500E30D05A897E7FA1F83A7877A9F
:1035800017F4FA1F130484A289CF85475CA097E73C
:10359000FA1F83A7A77A91C7DC4381C781450545F8
:1035A000829748446C10EF7030116810EFF02F973D
:1035B00097F7FA1F83D7679981CF13060064338684
:1035C000C702914517F5FA1F0345C5BEEFC0BFC13D
:1035D00013C544002DBC17E5FA1F0325A57411CDB2
:1035E000411106C697D0FA1FE78060B4B24097E752
:1035F000FA1F23A90772410182808280011122CC27
:1036000006CE26CA0D472E846315E504B831E94776
:10361000CA2197F4FA1F938464996315F700FE207A
:103620006385A704EF807148722011C172A53A2406
:1036300016244E202830EFE03FF65A20FE20631477
:10364000F700FD57FEA00545F2406244D2440561F3
:10365000828009674D07AA87631CE500BC213147BA
:103660006385E7004547E390E7FEEFE0FF83E1BFB6
:1036700031476319E50017F5FA1F0345F5B3EFE08D
:10368000BFFCD1B741677D170145E39FE7FAD83109
:10369000C947E31BF7FACC212A203000231401008C
:1036A000EF60F00E4DB71971A2DC17E4FA1F130496
:1036B00064671C4086DEA6DACAD8CED6D2D4D6D26B
:1036C000DAD00545638A070C9305F1051305F0412F
:1036D000EF5011559305F1051305F041EF5051548A
:1036E00097F7FA1F9387878CBC230347F105B337FD
:1036F000F00011C389071840BEC628339305470060
:10370000EFE0BF961840AAC40D452C23AEC2EFF0DF
:103710006FA6AAC01145EFF0EFA5832A04002ADEA8
:10372000654503C7AA0003CBBA003ADCEFF08FA4CB
:103730002A846945EFF00FA4AA847145EFF08FA3A6
:103740002A896D45EFF00FA3AA897545EFF08FA286
:103750002A8A7945EFF00FA22648B6476257F256FB
:10376000064696451375F50F137AFA0F93F9F90F7C
:103770001379F90F93F4F40F2ACC1314446002D098
:1037800002CE52CA4EC84AC626C422C25AC0938824
:103790004A000545EFA03000F6506654D65446590D
:1037A000B659265A965A065B09618280411122C495
:1037B0004AC006C626C217E9FA1F1309695A834789
:1037C00009001307E00F2E846382E7041307F00F4C
:1037D0006385E702114597D0FA1FE780E0A7AA8525
:1037E00009CD930700FD1CA189473CA1854700B185
:1037F0003CB103450900EFC06FF9F9572300F90008
:10380000B24022449244024941018280AA84114577
:1038100097D0FA1FE78040A4AA857DD1930700FDC9
:103820001CA1894700B13CA124B12244B24092447A
:10383000024917E5FA1F0345955241016FC00FF584
:1038400079714AD017E9FA1F1309C94D8327090076
:1038500022D406D626D24ECE52CC4544C5EB97F4A0
:10386000FA1F93842495DC204944958BC5C32E8A86
:10387000916597E7FA1FA384A74EAA89938575716E
:10388000314597C0FA1FE780607D2320A9004D4491
:1038900035CD23003501A30005002946D285090551
:1038A00097D0FA1FE78040AB0327090091463C23DD
:1038B00063E7F606CD4691CF0546F546638BC70014
:1038C0000946C9466387C7000D46C1466383C700E2
:1038D000D54634A3930571001305F041EF505134E0
:1038E0009C83C5E317E7FA1F0347676C8D47631A8C
:1038F000F708EFE05F852C00EF70005C2800EFE038
:103900001FE24545EFF00F8725E50144B2502285BF
:10391000225492540259F249624A45618280ED175D
:1039200093F7F70F95460544E3E2F6FE978601000C
:10393000938606D6B3C7D7209C43B697828789471C
:103940003CA319A0230107006545EFF0AF82930760
:10395000F007E301F5F8032709003C2393E7070488
:103960003CA38DBF8547E9BF9947D9BF9147C9BFE0
:10397000130600643306C50288209145EFC0BF8658
:1039800069B715332A8451D1B93149B7011126CA13
:1039900097E4FA1F938404399C4022CC06CE4AC88F
:1039A0004944A1C79C230D446391A70417F9FA1F4A
:1039B00013094980034509008945EFC0BFAB0345A2
:1039C0000900914597E7FA1F239A0738EFC09FAA8D
:1039D0009C400147814680B31306F1008547854529
:1039E0000145DC87EFA0805E2A84F2402285624494
:1039F000D244424905618280011106CE22CC26CAFA
:103A00004AC84EC68547631EF50617E4FA1F13041D
:103A1000E4341E20B1CB17E7FA1F0347675929E7A3
:103A20001307B003636EF70297E4FA1F9384847858
:103A300088208945EFC01FA41220930700648820C6
:103A40003306F6028945EFC00FFA97E7FA1F23976E
:103A50000730F2406244D2444249B2490561828053
:103A6000938747FC1EA0F5B797E7FA1F83A7872B1C
:103A7000EDD36244F240D2444249B2498823056101
:103A800031B797E9FA1F9389E92983A70900F1D390
:103A900017E9FA1F1309097283474900918BD5DB97
:103AA00089476311F5062D45AE8497C0FA1FE7805C
:103AB000A07A2A8459DD930700FD1CA1E547A300E5
:103AC00005003CA1BC3015051946230FF5FEDC208E
