:040000006F10D0119C
:100004000000000000000000900000208C0200208E
:10001400A9BDF9F544030020000000000000000021
:1000240044030020900000200000000000000000B5
:10003400900000200000000090000020000000005C
:1000440090000020900000209000002090000020EC
:10005400900000203C0B00209000002000000000D5
:1000640090000020900000209000002090000020CC
:10007400AA0300209000002090000020900000209F
:1000840090000020900000209000002090000020AC
:1000940001A0011113078008F337078093F787083D
:1000A4003EC201000100B71700409305700523808C
:1000B400B704130680FA2380C7040100010083C635
:1000C400B70493F6F60DA385D7042380070492465C
:1000D400F3A606800100010093760502D5CEF3361F
:1000E400078093F6860836C4010001002380B70414
:1000F4002380C70401000100B70614007D89558DD3
:1001040088C7010001000100010023800704A24602
:10011400F3A6068001000100733707801377870870
:100124003AC6010001002380B7042380C7040100FC
:100134000100010001003727004093061005A303C6
:10014400D78023800704B247F3A70780010001008A
:1001540093078008F3B7078093F787083ECE010022
:100164000100B7170040130770052380E704130745
:1001740080FA2380E7040100010003C7B704136772
:100184000708A385E70423800704F247F3A7078041
:10019400010001000561828093760504BDC6F33633
:1001A400078093F6860836C8010001002380B7044F
:1001B4002380C70401000100B706140093860604D7
:1001C4007D89558D88C7010001000100010023804D
:1001D4000704C246F3A606800100010073370780B6
:1001E400137787083ACA010001002380B7042380EB
:1001F400C704010001003727004093062005A3032C
:10020400D78023800704D24781B7733707801377D9
:1002140087083ACC010001002380B7042380C70477
:100224000100010098471367070C98C7238007044F
:10023400E24719BF0111814601468145114506CEA9
:10024400992493078008F3B7078093F787083EC67D
:1002540001000100B7170040130770052380E7046D
:10026400130780FA2380E7040100010003C7670431
:10027400136717002383E70423800704B247F3A717
:10028400078001000100F24005618280411181462E
:10029400014681451145C52A13078008F3370780B5
:1002A40093F787083EC401000100B7170040130606
:1002B40070052380C704930680FA2380D7040100C5
:1002C4000100FD552396B70223800704A245F3A538
:1002D40005800100010073370780137787083AC649
:1002E400010001002380C7042380D704010001001A
:1002F40003C76704136717002383E70423800704F5
:10030400B247F3A707800100010001A0BD473305F0
:10031400F50201007D1575FD8280411122C426C2BB
:1003240006C6AA84014463179400B240224492444E
:100334004101828005041305803E4204C13F41808F
:10034400DDB700009305000273A0458082457390D9
:10035400153492402242B2424243D2436244F244B0
:10036400025592552256B2564257D2576258F25805
:1003740006499649264AB64A464BD64B664CF64C35
:10038400065D965D265EB65E465FD65F09617300C4
:1003940020304111B7170040985F3AC6945F324746
:1003A400E39CE6FE324541018280B7170040130703
:1003B40000032388E702854723A8F18273002030D5
:1003C400411106C6EF00B02BF5BF23030480154787
:1003D4002303E48001002302A480828083076480D5
:1003E400E3CE07FE23030480828083076480E3CE88
:1003F40007FE03454480828083076480E3CE07FEC2
:100404002302A4808280411126C44AC24EC006C67B
:100414001377F50BAD47AA892E8995446306F70037
:1004240019456537653F8D444E854537FD59FD14A3
:1004340063983401B240A244124982494101828046
:10044400135509011375F50F453F2209CDB7011165
:1004540026CC06CEB704080051371545BD37713791
:1004640069372AC6A53F32459377150089EB136592
:1004740015001375F50FF240E24405618280FD1406
:10048400E9FC0145CDBF397126DC4ADA4ED852D693
:1004940056D45AD25ED006DE62CE66CCB7E700E010
:1004A4007D5783AA070022C603AA470023A0E718A2
:1004B40023A2E718B7170040130770052380E70449
:1004C400130780FA2380E70483C74704930B75FF5F
:1004D400B684E20793FBFB0F8546AA892E8B3289EB
:1004E40037240040E187015763FA76016308D50099
:1004F4008946130700026313D5000157D98F93F778
:10050400F70FB71C00402382FC0411472303E48047
:100514001305F00F5D3D094CD135636D7C11B705B2
:100524000700DA9537870700795563F2E504B38746
:100534009500636EF702370B0800A94733EB65019A
:100544006399F90689E48144513D26850DA0DA8535
:100554000945553D05090345F9FFFD14050B693DA2
:1005640081C49377FB0FFDF7DD3569FD7D55B71722
:100574000040130770052380E704130780FA2380E3
:10058400E70403C74704418B2382E704F250B7E72B
:1005940000E023A0571123A24711E25432445259D8
:1005A400C259325AA25A125B825B724CE24C2161EC
:1005B4008280A5476395F90685691309F00FB30690
:1005C4009900B3742B01B6941349F9FFB3749900DD
:1005D400856B33796901416B9387F9FFB3F7270181
:1005E40099E363FC340193D94900C147E3E637FF3B
:1005F40099BF0569C1697D19D9B71305800D638851
:100604006901130500026384790113051008CA8582
:10061400DD3B353D21DD4E99B3843441D9B7DA85CC
:100624002D45D533CA94E30099F205097D3BA30F08
:10063400A9FED5BF9387F9FF93F7F70F6361FC0C0D
:1006440083C71C0413073008631FF7043707080027
:10065400636BEB04B3079B00B706100063F5D70484
:10066400334BEB0089476393F9068980D549E38CC2
:1006740004ECDA850945413B11090327C9FF914779
:100684002320E48003076480E34E07FE23033481C0
:10069400FD17EDFBFD14110B81C49377FB0FE9FFEC
:1006A4007D3371F5E1B5B717004003C75704B707A9
:1006B40008001377070219E3B78707007955E37831
:1006C400FBEA33079B00E3FFE7F855B58547E38270
:1006D400F9F2DA852D45053B9389F4FFE38504E6B9
:1006E400293393F7390091EB83260480032709000B
:1006F40093074900E39AE6E43E89CE84F1BFB54707
:100704006396F9001305900BC93135BDB147130544
:10071400B00AE38BF9FE99476391F904B705080021
:10072400B365BB002D45C53181448D4BA149753955
:1007340063967401832704802320F9008504E398D9
:1007440034FF8327048013172B01635507002312FA
:10075400F900D5BB2322F900FDB39D476399F90243
:1007640081451305B0044531BD44232009002322EB
:100774000900FD599D3993F77400CA9703C7070010
:10078400FD14398D2380A700E39634FF6DBBA14788
:100794006392F9046D398144630D0B008D47930412
:1007A400C0036308FB009304000563048B019304F6
:1007B40040041375C507E30895D81945393139390B
:1007C4000545213126850D3909453D314931E31C63
:1007D40005D669BB91476399F90013056006F536A0
:1007E400F53E130590090DB7E38F09D4F154A9BB65
:1007F400BD66014717360000130606F9938606A660
:1008040085458347060093F7F70F91C38280050758
:10081400E3F9E6FE973700002388B7F6DDB77D16C7
:100824006206618693178601E18763D40700014558
:100834008280931726003307F500AE9718439C4334
:1008440063E7E7007D16E37FF7FC7D55828005456D
:100854008280FD15E205E18513978501618793F791
:10086400F50F63480700FD15139725002A97584391
:1008740065D7138517006205618582803308B50248
:100884001C4283A80600B335B502C29733B50701ED
:10089400AE98469585486367B5006394A50063E305
:1008A400070181480C43C6950CC388C21CC28280D0
:1008B40081471397870161876343B7008280139749
:1008C40027002A97232007008507E5B781470147BA
:1008D40093968701E18663C5B600133517008280BD
:1008E40093962700AA9694428507558FD5B793D738
:1008F40055408A07AA979C4305453315B5007D8D5D
:100904008280171300E0E702830F2A84993705C514
:10091400931725003E940327C4FF814711EB7D15EF
:1009240016053E9542054185171300E06700630FE5
:1009340005838507E5B70145C5BF8147139787013F
:1009440061876343C700828013972700B386E5005D
:1009540094422A97850714C3D5B77D16620661862B
:10096400014793178601E18763D507001335170004
:10097400828093172600B306F500AE9794429C43F9
:100984007D16B58F5D8FF1BF8A05AA950147636314
:10099400B500828083A6C5FFF11593D71600D98FC1
:1009A4009CC11397F601E5B72A8301480147014525
:1009B4006343D7008280B387050183A80700B30788
:1009C40006019C43C697AA976384F80033B51701C0
:1009D4000507B3080301620723A0F8006187110823
:1009E400C1BF2A8301478147014563C3D700828081
:1009F4003388E50083280800330EE600032E0E003A
:100A04003388A8403308C8416384080133B508011A
:100A14008507B308E300E20723A00801E187110773
:100A2400E9B7171300E0E70283FD0111B286B2842F
:100A34002E86AA850A8575372A84A6850A8579357E
:100A440033348000060413351500018D0561171336
:100A540000E0670003FD171300E0E702C3F741114C
:100A6400AA89AE8A328BB68402C202C402C6014489
:100A7400131C8401135C8C4163499C02939B1400F6
:100A8400FD1B0549138CF4FFF15C330489016204F6
:100A94006184634D740592478E04CE9423AEF4FEB4
:100AA4004101171300E0670083F613192400B30B08
:100AB4002B01014A93172A00D69783A50B0088437C
:100AC4007800340050005D3B050A93178A01E187E2
:100AD400F11BE351FCFE92474E9905042320F900D3
:100AE400A2473EC2B24702C63EC459B7131A89018F
:100AF400135A8A41131D240093178A01E18763CF97
:100B0400970092470A044E941CC0A2470509137922
:100B1400F90F3EC2B24702C63EC485BFB3079A036B
:100B240013152A0056950841780034005000050A30
:100B3400EA97DA978C439933C1B70000197106C25A
:100B440012C416C61AC81ECA22CC26CE2AD02ED249
:100B540032D436D63AD83EDA42DC46DECAC0CEC2F9
:100B6400D2C4D6C6DAC8DECAE2CCE6CEEAD0EED229
:100B7400F2D4F6D6FAD8FEDA938581828841E7006A
:100B8400050092402242B2424243D2436244F244BC
:100B9400025592552256B2564257D2576258F258CD
:100BA40006499649264AB64A464BD64B664CF64CFD
:100BB400065D965D265EB65E465FD65F096173008C
:100BC4002030B7E700E09843B706200023A0D718E9
:100BD400758F0F10000001C599C1814711E6B7E771
:100BE40000E023A0E7108280B386F50003C8060066
:100BF400B306F500850723800601E317F6FEC5B7A3
:100C040037E700E01C43B70620002320D718F58FF0
:100C14000F10000001C53307C50011E637E700E0F7
:100C24002320F71082800505A30FB5FEE31DE5FE22
:100C3400F5B737E700E01C43B70620002320D71898
:100C4400F58F0F10000001C599C1014711EA37E77C
:100C540000E02320F710054582800507E309E6FE3E
:100C64003308E500B386E5000348080083C60600A0
:100C7400E305D8FE37E700E02320F7100145828022
:100C840037E700E01C43B70620002320D718F58F70
:100C94000F1000001307F6FFBA952A966317C500D4
:100CA40037E700E02320F7108280FD1503C7150005
:100CB4000505A30FE5FEDDB737E700E01C43B706E3
:100CC40020002320D718F58F0F10000001C533072B
:100CD400C50019E637E700E02320F71001458280BC
:100CE40005058346F5FFE397B6FEE31BE5FE37E70C
:100CF40000E02320F71005458280797197370000C2
:100D0400938707FA22D4804306D626D24AD04ECE01
:100D140052CC56CA5AC85EC679C0B7C4C901014B81
:100D240097390000938949F79384F437173A000000
:100D3400130A4AF7973A0000938A4AF117390000D8
:100D4400130909FB8357240095E35C44631D0B00DE
:100D5400173700002326F7F4832BC4002285EF0005
:100D6400102B5E84B9A82326FB00FDB783A70900D6
:100D740082971C443307F5406376F5000327490046
:100D84001D8F2A9763E2E4089737000023A807EC35
:100D94008355240003450400975001E0E78080B0A8
:100DA4005C405844A1CB0C4403264900AE97BE8650
:100DB40063E4B70063E4C700B386C74014C4228B5E
:100DC4003A8449F097370000938747E89C4B0947DA
:100DD4006372F706F917173700002321F7E8B250BA
:100DE400225492540259F249624AD24A424BB24BBB
:100DF4004561828063170B009737000023A2E7EA5E
:100E0400A1BF2326EB0089BF03274A0209CF63EF62
:100E1400A7003385A74083A70A016376F5009737B7
:100E2400000023ADA7E2228B404461BF03274900A1
:100E3400BA97C5B79737000023A207E24DB7973793
:100E44000000938767EA9C4385C3411106C68297D5
:100E54009737000083C727E489E79737000023A565
:100E640007E8B240410182809737000083C7A7E2B8
:100E740091E79737000023A907E682808280411119
:100E840022C417340000130424DF1C4006C626C203
:100E94004AC091C782979737000023AF07DC973782
:100EA400000083C7B7F9858B173900001309C9F807
:100EB40089CF8347790019476312F71097370000E9
:100EC400A38E07F665295C4482971C4491C38297DC
:100ED40097340000938484DC98401736000003465E
:100EE400F6D69737000083C767D693961700BA964D
:100EF40083D60600E5C29737000083C727D563E58C
:100F0400C70E97370000238307D41C40639E071441
:100F140097370000938747D89C4363870714973714
:100F240000009387E7DCDC43173700002328F7D25F
:100F3400E9339737000083C7D7F0639707129737D1
:100F4400000083C7F7EF91CF8347790093F7F70F3A
:100F540089EB97370000A38507EE976001E0E780EF
:100F6400E046973700009387E7D3DC53638E070E80
:100F740097370000938787CD9C4BFDC78347790043
:100F840015476363F70E9737000083C767F0918BAB
:100F9400E1EF9737000083C707D0F9E79040973611
:100FA400000083C6B6CA63C7D70C2244B240924439
:100FB40002494101175301E0670063BE834779008A
:100FC4001D47E314F7F097370000A38907E67D2651
:100FD4001C48DDBD850793F7F70F9736000023877C
:100FE400F6C6E3E0C7F001BF86073E9783550700C6
:100FF4002310070097370000239E07C89737000087
:10100400938747C79C4317350000034525C413172E
:101014002500BA979C4382979737000083D787C7E8
:1010240017370000034787C293C7F7FF7D8D9317D7
:10103400170098403E97835707005D8D2310A70043
:101044009737000083C787C091C78507173700000B
:10105400230EF7BE17370000034747BF973700003A
:1010640083C7D7BEE37FF7E8B240224492440249E3
:1010740041018280139717003297035707006DF7D9
:10108400850715B737C700408326C720B707FCFF7D
:10109400FD17F58F2326F720010001009737000084
:1010A4009387C7BAC84F832787262326D7206A0584
:1010B40093C7F7FF99835D8D82800000EFF03FD8DE
:1010C4007300000000000000973200009382A2BC6D
:1010D4000383020023800200630F0300F32510340E
:1010E4002EC0970500009385A5FD73901534EF007D
:1010F400A04B7300203086DCEF00004BE65082806A
:101104000000173700001307E7D21443411122C42B
:101114009C5E4AC006C6998326C2858B3A841739D9
:1011240000001309E9D0D1CB930700069CDE1737E2
:1011340000000347C7D09307000897340000938446
:10114400A4CF631BF700832709009C4393F707048C
:10115400173700002305F7CE83C7040093F707046D
:101164009DC397370000938727B39C438297973793
:10117400000023A1A7CE83C7040093F7F70B17370A
:101184000000230BF7CA83C7440093F7070495E7CD
:10119400854717370000A303F7CA973700009387E2
:1011A40027CC9C433707020098C7130700FC9736E7
:1011B40000002385E6C89848F8D318401C5F918343
:1011C400858B8DC31C5F93E707011CDF97370000F5
:1011D400938707C99C4323A2070685471737000056
:1011E400230EF7C483270900D8430583058B19C749
:1011F400D843759BD8C3D843799BD8C3B240224403
:101204009244024941018280ED3D730020309317DE
:10121400D50063D3070297370000938767C49C43C4
:101224007D57B8D797370000938747A2DC4F8507CF
:1012340017370000232AF7A2937785008DC39737C9
:10124400000083C787BF93E7170017370000230602
:10125400F7BE930700F8173700002301F7BE937712
:10126400150099CB9737000083C717BD93E7170084
:1012740017370000A302F7BC9377650095CB9377EB
:10128400450017370000130727BBCDCB8347070062
:1012940093E71700173700002300F7BA97370000C9
:1012A400938747B998435C57F19B93E717005CD742
:1012B4009317F50063D4070217370000034707CFDD
:1012C400418B973700009387E7C651C383C78707CD
:1012D40093E7070217370000230AF7CC9317E500BA
:1012E40063D707029737000083C747B5E207E18752
:1012F40063D707008547173700002301F7B49737F2
:1013040000009387E7B59C433707020098C79317FB
:10131400C50063D4070217370000034737C9058B9C
:1013240097370000938707C129C383C7970793E7BB
:10133400270017370000A30BF7C6828083473700C6
:1013440093E7170017370000A309F7AE81BF03C75F
:10135400870789463D8B6308D70083C787070D47F6
:10136400BD8BE39DE7F69147B5B703C79707118B8C
:1013740069D783C7970793E7870065BF973700004E
:10138400938707AE9443973700009387E7AA03C770
:101394000700058B11CB97370000238107AA9737E5
:1013A4000000A38D07A8828003C71700058B65F78B
:1013B400F85271FF83C75700DDB7173700001307D2
:1013C40067A703280700832788039583858BADEFE0
:1013D40011C683270803BD832300F6009DC61C4362
:1013E400985B4607935767016356070093E707C066
:1013F400C207C18303970600C207C18709C7BA970A
:101404000947B3C7E7022390F6008DCD8345150045
:1014140095C99737000083C787A293F707041387FA
:101424009500894585C33A95834705000547994545
:1014340093F6F7066398E600E207E187814563D3F4
:101444000700B9452E8582808545EDBF411126C22E
:1014540006C622C497340000938484A03DED9440D2
:10146400AE87F8527DFF37F400E03E8597370000E1
:101474002385079C832704D1B285ED9B2328F4D0D0
:10148400832704D193E787022328F4D073005010F4
:10149400976001E0E78040E09737000093878799E1
:1014A4009C43B70680009843558F98C3D857719BC7
:1014B400D8D797370000A383079897370000A38DE8
:1014C40007969C40094798C3832704D193E7870074
:1014D4002328F4D0730050100DA08D476315F50434
:1014E40097370000938707959C43B706800098437D
:1014F400558F98C3D857719BD8D79440173700009D
:101504001307879383472700858B89EB834737002D
:10151400858BC1CB9737000023820792B2402244C7
:101524009244410182808547E319F5FCB7F700E056
:1015340003A707D16D9B23A8E7D003A707D113679F
:10154400870223A8E7D07300501098408177FD17D5
:101554005447F58F5CC70F1000009840B70702008E
:101564001CC7930700F8173600002309F68C973739
:1015740000009387278C9C439C439D83858B639FAA
:10158400A700930760197CD354C737F700E083277B
:1015940007D193E787002328F7D02DBF9307E01BDB
:1015A400DDB7FC52A5F39DBF973700009387478BA7
:1015B4009C438847D847798D09C988C79387818612
:1015C40003A307006303030002838280173700002C
:1015D400130747898346B7019737000083C7578BA2
:1015E4004C4BB697FD8B33D7F50097360000A38B91
:1015F400F68697360000A38DF688058B15EF17370E
:10160400000003473789B3F7E70281460147130512
:10161400000233D6E500058A1378F70F19CA6397D9
:10162400D70097370000A38F07838280850693F63F
:10163400F60F0507E31FA7FC828097270000938716
:10164400A7659C43011122CC4AC806CE26CA4EC6C1
:101654008297973700009387E782804701496301A7
:10166400A406BE8463668506018D1354550097371E
:10167400000083C7C7801379F5016360F4049729D8
:1016840000009389E966993703A88400972600002F
:1016940083C6E67E139756004297158C3A8683A537
:1016A4004900636407016364B7003306B7409727B2
:1016B400000023ADC77CE378D4FC1604336924010D
:1016C400F24062444A85D2444249B249056182806B
:1016D400972700009387C761DC43338487402295B2
:1016E40069B7972700009387A777984389679387FB
:1016F40007F47CD3972700009387C77B9C4383A67A
:101704000709139656006358060083A60709139623
:101714006600634406007453FDF282804111B7E70A
:1017240000E022C480433707200006C6798C23A03A
:10173400E7180F10000011C199E5B7E700E023A0F6
:10174400871001457DA893073500C207C183F19B2B
:10175400C207C183130740036369F7021727000018
:101764001307077D0843172700001307E77B14437B
:101774006392A602172700001307C752185B55DFB0
:10178400C207DD8D054502974DBF172700001307DB
:10179400E779C9BF035765002DEB0357450063661E
:1017A400F706B306F7402146637CD60203280500FA
:1017B400938687001D8FAA9661171726000003568B
:1017C40046492392E60023A006012393060014C190
:1017D4002312F500130786FF97260000239BE64695
:1017E4002313B5009725000083D5A546B387F5409C
:1017F40017270000231FF744B7E700E023A0871052
:101804002105B240224441018280084195B7B7E7DF
:1018140000E08C433707200023A0E718F98D0F1050
:10182400000001E523A0B71082809727000093876A
:10183400277003A30700972700009387E76E83A808
:10184400070081469A8763F2170D03A807006361B6
:10185400F50C636FA80A138787006368E50A03D64B
:101864006700216705076317E60003C7318605078C
:10187400A381E186172500001305453D03D64700E3
:101884000357650023930700329742074183172EBD
:1018940000002310EE3C638C67021723000013033F
:1018A400E368032303006304F30203D366006310B5
:1018B400030283D7460023A0060121073E96210692
:1018C4002392C600972700002395E738B6879843EC
:1018D400630D1703972600009386466594426306BA
:1018E400D7028356670095E283D647000356470024
:1018F4001843A106B2962392D70098C38357650074
:10190400A107172700002316F734B7E700E019BF33
:08191400BE86C2870DBF000072
:10191C00971100209381C1BA175100201301C1ED1A
:10192C001305400097E5FF1F9385056D17060020F2
:10193C00130606FE63FAC5008322050023A055009A
:10194C0011059105E3EAC5FE17B501001305C57233
:10195C00970500209385C5FB1386018263FAC500A9
:10196C008322050023A0550011059105E3EAC5FE6D
:10197C0013850182972500209385056E6377B5004A
:10198C00232005001105E36DB5FEFD42739002BCEA
:10199C008D4273904280930280087390023097E2DC
:1019AC00FF1F9382626593E232007390523097224C
:1019BC000000938202C0739012347300203039718E
:1019CC0001436EC619A0397141536AC866CA62CC0C
:1019DC005ECE19A0397101535AD056D252D44ED67C
:1019EC004AD826DA22DC06DE3301614082824111BC
:1019FC004AC026C222C406C68282B24D4101024DA3
:101A0C00924C224CB24B4101024B924A224AB249AF
:101A1C004101024992442244B240410182803D433B
:101A2C002A876373C3029377F700BDEFADE5937616
:101A3C0006FF3D8ABA960CC34CC30CC74CC7410772
:101A4C00E36BD7FE11E28280B306C3408A0697028D
:101A5C00000096966780A6002307B700A306B70080
:101A6C002306B700A305B7002305B700A304B700EE
:101A7C002304B700A303B7002303B700A302B700E6
:101A8C002302B700A301B7002301B700A300B700DE
:101A9C002300B700828093F5F50F93968500D58DC2
:101AAC0093960501D58D61B7939627009702000098
:101ABC0096968682E78086FA9680C1171D8F3E9691
:101ACC00E374C3F8A5B73367B500FD530D8B79E705
:101ADC00B7877F7F9387F7F710419441B372F60075
:101AEC003363F600BE92B3E262006397720C631824
:101AFC00D6065041D441B372F6003363F600BE9261
:101B0C00B3E262006398720A631BD60410459445D5
:101B1C00B372F6003363F600BE92B3E262006391D7
:101B2C00720A631ED6025045D445B372F600336375
:101B3C00F600BE92B3E26200639A72086311D60299
:101B4C0010499449B372F6003363F600BE92B3E2C7
:101B5C006200639372085105D105E30FD6F6131793
:101B6C00060193970601631CF7001357060193D7E0
:101B7C0006013305F7409375F50F91E98280418397
:101B8C00C1833305F7409375F50F91E1828013778C
:101B9C00F70F93F7F70F3305F740828003460500E4
:101BAC0083C60500050585056313D60065FA330564
:101BBC00D640828011059105E312D6FE0145828044
:101BCC002105A105E31CD6FC014582803105B10538
:101BDC00E316D6FC014582804105C105E310D6FC15
:101BEC0001458280B717004003C777051377E70FCD
:101BFC00A38BE704130700F8A38DE7043D47238C60
:101C0C00E70413075003A38CE70403C7A705137756
:101C1C00D70F238DE7048280B717004003C7E70274
:101C2C000D8941111377C70F498F93068008F3B6BE
:101C3C00068093F6860836C60100010093067005EF
:101C4C002380D704930680FA2380D7040100010077
:101C5C002387E70223800704B247F3A7078001001C
:101C6C0001004101828041112A83014E930E407E76
:101C7C00130F0019930F400663E56E1293080019B9
:101C8C0013034006B3781503854E0D4FA14F3373E4
:101C9C0065020D891335150063EFBE121308F6FFAC
:101CAC00794672984208135808013307C70213D6B5
:101CBC001700BE0732976146B3F6C6021306807052
:101CCC00B386C6023697A166F58F42075D8FB716AD
:101CDC00004083C7F60293F70708A303F1000346FD
:101CEC00710083C7F60293F70708E394C7FE834796
:101CFC007100B716004093F7F70F6388071293072C
:101D0C008008F3B7078093F787083EC401000100F1
:101D1C00B7170040930670052380D704930680FA0A
:101D2C002380D7040100010023AA070383C61703ED
:101D3C0093E60608A388D70223800704A247F3A7DB
:101D4C000780010001001166B71700407D16D45BB7
:101D5C00C85F93854703A98EF18EF5FA9306800828
:101D6C00F3B6068093F6860836C60100010093068A
:101D7C0070052380D704930680FA2380D7040100D2
:101D8C00010098C103C7170313670704A388E70270
:101D9C0023800704B247F3A707800100010041012B
:101DAC0082807D133368E3039308E016630E08000A
:101DBC003368F3039308D016630808009378330054
:101DCC0093B818009388D81633081E01131E080107
:101DDC00135E0E0155B56393E50305486386080051
:101DEC000148630303002A8871087298FD15131EBD
:101DFC000801C205135E0E01C18179BD13F81500EF
:101E0C0063F4BF007908D5B713381800E5BF83C752
:101E1C00F60293F70708A303F1000346710083C78A
:101E2C00F60293F70708E394C7FE8347710093F714
:101E3C00F70FF1DFE9B54111B7170040985F3AC6CB
:101E4C00945F3247E39CE6FE32454101828031715A
:101E5C004AD966CB06DF22DD26DB4ED752D556D3C8
:101E6C005AD15ECF62CD6AC96EC7AA8C02D8EF0078
:101E7C0090102A8993078008F3B7078093F7870897
:101E8C003EDA01000100B7170040130770052380EC
:101E9C00E704130780FA2380E7040100010003C75D
:101EAC00F7021377770FA387E70203C7F7021367CD
:101EBC008700A387E70223800704D257F3A7078084
:101ECC00010001000545893B130780C13347E90236
:101EDC00116A93070AE893065002BD69930BA0049C
:101EEC00814A014B13048008930470057D1AB34793
:101EFC00F9023307D7023EC0FD873ECC938709A673
:101F0C009309803E3347F7023AC27D873AC4334780
:101F1C0039038549B399990193D93940B306D7024E
:101F2C00B30B7703B3C6F602B3CBFB0236C6FD8602
:101F3C0036C893D6FB4136CEB7460F00938606249F
:101F4C003349D9028566938606FAB3969601B3890E
:101F5C00E902130760553309D90293060010B389BF
:101F6C00E9023349D902B3C9F9029316390036CACA
:101F7C0037190040FD8636D0930D090493D7F941EB
:101F8C003ED2F336048093F6860836DC010001005D
:101F9C00930770052380FD00930680FA2380DD00F3
:101FAC00010001008346390593F6860FA309D90475
:101FBC008346390593E61600A309D90423800D0046
:101FCC00E256F3A6068001000100130C80FA116D95
:101FDC00F336048093F6860836DE01000100930781
:101FEC0070052380FD0023808D01010001008346D4
:101FFC003905216693E60602A309D904835609051F
:10200C00B3E6A6012318D90483560905D18E2318EB
:10201C00D90423800D00F256F3A6068001000100BE
:10202C008346390593F60602638306180346390581
:10203C00218A6DDE081841277336048013768608D2
:10204C00B2C20100010023809D0023808D0101009C
:10205C000100B717004003C637051376F60DA389A8
:10206C00C70403C6370513660602A389C704835643
:10207C0009052166B3E6A6012318D9048356090580
:10208C00D18E2318D90423800D009646F3A6068022
:10209C00010001008346390593F60602638006149D
:1020AC0083463905A18AEDFE7933AA8636D461338D
:1020BC00A256E30DD5FE835609054255B3E6A6019B
:1020CC002318D904392783463905A18AEDDE035636
:1020DC0009058346290582473376CA00B306DA021E
:1020EC0093D5F641B296B388F640E24733B8C600B2
:1020FC002E983308F840A247B3B616013308D840DF
:10210C0063C70701631DF800924763FA1701C247C2
:10211C00634DF80E63950701B24763E8F80E8946E4
:10212C0063E7660FF2469315180013D3F8015E8629
:10213C0013951800B365B30042D646D4EF80A1299D
:10214C003258050B137BFB0F63470001631C0836E9
:10215C00A2586389083613081500B336A800B69543
:10216C0013D6F5013298B336C800AE961358180042
:10217C00FE06B3E606017336048013768608B2C6F3
:10218C000100010023809D0023808D0101000100CE
:10219C000356C902B296C206C1822316D902238005
:1021AC000D00B646F3A606800100010015B5F33606
:1021BC00048093F68608B6C00100010023809D00C0
:1021CC0023808D01010001008346390593E6060248
:1021DC00A309D90423800D0086463DBDF336048047
:1021EC0093F68608B6C40100010023809D0023806D
:1021FC008D01010001008346390593E60602A3090F
:10220C00D90423800D00A64651B5E30D0BF0F3362F
:10221C00048093F68608B6C801000100930680FA84
:10222C0023809D002380DD000100010083463905D9
:10223C0093F5FC0F93F6860FA309D9048346390551
:10224C00CD8EA309D90423800D00C646F3A60680C3
:10225C0001000100130580FA034639059306390580
:10226C001D8A631E96277336048013768608B2CCBB
:10227C0001000100130680FA23809D002380CD000D
:10228C000100010003C606001376F60D2380C6007C
:10229C0003C60600136606022380C6008356090592
:1022AC001166D18E2318D904835609052166D18E67
:1022BC002318D90423800D00E646F3A606800100FE
:1022CC000100130680FA8346390593F606026382F1
:1022DC00062483463905130C3905A18AFDDA081842
:1022EC00D929F336048093F68608B6D00100010094
:1022FC00930680FA23809D002380DD0001000100FD
:10230C0083460C00116693F6F60D2300DC00834621
:10231C000C0093E606022300DC0083560905D18EDF
:10232C002318D904835609052166D18E2318D904A4
:10233C0023800D008656F3A60680010001001306CB
:10234C0080FA8346390593F60602638F061E834690
:10235C003905A18AEDFEC5342A8CF13CE30F85FFCB
:10236C008356090511664255D18E2318D90495213F
:10237C008346390513063905A18AFDDAF336048044
:10238C0093F68608B6D401000100930680FA2380E8
:10239C009D002380DD00010001008346060093F6BA
:1023AC00F60D2300D60023800D00A656F3A606805A
:1023BC00010001008356090503462905D247B3766F
:1023CC00DA003306CA021305800C9355F641369693
:1023DC00330DF6408257333CD6002E9C3336A60183
:1023EC00330CFC40330CCC403308850392564E869C
:1023FC00B335A5033305A503C295EF70D17D6346B4
:10240C008001631E0C16630C0D1613061500333574
:10241C00A6002E959356F5013696B335D600AA959F
:10242C009396F50105828585D18E6346B000639D38
:10243C00051A638B061A0356C90215823305D6009A
:10244C003336C500B2956348B0006391052413067A
:10245C00F00F637DA622894663F356159307800817
:10246C00F3B7078093F78708BED601000100371732
:10247C000040930770052300F704930780FA2300AC
:10248C00F704010001008356C70289678117D58FB5
:10249C00C207C1832316F70223000704B657F3A71C
:1024AC00078001000100FA506A54DA544A59BA59AB
:1024BC002A5A9A5A0A5BFA4B6A4CDA4C4A4DBA4D74
:1024CC00296182801308F5FF3335A800FD152E9580
:1024DC001356F5013298B336C800AA9641B9F336B3
:1024EC00048093F68608B6CA0100010023809D0083
:1024FC002380AD000100010083463905CD8EA30970
:10250C00D90423800D00D646F3A6068001000100F5
:10251C00A1B3F336048093F68608B6CE0100010011
:10252C0023809D002380CD000100010083463905E6
:10253C0093E60602A309D90423800D00F646F3A600
:10254C0006800100010041B3F336048093F686083F
:10255C00B6D20100010023809D002380CD00010034
:10256C0001008346390593E60602A309D9042380AA
:10257C000D009656F3A6068001000100D9B3930610
:10258C00F5FF33B5A600FD152E959355F501AE96C6
:10259C00B3B5B600AA951396F501858269B5F336E5
:1025AC00048093F68608B6D801000100930680FAE1
:1025BC0023809D002380DD00010001008356C902A9
:1025CC000566011693F6F60FD18EC206C18223164C
:1025DC00D90223800D00C656F3A606800100010027
:1025EC00850A93FAFA0F71BA33E6B60045C2035660
:1025FC00C9023305D0403338A000B305B040B385D1
:10260C00054115826345B000D1E16371A608894686
:10261C0063F0560593078008F3B7078093F7870894
:10262C00BEDA01000100B7170040130770052380C4
:10263C00E704130780FA2380E7040100010003D7A5
:10264C00C7027D8B2396E70223800704D65781BDF2
:10265C00F336048093F68608B6DC0100010093067D
:10266C0080FA23809D002380DD0001000100835649
:10267C00C9020566011693F6F60FD18EC206C18209
:10268C002316D90223800D00E656B9B793078008AC
:10269C00F3B7078093F78708BEDE010001003717F8
:1026AC000040930770052300F704930780FA23007A
:1026BC00F704010001000356C70293975600B29726
:1026CC00C207C1832316F70223000704F657C1BBC8
:1026DC00914763EEB70217A701001307E78F8A052E
:1026EC00BA959C41BA978287B717004003A7470B4E
:1026FC001345F5FF698F23AAE70A03A7070B698F18
:10270C0023A8E70A03A7070A798D23A0A70A8280CA
:10271C00B717004083A6470B1347F5FFF98E23AA82
:10272C00D70A83A6070B558D23A8A70A83A6070AE9
:10273C00758F23A0E70A8280B717004003A7470BC9
:10274C00498F23AAE70A03A7070B1345F5FF45BFDB
:10275C00B717004083A6470B1347F5FF758F23AAC5
:10276C00E70A03A7070A598D4DB7B717004003A70F
:10277C00470B498FEDB7B717004088474205418199
:10278C009377050491EB9377F5013755E801130521
:10279C0005803345F50282809377050C13070004FE
:1027AC006397E7009377F50137459C1CCDB72165FE
:1027BC00130505D0828037E700E01C435443A18306
:1027CC00E206D58F1CC1FD572320F7182322F718DA
:1027DC00828013178500B7E700E023A0E710618122
:1027EC0023A2A7108280B7F700E08847CC478280ED
:1027FC00814737370040A14663C4C70032858280C9
:10280C000345B740E38EA6FE3385F500034505006E
:10281C0085072304A740CDB7411122C406C62A84DC
:10282C00993F2947B307E502B2408D83B3D787029E
:10283C0022449507B3D7E70237370040C207C1835C
:10284C002316F74041018280716541111305052063
:10285C0006C6D937B7370040130770F82381E74015
:10286C000D47A381E74013070004A380E740054709
:10287C002387E740B240410182802380018223A25A
:10288C000182B717004003A7070CB706C0FFFD165F
:10289C00758F23A0E70C03A7070DB7064000558FD3
:1028AC0023A8E70C03A7070C3D9B23A0E70C03A769
:1028BC00070D1367070123A8E70C828023A2A182CE
:1028CC0013064006894503C5C1826F302106B71730
:1028DC00004003A5470C83A7470C598113451500ED
:1028EC00C18B058999E31365250083C70182638C2D
:1028FC00A7002380A18201C99387418203A307000B
:10290C00630303000283828011456FF04FD44111A1
:10291C0093962500AA852D4506C697E0FF1FE780F4
:10292C0000B6B240014541018280011122CC06CE95
:10293C003714004026CA4AC84EC652C48344740594
:10294C00034AB4058349840503499405EFF08FA924
:10295C008347A40593F4F40F137AFA0F93E7170047
:10296C00230DF40493F9F90F1379F90FB7170040FD
:10297C0003C7A705058B6DFF03D5C705A38D4705B9
:10298C00238C3705A38C2705A38B9704F240624454
:10299C00D2444249B249224A05618280411193973F
:1029AC00050122C406C6C1872E8463DA0700EF2016
:1029BC00D14019C1EF2051342165218D1DA093F711
:1029CC00150013C5150091EF93F7250099CF01372A
:1029DC001306000A894503C5C182EF2031751345E2
:1029EC002400B2402244410182809397250163D098
:1029FC000702EF40313E093F37F60200130606E0AE
:102A0C00896503C5C182EF20717209657DB7939703
:102A1C0015010145E3D707FC1795010013058561E6
:102A2C00EF80613413060064916503C5C182EF2009
:102A3C00F16F116559B72D71232A9110FD74E98C32
:102A4C00232C811023282111232631112A84AE89AD
:102A5C003289930600100A86A6852D45232E111067
:102A6C0097E0FF1FE780A0A11315440151810A05CF
:102A7C0013962900CA850A9597E0FF1FE780E0139B
:102A8C00A68585660146254597E0FF1FE780209FB8
:102A9C000A86A68593060010294597E0FF1FE7805C
:102AAC00009E8320C1110324811183244111032929
:102ABC0001118329C11015618280B7F7070003C784
:102ACC000701411106C622C426C24AC0A547631A93
:102ADC00F7009537B2402244924402490145410126
:102AEC00828013942500AA843289A286AA85014685
:102AFC00254597E0FF1FE7808098A2864A86A68529
:102B0C00294597E0FF1FE7808097E9B71D7149467B
:102B1C00979501009385854D17A50100130545393F
:102B2C0086CEA2CC97E0FF1FE780201001E9179515
:102B3C0001001305E54CEF80012301A037F700E0FD
:102B4C00795610CBFD5654CBB7E700E0056423A0B3
:102B5C0087109306F00214C323A08718010001000C
:102B6C0017E7FF1F1307C75523A4E1824157A38A18
:102B7C00E740130600048145080897E0FF1FE78033
:102B8C00A007970700209387E7A43EC89D673ECC1B
:102B9C00B7070105938707103ECEED472310F102CE
:102BAC0085472301F10297070000938787D6BEC2A1
:102BBC00970700009387A7F0BEC48567938757D10A
:102BCC002312F10297070000938727C23ED8B7F56E
:102BDC00070097070000938787D53EDC814697074F
:102BEC0000009387A7D23000E10519453EDE231A79
:102BFC00810097E0FF1FE78080881808814799467D
:102C0C0030003E960346060085070507A30BC70058
:102C1C00E398D7FEC24791C7035741018567637399
:102C2C00F70001A00808EF30411FAA8501C91795CC
:102C3C0001001305253EEF70D17E01A0F6406644DD
:102C4C0025618280411117050000130565D506C664
:102C5C0022C4EF30C1181384C1822300A4002128A0
:102C6C002939034504002244B24013060032896519
:102C7C0041016F20B14B797106D613078008F337E9
:102C8C00078093F787083EC201000100B717004088
:102C9C00930570052380B704130680FA2380C704BC
:102CAC000100010083C6F70293F6A60FA387D70293
:102CBC00238007049246F3A60680010001007337B7
:102CCC000780137787083AC4010001002380B704FA
:102CDC002380C7040100010003C7F7021367270014
:102CEC00A387E70223800704A247F3A7078001000C
:102CFC0001000545EFE05FF201398147014781464C
:102D0C00054685451305407EEFE0FFF5680051460A
:102D1C00814597E0FF1FE78020EEB707C0A83EC8AB
:102D2C00B787E803938707D03ECA680097D7FF1F81
:102D3C009387A7653EC6EF306133B2504561828000
:102D4C004111979501009385A53217950100130544
:102D5C00E54406C6EF70F16C1795010013050545A7
:102D6C00EF70316CB240294541016F70916F411188
:102D7C0097950100938505311795010013050542C0
:102D8C0006C6EF70116A179501001305E53FEF7049
:102D9C005169B240294541016F70B16C4111979551
:102DAC0001009385652F179501001305253F06C675
:102DBC00EF703167B240294541016F70916A7971AA
:102DCC0022D426D24AD02E842A89B28481457146D7
:102DDC00480006D6EFE0BFC497F7FF1F938707C6DE
:102DEC00DC4783D70700231421012313F100EF00E4
:102DFC00F03C8547A305F100930700192305A100BA
:102E0C003EC62686FD57A2854800230AF100EF0036
:102E1C00503DB25022549254025945618280411166
:102E2C0022C406C6834705002A849DC397950100DA
:102E3C009385052B1795010013054536EF70715ED0
:102E4C004C40179501001305654CEF70915D71A80E
:102E5C005841B707CF009387777D631AF71A979578
:102E6C0001009385E5271795010013052533EF70B5
:102E7C00515B1C448356E4008355C40003C6070011
:102E8C00179501001305054AEF70B1592945EF70EC
:102E9C00515D0356C4000C441385C10797E0FF1F16
:102EAC00E780A0D183C7C1071307200A638AE70014
:102EBC001307300A6380E712B2402244410182803A
:102ECC000357C4008D47979501009385652117958D
:102EDC0001001305A52C6300F702EF7091541795B0
:102EEC00010013052546EF70D1532244B240294509
:102EFC0041016F701157EF70D152179501001305F6
:102F0C00E545EF7011522945EF70B1550355E400BA
:102F1C00930720F805469385C107238EF1064535A6
:102F2C009377F50F2A8495C7979501009385451BD8
:102F3C001795010013058526EF70B14E9375F40FAC
:102F4C001795010013054545EF70B14D2945EF70FC
:102F5C005151979501009385A518179501001305FC
:102F6C00E523EF70114C1795010013052544EF7004
:102F7C00514B2945EF70F14E4165930730FA0546E8
:102F8C009385C1077D15238EF106153D9377F50FBB
:102F9C002A8495C797950100938585141795010090
:102FAC001305C51FEF70F1479375F40F17950100CA
:102FBC001305853EEF70F1462945EF70914A056681
:102FCC00130606C889452244B24003C5418341011A
:102FDC006F20D1150357C40085476301F7029795FD
:102FEC0001009385E50F179501001305251BEF7064
:102FFC005143179501001305A53EF5B58357E40021
:10300C000566130606C8239FF18291456DBFB7076D
:10301C00CC009387777D631AF7029795010093850F
:10302C00250C1795010013056517EF70913F1C4493
:10303C008356E4008355C40003C6070017950100AE
:10304C001305452EEF70F13D4DB5B707CE009387B4
:10305C00777DE303F7E6979501009385650817954F
:10306C0001001305A513EF70D13B4C4017950100DF
:10307C001305C538D9BB011122CC97950100938556
:10308C0025082A84179501001305451106CEEF700B
:10309C005139A2851795010013054553EF7071380E
:1030AC002945EF70113C938781819843DC4321467D
:1030BC002C0005453AC43EC6193315C52A8497958C
:1030CC0001009385E503179501001305250DEF709D
:1030DC005135A2851795010013054520EF70713409
:1030EC002945EF701138F24062440561828041112C
:1030FC0022C406C6834705002A8485CB9795010018
:10310C009385C5FC1795010013054509EF707131C6
:10311C004C401795010013052515EF709130224492
:10312C00B240294541016F70D13358411DEF97953D
:10313C0001009385A5F91795010013052506EF707D
:10314C00512E179501001305A513EF70912D2945EC
:10315C00EF7031312244B240116603C5418313062E
:10316C0006E8894541016F20617CA1679386D703EE
:10317C006311D70297950100938545F517950100CA
:10318C001305C501EF70F1291795010013054510C2
:10319C006DBFED0797950100938545F317950100D9
:1031AC001305C5FF6315F702EF70B12717950100E2
:1031BC001305450FEF70F1262945EF70912A224433
:1031CC00B24003C54183894541016F20D10CEF709A
:1031DC0051254C4017950100130545223DBF411167
:1031EC0006C6EF90A00B19E5EF10B02EB2404101CE
:1031FC006F204068B24041018280411197950100D7
:10320C00938505EC17950100130545F906C6EF707B
:10321C0051212945EF70F124B2404101C9B7411148
:10322C0022C417950100130565F72E8497950100AC
:10323C00938545E706C6EF70D11E2945EF707122C4
:10324C0005C8979501009385E5E5179501001305D1
:10325C00E5F4EF70111DA285179501001305050902
:10326C00EF70311C2244B240294541016F70711F2F
:10327C00B240224441018280011122CC2EC62A8404
:10328C00979501009385C5E217950100130505F18B
:10329C0006CEEF7011193246A28517950100130561
:1032AC00A505EF7011182945EF70B11B83C7018478
:1032BC0081EF97E7FF1F93876778DC4703D70700F9
:1032CC00C167FD17631DF7006244F240116603C528
:1032DC004183130606E8894505616F202165F2409C
:1032EC00624405618280411122C406C693F7150021
:1032FC002E8499CF056613060696854503C5418332
:10330C00EF20C16213451400B24022444101828077
:10331C0093F725008DCB97950100938525E01795A4
:10332C0001001305A5E7EF70D10F179501001305E8
:10333C00A5D0EF70110F2945EF70B112EF10B077D7
:10334C0013452400D1B793F745000145D5DF8545DA
:10335C0003D5E183EFE0C03497950100938505DC3C
:10336C0017950100130585E3EF70B10B179501005C
:10337C001305C5CDEF70F10A2945EF70910E134579
:10338C00440059B70111354697950100938545E3E3
:10339C00179501001305853006CE22CC97E0FF1F50
:1033AC00E780A08801E917950100130565C5EF704A
:1033BC00911B01A097F7FF1F938747983EC4B7F561
:1033CC000700856793870780814613868183E10513
:1033DC0019453EC697D0FF1FE780600A19469385B2
:1033EC0081831385C10997D0FF1FE780007D3400CE
:1033FC0013868183979501009385450317950100EA
:10340C0013054504EF1030372A840DC99795010038
:10341C009385C5CF17950100130545D8EF70710042
:10342C00A285179501001305A5DAEF70817F294558
:10343C00EF703103F240624405618280EF701043FB
:10344C00179501001305C5CEEF005058EF40D03949
:10345C00EFE0C04D17E5FF1F1305055CEFE0A03A48
:10346C00179501001305C5CDEFE0004E2A84EF102F
:10347C00E031EF903073EF00016CEF202047EF103C
:10348C00700CEFC0005097950100938525C81795D7
:10349C0001001305A5D009C8EF70A178A285179576
:1034AC000100130525D551B7EF70A17717950100D1
:1034BC00130585D6EF70E1762945EF70817AEFC060
:1034CC00A03285472380F184EF80505D29C5979504
:1034DC0001009385A5C317950100130525CCEF704A
:1034EC004174179501001305A5D4EF70817329451C
:1034FC00EF70217797950100938545C117950100D1
:10350C001305C5C9EF70E17117950100130585D43A
:10351C00EF70217129BFE131F1BF41111705000096
:10352C001305A5DC06C622C4EF20710B138441835E
:10353C002300A40017E5FF1F13054550EF00D00131
:10354C009135EFF08FB317050000130505B3EFF0BD
:10355C00EFB6034504002244B240130600648545CF
:10356C0041016F20A13C01113546979501009385CF
:10357C0025C5179501001305651206CE97D0FF1FC0
:10358C00E780A06A01E9179501001305A5E8EF7023
:10359C00817D01A0EF50512B2AC6EF00D11BEF000B
:1035AC00017BEF607067F24032450561828041110A
:1035BC001305800406C697D0FF1FE78000AD3717B0
:1035CC0000408327870A8D451305002093E70720C9
:1035DC002324F70AEFF0CF8FEFF00FA717A5010008
:1035EC001305058DEF702178179501001305050B58
:1035FC00EF706177EFF08FD1EFF0CFE4AD37313F63
:10360C0097D0FF1FE78040DB014582804111B286D5
:10361C002E86AA852D4506C697D0FF1FE78020E68B
:10362C00B240014541018280AE860146AA852545FE
:10363C0017D3FF1F6700A3E49307000463E6C702D8
:10364C001D71A2CC2A84080886CE32C6EF700152B6
:10365C00B2461008A285294597D0FF1FE78020E2CB
:10366C00F640664425618280395582809387418477
:10367C0018429C4383D645000345070083C5C70009
:10368C00035646006396A50083D5E700638DD502EB
:10369C00011106CE2386A7002397D700B705CF00CC
:1036AC00DC4B9385757D05077D162EC2230001002A
:1036BC003AC42316C1002317D10099C30A858297F7
:1036CC00F2400561828082806D713C083EC6B7076E
:1036DC00E500232291103EC8AA843C08328523269B
:1036EC0011103ECA23248110232021112E89EF2092
:1036FC00803F2A8497950100938505DA1795010080
:10370C001305C5A9EF70E151A285179501001305AA
:10371C00A5E8EF7001512945EF70A154B705CB0016
:10372C009385757D6800EF001024A2856800EF205A
:10373C002031014781467000CA852685EF00F04292
:10374C0015C52A8497950100938505D51795010019
:10375C001305C5A4EF70E14CA28517950100130564
:10376C0065E4EF70014C2945EF70A14F8320C11027
:10377C00032481108324411003290110516182809C
:10378C009387418418429C43797122D406D603480E
:10379C00070083C807012A8483D6450003554600D9
:1037AC006396080183D82701638DD802238807010B
:1037BC0005072399D7003708CC00DC4B1308787D1C
:1037CC003ACC1307F5FF42CA23080100231EE1007F
:1037DC00231FD10099C7080832C62EC482973246DF
:1037EC00A2452285D535B2502254456182806D7137
:1037FC003C083EC0B707E5003EC23C083EC4232649
:10380C001110232481102322911023170100231857
:10381C00010023190100231A0100231B010097E763
:10382C00FF1F83D7A72599E3C167FD172316F10066
:10383C0097E7FF1F83D7A72481EB938741849C4391
:10384C009C43DC4783D7070017E4FF1F13040423B2
:10385C00584C2317F10083574400484B2318F100B0
:10386C0005ED97950100938525CA17950100130561
:10387C00E592EF70013B17950100130525CAEF7017
:10388C00413A2945EF70E13D8320C110032481109A
:10389C00832441105161828097E7FF1F83C7771EF5
:1038AC0099E7EF1071455C4C23AA0700F1BFFD1797
:1038BC0097E6FF1FA387F61C0356070183470401F5
:1038CC004C470A85230BF100EF20A0159387418408
:1038DC009C430147814688430A866C00EF00F02820
:1038EC00AA8405C997950100938505C21795010017
:1038FC001305C58AEF70E132A685179501001305F3
:10390C00A5C2EF7001322945EF70A1355C4CC84B54
:10391C0049BF97E7FF1F83C7D716EDDB10448545DA
:10392C0003C58184EF20810085B7DC4DDC4B99C742
:10393C00904503C5818491456F10517F82805C4E08
:10394C00DC4BA1C7B9C1411122C417950100130565
:10395C00E5842E8497950100938545B906C6EF70D2
:10396C00412CA28517950100130545BEEF70612B04
:10397C002945EF70012F2244B24003C58184130600
:10398C004006914541016F10717A8280411122C429
:10399C0017E4FF1F1304840C1C4C06C689C7DC43B8
:1039AC0099C34C4882975C4CC84BEF10F1345C4C7B
:1039BC00B240224423AA0700410182801387A180D0
:1039CC00834707009306F00B850793F7F70F63E720
:1039DC00F6002385F180034507008280930700F8E9
:1039EC00CDBF83574500638D070C01114AC817E9F9
:1039FC00FF1F1309A90852C4032AC90106CE22CC01
:103A0C0003274A0126CA4EC6F15729EB1307D00DDE
:103A1C00FD576365C7042A8413058600420541815E
:103A2C00B284AE89EF107132232AAA000325C90192
:103A3C005C4995EF97950100938545A91785010081
:103A4C001305C575EF70E11D17950100130545B8F9
:103A5C00EF70211D2945EF70C120DD57F240624403
:103A6C00D2444249B249224A3E85056182809387FD
:103A7C004400B705CF002319F5009385757D3105FA
:103A8C00EF00606E0325C901834564003105EF101A
:103A9C00307B0325C9012686CE853105EF10707861
:103AAC007146A2854A85EF70610C504401CA854568
:103ABC0003C58184EF10916781474DB70D3BEDBF76
:103ACC00FD573E858280411122C417E4FF1F130469
:103ADC00E4FA5C4C06C6C84BEF1011225C4C224435
:103AEC00B24023AA070003C58184854541016F10AC
:103AFC00917A411126C2938441849C4006C622C40B
:103B0C00BDCFDC43ADCF5CC12300B5002A849795B3
:103B1C0001009385E5961785010013052568EF7064
:103B2C0041102945EF70E1139C4023A4070023A208
:103B3C00070097E7FF1F938767F2DC4FDC4B99C3B5
:103B4C002955A93597E7FF1F938747F3DC4FDC4BCB
:103B5C0091C3953F894503C58184EF10D17391457D
:103B6C0003C58184EF1031739C4003A347016308A4
:103B7C00030022852244B240924441010283B240A8
:103B8C0022449244410182800111328506CE22CC1E
:103B9C0026CA2E84EF103075AA8497950100938560
:103BAC006591178501001305655FEF7081070307A9
:103BBC0084000356640083554400A68617950100C3
:103BCC001305C59AEF70E1052945EF70810997E758
:103BDC00FF1F83C707E9639797000145453B814564
:103BEC000A85013FF2406244D244056182806D71C6
:103BFC0023248110232611102322911093F74500C2
:103C0C002E84638F07103C083EC0B707E5003EC208
:103C1C003C083EC42317010023180100231901009E
:103C2C00231A0100231B010097E7FF1F83D707E32B
:103C3C0099E3C167FD172316F10097E7FF1F83D7A0
:103C4C0007E281EB938741849C439C43DC4783D7F9
:103C5C00070017E7FF1F130767E02317F100544F06
:103C6C00835747002318F100DC4A95EF9795010024
:103C7C00938585881785010013054552EF60717A8D
:103C8C001795010013058589EF60B1792945EF601F
:103C9C00517D134544008320C110032481108324DB
:103CAC0041105161828097E7FF1F83C797DB255531
:103CBC00B5C7FD1717E6FF1FA305F6DA03D60601F5
:103CCC0083470701CC460A85230BF100EF10705592
:103CDC00938741849C4317E7FF1F130727D89796B8
:103CEC0001009386E63788430A866C00BD2DAA84B2
:103CFC004DD19795010093852580178501001305FB
:103D0C00E549EF601172A685179501001305C58171
:103D1C00EF6031712945EF60D1742685853995BFE7
:103D2C0093F725008DC341468145280897D0FF1F86
:103D3C00E78080EC2555993928089305F00F553B01
:103D4C001345240089BF93F715000145A9D7EFF05F
:103D5C001FAA1345140081B75C4D411106C688C3D8
:103D6C00170500001305E5E823A2F184EF202107D5
:103D7C00B2402384A184014541018280EFD29FC5CA
:103D8C002A8408452E89B28909C900C1970500000B
:103D9C009385C5736105EFF0F06C81447D5AEF108B
:103DAC00A00363C3A4048144EF10000463C6A404FD
:103DBC0097070020938787859C43DC47B307F9401E
:103DCC0091872302F400638109048327C900B30798
:103DDC00F4409587A302F4001C4C89C79C4799C3F7
:103DEC00228582976FD05FC25C44139714008504C0
:103DFC00BA972390470165B71C48139714008504A4
:103E0C00BA97239007004DB7832789000547B3075E
:103E1C00F4409587A302F40083570400638EE702F5
:103E2C008DC309476384E7040D47E397E7FA979737
:103E3C000100938767D51CCC979701009387C7D552
:103E4C0011A8979701009387A79B1CCC979701000B
:103E5C009387079C5CC849B797970100938747875E
:103E6C001CCC979701009387A787EDB79797010014
:103E7C00938747D61CCC979701009387A7D6D9BFB9
:103E8C0085E1EFD2DFB60046184483479400758372
:103E9C009D8B6315F700EF00901948C46FD07FB766
:103EAC008280EFD23FB313893500C16442094111BE
:103EBC00AA890144F11413590901054A2EC6EF00D1
:103ECC00B071B2456346A400014541016FD0DFB328
:103EDC0083A7090013171400BA9783D707006388C8
:103EEC00B7006394970063742A010504C1BF0545AC
:103EFC00E9BFEFD25FADAA892E89328BB6843A8A9C
:103F0C00BE8AEF80A0394DC12685EF10702D8D47EC
:103F1C0063E5A7007D556FD09FAE83DB4400EF00B7
:103F2C00B0712A84EF00907293077400314433050A
:103F3C00850263C5A702EF003070EF00F06F2A8492
:103F4C00EF00D0709307740031443305850263CDC4
:103F5C00A702EF00706E9307450019A8EF00106FD1
:103F6C00330585021307F0179307C017E357A7FC17
:103F7C002D55E3C277FB63000B02D6865286A685CD
:103F8C004A85EFE0D04F41BFEF00506C33058502FE
:103F9C009307C5FFF1BF832749001385C90083D55B
:103FAC002700013779F9BDB76955B5B797F7FF1FEA
:103FBC002390A76697F7FF1F938747659043814728
:103FCC000C463307F500420741836393B7008280A8
:103FDC005446139847008507C2962390E600D5B740
:103FEC0097F7FF1F938787629C4303C587008280E6
:103FFC0017F5FF1F0355C5618280EFD25F9FC16724
:10400C001387D7FF6307E5026368A700F117630EF8
:10401C00F50001456FD0FF9F1387E7FF630EE500A6
:10402C00FD171D8D13351500F5B7EF4060347D1568
:10403C00D5BFEF40E011E5BFEF404010CDBFEFD250
:10404C001F9B4111AA8401442EC6EF00F059B245C2
:10405C006346A400014541016FD0BF9B9C481315DA
:10406C0014003E9583570500E387B7FE0504E9BFAE
:10407C0003485500814693F7F60F63E50701814726
:10408C003E858280584593975600BA9703D72700F0
:10409C006316B70003D70700E304C7FE8506E1BF2C
:1040AC008346450001479377F70F63E4D7008147B8
:1040BC0011A81C45131657000507B29703D6070025
:1040CC00E313B6FE3E858280EFD2DF909317050195
:1040DC00C18797FAFF1F938A6A536353F00883A72B
:1040EC000A00C0479C4703570400198D42054181C3
:1040FC006366F500014422856FD01F9112052A9446
:10410C00DDBFDC4713944900014A3E9483474400C9
:10411C006341FA02014A834754006346FA02850957
:10412C00C20993D9090183A70A009847E3EBE9FC7C
:10413C00D1B71C4413195A00A6853E994A850137FC
:10414C0009ED050AE1B75C4413195A00A6853E999E
:10415C004A85F53519E1050A7DBFE30209FC61BF0B
:10416C00AA848149C9B7EFD29F881C452A8481E76C
:10417C009307C5001CC51C44231204001CC09307E4
:10418C00F00F63E9B70093F5F50F2285EF10500B94
:10419C006FD03F8893940501C167C18063F7F50028
:1041AC00A6852285EF10700DE5B7C18193F5F50F4B
:1041BC002285EF10F008A6852285EF10B009C9BF43
:1041CC0097F7FF1F93878744884382801C4599C7C4
:1041DC0097F7FF1F23ACA742014582807D55828053
:1041EC0097F7FF1F938787429843834745004847BB
:1041FC0092073E958280EFD28FFF617100451C18AB
:10420C003EC6B70780013EC81C183ECA83574400FF
:10421C0002CE02D002CC231EF100834784002A89EF
:10422C0002D22301F1023C083ED402D6553F8357FB
:10423C0005002316F102EF3030632307A1025C4026
:10424C0003556400F18313F717008347F1025205FD
:10425C005181F99BD98FA307F102EFE0B01339C557
:10426C00AA8403550500EF80400483D704002AD2AA
:10427C006800231CF10083D72400231DF1001C4887
:10428C0003D647008C43EF10C0798347B400CA862D
:10429C00178601001306463D8117A305F4006C0038
:1042AC004810EFE0D01D5D616FD0AFF62155E5BF32
:1042BC001C45B1CF03C5A700894613576500630B96
:1042CC00D7028D46630ED70285466300D7021307CB
:1042DC0040063305E50203C7B700418B15CB83C7F6
:1042EC00B700BD8B3355F54082801375F50313076A
:1042FC00803EC5B709671375F50313070771D1BF66
:10430C00372709001375F5031307077CD9B7014547
:10431C008280EFD2CFED03A98500630409048347A3
:10432C00B900AE8493F7070E91CF0345990093051E
:10433C0020030D810505B305B50288446105EFF036
:10434C00501E05A02E85AD372A8401CDCD218325A5
:10435C00C900B307B54063F887002E94B305A44099
:10436C00E9FD6FD00FEB8545C9BFEFD24FE82A842A
:10437C0003D50500011132C636C43AC22EC002CA9A
:10438C0002CC02CEEF70707282452ACA22852ECCE6
:10439C00813D03570500231EE100EF30F04CA2468F
:1043AC0032469247230FA10036874C08B2862285ED
:1043BC000146EFF01FB405616FD0AFE5EFD22FE3EC
:1043CC0061711C183EC6B70780013EC81C183ECA56
:1043DC003C0800453ED4AA8402CC02CE02D002D2C4
:1043EC0002D6FD3B8357050035592316F102EF30F9
:1043FC00B0472307A10209C48357440091E7215910
:10440C004A855D616FD0EFE0035564005205518120
:10441C00EFE040782A8965D58347B40093F7070EFF
:10442C0089C713058401EFF0501183574400231EF4
:10443C00F100834784002301F1025C40035509001D
:10444C00D98313F7070883471102231CA10093F7A4
:10445C00F707D98FA300F10283572900231DF10020
:10446C005C40F18313F717008347F102F99BD98F56
:10447C00A307F102EF7070632AD251D183479400E5
:10448C006800139757008347B400FD8BD98FA305A1
:10449C00F4001C4803D647008C43EF108058A687C5
:1044AC00178701001307471C740005464C1026851E
:1044BC00EFF03FA42A8929D58347B400A685FD8B4C
:1044CC00A305F400B9352DBFEFD26FD2832485FE3E
:1044DC002A8441112685E93B834734FF93F7070E65
:1044EC009DC32AC62685EFF01FD119C9834734FF17
:1044FC00B245FD8BA309F4FE81C52285EFF0700255
:10450C0041016FD00FD16DDD8327C4FF26858297C3
:10451C0065F9834734FF93F7070E81C72285EFF0C7
:10452C00D001032584FE593DE1BFEFD24FC99C4118
:10453C0041112A8903C7070089472E8493566700C7
:10454C00638CF6020D466382C6049307F007630280
:10455C00F7022E85EF102059AA848149C16B130CE8
:10456C00490097F7FF1F9387670A9C43984763ECB2
:10457C00E90241016FD06FC803D745008547E3FAC4
:10458C00E7FE2E85EF10005AC1BF03D74500E3F2BA
:10459C00E7FE2E85EF102055AA842285EF100056D9
:1045AC00C204C98C5DBFDC470355A900139A4900AE
:1045BC003E9A93170501C187635DF00083570A008B
:1045CC006395A70263E574038327CA00034D5A0061
:1045DC001DA0A1672167A98F1307F7EFE374F7FEFE
:1045EC0063950900EFF07FA171FD85099DBF8327BD
:1045FC008A00034D4A00835DA90003576900216AB4
:10460C00138BC7003AC6814A33CA4D01631E5D0144
:10461C0097F7FF1F938707009C43E1DBA286628616
:10462C00814526858297D1B7A1679387F7EF930CC5
:10463C004BFF63F04703B2455A85EFF09F8619CDC7
:10464C0003278B00104719CA10436380C40231073B
:10465C00D5BFEE856685EFF09F9E71FD93861A009F
:10466C0093FAF60F130B0B0255B7835644005C43B9
:10467C00E3EDF6F622853AC6EF10E035A167938795
:10468C00D7042A8A035D4400324763E897008347C6
:10469C00D90093E707F8A306F9001C476685228624
:1046AC00E2858297C1670844FD17337AFA00529568
:1046BC0008C02312A40115BF97F7FF1F938707F5B6
:1046CC009843814715C31447814763FFD5009397DF
:1046DC0045004C47BE9519C903C755008147637502
:1046EC00E600DC451606B2973E85828003C745007E
:1046FC008147E37BE6FE16069C45F5B7EFD28FADFE
:10470C00AA892E8A814497FAFF1F938A2AF083A7DD
:10471C000A00984763E4E4006FD00FAFDC471394B2
:10472C00440001493E9413BB140083474400634B7F
:10473C00F900014913BB140083475400634FF9007F
:10474C008504F1B70844931759005287DA8601465D
:10475C00A2853E9582990509C9BF48449317590013
:10476C005287DA860546A2853E9582990509E9B7F6
:10477C00EFD2EFA7814517F5FFFF1305656097F79B
:10478C00FF1F239707E89D3F6FD0AFA897F7FF1F38
:10479C009387C7E79C4399CBEFD26FA5814517F55B
:1047AC00FFFF1305E55D993F6FD0AFA68280EFD276
:1047BC006FA241112315E1002E89B284B6893A8685
:1047CC0081460147ED452A84EF10F1482AC61DCDDC
:1047DC000356A100CE85EF606139CA852285EF10A2
:1047EC00F15B058915C1228501462C00231491002B
:1047FC00EF10D1712A8409C5ED452800EF10115432
:10480C00228541016FD04FA04944FDB76554CDBFFF
:10481C005C41FD175CC18280EFD26F9DEF1061048B
:10482C0095473305F50281450D816FD08F9EEFD2F0
:10483C000F9CEF10010395473305F5020D816FD0E6
:10484C004F9DEFD2CF9A03550500EF10111D6FD07D
:10485C004F9CEFD2CF99035505003287AE8617D601
:10486C00FF1F0356862897F5FF1F9385E5DA8137DE
:10487C006FD02F9AEFD2AF97EF5091006FD06F9906
:10488C00EFD2EF9697F5FF1F938505D9EF10F16ED8
:10489C0001456FD00F98EFD28F95814517D5FF1F2B
:1048AC000355A520EF10B1596FD0AF96EFD22F94CE
:1048BC0097F5FF1F938545D7EF10316C01456FD0ED
:1048CC004F95EFD2CF92814517D5FF1F0355E523A6
:1048DC00EF10F1566FD0EF93EFD26F912E85EF6002
:1048EC00004CEF6050016FD0CF92EFD24F90EF6041
:1048FC00300B6FD00F925C49E1175CC95CC58357D4
:10490C002501A1072319F50083570501A1072318D9
:10491C00F5008280F1473305F50297F7FF1F938767
:10492C00A7D29C433E9582808D476317F60603D72A
:10493C004600854763F2E706EFD26F8B36853684E7
:10494C002E89EF10401A39C1835744009314050186
:10495C00C18063ED97022285EF10E018FD1423123D
:10496C0094009307A002630EF5009307B002630155
:10497C00F50293079002631BF5002285EFC0D070FF
:10498C0031A00146CA852285EF80E0016FD06F8887
:10499C002285EF003056DDBF828097F6FF1F93868D
:1049AC00E6CA9C42014599CF9843D44217F6FF1FA3
:1049BC00232EE6C86396D70097F6FF1F23AAE6C8F6
:1049CC001385C7FE8280EFD28F827D2E7144330512
:1049DC0085029145EF70405501E565556FD06F83A9
:1049EC0097F7FF1F23A0A7C64526330585029145DF
:1049FC00EF7080537DD197F7FF1F23A7A7C46926BB
:104A0C0097F7FF1F239AA7C2412697F7FF1F2396FC
:104A1C00A7C297870100938767CA17F7FF1F232147
:104A2C00F7C297070000938747ED17F7FF1F23275F
:104A3C00F7C0014565B7EFC29FFBAA8517F5FF1FAD
:104A4C00130585BFEF10001E6FC0BFFCEFC23FFA0D
:104A5C00DD37EF10A01E97F7FF1F938727BF9C43EE
:104A6C0081CF1387C7FE09CB83D5C7FF17F5FF1F6F
:104A7C00130545BEEFF0E02A6FC0BFF9EFC23FF758
:104A8C00293F11C9834785002A8493F7070491E7CE
:104A9C000355E500653F6FC0DFF78347C5009304FE
:104AAC00450117F9FF1F130969BA85E3832709002C
:104ABC005CC997F7FF1F23AB97B883274900E1FF29
:104ACC0097F7FF1F23A697B8F9B7FD172306F50034
:104ADC006105EF6060728307840063C90704834734
:104AEC00840093E707F82304F400EF0071504205AB
:104AFC00A94741813375F5028347840093F707FC7E
:104B0C00C98F2304F4008347D4003E951C4023181E
:104B1C00A40089CF984319CB8347C40050408145EA
:104B2C0085073305F5024205418102978327090069
:104B3C005CC897F7FF1F23AB97B08327490089E721
:104B4C0097F7FF1F23A697B08347C400A9D78355B7
:104B5C00040117F5FF1F1305E5AFEFF0801C25BF0F
:104B6C00EFC2FFE897F7FF1F938707D49C470144D8
:104B7C008583858B81EFAE84B2853A86EF10601108
:104B8C002A8409C5EF106008829408CC22856FC076
:104B9C005FE8EFC23FE441112E8932C6AA89692C25
:104BAC00324713060502CA86970500009385C5D6C1
:104BBC0017F5FF1F130545A865372A8429CD9304E3
:104BCC00C50065261946AA852685EF0090658545A2
:104BDC002685EF007062178501001305E5AB4E9535
:104BEC00834505002685EF00B0655C48314681455C
:104BFC00A1075CC85CC483572401E1172319F40096
:104C0C0083570401E1172318F4001C4C3E85EFC0B8
:104C1C001FE1A3042501228541016FC0FFDEEFC215
:104C2C001FDD4111AA842EC632C4EF106000004D66
:104C3C00B2452246834784000CC050C093F7F7035B
:104C4C0093E707042304F400231804002685EF00DF
:104C5C00D07B83479400A9462317A40013D73700B1
:104C6C0005073307D7029D8B85072306F400A3069F
:104C7C00E40083C70401D8488507230FF7FE17F714
:104C8C00FF1F1307A79C5843232A040093074401D2
:104C9C001DEB17F7FF1F232DF79A17F7FF1F23277D
:104CAC00F79A17F4FF1F1304E49A2285EFE0307D86
:104CBC001C44858B5D8D09E581452285EFF06006EE
:104CCC0041016FC01FD51CC317F7FF1F2322F79894
:104CDC00C9BFEFC2DFD197050000938525C50145FB
:104CEC00EFF09FBF01456FC0DFD2EFC25FD0EFF096
:104CFC00DFBF6FC01FD28347C500A1E7EFC23FCF14
:104D0C002A840355E500EFF01FD315C983478400AF
:104D1C0093F7F7FB2304F4001C4091C7DC4381C7D5
:104D2C004C4001458297EFF05FC717F5FF1F130545
:104D3C006592EFF080000355E400EFF03FD16FC0B7
:104D4C005FCD8280EFC2BFCA97F7FF1F9387079092
:104D5C00970500009385C5D217F5FF1F1305858FA6
:104D6C0023A0070023A20700EFE0D06F6FC07FCA1B
:104D7C001C4D91CBDC4381CBEFC27FC78345070031
:104D8C0082976FC01FC9828097F7FF1F9387C78ECA
:104D9C009C4303C50700828097F7FF1F9387C78D3D
:104DAC009C4303C51700828097F7FF1F9387C78C1E
:104DBC009C4303C52700828097F7FF1F9387C78BFF
:104DCC009C4303C54700828097F7FF1F9387C78AD0
:104DDC009C4303C53700828097F7FF1F9387C789D1
:104DEC009C4303C55700828097F7FF1F9387C788A2
:104DFC009C4303C56700828097F7FF1F9387C78783
:104E0C009C4303C57700828097F7FF1F9387C78663
:104E1C009C4303C58700828097F7FF1F9387C78544
:104E2C009C4303C59700828097F7FF1F9387C78425
:104E3C009C4303C5A700828097F7FF1F9387C78306
:104E4C009C4303C5B70011E11D45828097F7FF1FF6
:104E5C00938787829C4303C5C700828097F7FF1F07
:104E6C00938787819C4303C5D700828097F7FF1FE8
:104E7C00938787809C4303C5E700828097E7FF1FD9
:104E8C009387877F9C4303D50701828097E7FF1F99
:104E9C009387877E9C4303C52701828097E7FF1F7A
:104EAC009387877D9C4303D54701828097E7FF1F3B
:104EBC009387877C9C4303D56701828097E7FF1F0C
:104ECC009387877B9C4303D58701828097E7FF1FDD
:104EDC009387877A9C4303C5A701828097E7FF1FBE
:104EEC00938787799C4303C5B701828097E7FF1F9F
:104EFC00938787789C4303C5C701828097E7FF1F80
:104F0C00938787779C4303C5D701828097E7FF1F60
:104F1C00938787769C438857828097E7FF1F9387F8
:104F2C00A7759C4303D5C702828097E7FF1F938721
:104F3C00A7749C4303D5E70219E11305800C82800A
:104F4C0097E7FF1F938747739C4303C50703828032
:104F5C0097E7FF1F938747729C43C85B828097E754
:104F6C00FF1F9387E7708843828097E7FF1F938723
:104F7C0067708843828019E17D558280F5DE984206
:104F8C0065DFFDD917F7FF1F130707921847AA878C
:104F9C007155058B6316072203C507001547E37D82
:104FAC00A7FC03C737001305F0057D171377F70F20
:104FBC00E364E5FC03C35700E30003FC83C867000C
:104FCC00E38C08FA03C77700494579171377F70F75
:104FDC00E364E5FA03C7A70011481305F7FF13753F
:104FEC00F50FE36BA8F803CE97000D481305FEFFF1
:104FFC001375F50FE362A8F803C8B700630908003E
:10500C0065181378F80F1305600DE36705F703C5F2
:10501C00C700794879151375F50FE36FA8F403C829
:10502C00D7000D457D181378F80FE36705F503D805
:10503C000701930E40175118420813580801E3ED6D
:10504C000EF303C8E7007D181378F80FE36605F339
:10505C0003C827017D181378F80FE36F05F103C817
:10506C008700C54E75181378F80FE3E70EF103D8D7
:10507C006701856E938EBEE06D18420813580801C7
:10508C00E3EC0EEF03D847016D18420813580801E2
:10509C00E3E40EEF03D8870179184208135808018E
:1050AC00E36C05ED03C8A7017D181378F80FE365D1
:1050BC0005ED03C5B7011D487D151375F50FE36D9F
:1050CC00A8EA03C5D701714879151375F50FE36587
:1050DC00A8EA03D5E7011308E00F7D1542054181CD
:1050EC00E36CA8E803C50702494879151375F50F59
:1050FC00E364A8E883AE470237C534001308F5BF54
:10510C00E36CD8E703A88702130555BF5918E3656C
:10511C0005E717E5FF1F232FC55403C6050117E547
:10512C00FF1F232BF5540545E378C5E403D825016F
:10513C00D04933760603E31106E403C61501E30DEB
:10514C0006E217E6FF1F2325B65283C5270001464A
:10515C006387A50003C61700F1453306B60283C763
:10516C0007039305C00272971A071307C7051603A6
:10517C001A9796084697B387B70241553E973297D0
:10518C0042074183636EE802EFC27F863685EF608B
:10519C00D063EFD0F0142A84EF80F0102A94EFC083
:1051AC00D0182A94EF60507B2A94EFF0DF812A9478
:1051BC00EF2010612A94EF50A06122956FC07F857B
:1051CC008280EFC2DF824111A307A100EF80C011E2
:1051DC009305F100170500001305C5B9EFF00FD2C8
:1051EC00014541016FC0FF82EFC2EFFD17E4FF1FC5
:1051FC001304846B0328840079599368180097E48E
:10520C00FF1F23A7146B13781800631E0800BA84C1
:10521C00BE89368B328A2E89AA8AEFE07FDC7D1517
:10522C00269509E531594A856FC06FFDEFE05FDBCC
:10523C007D152695A167E357F5FE97F7FF1F93871A
:10524C00A79D98433E8C814B11C70145EFC0F031AF
:10525C00933B15004A85DA865686D285EF70B02AC4
:10526C002A8911CD1C44F99B17E7FF1F2322F764F1
:10527C0083270C00CDDBE3880BFA82976DB726856C
:10528C0097E7FF1F23A40762EFE05FD24146CE856C
:10529C0017E5FF1F1305C56AEF50510DEFA0A07B5A
:1052AC000325040BEFA0A07D0545EFA0B003054539
:1052BC00EFF03FF18DBF97E7FF1F9387E75E9C47A9
:1052CC00858BD5C7EFC2AFF217E5FF1F13058565B8
:1052DC0097E7FF1F23AA075C97E7FF1F23A8075C2C
:1052EC0097E7FF1F23A6075CEFE03025EF30D07F58
:1052FC00EFE0C07CEFE0500197E7FF1F9387475921
:10530C009C4381C70545EF60B02797E7FF1F938744
:10531C00E7419C4389C741657D15EF500067EFC09D
:10532C00B02DEFA0207497E7FF1F9387E76C9C4389
:10533C001397170163540700EFC0E03897E7FF1F7E
:10534C0023A0076097E7FF1F23AE075E97E7FF1FB9
:10535C0023AC075E97E7FF1F23AA075EEFF0FF98C9
:10536C009D23EFF0EFC0EFC0C05A6FC08FEA828070
:10537C00EFC24FE62A849304140201112E85B289E0
:10538C00A685214636C63A89EF50E17B1DE1B2462F
:10539C0038082686CE8513059404EF4080402146BC
:1053AC002C084A85EF50217A1335150005616FC022
:1053BC00AFE50145E5BFEFC28FE39305450617E561
:1053CC00FF1F1305A52BEFE0D0156FC08FE4EFC2C4
:1053DC000FE241112EC6EFF08FC5B24588C14101D5
:1053EC006FC02FE3EFC20FDFAA842E84EF60106E24
:1053FC00AA8985452285A92583C7E40113899408C8
:10540C0099E313890403CE8522851D2D214693052E
:10541C0019022285392597E7FF1F9387E7488C43AC
:10542C002285EF0060682146938584022285D52B66
:10543C006FC08FDDEFC22FD93971EFC0E0439305F8
:10544C00400645EDEF609065630E051097E7FF1F72
:10545C0083C7872413B7170097E6FF1F238EE62216
:10546C00014489CFC16417E9FF1F1309E94393096C
:10547C00400EFD14EFF05F9A6348A408EFF02FBBC9
:10548C004169B7290900096AFD7A2A8B81447D1983
:10549C009389F97B130A0A71938A8AC7EFF0DF9715
:1054AC0063D5A4041304400EB387840217E7FF1FCF
:1054BC001307873F0324070B3E948357C40163866D
:1054CC00270918403307EB4063EAE900834744009F
:1054DC008507B3874703D6976369F706014681456D
:1054EC000945EFF00FEBAA8B29E1EF209059854786
:1054FC00631FF50489659385057117E5FF1F130577
:10550C00E517EFE01002A1A8B30734030327090B3A
:10551C00BA9703D7C7016308970003C75700A38244
:10552C0007002382E7000504B1B79305C500228567
:10553C00EFF05FEB5E85228697750100938505176A
:10554C00EFF0EFED5E85EF00606F850481BF97E7AC
:10555C00FF1F938767359C478D83858BC1FF216126
:10556C006FC0EFC901468545094502D002D202D46D
:10557C0002D6EFF00FE2AA847DD1EFC0202F138961
:10558C00C4002A8481454A8565290C4041464A85D8
:10559C00492983294400638809084E8502D802DA18
:1055AC0002DC02DEEF50E17C2ACE141005462C08FA
:1055BC0008184ECCEF4080161375F50F2DE583556A
:1055CC00840093E525004A854D2911460C104A8527
:1055DC0089290146977501009385C50D2685EFF045
:1055EC000FE42685EF0080655C40B5DB0146854500
:1055FC000D45EFF00FDAAA843DD148401389C40061
:10560C00EF5021772AC64A85E12E3246636AC500DF
:10561C004C404A853921014681452685EFF02FE023
:10562C002685292D2DBF8355840071BFEFC22FBC59
:10563C0097E7FF1F938747279C4719CD93E7870070
:10564C0017E5FF1F1305850317E7FF1F2322F72616
:10565C00EFE0C06B6FC0EFBBDD9B17E7FF1F23298B
:10566C00F724EF2010427DF517E5FF1F1305050108
:10567C00EFE0A06CC5B7EFC20FB54169AA892E8ABD
:10568C00B28A368BBA8B814417ECFF1F130CCC21DA
:10569C00930C400E7D19EFF02FF863C4A400014465
:1056AC002DA03384940383270C0B3E948357C401A1
:1056BC00638027055A87D6865286CE851305040348
:1056CC00EFF01FCB11C523800B0022856FC02FB3C9
:1056DC008347F40191CF5A87D6865286CE8513051F
:1056EC009408EFF0FFC809C585472380FB00F1BF84
:1056FC00850455B783574500638D0716EFC28FADF0
:10570C0001112A84CD2619C58547630AF504056164
:10571C006FC08FAFEFC040167DF9835744004947E7
:10572C00ED9BE396E7FEC1452285612CAA84228578
:10573C00D52E0357440002CE91472A896317F700F0
:10574C00228519293C082ACC3ECEEFC020125C558C
:10575C00DDDF74084A86A685054582974DBF035741
:10576C004400D147E3F5E7FA032A0400C169014973
:10577C0097EAFF1F938A4A13130B400EFD19EFF0A3
:10578C00AFE96344A90C2285032A0400A92EA14584
:10579C002A8922853D24AA8422857D2E14402A86BE
:1057AC00AA8978082685CA85EFF0FFECAA8425D152
:1057BC0003C7F40189476315F7008347C101A1DBD7
:1057CC005546D28513856400EF50413A0145EF6090
:1057DC00D02D01C583D7C401B1EB97E7FF1F938789
:1057EC00A70C9C4793551900858913D73700058B57
:1057FC0011CB8983858B6397B70001452EC6EFF0DB
:10580C00FFE2B2454E85EF6030320346C1012A8477
:10581C00937519002685EF70702631C92685EF60C7
:10582C00302D268511C00145EF609057EF20702573
:10583C008547E31EF5EC83C754001307F00FE3888C
:10584C00E7EC8507A382F400D9B5B304690383A7F9
:10585C000A0BBE9483D7C401638937015546D285A0
:10586C0013856400EF50212E71D1050909BF5DDC51
:10587C005DBF8280EFC20F96EF60502211CDC164E4
:10588C00014417E9FF1F130929029309400EFD1467
:10589C00EFF08FD8634AA40017E5FF1F130505DE50
:1058AC00EFE0C0466FC04F96330534038327090BD6
:1058BC003E958357C5016386970023120500EF6060
:1058CC0030230504F1B797E7FF1F9387E7FD9C474B
:1058DC008D83858B99EBEFC28F9117E5FF1F130515
:1058EC00E5D9EFE080456FC0CF928280EFC22F9058
:1058FC0097050000938545B417E5FF1F130505D8E0
:10590C00EFE040366FC0EF9083C7F5FF2E8585071B
:10591C00A38FF5FE828083C7F5FFFD1793F7F70F72
:10592C00A38FF5FE89EBEFC28F8C1385F5FFEFF09B
:10593C00B03C6FC00F8E8280EFC26F8B8841050523
:10594C0042054181EFF0704009C585472300F50001
:10595C0005056FC00F8C1C41035745008D8FBA9500
:10596C001CC12312B5003E85828093D78500A20509
:10597C001441DD8D835745001387E6FF18C1890755
:10598C002312F50013D685004111238FB6FEA38F89
:10599C00C6FE4101828018419307F7FF1CC1835753
:1059AC00450085072312F500A30FB7FE82808357AD
:1059BC0045008D8F2312F5001C41BE950CC12E8520
:1059CC008280AA8703D7470008410D8FAA9523929E
:1059DC00E7008CC38280184108453305A7408280BC
:1059EC0083574500035765001D8F1C4108453385BF
:1059FC00A7403305A7408280EFB27FFF41112EC62E
:105A0C002A84EFF0FFFDB2456373B50001A0835704
:105A1C0044000840BE952312B4003E9541016FB07E
:105A2C005FFFEFB2DFFC41112E84B28532C6EFF07E
:105A3C00BFFC3246A285EF50611341016FB07FFD70
:105A4C00EFB2FFFA2E848545EFF01FFB2300850093
:105A5C006FB03FFCEFB2BFF941112317B10089457C
:105A6C00EFF09FF98347E1002300F5008347F10035
:105A7C00A300F50041016FB0DFF9EFB25FF793D7E8
:105A8C008500A2054111DD8D2317B1008945EFF08A
:105A9C00BFF68347E1002300F5008347F100A30024
:105AAC00F50041016FB0FFF6EFB27FF4139785015B
:105ABC0093D78501C166938606F0D98F13D78500DD
:105ACC00758FD98FA2053707FF00F98D4111DD8D38
