:020000024000BC
:100000006FD0425B00000000001801180028012892
:100010000228032800290129022903290429052986
:10002000062907290829002A012A022A032A042A64
:10003000052AA62AD4E10600F24204006804002042
:10004000EA040020EA030020B80300205003002047
:10005000FA2900208A430400AC440400424704000B
:100060005C4804004A420400F8410400B402002045
:1000700054020020184D040064080020604304006E
:100080001E4A04008A7B0600707D0600D67D0600AD
:100090005658060090580600D8870500A67C050033
:1000A000607606004C4A0400545F060014FC04000D
:1000B000A2FC040000FD04001C5504005A55040075
:1000C000D053040022BE040008B904001C2B0020F9
:1000D00046CA040098CD0400AAAB04004CAB04004F
:1000E00018AF0400F6AB04002AAB0400A2AB040076
:1000F000E0AA040078AC0400D0AC040080AC04009A
:1001000084AC040012AD0400D8AC040008AD0400B7
:10011000EAB10400EEB1040074AC04007CAC04004D
:1001200010AD0400ECB10400BEAD04004AB30400FD
:1001300046DB0400B8DB0400F2DB040068C0040006
:100140007EC00400B8C00400C2A00400C8A204001D
:1001500090A30400BC720400066D0400C096040065
:10016000826D040076920400D6BA06000CB3060035
:1001700012B806008ACF060054CE0600ACD20600A4
:1001800068D20600A4D20600F8D30600C8A1060073
:1001900088D30600E6C506000CC606002CC606007D
:1001A00068D4060048CC0600E0CB0600D8D4060090
:1001B0004CA40600E4A4060004A50600B6A40600AC
:1001C000E05F05006A4A0500E64D0500A64B050004
:1001D000F8550500AC3D0020F8750600FCA10600AE
:1001E000A64E0400A6590600345F06002C600600E7
:1001F0003A6E0600C26E06002070060022C404009B
:10020000E25E0500A05605003A4805004E5905007B
:100210001A4A05002A0A00207E5A0600D2D2060099
:100220006CD20600A0D206009CD20600C246040092
:10023000A0C10400DAD20600B062060076630600B0
:10024000DE6306007AB80600D6D2060020D3060088
:10025000287C050024D3060042200020082000202E
:100260005AB80600F0B9060028D306007CD3060071
:1002700080D30600DED2060018D306001CD3060089
:1002800084D30600985F0500000000000000000015
:10029000000000000000000000000000000000005E
:1002A000000000000000000000000000000000004E
:1002B000000000000000000000000000000000003E
:1002C00097470000938787F21747000013070776C8
:1002D0006373F700828023A007009107D5BF97477B
:1002E0000000938727E317E706E013072757974691
:1002F00000009386A6EF63F3F60082801043110797
:0603000090C39107CDBF80
:100308004111B7E700E022C480433707200006C642
:10031800798C23A0E7180F10000011C199E5B7E701
:1003280000E023A08710014579A80D05334505088D
:10033800130740037199B34705086366A702174579
:1003480000000325A5EA9746000083A6A6E9639165
:10035800A602174700000327270C71D3C207DD8DBB
:10036800054502976DBF174500000325E5E7E1BF86
:100378007A2131EF5A21636CF704B306F74021481C
:10038800174600001306C6036375D80283280500C4
:1003980003586600938687001D8FAA966117DAA214
:1003A80023A016012393060014C15EA1130788FF3A
:1003B8007AA27A226EA12105B307F7407EA2B7E799
:1003C80000E023A08710B240224441018280084106
:1003D800BDBFB7E700E08C433707200023A0E7182C
:1003E800F98D0F10000001E523A0B7108280174394
:1003F80000000323A3DF9748000083A8A8DE9A879C
:10040800814663FE170903A80700636DF508636B4F
:10041800A808138787006364E508F22321670507A6
:100428006319E600174600001306B6EA1822050706
:1004380018A2174500001305A5F8D2237A212393A3
:1004480007003297334707087AA163856702174385
:100458000000032363D9630FF30003D36600631B13
:100468000300DE2223A0060121073E962106D2A220
:100478007AA1B6879843630417039746000083A6BA
:10048800A6D6630ED700762399EAD62352231843BB
:10049800A106B296D6A398C37E21A1077EA1B7E78D
:1004A80000E099B7BE86C287A9BFAA871747000090
:1004B8000327C7D3174600000326C6D2B305B540A5
:1004C8006314E6003E8529A8930687001843E3E9EC
:1004D800D7FEE3F7E7FE2E85E3E4D5FEE3F2E5FE7B
:1004E800828023AC05FE1C4199E30CC182803E87C3
:1004F80083A787FFEDFF232CB7FE8280411126C218
:10050800B7E400E04AC003A90400B707200006C604
:1005180022C43379F90023A0F4180F10000009E56C
:1005280023A0241101452DA09565938505D0C98D7B
:100538002A842105B3C5050833450508D1336DD193
:10054800FD572320050042A17CA123A024112105E9
:10055800B240224492440249410182804111B7E7E6
:1005680000E04AC003A9070026C23707200006C6D4
:1005780022C4AA843379E90023A0E7180F100000E9
:100588009747000083A7C7C60144014695E311C8F1
:10059800A285174500001305A5C5974004E0E7802C
:1005A80080EEA1652685974004E0E78040441DA0C1
:1005B80003C7E7FF631B970215CCA2851745000008
:1005C800130505C3974004E0E780E0EBA1652685A5
:1005D800EF20206DB24022852244B7E700E023A037
:1005E8002711924402494101828011E03E8683A787
:1005F80087FF69BF3E84E5BF37E700E01C43B706C5
:1006080020002320D718F58F0F10000019C191C1C1
:1006180011E637E700E02320F71082802E960F704E
:10062800B650D5BF37E700E01C43B70620002320AB
:10063800D718F58F0F10000019C1014785E137E77A
:1006480000E02320F7108280B386E50003A80600A7
:10065800B306E5007D1623A00601110775F6C5B798
:1006680037E700E01C43B70620002320D718F58F92
:100678000F10000001C53307C50011E637E700E099
:100688002320F71082800505A30FB5FEE31DE5FEC4
:10069800F5B7B7E600E09C42370620002A87F18FBD
:1006A80023A0C6180F1000000145B306A7008386D3
:1006B800060091E637E700E02320F7108280050561
:1006C800EDB70111B7E700E026CA84434AC83707E7
:1006D800200006CE22CC2A892E86F98C23A0E71882
:1006E8000F1000009305F00432C633450608093997
:1006F8002A8401C53246CA850137F2402285624400
:10070800B7E700E023A097104249D24405618280F0
:1007180037E700E01C43B70620002320D718F58FE1
:100728000F10000001C599C1014711EA37E700E041
:100738002320F710054582800507E309E6FE330804
:10074800E500B386E500034808009422E306D8FED6
:1007580037E700E02320F7100145828037E700E003
:100768001C43B70620002320D718F58F0F10000070
:100778001307F6FFBA952A966317C50037E700E016
:100788002320F71082809821FD150505A30FE5FEAB
:10079800E5B737E700E01C43B70620002320D71849
:1007A800F58F0F10000001C53307C50019E637E7BC
:1007B80000E02320F7100145828014210505E39805
:1007C800B6FEE31CE5FE37E700E02320F7100545F9
:1007D8008280797126D2974400009384E4A222D4BF
:1007E800804006D64AD04ECE52CC56CA5AC85EC6AB
:1007F80062C455C437C9C901814B174B0000130B9C
:100808002BA01309F937174A0000130AEABD974AC3
:100818000000938AEABA974900009389E9C13E200B
:1008280091EF5C4463990B009CC0032CC4002285A3
:100838004D36628489A823A6FB00C5BF83270B0019
:1008480082971C443307F5406376F50003A78900B7
:100858001D8F2A976368E9062E200820EF20604440
:100868005C405844A9CB0C4417460000032646BDFB
:10087800AE97BE8663E4B70063E4C700B386C7409B
:1008880014C4A28B3A8441FC17470000032747B4DD
:10089800894763E6E7009747000023AB07B2B250E9
:1008A800225492540259F249624AD24A424BB24BFC
:1008B800224C4561828063940B0098C0BDB723A683
:1008C800EB00A5B703274A021DCB63EDA7023385CA
:1008D800A7401C2099EF03479A0183A68900611756
:1008E800B307A7003E8563E4E70063E4D7003385D8
:1008F800D74083A70A016374F50023A8AA00A28B36
:10090800404451B703A78900BA97D1B7011126CA45
:1009180006CE97440000938424B222CC4AC84EC61F
:1009280052C49C288844DDC3B7E700E003A9070048
:100938003707200023A0E7183379E9000F100000DB
:10094800174700000347478B19CB23A02711F24014
:100958006244D2444249B249224A0561828017471B
:100968000000130727DF8357C70AB1CB9C44032431
:10097800870A6306F40497490000938969A403A7CA
:1009880009012285630DF702174A0000130A4A87F6
:1009980083270A008297636EA40C83270A00098CB8
:1009A800829783A7090198443354F40AB307A40033
:1009B8003E8563E4870063E4E7003385E740B7E7F3
:1009C80000E023A027119C44639DA7021744000060
:1009D8001304049F18489747000083A76782631D84
:1009E800A70882979444374736FE130707C83697F7
:1009F800B307A7003E8563E4E70063E4D7003385C7
:100A0800D740174400001304E4F75C5C99CB974681
:100A1800000083A6E6919C463707CDFF7D17F98F26
:100A28009CC611E1884485475CD09747000083A79E
:100A3800E79D829715E15C5C99CF5C5089CF976000
:100A480006E0E78080A3975006E0E780A02197475B
:100A5800000023AB07F4B53B5C5CE38A07EE17475D
:100A680000000327E78C1C47B7063300D58F1CC747
:100A7800F9BD9C443E9415B7829714489844B387AF
:100A8800A6003E8563E4D700E3EDE7F63385E7404B
:100A98008DBF9737000023AFA77411C58547173757
:100AA8000000230BF7748280AA8799E51747000096
:100AB8000347879909C7F1BF11476369B70017470B
:100AC800000013072796B3C5E5209CC1828097379D
:100AD800000083A7277285C3411106C682979737FE
:100AE800000083C7677189E79737000023A4077060
:100AF800B240410182809737000083C7E76F91E7D2
:100B08009737000023A8076E82808280411122C493
:100B180026C206C64AC0974400009384A4E683C749
:100B28003402174400001304E48FB9C717440000C7
:100B380013040489173900001309496D03270900B4
:100B48001C2014300146B3A5E7208E21A5CD11C283
:100B58001CA00820636FD5069747000023820786EC
:100B68009737000083A7C769C5EFB2402244924473
:100B780002494101828082971C40F5FF9747000097
:100B880083C7878C85E3DC48858B89CFD84C994708
:100B9800631EF7009747000023A007E0EF10F01846
:100BA8005C4482971C44D9D3829749B7D84C9D4757
:100BB800E31AF7FE9747000023A007DEEF10F016B0
:100BC8001C48C5B7850793F7F70F0546E3EDD7F639
:100BD80041B73327E5200E2323100700973700007D
:100BE800239D07609737000083A7C761B347F520A7
:100BF8009C4382971C20832609001737000003575F
:100C0800C75F3377E540B3A6D7209222518F9AA2C7
:100C180099C385071CA018201C30E368F7F42DBF82
:100C28009747000083A7C7811CC8653683C734026D
:100C38008DFF83C7140299CBDC4C89EB97470000E2
:100C4800A38207D6975006E0E78000219737000077
:100C580083A7C77B99DB1C4889DB183083260900EA
:100C6800814763C9E702D84C9147E3E0E7F097472B
:100C7800000083C767AC918BE39907EE97370000B4
:100C880083C78757E39307EE2244B2409244024950
:100C98004101ADB933A6D7201222E31806EC850727
:100CA800C9B7B7C700401387C7201443139626490E
:100CB80010C301000100938787261735000003251C
:100CC800E5719C436A0514C393C7F7FF99835D8D4B
:100CD80082809737000083A7E75391C38287130563
:100CE800F00F82809737000023A6A752828017460C
:100CF80000001306A6A197460000938626A3DC36BB
:100D0800383E4C4ABA97FD8B33D7F5001CB2DCB697
:100D1800058B0DE7943A13050002B3F7D702814615
:100D280033D8E548630908006394D70018B2828075
:100D3800850693F6F60F0507E314A7FE828097470A
:100D4800000083A767C5C1E741114AC09737000073
:100D580083A7074B06C622C426C2829717490000FC
:100D68001309C99C83278900638DA7046363F5046D
:100D78001D8D9744000093846499BC2C135455002E
:100D88006361F404AD37BC2C0327890093965700A0
:100D980036971D8C2324E900E376F4FE224488303C
:100DA800B2409244024981454101173305E067008A
:100DB800E369173700000327A768B307F7403E9594
:100DC8004DBFB24022449244024941018280828050
:100DD800011126CA9737000083A7874206CE22CC86
:100DE8004AC84EC652C4829797440000938404941C
:100DF8009844AA870145630DF70463E3E706998FD2
:100E0800174900001309899093F9F70113D4570083
:100E18008347A901636AF402173A0000130ACA61FA
:100E2800F9350347A9018C4403268A009317570014
:100E3800AE97198CBE8663E4B70063E4C700B38637
:100E4800C74094C4E37EE4FC1315540033653501B0
:100E5800F2406244D2444249B249224A0561828042
:100E68009736000083A6C65D3387E640BA9749BF28
:100E7800411122C4174400001304C4B01C4426C204
:100E880006C6858B9744000083A4049391EBEF304A
:100E980080062244B2402685924441016F10907E1C
:100EA80098289747000023A307AE8947E301F7FE78
:100EB8000146930550020145EF10301A8145177518
:100EC80005E01305A5E5CD36014681450545EF103A
:100ED800607E5C44858BC5DFB24022449244410168
:100EE80082809747000083A7E79063930718011152
:100EF80022CC2A84094506CE26CA4AC84EC6EF30F7
:100F0800A007973900009389A94103A60900930710
:100F18008007173900001309A93F7CD297370000D2
:100F2800238C072C832709009734000093844440BE
:100F3800B7053300D8572285719B13671700D8D798
:100F480098431377F7CF98C398431377F7CF13676E
:100F5800072098C398401447CD8E14C7B7060300DE
:100F68009386862534CA5457F59A54D7984334241F
:100F7800137707F893F6F607558F98C3EF20E00725
:100F880083A60900370500827D15DC4293E7170028
:100F9800DCC203260900030784065C569375F70331
:100FA800E605E98FCD8F5CD69305A0039C4063D5F9
:100FB800E508F84FB70500074D8FF8CFB7C7898EFA
:100FC800938767ED1CC6B7575500938757555CC282
:100FD8008347A40683444406DD8C894717470000ED
:100FE8002320F79C9747000023A4079A7C44BCDE83
:100FF8009737000083C7474599C7FC52FDFF9747BD
:10100800000023A5079818289D478145172500004B
:101018001305E53E6306F70017050000130585E58F
:10102800613410386244F2404249B249A685D2443C
:10103800014505616F1000689305200263DAE50039
:10104800F84FB70500F9FD156D8FB7050005ADB769
:10105800B70500F96945FD156357E500F84F6D8F31
:10106800B705000391BFF84F6D8F13178729B1B7E4
:101078008280973700009387E76DE853054754252A
:101088006390E60203C747079147631AF700011107
:1010980006CE2AC6EF10D05A3245F240056191B506
:1010A800828083278511E5CB411122C406C65825C5
:1010B8008345E5049437D2272A841377C70F1395FD
:1010C800466063F7C50663510506882793F6F60759
:1010D80094B70546936627006314C5009366170006
:1010E80054A4D8430907D8C3032504114CB82E8645
:1010F800CC430905EFF04FD0832784115438D843E7
:101108003697D8C3DA27158FDAA789473CBC034737
:1011180064039737000083C7472E6369F706B24018
:1011280022440145410182801367170058A46DBF0E
:101138009376F60F635505028827854513662700C1
:101148006314B5001366170050A454B8A3840700AD
:1011580085473CBC832784119C43D5FBC9B71367DB
:10116800170058A454B8A384070003250411CC43DE
:101178000905EFF06FC8832784115438D843369790
:10118800D8C3DA27158FDAA78D47E1B75C2493E730
:1011980007015CA469B705458280411197370000B3
:1011A80083A7471522C406C6858B2A84C5E74165EF
:1011B800130525F5979005E0E780408441CD3C254F
:1011C8003EA583270412ADE32320A4122322A412F0
:1011D80085472311F404232005007C2854415EA58B
:1011E800583418A5054718B5138517021737000096
:1011F8000327077D15811C437D151375F50F9CC2C8
:101208005C43DCC21C479CC65C47DCC61C4B9CCAC2
:101218005C4BDCCA1C4F9CCE5C4FDCCE0DC1938668
:10122800060213070702C1BF8327441288C38357E6
:1012380024042322A4128507B3C7070859BF173708
:101248000000130727511E2785071EA7B240224416
:10125800410182805C2423090400054593C74700A7
:101268005CA4EDB7142D854763EED70A1C3D2A8789
:101278000145DDEB5C2713F507013C2B99CB834631
:1012880067039737000083C7571763ECF60001E53B
:10129800828059E582808357271E0357671EBA97B5
:1012A80021A08357271E75F90145BDCF9387C71223
:1012B8001735000003550519B3B5A70237460F00C7
:1012C800411113060624814622C426C206C67D544F
:1012D8003385A70297C006E0E780006197340000D5
:1012E80083C41412AA949737000083A7E74F03A773
:1012F80007099C433354E40AFDFB9737000083A792
:1013080027F0829781476364A400B307A440B240E2
:10131800224433B597001345150092444101828059
:101328008147A5BF014582808280173700000327C7
:1013380027FF3C5BFDFF01000100828039C90111D4
:101348006C0022CC06CE2A84EF20D00715C9FD57A1
:10135800630DF502B2479735000083C5750A63EB44
:10136800B700034594026244F240B385B740056173
:101378006F10D017173700000327870CBA97D5B717
:101388006244F24005616F202047F24062440561E3
:1013980082808280797152CC173A0000130A8A3B06
:1013A80026D283244A0906D622D44AD04ECED5C89E
:1013B800973700009387075DD44F15476386E60487
:1013C800DC532A8989CF975006E0E780000B9750B5
:1013D80006E0E78020899737000023A7075CFD59BE
:1013E8006C002685EF20007E0DE917250000130507
:1013F800E540EFF00FEA9737000083A767F2370759
:10140800100098C70547B8DB0D45B25022549254D6
:101418000259F249624A4561828063743501324457
:10142800AA898440D5FCFD571305F00FE38FF9FC1A
:10143800914763F187029307B4FF2320F90023241F
:10144800FA0A99E79737000083A787FF2320F90056
:10145800014565BF9737000083A787FEED17A29760
:10146800E9BF09455DB7797126D206D622D44AD09C
:101478004ECE52CC56CA5AC85EC68347550303445B
:101488007513AA843E941374F40F9307400263F60D
:1014980087001304B4FD1374F40F03A9841383A9FC
:1014A800C413A38B841222864A85CE8597C006E092
:1014B800E780C03E058915E503CBD412014A814A6D
:1014C800337B6403930B500252864A85CE8597C0BE
:1014D80006E0E780A03C05890DC563916A03137493
:1014E800FA0F238B8412B250225492540259F249B3
:1014F800624AD24A424BB24B45618280850A939A2E
:101508004A60050AE3127AFDE9BF83278509035675
:101518000504797193D60701BD8EB3C60608358ECA
:1015280093575640898B135776485D8F93573640AB
:10153800918B5D8F93571640A18B5D8F9317160083
:10154800C18B5D8F9317360093F707025D8F931752
:10155800560093F707045D8F9317760093F7F70FFC
:1015680022D45D8F2A849357D6001355B60011896B
:10157800898B93558600C98F1355F6002582C98F2C
:10158800218AD18F13961500418AD18F1396350081
:1015980013760602D18F1396550013760604D18F61
:1015A800139675001376F60FD18FA207C5455D8F88
:1015B8003307B70226D24AD04ECE03298413832993
:1015C800C4135AC806D652CC56CA369733470708AA
:1015D80013565740098A93577748D18F1356374087
:1015E800118AD18F13561740218AD18F13161700ED
:1015F800418AD18F1316370013760602D18F13163E
:10160800570013760604D18F131677001376F60F5A
:10161800D18F1358B7001356D70013784800098A9A
:1016280013558700336606011358F7002583336680
:101638000601218B518F13161500418A518F1316FD
:10164800350013760602518F1316550013760604DB
:10165800518F131675001376F60F518F2207D98F05
:10166800B387B7025EC6B697B3C7070813D5574006
:10167800098913D77748498F13D537401189498F7E
:1016880013D517402189498F139517004189498F30
:101698001395370013750502498F13955700137575
:1016A8000504498F139577001375F50F598D13D8D5
:1016B800B70013D7D70013784800098B13D68700D3
:1016C8003367070113D8F700A58333670701A18B98
:1016D800D98F13171600418BD98F1317360013773C
:1016E8000702D98F13175600137707041E06D98FE0
:1016F8001376F60FD18FA2073367F5003307B702C9
:10170800130650024A85CE853697B98EB3C40608AB
:1017180033F6C402137BF60F97C006E0E780001883
:10172800058905E9834AD412014A930B5002B38A0A
:101738009A02814493DA0A0126864A85CE8597C0A3
:1017480006E0E780A01505890DC563914A0313FBE0
:10175800F40F230B6413B250225492540259F249E5
:10176800624AD24A424BB24B45618280050A137ADB
:10177800FA0F8504E39274FDE9BF8327C508035671
:101788008508797193D60701BD8EB3C60608358ED4
:1017980093575640898B135776485D8F9357364039
:1017A800918B5D8F93571640A18B5D8F9317160011
:1017B800C18B5D8F9317360093F707025D8F9317E0
:1017C800560093F707045D8F9317760093F7F70F8A
:1017D80022D45D8F2A849357D6001355B6001189F9
:1017E800898B93558600C98F1355F6002582C98FBA
:1017F800218AD18F13961500418AD18F139635000F
:1018080013760602D18F1396550013760604D18FEE
:10181800139675001376F60FD18FA207C5455D8F15
:101828003307B70226D24AD04ECE0329040A8329A9
:10183800440A5AC806D652CC56CA369733470708C0
:1018480013565740098A93577748D18F1356374014
:10185800118AD18F13561740218AD18F131617007A
:10186800418AD18F1316370013760602D18F1316CB
:10187800570013760604D18F131677001376F60FE8
:10188800D18F1358B7001356D70013784800098A28
:1018980013558700336606011358F700258333660E
:1018A8000601218B518F13161500418A518F13168B
:1018B800350013760602518F131655001376060469
:1018C800518F131675001376F60F518F2207D98F93
:1018D800B387B7025EC6B697B3C7070813D5574094
:1018E800098913D77748498F13D537401189498F0C
:1018F80013D517402189498F139517004189498FBE
:101908001395370013750502498F13955700137502
:101918000504498F139577001375F50F598D13D862
:10192800B70013D7D70013784800098B13D6870060
:101938003367070113D8F700A58333670701A18B25
:10194800D98F13171600418BD98F131736001377C9
:101958000702D98F13175600137707041E06D98F6D
:101968001376F60FD18FA2073367F5003307B70256
:10197800130650024A85CE853697B98EB3C4060839
:1019880033F6C402137BF60F97C006E0E78000F138
:10199800058905E9834A1408014A930B5002B38A62
:1019A8009A02814493DA0A0126864A85CE8597C031
:1019B80006E0E780A0EE05890DC563914A0313FB95
:1019C800F40F230F6407B250225492540259F2497B
:1019D800624AD24A424BB24B45618280050A137A69
:1019E800FA0F8504E39274FDE9BF8327450903567E
:1019F8008508797193D60701BD8EB3C60608358E62
:101A080093575640898B135776485D8F93573640C6
:101A1800918B5D8F93571640A18B5D8F931716009E
:101A2800C18B5D8F9317360093F707025D8F93176D
:101A3800560093F707045D8F9317760093F7F70F17
:101A480022D45D8F2A849357D6001355B600118986
:101A5800898B93558600C98F1355F6002582C98F47
:101A6800218AD18F13961500418AD18F139635009C
:101A780013760602D18F1396550013760604D18F7C
:101A8800139675001376F60FD18FA207C5455D8FA3
:101A98003307B70226D24AD04ECE0329040B832936
:101AA800440B5AC806D652CC56CA3697334707084D
:101AB80013565740098A93577748D18F13563740A2
:101AC800118AD18F13561740218AD18F1316170008
:101AD800418AD18F1316370013760602D18F131659
:101AE800570013760604D18F131677001376F60F76
:101AF800D18F1358B7001356D70013784800098AB6
:101B080013558700336606011358F700258333669B
:101B18000601218B518F13161500418A518F131618
:101B2800350013760602518F1316550013760604F6
:101B3800518F131675001376F60F518F2207D98F20
:101B4800B387B7025EC6B697B3C7070813D5574021
:101B5800098913D77748498F13D537401189498F99
:101B680013D517402189498F139517004189498F4B
:101B78001395370013750502498F13955700137590
:101B88000504498F139577001375F50F598D13D8F0
:101B9800B70013D7D70013784800098B13D68700EE
:101BA8003367070113D8F700A58333670701A18BB3
:101BB800D98F13171600418BD98F13173600137757
:101BC8000702D98F13175600137707041E06D98FFB
:101BD8001376F60FD18FA2073367F5003307B702E4
:101BE800130650024A85CE853697B98EB3C40608C7
:101BF80033F6C402137BF60F97C006E0E78000CAED
:101C0800058905E9834AF408014A930B5002B38A0F
:101C18009A02814493DA0A0126864A85CE8597C0BE
:101C280006E0E780A0C705890DC563914A0313FB49
:101C3800F40F230F6407B250225492540259F24908
:101C4800624AD24A424BB24B45618280050A137AF6
:101C5800FA0F8504E39274FDE9BF411126C206C656
:101C680022C44AC09734000083A444B46389041092
:101C780003A4C40AAA86054525C43C241307700A90
:101C88006392E70858301C34172900001309C97AF1
:101C980003268900B387E7020357C900B387E70221
:101CA8001307003293870719B3D7E70203A744093C
:101CB8003E97BA846364F7006364C700B304C740FF
:101CC8009727000083A7C75384C28297B387A4408D
:101CD80063F5A40003278900BA9789EB1305F00F71
:101CE800B24022449244024941018280583093060E
:101CF800204E3307D702E3F3E7FE930780FA3CA4AC
:101D08000145F9BF1307800AE39AE7FC972700000B
:101D180083A7074F82972A893545EF20E025AD47ED
:101D280017370000232EF7C658301C34172600003A
:101D380013068670B387E7025A261046B387E70270
:101D48001307003293870719B3D7E70203A744099B
:101D58003E97BA866364F7006364C700B306C7405A
:101D6800E31ED9F617D505E0130585D6EFE07FD237
:101D78009727000083A7C75A0947F8D785B70545AD
:101D880085B7397156D2973A0000938AAABF83A7BC
:101D98000A033707080026DA06DE22DC4AD84ED6C0
:101DA80052D45AD05ECE62CC66CA6AC86EC6F98F63
:101DB8009734000083A4849F638A071C83A9C40AFC
:101DC80083C7990003A4C90092073E942820B1470D
:101DD80005053305F5025E203E9533450508EFE01D
:101DE800EFF1AA8C630F051A130DC5002324A50172
:101DF80034203146370B0300B386C6022313040090
:101E08000149172A0000130AAA51972B0000938B47
:101E18002B50972D0000938DAD51130B8B15054C4E
:101E2800EA9654C483C679009307D00783250A002D
:101E3800B386F602C1679CC5370833008606B4D15D
:101E480083A60B0090421376F6CF90C29042137689
:101E5800F6CF1366062090C203A50D001045336621
:101E6800060110C503A6090023A8650593055002BD
:101E780090C672205444B2962324DD0014300146E3
:101E8800CA96A301DD0003C504089736000023ADF8
:101E980006AEEF00901C83260A00CC46139615491F
:101EA800D0C60F10000083260A003706020090C62D
:101EB8001306000823A8CA0003A60B0010421356F5
:101EC8007648631E860B1306E018F0D2CCC6173688
:101ED8000000232306AC17360000232706AA23A0F8
:101EE8008601A125EF20200183A64A00858AD9CA48
:101EF800EA85268597E005E0E780A0C70DE9034657
:101F08005D0049C276204E20B29663DDB606B4283D
:101F1800AC4803258D00918E8906B695EFE0CFED8C
:101F280023020D0003465D007620B29676A00326B4
:101F38000A00310D3452FDFE342005091379F90FDA
:101F4800E362D9EE9C246685A381FC001C20A38251
:101F58000C002383DC002382FC006254F250D2542C
:101F68004259B259225A925A025BF24B624CD24CF5
:101F7800424DB24D2161172305E0670023D91306AE
:101F8800E01AA1B7FD562302DD0055B797270000D8
:101F980083A70739FC5791C7854717270000230DEA
:101FA800F724F2506254D2544259B259225A925AE2
:101FB800025BF24B624CD24C424DB24D21618280A1
:101FC800797122D426D22E84AA84414697C506E088
:101FD800938545CD0A8506D6972004E0E780003E24
:101FE800414697C506E09385E5CB0808972004E0AD
:101FF800E780C03C3C3010088A85DC875C20268559
:102008005C875C30DC86973006E0E780C07F03475A
:10201800F1011C200145631EF7000347E1011C3054
:1020280001456318F7000345D1013C201D8D133588
:102038001500B2502254925445618280011122CC7D
:1020480026CA4AC84EC606CEAA841724000003240E
:10205800A47C13092500854905C09C303830858B40
:102068006304F700405CCDBF1946930544004A85D8
:10207800EFE00FEAE31835FFF24022856244D244CC
:102088004249B24905618280411122C426C24AC030
:1020980006C6172400000324247893042500054964
:1020A80001E8B240228522449244024941018280DB
:1020B800A6851305A4022937E30525FF405CCDB7A3
:1020C800411122C426C24AC006C6172400000324B0
:1020D800A47493042500054901E8B24022852244EE
:1020E8009244024941018280A6851305A401C93D95
:1020F800E30525FF405CCDB7011126CA644122CC17
:102108004AC84EC652C406CE2A841D49930965059D
:10211800054A3C4463E4F4000545A1A05834DC209A
:1021280063192705034784026304F7008440D5B781
:10213800D83083475405E31BF7FE19469305640519
:1021480013856400EFE0CFDC8547E311F5FED82462
:1021580083479402E31CF7FCFA243E34E318F7FCA7
:102168000145F2406244D2444249B249224A0561DB
:102178008280E31DF7FAD83083475405E318F7FA4D
:102188001946CE8513856400EFE08FD8E31045FB30
:10219800C1BF411122C406C626C24AC01724000086
:1021A8000324C4625DC88347840B1307700A6393D2
:1021B800E7080347140E8347A40B172900001309E7
:1021C800A92783268900B387E7020357C900B38785
:1021D800E7021307003293870719B3D7E7020327EB
:1021E800440A3E97BA846364F7006364D700B30473
:1021F800D7409727000083A7A70004C18297B38719
:10220800A44063F5A40003278900BA9785CB034748
:10221800140E9306204E3307D70263F1E7029307A3
:1022280080FA230CF40A0145B24022449244024940
:10223800410182801307800A639EE700172506E0A4
:102248001305E576EFE0FF849727000083A7470D85
:102258000947F8D71305F00FC1BF0545F1B70111BC
:1022680022CC26CA06CE2AC42EC617240000032470
:10227800245A854419E001450DA09C841830858BAB
:102288006304F7000044FDB719469305A100130540
:102298002400EFE0EFC7E31795FEF2406244D24412
:1022A80005618280EFE0BF8273000000000000003B
:1022B80097220000938242F40383020023800200E5
:1022C800630F0300F32510342EC097050000938593
:1022D800A5FD73901534EF0080617300203086DC13
:1022E800EF00E060E6508280000041114AC01729E3
:1022F80000001309E9010327090026C206C61C5F6E
:1023080022C4972400009384640093D76748C1C708
:10231800930700061CDF172400001304A466184C5A
:10232800930700086317F7009C409C4393F7070442
:102338001CCC1C4093F7070499CB9727000083A770
:1023480027EC829748D81C4093F7F7FB1CC01C4029
:1023580093F7070299CF1C4017270000032747FC73
:10236800B706080093F7F7FD1CC05C5414C786072E
:102378007CD71C4893F7070499EF85475CC8370753
:1023880002009727000083A7A7F998C71307000C36
:1023980018C81854F8D383270900985F135747487B
:1023A80005C3985F1367070198DF9727000083A785
:1023B80027F723A20706854717270000232CF75C79
:1023C8009C40D8431357174819C7D843759BD8C39F
:1023D800D843799BD8C3B240224492440249410170
:1023E8008280213773002030972700009387875910
:1023F8003707040088DB698F11CF172700000327F0
:1024080027F2FD5634D797260000938666FBD84EF0
:102418000507D8CE137785000DC398479726000087
:1024280083A606EF1367170098C71307000898CB11
:10243800D856719B13671700D8D61377150011CF9C
:10244800D8439726000083A6A6EC13671700D8C3C5
:10245800D856719B13671700D8D6137765000DC33C
:102468001377450059C798431367170098C39726F1
:10247800000083A6E6E9D856719B13671700D8D6E3
:102488004167698F0DC39726000083C6E633C18A6A
:10249800172700001307072CB5C28346470793E6A2
:1024A8000602230AD70637070200698F11CF984B17
:1024B8001377070819C3054798CB9727000083A708
:1024C80027E63707020098C7B70708007D8D0DC1BA
:1024D800172700000347572F058B9727000093877E
:1024E80067271DCB03C7570713672700A38AE7068B
:1024F8008280D84713671700D8C795BF8346470718
:102508000946BD8A6388C600834647070D46BD8ACB
:10251800E39BC6F8914671B703C75707118B69DB70
:1025280003C7570713678700D1B79726000083A60C
:1025380026DF172700001307E7441C43858B91E724
:102548005C43858B99E3FC52EDFB9727000023A59C
:102558000744828097260000938686DB2A87884274
:102568001C5D93D75748C1EB81C51C59BD839CA1FD
:1025780015C69C42945BC60693D7660163D60600CF
:1025880093E707C0B3C707088316060093975760F9
:10259800A9CABE968947B3C6F60216A297270000B5
:1025A80083A707D8BC4B083393D757488DCF29C585
:1025B8009726000083A6863E93F6060493079500A7
:1025C80009459DCABA979C230547194593F6F7060E
:1025D8006394E60201459397476063DF0700394536
:1025E80082801EA265BF2A9748331375F5077D15AB
:1025F8003335A0008280054582809727000083A795
:10260800A7D199CB944BD04B9842518F98C2944301
:102618009C479842D98F9CC217260000130646D0C3
:10262800054818429726000083A686CE9727000003
:10263800938747356314050503A80600136808083F
:1026480023A0060183C62702B3C5D5205447938526
:10265800A50C13981649232607010F1000001842ED
:1026680037060200860510C71306000890CB6CD306
:1026780054C797270000238FA7C882808842137504
:10268800F5F788C283C62702B3E5D520544793855A
:10269800E50E1395164948C70F1000001842370673
:1026A8000200860510C71306000890CB6CD354C7E8
:1026B8000945C1B7411122C4AA8706C626C22E857C
:1026C800172400001304C4C5B285CDEB1C40F85391
:1026D8007DFF3707020098C79727000023A8072A1D
:1026E80097240000938444D0DC5085C7B7E700E006
:1026F8003707200023A0E728B7F700E0938707D023
:10270800984B6D9B98CB984B1367870398CB7300B6
:102718005010E5359727000083A787BF9843131704
:10272800772998C3D857719BD8D79727000023A536
:1027380007269727000023A907241C40094798C3A8
:10274800DC5099CB37F700E0832707D193E7870060
:102758002328F7D0730050101440172700001307E0
:1027680067221C47858B91E75C47858B99E3FC5270
:10277800EDFBB24022449244410182800D476390B0
:10278800E7069727000023A307209727000023A127
:10279800072097240000938424C5DC5085C7B7E739
:1027A80000E03707200023A0E728B7F700E0938769
:1027B80007D0984B6D9B98CB984B1367870398CBA2
:1027C800730050101D3D9727000083A767B49843F6
:1027D8001317772998C3D857719BD8D795B705474A
:1027E800E39CE7F697260000938606C0DC5285C76F
:1027F800B7E700E03707200023A0E728B7F700E095
:10280800938707D0984B6D9B98CB984B136787039A
:1028180098CB730050101C40D04713171649D8C7DF
:102828000F1000001C403707020098C71307000864
:102838009725000023A0E51617270000032747ADBA
:1028480018431357774819C71307E018F8D3D0C7A8
:10285800DC52C5BD1307E01AD5BF9727000083A730
:10286800A7AB89CFD44303A88700984233670701F1
:1028780098C2D447DC4B9842D98F9CC2054797270A
:10288800000083A7E7A895056310E504984313673C
:10289800070898C3984F137707C01367A71398CFF3
:1028A80013078007B8BB939735009387C70317278B
:1028B80000001307270D1CD797270000238CA7A417
:1028C80019C2060610D78280984309451377F7F78F
:1028D80098C3984F137707C01367271398CF130728
:1028E800F007B8BB939745009387C703C9B79727E5
:1028F800000083A7E7A28847D847798D01C988C710
:102908009727000083A787A191C382878280896760
:10291800172700000327C7A0938707F47CD39726BF
:10292800000083A6E6A083A7060993D7A74991C705
:1029380083A7060993D7974999E37C53EDF78280DB
:10294800411106C622C426C24AC063030510AD471A
:102958002A8463EAA70C1304F5FF1374F40F138594
:10296800F5FF01469305F00F1375F50FFD35972414
:1029780000009384E49B98401729000013094999A3
:10298800136404045C571374F40717050000130557
:10299800250DF59B5CD7032709001C4393F707F81F
:1029A800C18F1CC3B7477671938797121CC7B75757
:1029B80055009387575517240000130464965CC389
:1029C80018409727000023AF07FA5C43F99B5CC3C4
:1029D800A547172700002325F7FCEFE08F8B14404D
:1029E8009727000023AA07FA9727000023AE07F8C5
:1029F8000327090085479CC21C433706330001455D
:102A080093F7F7CF1CC31C4393F7F7CF93E707203F
:102A18001CC398401C47D18F1CC7B7070300938776
:102A28008715BCCA05A0B1476307F5029307600282
:102A380063E5A7001304E5FF0DB793077002494546
:102A4800E30FF4F0B24022449244024941018280EB
:102A58001304500229B71304600211B717270000A6
:102A6800032787F2058B972700009387A7CE01CF0E
:102A7800172700000327C789185F1357574801E72E
:102A88009A2705079AA703C68703EC33C8234DBDC9
:102A9800411122C406C626C24AC02E849DCD13F910
:102AA80015008147414763040904131745003E9701
:102AB800B1463307D7029714000083A46475B3178F
:102AC800F02833C90708BA949C40C840829723A0CD
:102AD800040023A2040033448900B2402285224422
:102AE8009244024941018280B356F448DDFE8507CD
:102AF800E39CE7FECDB7011126CA06CE22CC4AC810
:102B08004EC6AE84B1C593F7150001444147A1CF25
:102B180093174500A2973147B387E702971900003A
:102B28009389096F03A909003E998327090081C782
:102B380003254900829731473307E40283A7090038
:102B4800BA979C478DC733148028B3470408BD8CB7
:102B5800F24062444249B2492685D24405618280E6
:102B6800B3D68448D5F60504E31CE4FECDB723208C
:102B7800090023220900C1BFAA87171500000325F1
:102B8800A56811E182803A216315B7001821E30B8B
:102B9800F7FE4845FDB77971B7E700E022D48043D6
:102BA80052CC06D626D24AD04ECE56CA5AC85EC68F
:102BB80062C43A8A37072000798C23A0E7180F10DF
:102BC800000005E123A087100945B2502254925411
:102BD8000259F249624AD24A424BB24B224C4561F1
:102BE80082809717000083A7A761B6892A89AE8AD1
:102BF800328B971B0000938BAB61829703A70B0066
:102C08008144B146C147338CD40233068701104250
:102C180041E2C165938505F04145EFD06FEE19EDAE
:102C28009717000083A7477F81C781451145829781
:102C3800B7E700E023A087102D4541BF1717000014
:102C48001307875C1C43A1E308C323000500B317DF
:102C580090283EA183A70B002326050023246501A5
:102C680023224501E29723A0270123A2570123A489
:102C780047016384090023809900B7E700E023A097
:102C88008710014599B73E87DC47F5FF48C775BFF0
:102C98008504E39AF4F6B7E700E023A087102145FE
:102CA8002DB7B7E700E09843B706200023A0D71850
:102CB800758F0F1000009716000083C67670637337
:102CC800D5029716000083A666543325D520162111
:102CD800D58D0EA19716000023AC066E23A0E71031
:102CE8000145828023A0E7100D4582800111B7E7D6
:102CF80000E022CC80433707200006CE26CA4AC807
:102D0800798C23A0E7180F100000BD4763E9A704DA
:102D180031473307E5029717000083A7674FBA9733
:102D28009C4395CF3315A0282E89B3450508014546
:102D38002EC69935AA8409C9B2450145972004E0F1
:102D4800E780608F23A42401B7E700E023A0871061
:102D58000145F2406244D244424905618280B7E7A6
:102D680000E023A087100945EDB79726000083C629
:102D7800A6999717000083A7275201476394E60096
:102D8800014582808E23138687026394A5003E85C1
:102D9800828005071377F70FB287CDB79727000012
:102DA80083C79796AA868507171500000325854FC0
:102DB800014712216307D60005071905E36BF7FEE3
:102DC800014582802A87171500000325254E11E149
:102DD80082801C45B227636BC70003584500B306C1
:102DE800C8006355D7008146639406010841C5B7FA
:102DF80003D3A700938807016316E30091C192A14A
:102E08003E8582808506C687B3C60608F1BF972629
:102E1800000083C6668F9717000083A7E74B01471A
:102E28006394E60001458280AE231386C70363944A
:102E3800A5003E85828005071377F70FB287CDB7C7
:102E4800411122C406C697270000238F079617143E
:102E580000000324644905C06C390145B315B02846
:102E6800B3C50508972004E0E78000CA9307102738
:102E78003305F50202942244B240814501454101DF
:102E88006FD09FC2411106C6383D19C7342563105B
:102E9800D704B24041016DB73C2DE5DF3825E30A80
:102EA800F7FE3CA5814517E5FFFF1305C51CEFD0CC
:102EB800BFBF9717000083C7275999C79717000006
:102EC80083A707465147F8D3B240410182803C2D81
:102ED80089C7E398F6FC38A5F1B7C5FEEDBF4111E7
:102EE8004AC0172900001309E9A98327890022C4C9
:102EF80026C206C6972400009384C485858BE050BB
:102F08009DCB9727000023A307A883C74407C18B3D
:102F180085CFEF00507E83C7440793F70702E5DFAC
:102F280083C74407228593F7F70C238AF406974052
:102F380005E0E78040FCEF00107C22852244B24087
:102F4800924402494101EDBD83C75407858B91CB5B
:102F5800EF00707A8D47230EF406BC5822858297BD
:102F6800D9BF83C744071547BD8B6395E7048347DB
:102F7800B406034534060146930550025D8DEFF013
:102F8800DF8D014681450545EFF0CFF28327C90063
:102F9800858BD5D322859727000023AB079E9740C2
:102FA80005E0E78000DD41F9B2402244924402493D
:102FB8004101828083C744071947BD8BE39DE7F62B
:102FC8008347B406034534060146930550025D8DD8
:102FD800EFF0BF88014681450545EFF0AFED832747
:102FE800C900858BA9DB22859727000023A2079AB1
:102FF800974005E0E78020B17DB7411122C426C281
:1030080006C67C2578452A84BD8B1CA91CA31D47B0
:103018006445639BE7340547B8A08347F5058D46AB
:103028006395D7185E2DCDE37C491147B18B638D2D
:10303800E70831476398E700034715068347F50714
:103048006304F7088547BCB01946930564031385E4
:103058004400EFD06FDABC20990793F7F70FBCA0B4
:10306800034704061377070401CFB8301367070432
:10307800B8B07844BA975838B8B3BC208507BCA014
:103088009717000023820774BC2013F7F70305077E
:1030980018B80347E4051A07D98FBCA0834754031F
:1030A800858B91E70347440389476317F700784402
:1030B8001C2393E707041CA37C44183898B3B24038
:1030C8002244924441018280A147BCB08357C40680
:1030D8009715000093850568171600001306462407
:1030E800DCA08357C406034714067444A18312075F
:1030F800BD8BD98FDCB2B4208547890693F6F60FCD
:10310800B4A0171700000347276C631EF706183C86
:103118009387E6008E07231AF4069387C708B387B8
:10312800E702794510420948238A0507C1650CC69C
:10313800938707FBB3C7070893877716B3C7A70218
:1031480033C70708B387A70286073CD2BC3093E78A
:103158000701BCB07C44B6978346240693E6060470
:10316800B4B3B4207C44B697D8A3B4207C4421835C
:103178007D8BB697834634069606558FD8B3BC2008
:103188008D07BCA011B71042F94738520583335751
:10319800F7023C5268528583FD8BAA977CD28D47F3
:1031A800238AF5063347070855B71946639DC712A2
:1031B8005E2DC1E393056503B8B013854400EFD0D5
:1031C800AFC3BC201385A4009907BCA0BC3093E70B
:1031D8002700BCB083475403898B95CF0C58BC2972
:1031E8009DCB1946D105EFD02FC178441C2393E716
:1031F80007F81CA3BC20990793F7F70FBCA0034757
:10320800040613770704E30D07E6B430784493E621
:103218000604B4B085B58347D40391C778441C230A
:1032280093E707F81CA319469305E403EFD0CFBC36
:10323800D1B7A147BCB08357C506DCA08357C506E4
:10324800034615066C45A1831206BD8BD18FDCB1F0
:10325800B020171500001305E54F9715000093855A
:10326800250C09061376F60FB0A09717000083C740
:10327800A7556398E704183C9307E6008E07231ABE
:10328800F4069387C708B387E70279488946230A73
:10329800D5069441C1658CC6938707FBB3C7070859
:1032A80093877716B3C7070333C70708B38707039E
:1032B8008607BCD2BC3093E70701BCB07C44B29708
:1032C80061BD8C41B851F94705833357F702BC51AA
:1032D80003A845068583FD8BC297FCD1230AD50632
:1032E80033470708C1BFA147BCB08357C506DCA058
:1032F8008357C506034615066C45A1831206BD8B88
:10330800D18FDCB1B020171500001305A5440906BC
:103318001376F60FB0A09717000083C7E74A9715F2
:10332800000083A5E5FFE39FE7F8183C9307E60054
:103338008E07231AF4069387C708B387E702F9466E
:103348000948230A0507416588C5938707FBB3C762
:10335800070893877716B3C7D70233C70708B38719
:10336800D7028607BCD1B9B70547639EE706B147C0
:103378001CB983475503898BA1CB0C59BC29A9C714
:103388001946D10513858400EFD00FA778441C2374
:1033980093E707F81CA368441946930564030905D5
:1033A800EFD08FA511679717000083A7A747F98F5C
:1033B800E38607CE7C24B98BE39207CE78441C239E
:1033C80093E707021CA3D9B98347D40389C79C2074
:1033D80093E707F89CA0684419469305E403210580
:1033E800EFD08FA14DBF522D0C559307660093F770
:1033F800F7031CB913858400E5B7011126CA971491
:103408000000938424589C4422CC06CE1714000054
:1034180013044434858B6850D9C32AC69717000013
:1034280023A60756EF00302D034744078947324546
:103438006307F700034744078D47631EF702971693
:10344800000083A6E6EDBC520357450785831307A2
:10345800C71263F2E702BC528583B1C391470347A1
:103468004407E31EF7FE6244F240D2440561174365
:1034780005E06700A3D1382D3C3D09CF3425630909
:10348800D7026388F60238A56244F240D244056147
:103498006FD03FA599CF382509EF3CA5F5B72AC6C7
:1034A800EF00702562443245F240D244056149BAC2
:1034B800EDF7DC4CEDF70347440789476307F7004E
:1034C800034744078D47E31CF7FC9147034744072C
:1034D800E31EF7FE49BF63000532011122CC06CE78
:1034E80026CA4AC84EC652C456C2582585472A8499
:1034F8006318F72C971700009387C748D44F1547D0
:10350800638AE600D44F0D476386E600D84FAD477F
:103518006312F7026C386244F240D2444249B2491D
:10352800224A924A01450561B315B028B3C505087A
:103538006FF02FF716311307006497140000938477
:1035480064213347D7029C20E8D0850793F7F70F0B
:103558009CA063CAE700972004E0E780E0A09717E3
:1035680000002389071E78249D47631FF7048347BB
:103578009406B1C38356040763ECF6020C24930740
:1035880030041CAC1305300493F6F60F014697700F
:1035980006E0E78020BA22856244F240D2444249DC
:1035A800B249224A924A0561174305E06700036E53
:1035B80085062318D406930530020545972004E0B4
:1035C800E78060932301A4060549238A2407183C51
:1035D8008D47631CF70E971004E0E78040FC0D89C7
:1035E800630F051463162517930760023CA493071D
:1035F80050023CAC9307700278243CBC85476302B8
:10360800F70889659385F57013051027171A0000C8
:10361800130A8AE283497401972004E0E780209026
:103628000E30835ACA002A8913060064B3855503ED
:10363800814613850532B335B50097A006E0E780CB
:10364800A02AAA84B335590337460F001306062467
:1036580081463305590397A006E0E780E0288327D1
:103668000A00AA948297B307950003278A00BE85AB
:1036780063E4A70063E4E700B385E7404E85EFF015
:10368800EFE683475403898BE9CB8347C403F1C72B
:103698000C58E1C5BC25F1C38947230AF402194631
:1036A800B10513056403EFC03FF50347C407894715
:1036B80063E9E70A22856244F240D2444249B249AA
:1036C800224A924A05616FD0DF8189467C346315AE
:1036D800D70213F7170019CB898B1307500291EB08
:1036E8009307700238A43CAC814739B713076002CE
:1036F800C5BF93076002FDB799CF93F6170013076C
:10370800500291E6898B13B717001307670238A494
:10371800230D0400D1BF3C2C130740026368F70057
:10372800930750023CAC3C2C3CA47DBF850793F723
:10373800F70F3CAC13077002E364F7FEEDB713070D
:103748007002930750023CAC38A4930760026DB531
:103758001307500293077002FDB78547230AF40246
:10376800A9B70327C40A9716000083A666A93C27B1
:10377800ADC31C375833971400009384E4CB9044AE
:10378800B387E702DA24B387E70213070032938787
:103798000719B3D7E702032744093E973A896364B8
:1037A800F7006364C7003309C7408296B307A9408E
:1037B8006374A9009844BA9703576407E3FCE7EEDB
:1037C800F2406244D2444249B249224A924A0561CF
:1037D800828083248409829663E9A400835764075E
:1037E8003385A440E378F5ECE1BF9717000083A781
:1037F80027C5BE94E5B7828001114EC6971900000F
:10380800938949F522CC03A4C9094AC817190000AD
:10381800130989C20357C90026CA83546408832739
:10382800040906CEB384E40237470F009306F72352
:103838001307072452C456C25AC0B694B3D4E4023C
:1038480063E09704171A0000130A8A9BB384974011
:1038580083270A00829763E9A4023385A440634959
:10386800050283570404A30F040085072310F404FA
:1038780083470414639E07102285EFD0DFBE21AA78
:1038880003278900BA977DBF83278900BE94F1B7C3
:1038980083270A008297032784086366E50A198D3F
:1038A8007E3C0357C9008E07B387E702130700322F
:1038B80093870719B3D7E70263ECA708B74A0F0045
:1038C800138BFA23938A0A24835704048507231049
:1038D800F4048347041481E72285EFD0DFB82285FA
:1038E800975005E0E78000246317052403260409A0
:1038F8000327C408832689003297BA876364C70000
:103908006364D700B307D740783C0356C90023281F
:10391800F408050778BC035764083307C7025A97A9
:1039280033575703B384E74063F5E700998EB384B0
:10393800F60083270A00829763E6A4043385A4402F
:10394800E34405F839BF83278900998F3E9589BFDD
:10395800A1452285975005E0E780E014A305A4025D
:103968009717000083A747AB6387071C6244F240A0
:10397800D2444249B249224A924A024B89451545E6
:103988000561828783278900A6973385A7404DBFA5
:103998002285EFD09FB72285975005E0E7808018F1
:1039A800631B05180355C90083576408B7460F0001
:1039B8001386F623B387A7029386062403270409F0
:1039C800230B0402832A8900B297B3D7D702636E08
:1039D800F716B307F7408326C4082324F408014BDD
:1039E800B387E600BE8463E4D70063E45701B38479
:1039F80057411E3023289408A1CB835604045A301B
:103A080037460F0056B03387E640B387E7023A30AF
:103A18001306062481468145BA97B3C7070833853C
:103A2800A7023EB097A006E0E78000EC11CD2695EE
:103A3800B3349500A695AA876314BB006364550147
:103A4800B30755412328F40883270A008297AA84DC
:103A580083270A008297E30D95FE83270A008324B3
:103A68008408829763E8A40E3385A4406301051097
:103A7800035AC90083576408B7440F001387F42317
:103A8800B387470393840424BA97B3D797021717C9
:103A980000000347F796BA9763EBA70CB335950276
:103AA800835A2402528681463305950297A006E080
:103AB800E78080E33389AA0033854A0337460F003D
:103AC800130606248146814597A006E0E780C0E1F9
:103AD80015C1B337950252868146B385B402338542
:103AE800A402BE9597A006E0E78000E0B38AAA404A
:103AF800231154033545492123AE890838348547B5
:103B0800631EF704930700FD7CA481451705000098
:103B18000325457FEFC05FF995471717000023215C
:103B2800F7E8370710009707000083A7677F98C753
:103B3800060923A82707F2406244D2444249B24901
:103B4800224A924A024B05618280B3065701B38725
:103B5800F64051B583278900BE9439B7930710FC06
:103B68007CA48145170500000325457965B797179B
:103B7800000023AF07C6834709019DC3170500004E
:103B88000325C576EFD00F96624483274900F2409B
:103B9800D2444249B249224A924A024B056182877D
:103BA800834594026244F240D2444249B249224ACF
:103BB800924A024B01450561B315B028B3C5050803
:103BC8006FF02F8E011122CC26CA4EC606CE4AC8E7
:103BD80052C456C25AC038358547832405092A84F9
:103BE800AE896314F70C83570508835AC503171A5F
:103BF8000000130A6A84035BCA0063FE571914297C
:103C0800639BE61803278511631707180327450ADE
:103C18006313071874351D47639FE6162A3DB38A58
:103C2800FA409307204E33055503032944093746C4
:103C38000F001306062481463305F5029707000096
:103C480083C7077C33592503B335AB023E99334903
:103C58000908231324093305AB0297A006E0E7807F
:103C6800A0C8B307950033B5A7002E9503278A008F
:103C7800BE8419E163E4E700B384E740B30769034E
:103C880037470F009306F7231307072423A099004B
:103C9800B697B3D7E702D69763E4F4009D8C31A0BA
:103CA80003278A00B307F740BE94170900001309D9
:103CB80029558327090023A09900829763E2A4105D
:103CC8003385A440635D050A83270900170B0000AC
:103CD800130B8B76829703A709006369E50E198D8C
:103CE8007E3C0357CB008E07B387E70213070032E9
:103CF80093870719B3D7E70263EFA70C374A0F007A
:103D0800930AFA23130A0A24835704048507231005
:103D1800F4048347041481E72285EFD0CFF4228589
:103D2800975005E0E78000E061E5832604098327D2
:103D3800C40803278B00B697BE8463E4D70063E406
:103D4800E700B384E7407C3C8356CB0023289408E3
:103D580085077CBC83576408B387D702D697B3D747
:103D6800470363E6F40A9D8C8327090023A0990082
:103D7800829763E1A40A3385A440E34705F89707CF
:103D8800000083C7F76763E6A7069717000023A11B
:103D980087A60145B9A88357640837470F009306DB
:103DA800F723B387670313070724B697B3D7E70248
:103DB800E3F6F4EE03278A002697B304F740F5B537
:103DC8009707000083A7C767BE94DDBD83278B00D4
:103DD800998F3E9531B7A1452285975005E0E78038
:103DE80080CCA305A4029707000083A7E76281EFB0
:103DF8007D55F2406244D2444249B249224A924A2D
:103E0800024B05618280894515458297D5B71D8F7C
:103E1800BA9499BF83278B00BE94B1BF970700005F
:103E280083A7074F98433706CEFF7D161377F7CF42
:103E38001367071098C3170700000327674F144735
:103E4800370803001375F51FF18E14C79706000095
:103E580083A6064D23A8060523A40700904B93F5D7
:103E6800F507130888151366F60390CB904313667D
:103E7800060890C3F04F137606E0498EF0CF23ACC6
:103E8800070423A007065057759A50D79043137616
:103E980006F84D8E90C31306401FF0D21716000087
:103EA800232C06AE17160000232006AE054690C246
:103EB8009043B70533001376F6CF90C3904313763B
:103EC800F6CF1366062090C310474D8E10C723A85F
:103ED8000605D8531317F728D8D32547F05201C63B
:103EE800B04FE37DC7FED8531317F748D8D3A8536C
:103EF80013354500828097060000938666429C42EF
:103F0800B84B1377F78FB8CB98431367870098C3DC
:103F18009C4393D7374889C701000100010001007D
:103F2800170700000327C73E1C4393F7F7CF93E713
:103F380007101CC3170600000326863F1C463707D8
:103F4800CEFF7D17F98F1CC69C4237070300B8CBFC
:103F58009707000083A7473C99CBD44390479842E2
:103F6800518F98C2944BDC4B9842D98F9CC29717BB
:103F7800000023A707A282809707000083A7473A7B
:103F88009C438D8BF9C74111B7E700E04AC003A9EC
:103F9800070026C23707200006C622C4AA84337940
:103FA800E90023A0E7180F100000171400001304FD
:103FB800649D584C8D47631AF7009707000083A744
:103FC800E775014681454545829719476393E4049F
:103FD8008347140289CB8347040263969700971797
:103FE8000000A381079C584CA1476315F70093076D
:103FF80080101EB09707000023800720ED3DB240D7
:104008002244B7E700E023A0271192440249410166
:1040180082809D47639BF40083471402E9D70347D6
:1040280004028D47E311F7FC5DBF544C6389E60039
:10403800584C6306F700584CA147E31DF7FA83472D
:104048001402CDFB5C4C2300F4028547A300F40264
:1040580055B78280411122C42A84354506C6293FB6
:1040680049CCAD4763E987067D141374F40F9707AD
:10407800000083A7E72B984BB70600C1FD16137401
:10408800F403758F6204418F98CB984B9706000014
:1040980083C6C636717693F6F6031306F60FA206A4
:1040A800718F558F98CBF84FB706F9FFFD16136738
:1040B8004700F8CF984B0145758F1317172998CBF0
:1040C800370702001307874F98C7B1471717000033
:1040D8002328F78C39A8B1476304F40293076002D8
:1040E80063E48700791451B7930770024945E300E8
:1040F800F4F8B2402244410182801304500285BF83
:0841080013046002ADB70000D2
:104110002A8309CA83830500230073007D160503E3
:1041200085056DFA82809707FC1F83A7A7E1170713
:10413000FC1F0327A7E001456313F7008280F623E5
:1041400099E2D62336959C43C5BF1707FC1F13077A
:1041500027FF1C435A23411193860711E117BA9791
:1041600085651706FC1F232FD6DC1706FC1F2327A7
:10417000F6DC06C69D051356370063F4E50013060A
:1041800000203387C6009705FC1F23ABE5DA6116D4
:1041900098C2D2A2239306001CC3998FE1175EA395
:1041A000231307004937B2409707FC1F2399A7F64E
:1041B000410182809707FC1F83A7C7D81707FC1F00
:1041C0000327C7D701456313F7008280F62381E6F2
:1041D000D6233375D50A9C43FDB7184183A785FFC5
:1041E0006319B7001CC1FD5723AC05FE238FF5FEF4
:1041F0008280232CF6FEC5BF411122C437E400E0C3
:1042000026C204403707200006C6F98C2320E41894
:104210000F10000009E9232094101545B2402244F4
:104220009244410182800347E5FF9307F00F630644
:10423000F700232094101145D5B797C0FB1FE780E6
:1042400000EF014523209410D1BF41114AC037E946
:1042500000E022C403240900B707200006C626C2D6
:104260007D8C2320F9180F10000089E52320891088
:10427000154515A0AA849707FC1F83C7F7E92E856B
:1042800063F5F400894763EE9700BD37B7E700E0B8
:1042900023A087100D45B2402244924402494101B7
:1042A000828083A785FF99E703C7E5FF9307F00F97
:1042B0006308F7009137B7E700E023A087104DBFF0
:1042C000238F95FE1705FC1F130505C897C0FB1F1C
:1042D000E780E0F6A165268597E0FB1FE780207266
:1042E00001452320891045BF9707FC1F23AE07C453
:1042F00082804111B7E700E026C2844337072000DF
:1043000006C622C4F98C23A0E7180F1000009707F7
:10431000FC1F83A7E7E41704FC1F130424BA91C70A
:1043200082971C40AA971CC031A09707FC1F83A747
:10433000A7C2FDF70840B74703009387D73F33056F
:10434000F502B7A72600938737ECB2403E9508C028
:104350002244B7E700E023A09710924441018280F5
:10436000411122C406C69707FC1F83A7A7BE1704E6
:10437000FC1F130464DA89C782975C48AA975CC85B
:104380004848B240224441018280B7E700E09843A8
:10439000B706200023A0D718758F0F1000009706CE
:1043A000FC1F83C676D76370D5029706FC1F83A6D1
:1043B00066BB3325D5201621B3F5B6400EA123A048
:1043C000E7100145828023A0E7100D4582807971B6
:1043D000B7E700E026D284433707200006D622D470
:1043E0004AD04ECE52CCF98C23A0E7180F10000013
:1043F000930705FF93F7F70F7D476363F70A31478C
:104400003307E5029707FC1F83A707B6BA979C43BB
:10441000C1CB135445003D893315A028AE89B3455F
:10442000050822852EC697E0FB1FE780A04A2A894F
:1044300039C9B2452285170AFC1F130A6AD5B1375C
:104440009707FC1F83A747B182978357CA002A8426
:1044500081463387370313060064B3B73703130568
:104460000732B335E500BE95EF90421DB3078500D6
:1044700083268A003E8763E4A70063E4D70033877E
:10448000D7402324E900B7E700E023A097100145B7
:10449000B250225492540259F249624A45618280D4
:1044A000B7E700E023A097100945DDB7797122D462
:1044B00037E400E04AD003290400B707200006D6FD
:1044C00026D24ECE52CC56CA5AC85EC63379F900AF
:1044D0002320F4180F1000009707FC1F83C7D7C3D1
:1044E0006378F500970BFC1F83AB0BA763970B005A
:1044F000B7E700E023A0271199A0970AFC1F938A31
:104500002AC903AB8A00B74736FE938707C83E9B8C
:1045100083D7CA002E8AAA84B385C702B28981468E
:10452000B3B7C70213850532B335B500130600646F
:10453000BE95EF90A2106370AB02232024110145B9
:10454000B250225492540259F249624AD24A424B22
:10455000B24B45618280829B83D7CA002A841306AE
:104560000064B38537038146B3B73703138505323B
:10457000B335B500BE95EF90620CB307850003A775
:104580008A003E8463E4A70063E4E7003384E740E5
:10459000D285268597E0FB1FE780C03301C900C59F
:1045A000B7E700E023A02711054559BF93E504F0C4
:1045B0004145B3C5050897C0FB1FE78020AA11E954
:1045C0009707FC1F83A7C7BA85D7A6851145829791
:1045D00005B71707FC1F1307A7981C4389EF08C3EB
:1045E00085472326050000C52311450104A11CB100
:1045F0002322050075B73E87DC47F5FF48C7CDB7D6
:104600007971B7E700E026D284433707200006D649
:1046100022D44AD04ECE52CC56CA5AC85EC662C4C4
:1046200066C2F98C23A0E7180F10000035C12A8953
:104630002E8AB28AB6894144B14C170BFC1F130B6A
:10464000AB92130C0003B30B940383270B00DE978C
:104650009C43B9EF135544409375F4005686137587
:10466000F50FB315B028B3C50508893531C18327C7
:104670000B00DE9723A0270123A2470163840900D2
:1046800023808900B7E700E023A09710014521A00F
:1046900023A097100945B250225492540259F2496E
:1046A000624AD24A424BB24B224C924C45618280C4
:1046B0000504E31A84F9B7E700E023A09710214529
:1046C000D9BF011122CC37E400E026CA04404AC811
:1046D0004EC652C406CEB70720002A892E8AB28958
:1046E000FD8C2320F4180F100000C933D2854A85B1
:1046F00097E0FB1FE780001E01ED23209410214569
:10470000F2406244D2444249B249224A0561828061
:104710009707FC1F83D787A8B38537032A89130619
:1047200000648146B3B7370313850532B335B5004E
:10473000BE95EF80B2702322A9002320941001457A
:10474000C1B7011126CAB7E400E04AC803A90400B2
:1047500022CC4EC6B707200006CE52C4AA892E84AA
:104760003379F90023A0F4180F10000097E0FB1F25
:10477000E7804016170AFC1F130A0A9A1DE1A2855A
:104780004E85213183470A006382370523A0241117
:104790001945F2406244D2444249B249224A056175
:1047A000828023110500A2854E85C53683470A0005
:1047B0006386370123A024110145E1BF17F7FB1FD2
:1047C000130727791E23C18F1EA3EDB797F7FB1F91
:1047D000938727789A23598C82A34DBF01114AC829
:1047E00037E900E022CC03240900B707200006CEF9
:1047F00026CA4EC67D8C2320F9180F10000093079F
:10480000F00263E7A704B144B304950297F9FB1FD4
:104810009389897583A70900A6979C4395CB9375C7
:10482000F5001181B315B028B3C50508193F83A75A
:1048300009000145A69723A0070023A20700232013
:104840008910F2406244D2444249B24905618280F3
:10485000B7E700E023A087100945E5B74111B7E7A6
:1048600000E026C2844306C622C437072000F98C24
:1048700023A0E7180F10000097E0FB1FE7808005DA
:1048800019E90145B2402244B7E700E023A09710A0
:10489000924441018280004597F7FB1F83A7C76BB5
:1048A00082979707FC1F9387A78E6367A402984798
:1048B000B74636FE938606C83305A4403697E372A2
:1048C000E5FC13070064B335E502D22781463305C2
:1048D000E502EF80B2567DB798473A94C9BF4111BF
:1048E00006C697F7FB1F23A7A7660295B240970756
:1048F000FC1F23AFA782014541018280411151462F
:1049000081451705FC1F1305658706C622C426C20C
:1049100097F7FB1F23A6076497F7FB1F23AC0762DB
:1049200097F7FB1F23AA076297F7FB1F23820762F3
:1049300097F7FB1F23AC076097C0FB1FE78000A819
:1049400013068002814517F5FB1F1305E57C97C010
:10495000FB1FE780A0A6EFF04FFF97F7FB1F9387A1
:10496000277EE82BFC3B17F4FB1F1304E47A8545F4
:104970003E958D473305F502994797F4FB1F9384C5
:10498000A45E39051375F50F28A03305F50213054C
:1049900005243345050897B0FB1FE780206C88C0CD
:1049A00035C93020994781453306F602130606249F
:1049B00097C0FB1FE78080A09C40382097F4FB1F26
:1049C0009384C459938707249CC0B347F72017F7F3
:1049D000FB1F2329F758093A25211C30944017E67C
:1049E000FB1F130606E733C7D72010C31387170032
:1049F0001377F70F17E6FB1F130646DF3347D72061
:104A000010C313873700890718B093F7F70FB3C7A0
:104A1000D72090C3B240224492444101828097F64D
:104A2000FB1F9386666F2A87BC228832637DF50060
:104A30001306150097F7FB1F83A7475290B2B347A1
:104A4000F52098C382801305F00F82801C41E5CBCE
:104A5000370700F07D8FB706002089476312D70E15
:104A60005A21411122C406C62A8469C719469305F2
:104A7000F00F690597C0FB1FE78060A705478D47CA
:104A8000630AE50A1C4491C75858994745C7185C02
:104A900055C31306C003814517F5FB1F1305456A6F
:104AA00097C0FB1FE78080911306C003A28517F50E
:104AB000FB1F1305E56897C0FB1FE780A08997F7E8
:104AC000FB1F9387E767DA2701E713070010DAA7D0
:104AD000F82719E30547F8A79A2B19E36D479AAB16
:104AE000F83719E31547F8B7B82B19E30547B8AB02
:104AF000B83B19E3F837B8BBD83B11C793763700FA
:104B00000983F4ABF8BBD82B19E35547D8AB182C65
:104B100001E71307C00398AF9C5791C7829797F797
:104B2000FB1F239FA75EFD5717F7FB1F2304F75EAC
:104B3000F1338147B24022443E854101828089475A
:104B40003E85828079714ECE97F9FB1F9389496427
:104B500083A7090006D622D426D24AD052CC829707
:104B600013090064B335250303D6C900814617FA3B
:104B7000FB1F130A6A5A32C633052503EF80122C35
:104B800083248A012A8401456386840232463305E0
:104B9000944063EF840003A589008146B335A902E0
:104BA0003305A902EF809229B3079540338587002A
:104BB000232C8A00B250225492540259F249624A7C
:104BC00045618280011122CC0A852E844146979549
:104BD00002009385A5E006CEEFF08FD318083324AA
:104BE000E420035704FFF240624497F7FB1F83D78A
:104BF000075B37450F00BA97130505243355F502B7
:104C00000561828097F7FB1F83D7675951471D4580
:104C1000637CF702794719456378F702130720038D
:104C200015456373F7021307B0041145637EF7005F
:104C3000130740060D456379F7001307600909451E
:104C40006374F70013B5B70F8280411122C426C2E6
:104C50002E84AA8406C6058CEFF0AFE9B327A40220
:104C6000B2402244338597001375F50F92444101F9
:104C70008280411122C426C22E84AA8406C6058CD5
:104C8000EFF02FE7B327A402B24022443385970008
:104C900033450508924441018280411122C426C255
:104CA0002E84AA8406C6058CEFF0AFE43335A40247
:104CB000B2402244269592444101828041114AC06B
:104CC00017F9FB1F1309C9478327890206C622C4A7
:104CD00026C28DCF829797F4FB1F9384E4439E24D2
:104CE0002A848DC733F7A70A33470708B3D7A70A23
:104CF000B3C70708B307F74051476359F700832745
:104D0000C90291C38297EF10623282A4B24022445A
:104D10009244024941018280011122CC97F7FB1F86
:104D200023A6072417F4FB1F130484415C5406CE0A
:104D3000AA8581C72AC68297B245D1C59C4105453F
:104D4000BDCF9C45ADCFDE25BDCBFE25ADCB9C298F
:104D500081CB7C287838BA976343F506DC41A5C33C
:104D60001306400217F5FB1F1305854297B0FB1F82
:104D7000E780405E97F7FB1F93878741984397F63C
:104D8000FB1F23ABE61C183C19EFCA27930780577B
:104D900037460F003305F502130606248146814588
:104DA000EF80D20908BC183C9D4763E4E700A147A7
:104DB0001CBC17050000130525D915360145F24026
:104DC00062440561828097F7FB1F23A5073697F79A
:104DD000FB1F9387E73B17C7FB1F130747C298C307
:104DE00037873200FD56130727A194C7D8C797F716
:104DF000FB1F2387073AB7C7004023A4D7269DBFD0
:104E0000011122CC17F4FB1F13048433084406CE8F
:104E100026CA4AC801E90545F2406244D2444249E3
:104E2000056182805C58E5DB185C75D770008545AC
:104E300082971844B247E300F7FE4A249305E00442
:104E400017F9FB1F1309492D97B0FB1FE7800021BD
:104E50002320A90269D152249305F00F814497B011
:104E6000FB1FE780A0557C240326090263C1F402DE
:104E7000328597B0FB1FE780802B014597F7FB1F1A
:104E800023AC072A97F7FB1F23AA072A71B74E24E2
:104E90001844B3879502898185043385E7001C5C3B
:104EA00008C28297C9B7011122CC17F4FB1F130463
:104EB00024291C4426CA4EC656C206CE4AC852C42D
:104EC0005AC0AA84AE89B28A6388071A585839CB67
:104ED0001307F01F6366A71017FAFB1F130ACA23F4
:104EE00003290A02631209044A249565938515E093
:104EF00097B0FB1FE78080162320AA022A861DC1D7
:104F00004E245C580844898182971C4403290A0274
:104F10002322FA028947639EF402C1479305090CD4
:104F20006381F9042945BDA003274A02E384E7FE13
:104F30004A249565938525E097B0FB1FE780001212
:104F40002A896DD14E242A865C580844898182972B
:104F5000D1B78D47639AF404C1479305490DE39394
:104F6000F9FCB8219307A0056312F7069E21639F01
:104F700097044E869105568597B0FB1FE780803DCC
:104F800083270A02638727014A8597B0FB1FE780C2
:104F9000001A0145F2406244D2444249B249224AD1
:104FA000924A024B0561828091476397F400930512
:104FB000890EE39999F675B793070010E394F4F618
:104FC000A147E3E137F79305090F61BF83270A0281
:104FD000E38A27F54A8597B0FB1FE780401599B70C
:104FE0001D67637FE506130705E099463347D7023F
:104FF000562417FBFB1F130B2B123307D702330A60
:10500000F70083274B026396470103290B026311C4
:1050100009024A249305E00497B0FB1FE7800004CF
:105020002A8909D14E245C582A8689815285829723
:1050300091451307A00593F5C50FB307B900B42335
:105040006399E60296236394960291054E86CA956B
:10505000568597B0FB1FE780E02F83270B021DB713
:10506000A166F916E3E0A6EC3307E54051B7AC338F
:10507000D9B783270B02A9BF97F5FB1F83A5C50BE3
:10508000E38205EA91479306A00593F7C70F33879C
:10509000F5003023E318D6E81223631B960091072E
:1050A0004E86BE95568597B0FB1FE780A02AD5B5E2
:1050B0003C33E1BF97F7FB1F93878708984721C7C9
:1050C000985F31C385466310D504411122C417F49B
:1050D000FB1F13046404105006C615C2CE274850A7
:1050E00089810297085097B0FB1FE780400497F72B
:1050F000FB1F23A3070497F7FB1F23A10704B2405C
:10510000224441018280828001114AC817F9FB1FA5
:10511000130909034EC68329890022CC26CA52C42A
:1051200006CE56C2AA842E84328A638D091A83273A
:10513000890399EB2945F2406244D2444249B2497D
:10514000224A924A0561828083274903E5D7930763
:10515000F01F63E0A70C97F9FB1F9389E9FB83A776
:10516000090295CF0325890083A749026395A70407
:105170008947639FF404C147E31EF4FA03A50902BB
:105180001305050C9307A0053CA106A12286D28534
:10519000110597B0FB1FE780E01B014569BF035570
:1051A000C9009305E00497B0FB1FE78020EB23A024
:1051B000A9024DF941B78355C9008327490303A6C6
:1051C0000902898182978327890023A2F9024DB7BA
:1051D0008D47639AF400C147E31EF4F403A5090266
:1051E0001305450D45B791476399F400E31494F412
:1051F00003A509021305850E71B793070010E39B01
:10520000F4F2A147E3E887F203A509021305050FAD
:1052100095BF9D676373F506930705E01947B3C70C
:10522000E7020357C90097FAFB1F938AEAEEB38798
:10523000E702BE9983A70A02A1CB83A74A02639122
:10524000370703A50A0291479305A0051308F00F3D
:1052500013F7C70FB306E500B0226313B60683D871
:105260000600B032639C9804B307F64063C6870417
:1052700011072286D2853A9529BF21677917E36BFA
:10528000A7EAB307F54071BF0355C9009305E004D1
:1052900097B0FB1FE78080DC23A0AA0259FD59BD0F
:1052A0008355C9008327490303A60A0289814E85D5
:1052B000829723A23A0371B723900601B28749BFB0
:1052C0003386870011061308F00B6374C8002D4560
:1052D0009DB5ACA213063400719A1106B29786A24E
:1052E000BCB279B797F9FB1F938909E383A7090239
:1052F0009DCB03A5090291471308A0059305F00F64
:1053000013F7C70FB306E500B0226310060583D874
:105310000600B03263979800B307F640E3DA87F4EB
:105320008EA2B287F1BF8347E9000355C9009305F8
:10533000E0043305F5023345050897B0FB1FE7800D
:10534000E0D123A0A90255F5F5B30356C900834562
:10535000E900B385C502338687001106E3E9C5F687
:105360002381060185BF014582809C211CA1BE21AD
:105370001CB1BE21A1833CA1DC213CB1114582803E
:1053800097F7FB1F23A807BE97F7FB1F23A207BEB3
:1053900082800DCD411122C426C206C6AA842E8465
:1053A000014585C1228541469785020093850566A2
:1053B00097B0FB1FE78000FA9C2005455CA49C3059
:1053C0005CB4B24022449244410182800145828013
:1053D000011122CC26CA06CE8947AA843284639E54
:1053E000F5006383B602414781476395E6048A85E9
:1053F0004D3741468A8522850DA841476392E504D1
:10540000638FF600639EB6022E86A2856244F24048
:105410002685D244056117B3FB1F670023058A85E3
:105420003285853F41468A85268597B0FB1FE780F8
:10543000E003AA87F2406244D2443E85056182803F
:105440008147CDBF97F7FB1F23A4A7B2828097F7B0
:10545000FB1F23A1A7B28280011122CC622106CEBC
:1054600026CA4AC84EC63DC8832985002A88AE840C
:1054700003C9090081471317496063550702B14703
:10548000054563F687040355280051143344040886
:105490004E8633878900A2868545EFB0D003B337A7
:1054A000A0008507135569487D141379F903334427
:1054B00004089CA088B023812401C2A0014719C020
:1054C0001387190098C409476383E7000145F24038
:1054D0006244D2444249B249056182800545C5BF54
:1054E000C167F917630AF502D94763F7B7020111DB
:1054F00022CC2EC606CE2A84EF90C007B245636840
:10550000B50022856244F24005616FA0A07CF240A4
:10551000624405450561828005458280C167F917AF
:105520006314F5006F900005411106C6EFA02069D5
:1055300011E15D45B240410182809147639DF500D4
:105540001C211CA23C211831A207D98F3EA23C315C
:1055500001455CA28280114582804111814522C4AF
:1055600026C206C6AA849D232A8409E997F7FB1F51
:1055700083A707A081C7F94526858297B240228577
:10558000224492444101828039714ED652D45AD07D
:105590005ECE06DE22DC26DA4AD856D22A8A2E8B46
:1055A000B289B68B0DE79D3F9145EF90C00A2A84E2
:1055B0004D49854A19EDF2506254D254B259225ADB
:1055C000925A025BF24B4A854259216182803A84A9
:1055D000814A230034018544630A0B00DE851305EC
:1055E0001400029B93041500B3C404089399496006
:1055F00063D30902C1455285EFA0A06A654915E54C
:1056000033069400A6852285EFB000322A8911ED79
:10561000B104B3C4040891472C0052857C8422C68F
:105620006485EF90D07F2A8959D5E3860AF82285D0
:1056300097B0FB1FE780A0AFBDBF011122CC26CAE7
:105640004AC84EC606CE2A893284B689353FAA8416
:105650000DE197F7FB1F83A7E79181CF05476317FC
:10566000E40003C4090005041374F40FA2854A85FD
:105670008297F24062444249B2492685D24405618C
:105680008280AE860147054697050000938525CEAA
:105690006DB79E211CA19E21A1831CB1094582806A
:1056A0009E211CA19E21A1831CB1BE213CA1BE2133
:1056B000A1833CB1114582809E211CA19E21A18322
:1056C0001CB1BE213CA1BE21A1833CB1DC315CA157
:1056D000FC215CB18A2519053345050882809E218D
:1056E0001CA19E21A1831CB1094582809E211CA181
:1056F0009E21A1831CB1BE213CA1BE21A1833CB14E
:1057000011458280CA2106053345050882809E2105
:105710001CA19E21A1831CB1AA21090533450508BE
:1057200082809E211CA19E21A1831CB1BE213CA18F
:10573000BE21A1833CB1CA211105334505088280F1
:105740009C211CA1054582809E21411122C406C6D0
:105750001CA19E212E841105A183A30EF5FEBE215E
:105760009505230FF5FE83D7D5FFA183A30FF5FE83
:1057700003C6F5FF97B0FB1FE780C0BD4820B240CD
:10578000224411054101828089476399F5001C314B
:1057900018210145A207D98F1EA28280114582805F
:1057A0009A21011106CE22CC2EC6D94763F4E70216
:1057B0002A84EF80305CB2469E22636DF50022851C
:1057C0006244F24001470946970500009385A5EC25
:1057D00005615DBBF2406244094505618280AA878C
:1057E000A9C11421FD150547B3C505086398E60056
:1057F00013D725008D89114589CD82800947114530
:105800006392E602494533D7A502B3F5A5021145D7
:1058100091E9114501CB850734A21AA25CC201456A
:10582000828011458280AE860147114697050000AF
:10583000938545E791BB13F73500AA8701EB898172
:10584000114591C50EA25CC201458280114582803E
:10585000D8218947631BF702011122CC2A84C8454D
:1058600006CEAE8601C92EC69D4597B0FB1FE780C8
:105870008099B2462A8722856244F24019469705EC
:1058800000009385A5E3056101B30945828099E194
:10589000114582801C2105473EA2E37BF7FEFD15E2
:1058A00093F5F50F33D7F502B387E702E392F5FEE0
:1058B000050548C21AA201458280DC210947AE864F
:1058C0006385E70041476399E70001472146970553
:1058D00000009385A5E74DB9094582800EA291E1AC
:1058E000014548C201458280AE8601472946970599
:1058F0000000938505DF49B90EA291E1014548C238
:1059000001458280AE8601473146970500009385A8
:1059100025DE9DB90EA291E1014548C20145828074
:10592000DA21854763FFE702011122CC2A848841EE
:1059300006CE2EC615C1854597B0FB1FE780A08C0B
:105940002A8722856244B246F24039469705000014
:10595000938585DB05610DB9F24062440945056117
:10596000828009458280AA878DC518218D46114500
:1059700063F2E602FD15B3C50508B3C6E5023308B8
:10598000D70263990501850716A23AA25CC20145B8
:10599000828011458280DC210947AE866385E7005D
:1059A00041476399E7000147414697050000938509
:1059B000E5D9D9BE094582803335B0000A05828019
:1059C000011122CC26CA06CE98258547AA842E84AA
:1059D0004946631FF70099363E20491513062009F2
:1059E00063C8A700F2406244D24409450561828041
:1059F000183485476314F70013660604484001C94C
:105A00008D4532C697A0FB1FE780E07F3246A28615
:105A10006244F2402A872685D24497050000938588
:105A200045CF056195B68D4763F7B7021C31182144
:105A3000F115A207D98F1EA23C313821B3C5050844
:105A4000A207D98F014799C1130745003EA24EA274
:105A500018C60145828011458280011122CC2A841A
:105A6000884506CEAE8601C92EC6954597A0FB1F78
:105A7000E7806079B2462A8722856244F24059461F
:105A800097050000938525CA0561FDBC3335B0003C
:105A90000A058280AE86014761469705000093851E
:105AA00065CADDB48547114563F1D7021C320C226B
:105AB0000945A207CD8F81456384A6009305260082
:105AC000F9161EA336A34CC30145828001478146C7
:105AD0007946814555BC9E211CA19E21A1831CB104
