:040000006F109011DC
:10000400000000000000000090000020900000208C
:10001400A9BDF9F5C00000200000000000000000A8
:10002400C00000209000002000000000000000003C
:10003400900000200000000090000020000000005C
:1000440090000020900000209000002090000020EC
:1000540090000020380B00209000002000000000D9
:1000640090000020900000209000002090000020CC
:10007400AA000020900000209000002090000020A2
:1000840090000020900000209000002090000020AC
:1000940001A04111B7170040985F3AC6945F3247F8
:1000A400E39CE6FE324541018280B7170040130706
:1000B40000032388E702854723A8F18273002030D8
:1000C4009305000273A045808245739015349240D5
:1000D4002242B2424243D2436244F2440255925510
:1000E4002256B2564257D2576258F2580649964998
:1000F400264AB64A464BD64B664CF64C065D965D90
:10010400265EB65E465FD65F09617300203001113A
:1001140013078008F337078093F787083EC201006E
:100124000100B7170040930570052380B704130638
:1001340080FA2380C7040100010083C6B70493F644
:10014400F60DA385D704238007049246F3A6068000
:100154000100010093760502D5CEF336078093F6AD
:10016400860836C4010001002380B7042380C70435
:1001740001000100B70614007D89558D88C7010070
:1001840001000100010023800704A246F3A60680B3
:100194000100010073370780137787083AC601000E
:1001A40001002380B7042380C7040100010001007B
:1001B40001003727004093061005A303D78023804E
:1001C4000704B247F3A707800100010093078008E2
:1001D400F3B7078093F787083ECE01000100B717F5
:1001E4000040130770052380E704130780FA238077
:1001F400E7040100010003C7B70413670708A385D8
:10020400E70423800704F247F3A7078001000100F5
:100214000561828093760504BDC6F336078093F6A4
:10022400860836C8010001002380B7042380C70470
:1002340001000100B7061400938606047D89558DDC
:1002440088C7010001000100010023800704C246A1
:10025400F3A606800100010073370780137787082F
:100264003ACA010001002380B7042380C7040100B7
:1002740001003727004093062005A303D78023807D
:100284000704D24781B773370780137787083ACCBE
:10029400010001002380B7042380C704010001008A
:1002A40098471367070C98C723800704E24719BFD0
:1002B4000111814601468145114506CEE12293078D
:1002C4008008F3B7078093F787083EC60100010052
:1002D400B7170040130770052380E704130780FA5B
:1002E4002380E7040100010003C7670413671700B4
:1002F4002383E70423800704B247F3A707800100A0
:100304000100F24005618280411181460146814528
:1003140011458D2A13078008F337078093F7870860
:100324003EC401000100B717004013067005238086
:10033400C704930680FA2380D70401000100FD5509
:100344002396B70223800704A245F3A50580010084
:10035400010073370780137787083AC6010001004C
:100364002380C7042380D7040100010003C7670466
:10037400136717002383E70423800704B247F3A716
:1003840007800100010001A0BD473305F50201000B
:100394007D1575FD8280411122C426C206C6AA8439
:1003A400014463179400B240224492444101828084
:1003B40005041305803E4204C13F4180DDB741116D
:1003C40006C6EF00902BF5BF2303048015472303D3
:1003D400E48001002302A480828083076480E3CE4A
:1003E40007FE23030480828083076480E3CE07FE34
:1003F40003454480828083076480E3CE07FE2302A2
:10040400A4808280411126C44AC24EC006C6137716
:10041400F50BAD47AA892E8995446306F700194563
:100424006537653F8D444E854537FD59FD14639806
:100434003401B240A24412498249410182801355D9
:1004440009011375F50F453F2209CDB7011126CCDB
:1004540006CEB704080051371545BD3771376937E3
:100464002AC6A53F32459377150089EB136515001D
:100474001375F50FF240E24405618280FD14E9FC36
:100484000145CDBF397126DC4ADA4ED852D656D44E
:100494005AD25ED006DE62CE66CCB7E700E07D5766
:1004A40083AA070022C603AA470023A0E71823A2B1
:1004B400E718B7170040130770052380E7041307F4
:1004C40080FA2380E70483C74704930B75FFB6843F
:1004D400E20793FBFB0F8546AA892E8B32893724CA
:1004E4000040E187015763FA76016308D500894625
:1004F400130700026313D5000157D98F93F7F70F41
:10050400B71C00402382FC0411472303E480130535
:10051400F00F5D3D094CD135636D7C11B7050700C3
:10052400DA9537870700795563F2E504B3879500B8
:10053400636EF702370B0800A94733EB6501639933
:10054400F90689E48144513D26850DA0DA850945E3
:10055400553D05090345F9FFFD14050B693D81C4AB
:100564009377FB0FFDF7DD3569FD7D55B717004027
:10057400130770052380E704130780FA2380E70438
:1005840003C74704418B2382E704F250B7E700E036
:1005940023A0571123A24711E25432445259C2599D
:1005A400325AA25A125B825B724CE24C2161828005
:1005B400A5476395F90685691309F00FB3069900F9
:1005C400B3742B01B6941349F9FFB3749900856B86
:1005D40033796901416B9387F9FFB3F7270199E3F5
:1005E40063FC340193D94900C147E3E637FF99BF5F
:1005F4000569C1697D19D9B71305800D638869013F
:10060400130500026384790113051008CA85DD3BD4
:10061400353D21DD4E99B3843441D9B7DA852D4572
:10062400D533CA94E30099F205097D3BA30FA9FED3
:10063400D5BF9387F9FF93F7F70F6361FC0C83C76A
:100644001C0413073008631FF70437070800636BA3
:10065400EB04B3079B00B706100063F5D704334BD4
:10066400EB0089476393F9068980D549E38C04EC50
:10067400DA850945413B11090327C9FF9147232026
:10068400E48003076480E34E07FE23033481FD17EF
:10069400EDFBFD14110B81C49377FB0FE9FF7D3350
:1006A40071F5E1B5B717004003C75704B707080051
:1006B4001377070219E3B78707007955E378FBEA54
:1006C40033079B00E3FFE7F855B58547E382F9F26A
:1006D400DA852D45053B9389F4FFE38504E6293348
:1006E40093F7390091EB83260480032709009307CD
:1006F4004900E39AE6E43E89CE84F1BFB5476396A8
:10070400F9001305900BC93135BDB1471305B00A83
:10071400E38BF9FE99476391F904B7050800B365C3
:10072400BB002D45C53181448D4BA1497539639674
:100734007401832704802320F9008504E39834FF9F
:100744008327048013172B01635507002312F90034
:10075400D5BB2322F900FDB39D476399F902814576
:100764001305B0044531BD442320090023220900A8
:10077400FD599D3993F77400CA9703C70700FD1408
:10078400398D2380A700E39634FF6DBBA1476392A4
:10079400F9046D398144630D0B008D479304C00344
:1007A4006308FB009304000563048B019304400475
:1007B4001375C507E30895D8194539313939054505
:1007C400213126850D3909453D314931E31C05D6D2
:1007D40069BB91476399F90013056006F536F53E48
:1007E400130590090DB7E38F09D4F154A9BBBD6675
:1007F400014717460000130666B1938606A6854591
:100804008347060093F7F70F91C382800507E3F946
:10081400E6FE97470000238BB7AEDDB77D16620670
:10082400618693178601E18763D4070001458280BE
:10083400931726003307F500AE9718439C4363E7EC
:10084400E7007D16E37FF7FC7D55828005458280B5
:10085400FD15E205E18513978501618793F7F50F8F
:1008640063480700FD15139725002A97584365D759
:10087400138517006205618582803308B5021C4226
:1008840083A80600B335B502C29733B50701AE9805
:10089400469585486367B5006394A50063E3070143
:1008A40081480C43C6950CC388C21CC28280814710
:1008B4001397870161876343B700828013972700EA
:1008C4002A97232007008507E5B7814701479396B8
:1008D4008701E18663C5B6001335170082809396BD
:1008E4002700AA9694428507558FD5B793D75540CC
:1008F4008A07AA979C4305453315B5007D8D8280F0
:10090400171300E0E702630F2A84993705C593178C
:1009140025003E940327C4FF814711EB7D1516057E
:100924003E9542054185171300E06700430F058398
:100934008507E5B70145C5BF8147139787016187DF
:100944006343C700828013972700B386E50094426F
:100954002A97850714C3D5B77D16620661860147B9
:1009640093178601E18763D507001335170082804A
:1009740093172600B306F500AE9794429C437D1668
:10098400B58F5D8FF1BF8A05AA9501476363B500F2
:10099400828083A6C5FFF11593D71600D98F9CC119
:1009A4001397F601E5B72A830148014701456343DC
:1009B400D7008280B387050183A80700B307060127
:1009C4009C43C697AA976384F80033B517010507BB
:1009D400B3080301620723A0F80061871108C1BFAF
:1009E4002A8301478147014563C3D7008280338846
:1009F400E50083280800330EE600032E0E0033883A
:100A0400A8403308C8416384080133B50801850749
:100A1400B308E300E20723A00801E1871107E9B75F
:100A2400171300E0E70263FD0111B286B2842E863B
:100A3400AA850A8575372A84A6850A8579353334CB
:100A44008000060413351500018D0561171300E0BD
:100A54006700E3FC171300E0E702A3F74111AA893A
:100A6400AE8A328BB68402C202C402C60144131C8D
:100A74008401135C8C4163499C02939B1400FD1B0D
:100A84000549138CF4FFF15C330489016204618429
:100A9400634D740592478E04CE9423AEF4FE410157
:100AA400171300E0670063F613192400B30B2B013E
:100AB400014A93172A00D69783A50B008843780030
:100AC400340050005D3B050A93178A01E187F11B4E
:100AD400E351FCFE92474E9905042320F900A247F6
:100AE4003EC2B24702C63EC459B7131A8901135A0B
:100AF4008A41131D240093178A01E18763CF97006D
:100B040092470A044E941CC0A24705091379F90FB1
:100B14003EC2B24702C63EC485BFB3079A0313154B
:100B24002A0056950841780034005000050AEA97D7
:100B3400DA978C439933C1B7197106C212C416C629
:100B44001AC81ECA22CC26CE2AD02ED232D436D6E9
:100B54003AD83EDA42DC46DECAC0CEC2D2C4D6C6D9
:100B6400DAC8DECAE2CCE6CEEAD0EED2F2D4F6D6C9
:100B7400FAD8FEDA938581828841E7000500924025
:100B84002242B2424243D2436244F2440255925555
:100B94002256B2564257D2576258F25806499649DD
:100BA400264AB64A464BD64B664CF64C065D965DD5
:100BB400265EB65E465FD65F096173002030B7E7F4
:100BC40000E09843B706200023A0D718758F0F10B4
:100BD400000001C599C1814711E6B7E700E023A0F1
:100BE400E7108280B386F50003C80600B306F5005B
:100BF400850723800601E317F6FEC5B737E700E053
:100C04001C43B70620002320D718F58F0F100000CF
:100C140001C53307C50011E637E700E02320F710CC
:100C240082800505A30FB5FEE31DE5FEF5B737E7A2
:100C340000E01C43B70620002320D718F58F0F10BF
:100C4400000001C599C1014711EA37E700E02320FC
:100C5400F710054582800507E309E6FE3308E50041
:100C6400B386E5000348080083C60600E305D8FE02
:100C740037E700E02320F7100145828037E700E0E2
:100C84001C43B70620002320D718F58F0F1000004F
:100C94001307F6FFBA952A966317C50037E700E0F5
:100CA4002320F7108280FD1503C715000505A30F47
:100CB400E5FEDDB737E700E01C43B706200023203C
:100CC400D718F58F0F10000001C53307C50019E6CA
:100CD40037E700E02320F7100145828005058346AD
:100CE400F5FFE397B6FEE31BE5FE37E700E02320BC
:100CF400F71005458280797197470000938747B2C2
:100D040022D4804306D626D24AD04ECE52CC56CADE
:100D14005AC85EC679C0B7C4C901014B97490000DF
:100D2400938989AF9384F437174A0000130A8AAF72
:100D3400974A0000938A8AA917490000130949B306
:100D44008357240095E35C44631D0B0017470000A0
:100D54002328F7AC832BC4002285EF00102B5E847C
:100D6400B9A82326FB00FDB783A7090082971C447A
:100D74003307F5406376F500032749001D8F2A9752
:100D840063E2E4089747000023AA07A483552400DC
:100D940003450400975001E0E78080E05C4058443C
:100DA400A1CB0C4403264900AE97BE8663E4B7008A
:100DB40063E4C700B386C74014C4228B3A8449F065
:100DC40097470000938787A09C4B09476372F706F7
:100DD400F917174700002323F7A0B2502254925466
:100DE4000259F249624AD24A424BB24B456182806F
:100DF40063170B009747000023A4E7A2A1BF232693
:100E0400EB0089BF03274A0209CF63EFA7003385AC
:100E1400A74083A70A016376F5009747000023AF34
:100E2400A79A228B404461BF03274900BA97C5B7EC
:100E34009747000023A4079A4DB79747000093876C
:100E4400A7A29C4385C3411106C682979747000019
:100E540083C7679C89E79747000023A707A0B24090
:100E6400410182809747000083C7E79A91E797473B
:100E7400000023AB079E82808280411122C4174464
:100E84000000130464971C4006C626C24AC091C7DA
:100E940082979747000023A107969747000083C7CE
:100EA400F7B1858B17490000130909B189CF83472E
:100EB400790019476312F71097470000A38007B021
:100EC40065295C4482971C4491C38297974400002F
:100ED4009384C4949840174600000346368F97477E
:100EE400000083C7A78E93961700BA9683D6060090
:100EF400E5C29747000083C7678D63E5C70E974730
:100F040000002385078C1C40639E0714974700004C
:100F1400938787909C4363870714974700009387C0
:100F24002795DC4317470000232AF78AE9339747BC
:100F3400000083C717A9639707129747000083C768
:100F440037A891CF8347790093F7F70F89EB974739
:100F54000000A38707A6976001E0E780E076974743
:100F640000009387278CDC53638E070E974700009D
:100F74009387C7859C4BFDC78347790015476363F7
:100F8400F70E9747000083C7A7A8918BE1EF974717
:100F9400000083C74788F9E790409746000083C65E
:100FA400F68263C7D70C2244B240924402494101FD
:100FB400175301E0670063EE834779001D47E3148C
:100FC400F7F097470000A38B079E7D261C48DDBDE4
:100FD400850793F7F70F973600002389F67EE3E041
:100FE400C7F001BF86073E9783550700231007000B
:100FF4009747000023900782973700009387877FE5
:101004009C43173500000345657C13172500BA97E8
:101014009C4382979737000083D7C77F1737000018
:101024000347C77A93C7F7FF7D8D9317170098403E
:101034003E97835707005D8D2310A7009737000064
:1010440083C7C77891C78507173700002300F7784F
:1010540017370000034787779737000083C7177750
:10106400E37FF7E8B240224492440249410182807E
:10107400139717003297035707006DF7850715B7C5
:1010840037C700408326C720B707FCFFFD17F58F3D
:101094002326F72001000100973700009387077388
:1010A400C84F832787262326D7206A0593C7F7FFCF
:1010B40099835D8D82800000EFF03FD873000000BB
:1010C40000000000973200009382E2740383020060
:1010D40023800200630F0300F32510342EC097050C
:1010E40000009385A5FD73901534EF00A04B7300A9
:1010F400203086DCEF00004BE6508280000017476A
:1011040000001307278B1443411122C49C5E4AC07C
:1011140006C6998326C2858B3A84174900001309B1
:101124002989D1CB930700069CDE174700000347AB
:10113400078993070008974400009384E487631B9E
:10114400F700832709009C4393F70704174700001F
:101154002307F78683C7040093F707049DC39737D3
:1011640000009387676B9C4382979747000023A3F3
:10117400A78683C7040093F7F70B17470000230DD6
:10118400F78283C7440093F7070495E78547174719
:101194000000A305F78297470000938767849C4368
:1011A4003707020098C7130700FC974600002387FF
:1011B400E6809848F8D318401C5F9183858B8DC3D3
:1011C4001C5F93E707011CDF974700009387478163
:1011D4009C4323A207068547173700002300F77EA8
:1011E40083270900D8430583058B19C7D843759B0A
:1011F400D8C3D843799BD8C3B2402244924402490D
:1012040041018280ED3D730020309317D50063D3F4
:101214000702973700009387A77C9C437D57B8D774
:10122400973700009387875ADC4F850717370000EC
:10123400232CF75A937785008DC39737000083C713
:10124400C77793E71700173700002308F77693074B
:1012540000F8173700002303F7769377150099CB2E
:101264009737000083C7577593E7170017370000B7
:10127400A304F7749377650095CB937745001737EC
:10128400000013076773CDCB8347070093E717006C
:10129400173700002302F77297370000938787718E
:1012A40098435C57F19B93E717005CD79317F500BD
:1012B40063D407021747000003474787418B9737DA
:1012C40000009387277F51C383C7870793E70702EB
:1012D40017470000230CF7849317E50063D7070230
:1012E4009737000083C7876DE207E18763D707005C
:1012F4008547173700002303F76C9737000093875F
:10130400276E9C433707020098C79317C50063D420
:1013140007021747000003477781058B97370000C2
:101324009387477929C383C7970793E7270017371C
:101334000000A30DF77E82808347370093E71700F0
:1013440017370000A30BF76681BF03C787078946D9
:101354003D8B6308D70083C787070D47BD8BE39D8B
:10136400E7F69147B5B703C79707118B69D783C7CA
:10137400970793E7870065BF973700009387476611
:101384009443973700009387276303C70700058BAF
:1013940011CB973700002383076297370000A38F90
:1013A4000760828003C71700058B65F7F85271FF49
:1013B40083C75700DDB7173700001307A75F03285B
:1013C4000700832788039583858BADEF11C6832798
:1013D4000803BD832300F6009DC61C43985B4607A3
:1013E400935767016356070093E707C0C207C18399
:1013F40003970600C207C18709C7BA970947B3C74D
:10140400E7022390F6008DCD8345150095C99737E3
:10141400000083C7C75A93F70704138795008945CB
:1014240085C33A95834705000547994593F6F70622
:101434006398E600E207E187814563D30700B94575
:101444002E8582808545EDBF411126C206C622C481
:10145400973400009384C4583DED9440AE87F8520D
:101464007DFF37F400E03E8597370000238707545B
:10147400832704D1B285ED9B2328F4D0832704D19C
:1014840093E787022328F4D073005010976001E09B
:10149400E7804010973700009387C7519C43B706F5
:1014A40080009843558F98C3D857719BD8D79737E6
:1014B4000000A385075097370000A38F074E9C4078
:1014C400094798C3832704D193E787002328F4D0DE
:1014D400730050100DA08D476315F5049737000075
:1014E4009387474D9C43B70680009843558F98C314
:1014F400D857719BD8D79440173700001307C74BB0
:1015040083472700858B89EB83473700858BC1CBC5
:10151400973700002384074AB24022449244410191
:1015240082808547E319F5FCB7F700E003A707D1EC
:101534006D9B23A8E7D003A707D11367870223A8CD
:10154400E7D07300501098408177FD175447F58F0A
:101554005CC70F1000009840B70702001CC7930730
:1015640000F817360000230BF644973700009387E2
:1015740067449C439C439D83858B639FA70093078B
:1015840060197CD354C737F700E0832707D193E76A
:1015940087002328F7D02DBF9307E01BDDB7FC524B
:1015A400A5F39DBF97370000938787439C438847E3
:1015B400D847798D09C988C79387018703A3070092
:1015C40063030300028382801737000013078741F7
:1015D4008346B7019737000083C797434C4BB697B0
:1015E400FD8B33D7F50097360000A38DF63E973672
:1015F4000000A38FF640058B15EF17370000034753
:101604007741B3F7E702814601471305000233D659
:10161400E500058A1378F70F19CA6397D70097373F
:101624000000A381073D8280850693F6F60F050727
:10163400E31FA7FC8280973700009387E71D9C4334
:10164400011122CC4AC806CE26CA4EC682979737C5
:1016540000009387273B804701496301A406BE84A9
:1016640063668506018D135455009737000083C7C0
:1016740007391379F5016360F404973900009389FD
:10168400291F993703A884009736000083C626379C
:10169400139756004297158C3A8683A549006364D4
:1016A40007016364B7003306B7409737000023AFE0
:1016B400C734E378D4FC160433692401F24062444D
:1016C4004A85D2444249B249056182809737000075
:1016D4009387071ADC4333848740229569B7973789
:1016E40000009387E72F98438967938707F47CD397
:1016F40097370000938707349C4383A60709139602
:1017040056006358060083A60709139666006344CF
:1017140006007453FDF282804111B7E700E022C451
:1017240080433707200006C6798C23A0E7180F10E2
:10173400000011C199E5B7E700E023A08710014537
:101744007DA893073500C207C183F19BC207C183FB
:10175400130740036369F70217370000130747357F
:101764000843173700001307273414436392A60273
:10177400173700001307070B185B55DFC207DD8D11
:10178400054502974DBF1737000013072732C9BF1D
:10179400035765002DEB035745006366F706B30650
:1017A400F7402146637CD602032805009386870010
:1017B4001D8FAA96611717360000035686012392DF
:1017C400E60023A006012393060014C12312F500AA
:1017D400130786FF97360000239DE6FE2313B5000A
:1017E4009735000083D5E5FEB387F5401737000031
:1017F4002311F7FEB7E700E023A087102105B240CC
:10180400224441018280084195B7B7E700E08C4348
:101814003707200023A0E718F98D0F10000001E519
:1018240023A0B7108280973700009387672803A30B
:101834000700973700009387272783A8070081466E
:101844009A8763F2170D03A807006361F50C636FB1
:10185400A80A138787006368E50A03D6670021672F
:1018640005076317E60003C7B1860507A385E1866C
:1018740017350000130585F503D6470003576500A7
:1018840023930700329742074183173E0000231237
:10189400EEF4638C67021733000013032321032340
:1018A40003006304F30203D366006310030283D7C7
:1018B400460023A0060121073E9621062392C60076
:1018C400973700002397E7F0B6879843630D170313
:1018D400973600009386861D94426306D70283568A
:1018E400670095E283D64700035647001843A106D4
:1018F400B2962392D70098C383576500A107173780
:1019040000002318F7ECB7E700E019BFBE86C287D2
:041914000DBF000003
:1019180097110020938101BB17510020130101EE9C
:101928001305400097E5FF1F9385456D17060020B6
:10193800130606FE63FAC5008322050023A055009E
:1019480011059105E3EAC5FE17C501001305459C7D
:1019580097050020938505FC1386018263FAC5006C
:101968008322050023A0550011059105E3EAC5FE71
:101978001385018297350020938545266377B50046
:10198800232005001105E36DB5FEFD42739002BCEE
:101998008D4273904280930280087390023097E2E0
:1019A800FF1F9382A26593E2320073905230972210
:1019B80000009382A2B373901234730020303971FF
:1019C80001436EC619A0397141536AC866CA62CC10
:1019D8005ECE19A0397101535AD056D252D44ED680
:1019E8004AD826DA22DC06DE3301614082824111C0
:1019F8004AC026C222C406C68282B24D4101024DA7
:101A0800924C224CB24B4101024B924A224AB249B3
:101A18004101024992442244B240410182803D433F
:101A28002A876373C3029377F700BDEFADE593761A
:101A380006FF3D8ABA960CC34CC30CC74CC7410776
:101A4800E36BD7FE11E28280B306C3408A06970291
:101A5800000096966780A6002307B700A306B70084
:101A68002306B700A305B7002305B700A304B700F2
:101A78002304B700A303B7002303B700A302B700EA
:101A88002302B700A301B7002301B700A300B700E2
:101A98002300B700828093F5F50F93968500D58DC6
:101AA80093960501D58D61B793962700970200009C
:101AB80096968682E78086FA9680C1171D8F3E9695
:101AC800E374C3F8A5B73367B500FD530D8B79E709
:101AD800B7877F7F9387F7F710419441B372F60079
:101AE8003363F600BE92B3E262006397720C631828
:101AF800D6065041D441B372F6003363F600BE9265
:101B0800B3E262006398720A631BD60410459445D9
:101B1800B372F6003363F600BE92B3E262006391DB
:101B2800720A631ED6025045D445B372F600336379
:101B3800F600BE92B3E26200639A72086311D6029D
:101B480010499449B372F6003363F600BE92B3E2CB
:101B58006200639372085105D105E30FD6F6131797
:101B6800060193970601631CF7001357060193D7E4
:101B780006013305F7409375F50F91E9828041839B
:101B8800C1833305F7409375F50F91E18280137790
:101B9800F70F93F7F70F3305F740828003460500E8
:101BA80083C60500050585056313D60065FA330568
:101BB800D640828011059105E312D6FE0145828048
:101BC8002105A105E31CD6FC014582803105B1053C
:101BD800E316D6FC014582804105C105E310D6FC19
:101BE800014582802380018223A20182B717004029
:101BF80003A7070CB706C0FFFD16758F23A0E70CD7
:101C080003A7070DB7064000558F23A8E70C03A7C5
:101C1800070C3D9B23A0E70C03A7070D13670701DB
:101C280023A8E70C828023A2A182130640068945D7
:101C380003C5C1826F30917FB717004003A5470CD9
:101C480083A7470C598113451500C18B058999E372
:101C58001365250083C70182638CA7002380A182B6
:101C680001C99387418203A307006303030002832A
:101C78008280114561AD411193962500AA852D45B5
:101C880006C697E0FF1FE780A07FB24001454101EB
:101C98008280011122CC06CE3714004026CA4AC8D9
:101CA8004EC652C483447405034AB4058349840567
:101CB80003499405FD268347A40593F4F40F137A8A
:101CC800FA0F93E71700230DF40493F9F90F13792A
:101CD800F90FB717004003C7A705058B6DFF03D59C
:101CE800C705A38D4705238C3705A38C2705A38B30
:101CF8009704F2406244D2444249B249224A0561FB
:101D0800828041119397050122C406C6C1872E849B
:101D180063DA0700EF30713A19C1EF30F12D216510
:101D2800218D1DA093F7150013C5150091EF93F7AA
:101D3800250099CF11371306000A894503C5C182CA
:101D4800EF30D16E13452400B24022444101828015
:101D58009397250163D00702EF50D137193F37F623
:101D68000200130606E0896503C5C182EF30116CD5
:101D780009657DB7939715010145E3D707FC17A5BA
:101D8800010013052553EF90013013060064916597
:101D980003C5C182EF309169116559B72D71232AA6
:101DA8009110FD74E98C232C8110232821112326FE
:101DB80031112A84AE893289930600100A86A685D5
:101DC8002D45232E111097E0FF1FE780606B131538
:101DD800440151810A0513962900CA850A9597F08E
:101DE800FF1FE78080DDA68585660146254597E0CB
:101DF800FF1FE780E0680A86A6859306001029453C
:101E080097E0FF1FE780C0678320C1110324811179
:101E180083244111032901118329C110156182808E
:101E2800B7F7070003C70701411106C622C426C237
:101E38004AC0A547631AF7009537B2402244924436
:101E4800024901454101828013942500AA84328900
:101E5800A286AA850146254597E0FF1FE7804062D4
:101E6800A2864A86A685294597E0FF1FE78040613C
:101E7800E9B71D71494697A501009385253F17B518
:101E880001001305652C86CEA2CC97F0FF1FE780D2
:101E9800C0D901E917A501001305853EEF90A11EE1
:101EA80001A037F700E0795610CBFD5654CBB7E7C1
:101EB80000E0056423A087109306F00214C323A052
:101EC80087180100010017F7FF1F1307671F23A4D6
:101ED800E1824157A38AE7401306000481450808B8
:101EE80097F0FF1FE78040D1970700209387076E80
:101EF8003EC89D673ECCB7070105938707103ECEC5
:101F0800ED472310F10285472301F10297070000EE
:101F18009387A7D6BEC2970700009387A7F0BEC4D1
:101F28008567938757D12312F1029717000093878B
:101F3800A7D73ED8B7F50700970700009387A7D51E
:101F48003EDC8146970700009387E7D23000E10521
:101F580019453EDE231A810097E0FF1FE7804052B3
:101F680018088147994630003E96034606008507C3
:101F78000507A30BC700E398D7FEC24791C70357CD
:101F8800410185676373F70001A00808EF40E11875
:101F9800AA8501C917A501001305C52FEF80117D7A
:101FA80001A0F640664425618280411117050000B2
:101FB800130565D506C622C4EF4061121384C18299
:101FC8002300A40021283939034504002244B240E3
:101FD80013060032896541016F305145797106D683
:101FE80013078008F337078093F787083EC201007C
:101FF8000100B7170040930570052380B704130646
:1020080080FA2380C7040100010083C6F70293F613
:10201800A60FA387D702238007049246F3A606805B
:102028000100010073370780137787083AC401005D
:1020380001002380B7042380C7040100010003C7FF
:10204800F70213672700A387E70223800704A24744
:10205800F3A70780010001000545B5281939814714
:1020680001478146054685451305407E6528680079
:102078005146814597F0FF1FE78000B8B707C0A811
:102088003EC8B787E803938707D03ECA680097E73A
:10209800FF1F9387C7FF3EC6EF40412DB2504561F1
:1020A8008280B717004003C777051377E70FA38B24
:1020B800E704130700F8A38DE7043D47238CE704E2
:1020C80013075003A38CE70403C7A7051377D70F9B
:1020D800238DE7048280B717004003C7E7020D8904
:1020E80041111377C70F498F93068008F3B606800E
:1020F80093F6860836C60100010093067005238012
:10210800D704930680FA2380D704010001002387AF
:10211800E70223800704B247F3A707800100010004
:102128004101828041112A83014E930E407E130F94
:102138000019930F400663E56E1293080019130304
:102148004006B3781503854E0D4FA14F33736502D2
:102158000D891335150063EFBE121308F6FF794693
:1021680072984208135808013307C70213D617009C
:10217800BE0732976146B3F6C60213068070B3866F
:10218800C6023697A166F58F42075D8FB7160040E5
:1021980083C7F60293F70708A303F100034671000B
:1021A80083C7F60293F70708E394C7FE83477100D5
:1021B800B716004093F7F70F638807129307800854
:1021C800F3B7078093F787083EC401000100B717EB
:1021D8000040930670052380D704930680FA238075
:1021E800D7040100010023AA070383C6170393E657
:1021F8000608A388D70223800704A247F3A707800D
:10220800010001001166B71700407D16D45BC85F56
:1022180093854703A98EF18EF5FA93068008F3B6E5
:10222800068093F6860836C60100010093067005FD
:102238002380D704930680FA2380D7040100010085
:1022480098C103C7170313670704A388E70223800D
:102258000704B247F3A7078001000100410182800B
:102268007D133368E3039308E016630E08003368B0
:10227800F3039308D016630808009378330093B8E3
:1022880018009388D81633081E01131E0801135E20
:102298000E0155B56393E5030548638608000148B8
:1022A800630303002A8871087298FD15131E08013C
:1022B800C205135E0E01C18179BD13F8150063F4E0
:1022C800BF007908D5B713381800E5BF83C7F602F1
:1022D80093F70708A303F1000346710083C7F602CA
:1022E80093F70708E394C7FE8347710093F7F70F46
:1022F800F1DFE9B54111B7170040985F3AC6945F1E
:102308003247E39CE6FE32454101828031714AD969
:1023180066CB06DF22DD26DB4ED752D556D35AD1FF
:102328005ECF62CD6AC96EC7AA8C02D8EF00901042
:102338002A8993078008F3B7078093F787083EDA5E
:1023480001000100B7170040130770052380E70458
:10235800130780FA2380E7040100010003C7F7028E
:102368001377770FA387E70203C7F702136787007E
:10237800A387E70223800704D257F3A70780010049
:1023880001000545893B130780C13347E902116AFB
:1023980093070AE893065002BD69930BA004814A8B
:1023A800014B13048008930470057D1AB347F902A2
:1023B8003307D7023EC0FD873ECC938709A6930911
:1023C800803E3347F7023AC27D873AC43347390320
:1023D8008549B399990193D93940B306D702B30B0C
:1023E8007703B3C6F602B3CBFB0236C6FD8636C802
:1023F80093D6FB4136CEB7460F0093860624334961
:10240800D9028566938606FAB3969601B389E902DE
:10241800130760553309D90293060010B389E902FE
:102428003349D902B3C9F9029316390036CA3719A4
:102438000040FD8636D0930D090493D7F9413ED26A
:10244800F336048093F6860836DC01000100930712
:1024580070052380FD00930680FA2380DD000100CB
:1024680001008346390593F6860FA309D9048346EC
:10247800390593E61600A309D90423800D00E25616
:10248800F3A6068001000100130C80FA116DF336E3
:10249800048093F6860836DE010001009307700574
:1024A8002380FD0023808D0101000100834639054A
:1024B800216693E60602A309D90483560905B3E603
:1024C800A6012318D90483560905D18E2318D904E7
:1024D80023800D00F256F3A6068001000100834612
:1024E800390593F606026383061803463905218ADF
:1024F8006DDE081841277336048013768608B2C249
:102508000100010023809D0023808D01010001004E
:10251800B717004003C637051376F60DA389C7041D
:1025280003C6370513660602A389C704835609053F
:102538002166B3E6A6012318D90483560905D18E6E
:102548002318D90423800D009646F3A606800100BF
:1025580001008346390593F6060263800614834614
:102568003905A18AEDFE7933AA8636D46133A2569D
:10257800E30DD5FE835609054255B3E6A601231897
:10258800D904392783463905A18AEDDE03560905A2
:102598008346290582473376CA00B306DA0293D503
:1025A800F641B296B388F640E24733B8C6002E9893
:1025B8003308F840A247B3B616013308D84063C7BA
:1025C8000701631DF800924763FA1701C247634D7C
:1025D800F80E63950701B24763E8F80E894663E78A
:1025E800660FF2469315180013D3F8015E8613950B
:1025F8001800B365B30042D646D4EF80C10D3258F7
:10260800050B137BFB0F63470001631C0836A258B8
:102618006389083613081500B336A800B69513D693
:10262800F5013298B336C800AE9613581800FE0666
:10263800B3E606017336048013768608B2C6010035
:10264800010023809D0023808D01010001000356B5
:10265800C902B296C206C1822316D90223800D0090
:10266800B646F3A606800100010015B5F3360480CE
:1026780093F68608B6C00100010023809D002380E0
:102688008D01010001008346390593E60602A3097E
:10269800D90423800D0086463DBDF336048093F6A9
:1026A8008608B6C40100010023809D0023808D01A7
:1026B800010001008346390593E60602A309D904FF
:1026C80023800D00A64651B5E30D0BF0F3360480C8
:1026D80093F68608B6C801000100930680FA2380A5
:1026E8009D002380DD00010001008346390593F534
:1026F800FC0F93F6860FA309D90483463905CD8EBE
:10270800A309D90423800D00C646F3A6068001005C
:102718000100130580FA03463905930639051D8A19
:10272800631E96277336048013768608B2CC0100A0
:102738000100130680FA23809D002380CD0001004C
:10274800010003C606001376F60D2380C60003C6F3
:102758000600136606022380C60083560905116623
:10276800D18E2318D904835609052166D18E2318E2
:10277800D90423800D00E646F3A606800100010077
:10278800130680FA8346390593F606026382062407
:1027980083463905130C3905A18AFDDA0818D929A9
:1027A800F336048093F68608B6D00100010093063C
:1027B80080FA23809D002380DD000100010083460C
:1027C8000C00116693F6F60D2300DC0083460C001E
:1027D80093E606022300DC0083560905D18E2318F0
:1027E800D904835609052166D18E2318D90423807C
:1027F8000D008656F3A6068001000100130680FA34
:102808008346390593F60602638F061E834639050B
:10281800A18AEDFEC5342A8CF13CE30F85FF83566F
:10282800090511664255D18E2318D904952183468E
:10283800390513063905A18AFDDAF336048093F6C3
:102848008608B6D401000100930680FA23809D0013
:102858002380DD00010001008346060093F6F60D93
:102868002300D60023800D00A656F3A6068001009B
:1028780001008356090503462905D247B376DA00D5
:102888003306CA021305800C9355F6413696330D6C
:10289800F6408257333CD6002E9C3336A601330CC3
:1028A800FC40330CCC403308850392564E86B33532
:1028B800A5033305A503C295EF70F1616346800156
:1028C800631E0C16630C0D16130615003335A6008F
:1028D8002E959356F5013696B335D600AA9593965C
:1028E800F50105828585D18E6346B000639D051A82
:1028F800638B061A0356C90215823305D600333690
:10290800C500B2956348B000639105241306F00F23
:10291800637DA622894663F3561593078008F3B7AB
:10292800078093F78708BED60100010037170040DB
:10293800930770052300F704930780FA2300F70430
:10294800010001008356C70289678117D58FC20726
:10295800C1832316F70223000704B657F3A707809D
:1029680001000100FA506A54DA544A59BA592A5AED
:102978009A5A0A5BFA4B6A4CDA4C4A4DBA4D2961AD
:1029880082801308F5FF3335A800FD152E951356E0
:10299800F5013298B336C800AA9641B9F3360480D7
:1029A80093F68608B6CA0100010023809D002380A3
:1029B800AD000100010083463905CD8EA309D90475
:1029C80023800D00D646F3A6068001000100A1B3BE
:1029D800F336048093F68608B6CE01000100238002
:1029E8009D002380CD00010001008346390593E650
:1029F8000602A309D90423800D00F646F3A6068033
:102A08000100010041B3F336048093F68608B6D27C
:102A18000100010023809D002380CD0001000100FA
:102A28008346390593E60602A309D90423800D00DD
:102A38009656F3A6068001000100D9B39306F5FF68
:102A480033B5A600FD152E959355F501AE96B3B591
:102A5800B600AA951396F501858269B5F336048008
:102A680093F68608B6D801000100930680FA238001
:102A78009D002380DD00010001008356C902056620
:102A8800011693F6F60FD18EC206C1822316D9021B
:102A980023800D00C656F3A6068001000100850AB2
:102AA80093FAFA0F71BA33E6B60045C20356C90263
:102AB8003305D0403338A000B305B040B385054195
:102AC80015826345B000D1E16371A608894663F0B9
:102AD800560593078008F3B7078093F78708BEDA8F
:102AE80001000100B7170040130770052380E704B1
:102AF800130780FA2380E7040100010003D7C70207
:102B08007D8B2396E70223800704D65781BDF336D1
:102B1800048093F68608B6DC01000100930680FA6B
:102B280023809D002380DD00010001008356C90237
:102B38000566011693F6F60FD18EC206C1822316DA
:102B4800D90223800D00E656B9B793078008F3B77A
:102B5800078093F78708BEDE0100010037170040A1
:102B6800930770052300F704930780FA2300F704FE
:102B7800010001000356C70293975600B297C20797
:102B8800C1832316F70223000704F657C1BB9147F8
:102B980063EEB70217970100130707728A05BA9503
:102BA8009C41BA978287B717004003A7470B134584
:102BB800F5FF698F23AAE70A03A7070B698F23A8E4
:102BC800E70A03A7070A798D23A0A70A8280B71707
:102BD800004083A6470B1347F5FFF98E23AAD70AAF
:102BE80083A6070B558D23A8A70A83A6070A758F06
:102BF80023A0E70A8280B717004003A7470B498F35
:102C080023AAE70A03A7070B1345F5FF45BFB71724
:102C1800004083A6470B1347F5FF758F23AAE70AE1
:102C280003A7070A598D4DB7B717004003A7470BED
:102C3800498FEDB7B7170040884742054181937720
:102C4800050491EB9377F5013755E80113050580E5
:102C58003345F50282809377050C130700046397C8
:102C6800E7009377F50137459C1CCDB7216513051F
:102C780005D0828037E700E01C435443A183E20675
:102C8800D58F1CC1FD572320F7182322F7188280FF
:102C980013178500B7E700E023A0E710618123A29E
:102CA800A7108280B7F700E08847CC478280814729
:102CB80037370040A14663C4C70032858280034588
:102CC800B740E38EA6FE3385F5000345050085076A
:102CD8002304A740CDB7411122C406C62A84993FD0
:102CE8002947B307E502B2408D83B3D78702224450
:102CF8009507B3D7E70237370040C207C1832316C9
:102D0800F74041018280716541111305052006C60F
:102D1800D937B7370040130770F82381E7400D47CC
:102D2800A381E74013070004A380E74005472387F2
:102D3800E740B24041018280411197950100938597
:102D4800655C179501001305A56E06C6EF80012284
:102D5800179501001305C56EEF804121B24017A5F4
:102D680001001305658D41016F80E131411197958F
:102D780001009385655A179501001305656B06C612
:102D8800EF80C11E1795010013054569EF80011EEC
:102D9800B24017A501001305258A41016F80A12EB5
:102DA8004111979501009385655817950100130502
:102DB800256806C6EF80811BB24017A501001305E0
:102DC800A58741016F80212C1971A2DC86DE83471B
:102DD80005002A849DC3979501009385A5591795E9
:102DE80001001305E564EF8061184C401795010058
:102DF8001305057BEF808117E9A05841B707CF007D
:102E08009387777D6316F7061306400681456800A9
:102E1800EFE0FFC00356C4000C44680097E0FF1FB2
:102E2800E780A0D9979501009385C55417950100AF
:102E380013050560EF8081138355E4008356C400B1
:102E480070001795010013052577EF80211217955B
:102E580001001305657EEF8001230356C400035566
:102E6800E4006C00EF003071F6506654096182800E
:102E7800B707CC009387777D631CF70413064006D9
:102E880081456800EFE0BFB90356C4000C446800F0
:102E980097E0FF1FE78060D2979501009385854DE5
:102EA800179501001305C558EF80410C8356C400DF
:102EB8008355E4007000179501001305A571EF8094
:102EC800E10A1795010013052577EF80C11B69BF3B
:102ED800B707CE009387777DE308F7F89795010049
:102EE800938545491795010013058554EF8001081E
:102EF8004C401795010013052570EDBD411122C402
:102F080006C6834705002A849DCB979501009385C3
:102F18002545179501001305A551EF8021054C4063
:102F2800179501001305855DEF8041042244B240E6
:102F3800179501001305457041016F80C114584170
:102F480031E3979501009385A54117950100130575
:102F5800254EEF80A101179501001305A55BEF80B1
:102F6800E100179501001305256DEF80C11122447A
:102F7800B240116603C54183130606E8894541013D
:102F88006F20D14AA1679386D7036311D70297951B
:102F980001009385E53C1795010013056549EF701D
:102FA800F17C179501001305E55755BFED07979577
:102FB80001009385E53A17950100130565476318E5
:102FC800F702EF70B17A179501001305E556EF7017
:102FD800F1791795010013052566EF80C10A22448F
:102FE800B24003C54183894541016F20D15AEF7032
:102FF800F1774C40179501001305056035B741116D
:1030080006C6EF90A05919E5EF10B07CB240410117
:103018006F205036B24041018280411197950100DE
:1030280093854533179501001305854006C6EF7053
:10303800F1731795010013052560EF80C104B240B4
:10304800410175BF411122C4179501001305453E82
:103058002E84979501009385252E06C6EF70117171
:10306800179501001305455DEF80E1011DC897958F
:1030780001009385652C179501001305653BEF70DA
:10308800F16EA285179501001305854FEF70116E3B
:103098002244B240179501001305055A41016F708B
:1030A800917EB240224441018280011122CC2EC679
:1030B8002A84979501009385E52817950100130543
:1030C800253706CEEF70916A3246A2851795010022
:1030D8001305C54BEF709169179501001305C55588
:1030E800EF70717A83C7018481EF97F7FF1F938789
:1030F8002795DC4703D70700C167FD17631DF70055
:103108006244F240116603C54183130606E8894507
:1031180005616F20B131F24062440561828041113E
:1031280022C406C693F785002E8485C3EF00905904
:1031380013064006A14503C54183EF20312F1345EF
:103148008400B24022444101828093F7250085CF54
:10315800979501009385C525179501001305452D01
:10316800EF70D1601795010013054516EF701160D7
:10317800179501001305454CEF70F170EF20A0433F
:10318800134524007DBF93F745000145DDDB8545E8
:1031980003D5E183EFE0D0009795010093854521A1
:1031A800179501001305C528EF70515C17950100AC
:1031B80013050513EF70915B179501001305C547BB
:1031C800EF70716C13454400ADBF797122D426D2DB
:1031D8004AD02E842A89B28481457146480006D691
:1031E800EFE0FF8397F7FF1F93878785DC4783D737
:1031F8000700231421012313F100EF0040748547D1
:10320800A305F100930700192305A1003EC62686F1
:10321800FD57A2854800230AF100EF00A074B250C0
:1032280022549254025945618280011122CC97950B
:103238000100938525162A84179501001305451F5B
:1032480006CEEF70B152A285179501001305855A75
:10325800EF70D151179501001305053EEF70B1626B
:10326800938781819843DC4321462C0005453AC465
:103278003EC6A13F0DC92A84979501009385851103
:10328800179501001305C51AEF70514EA2851795C1
:1032980001001305E52DEF70714D17950100130519
:1032A800A539EF70515EF2406244056182800111D8
:1032B8003546979501009385E51917950100130583
:1032C800656706CE22CC97E0FF1FE780009601E9EC
:1032D800179501001305C5FAEF70F15A01A097F789
:1032E800FF1F938767A63EC4B7F5070085679387D6
:1032F8000780814613868183E10519453EC697D02C
:10330800FF1FE780E017194693858183138501091C
:1033180097E0FF1FE780608A3400138681839795C2
:1033280001009385A531179501001305A532EF100B
:1033380090742A8405CD97950100938565061795A5
:1033480001001305E50EEF707142A2851795010083
:1033580013054511EF709141179501001305C52D0F
:10336800EF707152F240624405618280EF80000084
:103378001795010013050505EF104015EF40D076AD
:10338800EFE0D00A17E5FF1F13054569EFE0A077C6
:103398001795010013050504EFE0100B2A84EF10C0
:1033A800E06EEFA02030EF001129EF203004EF107D
:1033B8007049EFC0100D97950100938565FE17952C
:1033C80001001305E50609C8EF70513AA285179563
:1033D80001001305650BBDBFEF705139179501004A
:1033E8001305C50CEF709138179501001305C52416
:1033F800EF707149EFC0406F85472380F184EF90EB
:10340800E01921C997950100938585F91795010061
:1034180013050502EF709135179501001305850A0C
:10342800EF70D1341795010013050521EF70B145F0
:10343800979501009385C5F617950100130545FF7B
:10344800EF70D132179501001305050AEF7011329C
:1034580021B77536F1BF411117050000130565CC7A
:1034680006C6EF20D147238AA18217E5FF1F13055F
:10347800255DEF009008253DEFE0CFF61705000029
:103488001305E5DAEFE02FFAB240971500009385AF
:10349800A5BA171500001305A5B541016F00100D59
:1034A80001113546979501009385C5FA17950100D6
:1034B8001305454806CE97D0FF1FE780007701E93E
:1034C800179501001305C514EF70F13B01A0EF50EB
:1034D800B1672AC6EF003158EF007137EF70C0238B
:1034E800F24032450561828041111305800406C609
:1034F80022C497D0FF1FE78040C1371400408327BC
:10350800840A8D451305002093E707202324F40A35
:10351800EFF0EFE7EFF02FFF97A501009385C5C205
:103528001795010013054510EF7051249795010078
:1035380093854540179501001305050FEF7011237A
:10354800EFE03F93EFE07FA6A13F31378327440C9C
:10355800C18B89EBEF202006179501001305450D57
:10356800EF70713297D0FF1FE78020E50145828018
:103578004111B2862E86AA852D4506C697D0FF1F13
:10358800E78000F0B240014541018280AE860146E5
:10359800AA85254517D3FF1F670083EE930700040C
:1035A80063E6C7021D71A2CC2A84080886CE32C6FB
:1035B800EF70D10BB2461008A285294597D0FF1F9E
:1035C800E78000ECF64066442561828039558280A8
:1035D8009387418418429C4383D6450003450700DE
:1035E80083C5C700035646006396A50083D5E70048
:1035F800638DD502011106CE2386A7002397D70035
:10360800B705CF00DC4B9385757D05077D162EC267
:10361800230001003AC42316C1002317D10099C31F
:103628000A858297F2400561828082806D713C082C
:103638003EC6B707E500232291103EC8AA843C087D
:103648003285232611103ECA2324811023202111FC
:103658002E89EF2040792A84979501009385C50427
:10366800179501001305C5DCEF705110A285179559
:10367800010013056513EF70710F1795010013050D
:10368800A5FBEF705120B705CB009385757D6800C9
:10369800EF00705DA2856800EF20806A01478146CF
:1036A8007000CA852685EF00507C0DC92A8497953D
:1036B8000100938565FF17950100130565D7EF7025
:1036C800F10AA2851795010013054510EF70110A3C
:1036D80017950100130545F6EF70F11A8320C11004
:1036E8000324811083244110032901105161828031
:1036F8009387418418429C43797122D406D60348A3
:10370800070083C807012A8483D64500035546006D
:103718006396080183D82701638DD802238807019F
:1037280005072399D7003708CC00DC4B1308787DB0
:103738003ACC1307F5FF42CA23080100231EE10013
:10374800231FD10099C7080832C62EC48297324673
:10375800A2452285E13DB2502254456182806D71B7
:103768003C083EC0B707E5003EC23C083EC42326DD
:1037780011102324811023229110231701002318EC
:10378800010023190100231A0100231B010097E7F8
:10379800FF1F83D7E72E99E3C167FD172316F100B2
:1037A80097E7FF1F83D7E72D81EB938741849C43DD
:1037B8009C43DC4783D7070017E4FF1F1304442CFE
:1037C800584C2317F10083574400484B2318F10045
:1037D8001DED97950100938525F4179501001305B4
:1037E80025C5EF70A17817950100130525F4EF7032
:1037F800E17717950100130525E4EF70D1088320C0
:10380800C11003248110832441105161828097E7FD
:10381800FF1F83C7572799E7EF10117E5C4C23AA37
:103828000700F1BFFD1797E6FF1FA38EF624035686
:103838000701834704014C470A85230BF100EF2059
:10384800404E938741849C430147814688430A86BA
:103858006C00EF009061AA841DC9979501009385BB
:10386800A5EB179501001305A5BCEF702170A6857F
:1038780017950100130545ECEF70416F179501008E
:10388800130585DBEF7031005C4CC84B71B797E7C7
:10389800FF1F83C7571FEDDB1044854503C581848F
:1038A800EF20C138A9BFDC4DDC4B99C7904503C553
:1038B800818491456F20813782805C4EDC4BB9C78B
:1038C800B1C5411122C417950100130565B62E84B0
:1038D80097950100938585E206C6EF702169A28558
:1038E80017950100130585E7EF70416817950100EA
:1038F800130585D4EF7021792244B24003C5818431
:1039080013064006914541016F20413282804111E2
:1039180022C417E4FF1F1304A4141C4C06C689C74D
:10392800DC4399C34C4882975C4CC84BEF10D16C70
:103938005C4CB240224423AA0700410182801387CD
:10394800A180834707009306F00B850793F7F70FCD
:1039580063E7F6002385F18003450700828093071B
:1039680000F8CDBF835745006380070E01114AC890
:1039780017E9FF1F1309C91052C4032AC90106CE4B
:1039880022CC03274A0126CA4EC6F15721EF130756
:10399800D00DFD576368C7042A84130586004205C5
:1039A8004181B284AE89EF10516A232AAA00032507
:1039B800C9015C49A9E397950100938525D217951C
:1039C80001001305E5A6EF70615A1795010013056C
:1039D800A5E2EF70A159179501001305E5C5EF7031
:1039E800816ADD57F2406244D2444249B249224AD0
:1039F8003E850561828093874400B705CF0023196F
:103A0800F5009385757D3105EF00F0250325C90183
:103A1800834564003105EF20A0320325C9012686BD
:103A2800CE853105EF20E02F7146A2854A85EF70DB
:103A3800E143504401CA854503C58184EF20011F35
:103A480081474DB7293BEDBFFD573E858280411127
:103A580022C417E4FF1F1304A4025C4C06C6C84B1B
:103A6800EF1091595C4C2244B24023AA070003C5C9
:103A78008184854541016F200132411126C293841A
:103A880041849C4006C622C4D1C3DC43C1C35CC187
:103A98002300B5002A8497950100938565BF179583
:103AA80001001305E598EF70614C179501001305A7
:103AB800A5B8EF70415D9C4023A4070023A207002E
:103AC80097E7FF1F9387C7F9DC4FDC4B99C329554C
:103AD8003D3D97E7FF1F9387A7FADC4FDC4B91C367
:103AE800BD37894503C58184EF20E12A914503C587
:103AF8008184EF20412A9C4003A347016308030007
:103B080022852244B240924441010283B2402244B9
:103B18009244410182800111328506CE22CC26CA08
:103B28002E84EF20402CAA8497950100938585B9AF
:103B3800179501001305C58FEF70414303078400F3
:103B48000356640083554400A686179501001305A3
:103B5800E5C2EF70A141179501001305E5ADEF70BF
:103B6800815297E7FF1F83C707F0639797000145C6
:103B7800793B81450A851137F2406244D244056198
:103B880082806D7123248110232611102322911025
:103B980093F745002E84638607123C083EC0B7079A
:103BA800E5003EC23C083EC423170100231801006B
:103BB80023190100231A0100231B010097E7FF1FA7
:103BC80083D707EA99E3C167FD172316F10097E742
:103BD800FF1F83D707E981EB938741849C439C436C
:103BE800DC4783D7070017E7FF1F130767E723178B
:103BF800F100544F835747002318F100DC4AA9E32A
:103C080097950100938545B01795010013054582E6
:103C1800EF70C13517950100130545B1EF700135F7
:103C280017950100130545A1EF70E14513454400C0
:103C38008320C110032481108324411051618280A4
:103C480097E7FF1F83C737E22555B5CBFD1717E662
:103C5800FF1FA30AF6E003D6060183470701CC46F7
:103C68000A85230BF100EF20C00B938741849C4306
:103C780017E7FF1F1307C7DE979601009386C667ED
:103C880088430A866C00EF00501EAA8445D1979598
:103C98000100938565A71785010013056579EF7005
:103CA800E12CA68517950100130505A9EF70012CD5
:103CB8001795010013054598EF70E13C2685813979
:103CC800B5B793F725008DC341468145280897D09D
:103CD800FF1FE78060F225551D3928089305F00F6E
:103CE800693B13452400A9B793F715000145A9D3EB
:103CF800EFF0FFA61345140025BF5C4D411106C621
:103D080088C317050000130505E823A2F184EF20F6
:103D1800013DB2402384A1840145410182802A8764
:103D2800BA95C167C20505661385F7FFC1811306F9
:103D3800160293170701C1836393B70082800507B2
:103D48008347F7FFA146A207A98FC207C18313952E
:103D580007014185860763530500B18FC207FD1629
:103D6800C18393F6F60F3E85FDF2E1B723A8A1843F
:103D780023A6B1848280894763F5C714717122D55F
:103D880026D34AD106D74ECF52CD56CB5AC903CAED
:103D9800050085473284AE842A8963EA470B83C7C6
:103DA800150003C7250083C69184A207D98F17077A
:103DB80000201307278501443A89635ED406035619
:103DC800070093091400130747096310F6089304C2
:103DD8004009B3049402630D0A029387C18403ABBC
:103DE800070063070B02B30A990003DA8A08938570
:103DF8008400CA9552866800EF7041071C0983A5A4
:103E08004A0003D52A003E9A230E0AF67000029B48
:103E180003CA918433048A4013064009B385C90252
:103E28007D14330599007D1A3306C402CA95EF70D4
:103E3800410FA3844185BA502A549A540A59FA4921
:103E48006A4ADA4A4A4B4D6182804E84BDB793056F
:103E5800E6FFC205C1812685D935B387840083C6AC
:103E6800E7FF03C7F7FFAA8A93998600B3E9E90039
:103E7800B3073541B337F0000D462C004A852304BB
:103E8800F100A304D1002305E100EFF00FB4E3949F
:103E98003AFB9387018583A90700E38E09F8751417
:103EA800420441802286938514006800EF60117CEB
:103EB8001C093E94230E04F67000D2854A85829927
:103EC8009DBF8280317152D5138AA18483470A002D
:103ED8004AD956D385075AD15ECF66CB06DF22DD95
:103EE80026DB4ED762CD2385F184814C17F9FF1F5D
:103EF80013094971930A40094D4B938BC18483C7B9
:103F0800918463CFFC00FA506A54DA544A59BA597A
:103F18002A5A9A5A0A5BFA4B6A4CDA4C296182800F
:103F2800B3845C0383470A00138C1C003304990094
:103F38000327C408998F93F7F70F637EFB04834721
:103F48000409A1EF835984085C40938584004E8658
:103F5800CA951305D1002306F100EF6031710357AC
:103F6800040013863900035524001C094206CE9725
:103F78009356870041826C00A38ED7F6238FE7F60D
:103F8800EFF0AFA483C7A1842326F408834704096C
:103F980085072308F408E28C9DB703AC0B00630483
:103FA8000C028359840893858400CA954E8668005C
:103FB800EF60D16B1C094C4003552400BE99238E39
:103FC80009F67000029C03C49184330694417D165F
:103FD8003306560393854409CA95330599007D1421
:103FE800668CEF601174A384818475B7011122CCAB
:103FF80026CA2A84AE841785010013056543979560
:1040080001009385258E06CE32C6EF603176B24622
:104018002686A285179501001305458AEF6011755C
:104028006244F240D244178501001305E56005613A
:104038006F706105011122CC26CA2A84AE841785C7
:1040480001001305E53E979501009385658A06CE24
:1040580032C6EF60B171B2462686A2851795010077
:1040680013050583EF6091706244F240D2441785CE
:1040780001001305655C05616F70E100EFD29F9543
:104088002A8408452E89B28909C900C1970500000C
:104098009385C5736105EFF0F06C81447D5AEF108C
:1040A800A00363C3A4048144EF10000463C6A404FE
:1040B800970700209387070E9C43DC47B307F94016
:1040C80091872302F400638109048327C900B30799
:1040D800F4409587A302F4001C4C89C79C4799C3F8
:1040E800228582976FD05F925C44139714008504F1
:1040F800BA972390470165B71C48139714008504A5
:10410800BA97239007004DB7832789000547B3075F
:10411800F4409587A302F40083570400638EE702F6
:104128008DC309476384E7040D47E397E7FA979738
:1041380001009387E7CE1CCC97970100938747CF60
:1041480011A897970100938727951CCC9797010092
:10415800938787955CC849B7979701009387C7806D
:104168001CCC9797010093872781EDB7979701009B
:104178009387C7CF1CCC97970100938727D0D9BFC7
:1041880085E1EFD2DF8600461844834794007583A3
:104198009D8B6315F700EF00901948C46FD07F8797
:1041A8008280EFD23F8313893500C16442094111EF
:1041B800AA890144F11413590901054A2EC6EF00D2
:1041C800B071B2456346A400014541016FD0DF8359
:1041D80083A7090013171400BA9783D707006388C9
:1041E800B7006394970063742A010504C1BF0545AD
:1041F800E9BFEFD24FFDAA892E89328BB6843A8A5D
:10420800BE8AEF80A0394DC12685EF10702D8D47ED
:1042180063E5A7007D556FD08FFE83DB4400EF0078
:10422800B0712A84EF00907293077400314433050B
:10423800850263C5A702EF003070EF00F06F2A8493
:10424800EF00D0709307740031443305850263CDC5
:10425800A702EF00706E9307450019A8EF00106FD2
:10426800330585021307F0179307C017E357A7FC18
:104278002D55E3C277FB63000B02D6865286A685CE
:104288004A85EFE0D04F41BFEF00506C33058502FF
:104298009307C5FFF1BF832749001385C90083D55C
:1042A8002700013779F9BDB76955B5B797070020D9
:1042B8002394A7EE970700209387C7ED9043814783
:1042C8000C463307F500420741836393B7008280A9
:1042D8005446139847008507C2962390E600D5B741
:1042E80097070020938707EB9C4303C587008280CC
:1042F80017050020035545EA8280EFD24FEFC167CA
:104308001387D7FF6307E5026368A700F117630EF9
:10431800F50001456FD0EFEF1387E7FF630EE50067
:10432800FD171D8D13351500F5B7EF4060347D1569
:10433800D5BFEF40E011E5BFEF404010CDBFEFD251
:104348000FEB4111AA8401442EC6EF00F059B24583
:104358006346A400014541016FD0AFEB9C4813159B
:1043680014003E9583570500E387B7FE0504E9BFAF
:1043780003485500814693F7F60F63E50701814727
:104388003E858280584593975600BA9703D72700F1
:104398006316B70003D70700E304C7FE8506E1BF2D
:1043A8008346450001479377F70F63E4D7008147B9
:1043B80011A81C45131657000507B29703D6070026
:1043C800E313B6FE3E858280EFD2CFE09317050156
:1043D800C187970A0020938AEADB6353F00883A712
:1043E8000A00C0479C4703570400198D42054181C4
:1043F8006366F500014422856FD00FE112052A9407
:10440800DDBFDC4713944900014A3E9483474400CA
:104418006341FA02014A834754006346FA02850958
:10442800C20993D9090183A70A009847E3EBE9FC7D
:10443800D1B71C4413195A00A6853E994A850137FD
:1044480009ED050AE1B75C4413195A00A6853E999F
:104458004A85F53519E1050A7DBFE30209FC61BF0C
:10446800AA848149C9B7EFD28FD81C452A8481E72D
:104478009307C5001CC51C44231204001CC09307E5
:10448800F00F63E9B70093F5F50F2285EF10500B95
:104498006FD02FD893940501C167C18063F7F500E9
:1044A800A6852285EF10700DE5B7C18193F5F50F4C
:1044B8002285EF10F008A6852285EF10B009C9BF44
:1044C80097070020938707CD884382801C4599C7AA
:1044D8009707002023A0A7CC014582807D558280C4
:1044E80097070020938707CB9843834745004847A1
:1044F80092073E958280EFD28FCF617100451C18DC
:104508003EC6B70780013EC81C183ECA8357440000
:1045180002CE02D002CC231EF100834784002A89F0
:1045280002D22301F1023C083ED402D6553F8357FC
:1045380005002316F102EF3030632307A1025C4027
:1045480003556400F18313F717008347F1025205FE
:104558005181F99BD98FA307F102EFE0B01339C558
:10456800AA8403550500EF80400483D704002AD2AB
:104578006800231CF10083D72400231DF1001C4888
:1045880003D647008C43EF10C0798347B400CA862E
:10459800178601001306C6368117A305F4006C00C0
:1045A8004810EFE0D01D5D616FD0AFC62155E5BF63
:1045B8001C45B1CF03C5A700894613576500630B97
:1045C800D7028D46630ED70285466300D7021307CC
:1045D80040063305E50203C7B700418B15CB83C7F7
:1045E800B700BD8B3355F54082801375F50313076B
:1045F800803EC5B709671375F50313070771D1BF67
:10460800372709001375F5031307077CD9B7014548
:104618008280EFD2CFBD03A98500630409048347D4
:10462800B900AE8493F7070E91CF0345990093051F
:1046380020030D810505B305B50288446105EFF037
:10464800501E05A02E85AD372A8401CDCD218325A6
:10465800C900B307B54063F887002E94B305A4409A
:10466800E9FD6FD00FBB8545C9BFEFD24FB82A848B
:1046780003D50500011132C636C43AC22EC002CA9B
:1046880002CC02CEEF70707282452ACA22852ECCE7
:10469800813D03570500231EE100EF30F04CA24690
:1046A80032469247230FA10036874C08B2862285EE
:1046B8000146EFF01FB405616FD0AFB5EFD22FB34D
:1046C80061711C183EC6B70780013EC81C183ECA57
:1046D8003C0800453ED4AA8402CC02CE02D002D2C5
:1046E80002D6FD3B8357050035592316F102EF30FA
:1046F800B0472307A10209C48357440091E7215911
:104708004A855D616FD0EFB0035564005205518151
:10471800EFE040782A8965D58347B40093F7070E00
:1047280089C713058401EFF0501183574400231EF5
:10473800F100834784002301F1025C40035509001E
:10474800D98313F7070883471102231CA10093F7A5
:10475800F707D98FA300F10283572900231DF10021
:104768005C40F18313F717008347F102F99BD98F57
:10477800A307F102EF7070632AD251D183479400E6
:104788006800139757008347B400FD8BD98FA305A2
:10479800F4001C4803D647008C43EF108058A687C6
:1047A800178701001307C715740005464C102685A6
:1047B800EFF03FA42A8929D58347B400A685FD8B4D
:1047C800A305F400B9352DBFEFD26FA2832485FE6F
:1047D8002A8441112685E93B834734FF93F7070E66
:1047E8009DC32AC62685EFF01FD119C9834734FF18
:1047F800B245FD8BA309F4FE81C52285EFF0700256
:1048080041016FD00FA16DDD8327C4FF26858297F4
:1048180065F9834734FF93F7070E81C72285EFF0C8
:10482800D001032584FE593DE1BFEFD24F999C4149
:1048380041112A8903C7070089472E8493566700C8
:10484800638CF6020D466382C6049307F007630281
:10485800F7022E85EF102059AA848149C16B130CE9
:104868004900970700209387E7929C43984763EC99
:10487800E90241016FD06F9803D745008547E3FAF5
:10488800E7FE2E85EF10005AC1BF03D74500E3F2BB
:10489800E7FE2E85EF102055AA842285EF100056DA
:1048A800C204C98C5DBFDC470355A900139A4900AF
:1048B8003E9A93170501C187635DF00083570A008C
:1048C8006395A70263E574038327CA00034D5A0062
:1048D8001DA0A1672167A98F1307F7EFE374F7FEFF
:1048E80063950900EFF07FA171FD85099DBF8327BE
:1048F8008A00034D4A00835DA90003576900216AB5
:10490800138BC7003AC6814A33CA4D01631E5D0145
:1049180097070020938787889C43E1DBA2866286FD
:10492800814526858297D1B7A1679387F7EF930CC6
:104938004BFF63F04703B2455A85EFF09F8619CDC8
:1049480003278B00104719CA10436380C40231073C
:10495800D5BFEE856685EFF09F9E71FD93861A00A0
:1049680093FAF60F130B0B0255B7835644005C43BA
:10497800E3EDF6F622853AC6EF10E035A167938796
:10498800D7042A8A035D4400324763E897008347C7
:10499800D90093E707F8A306F9001C476685228625
:1049A800E2858297C1670844FD17337AFA00529569
:1049B80008C02312A40115BF97F7FF1F9387877DAF
:1049C8009843814715C31447814763FFD5009397E0
:1049D80045004C47BE9519C903C755008147637503
:1049E800E600DC451606B2973E85828003C745007F
:1049F8008147E37BE6FE16069C45F5B7EFC29FFDAF
:104A0800AA892E8A814497FAFF1F938AAA7883A7D6
:104A18000A00984763E4E4006FC01FFFDC47139463
:104A2800440001493E9413BB140083474400634B80
:104A3800F900014913BB140083475400634FF90080
:104A48008504F1B70844931759005287DA8601465E
:104A5800A2853E9582990509C9BF48449317590014
:104A68005287DA860546A2853E9582990509E9B7F7
:104A7800EFC2FFF7814517F5FFFF1305656097F74C
:104A8800FF1F239B07709D3F6FC0BFF897F7FF1F5D
:104A9800938747709C4399CBEFC27FF5814517F503
:104AA800FFFF1305E55D993F6FC0BFF68280EFC237
:104AB8007FF241112315E1002E89B284B6893A8626
:104AC80081460147ED452A84EF10F1482AC61DCDDD
:104AD8000356A100CE85EF606139CA852285EF10A3
:104AE800F15B058915C1228501462C00231491002C
:104AF800EF10D1712A8409C5ED452800EF10115433
:104B0800228541016FC05FF04944FDB76554CDBFB0
:104B18005C41FD175CC18280EFC27FEDEF1061043C
:104B280095473305F50281450D816FC09FEEEFC2B1
:104B38001FECEF10010395473305F5020D816FC097
:104B48005FEDEFC2DFEA03550500EF10111D6FC0DE
:104B58005FECEFC2DFE9035505003287AE8617D652
:104B6800FF1F0356C6F897F5FF1F938565638137C6
:104B78006FC03FEAEFC2BFE7EF5091006FC07FE917
:104B8800EFC2FFE697F5FF1F93858561EF10F16E81
:104B980001456FC01FE8EFC29FE5814517D5FF1F8C
:104BA8000355E5F0EF10B1596FC0BFE6EFC23FE41F
:104BB80097F5FF1F9385C55FEF10316C01456FC0F6
:104BC8005FE5EFC2DFE2814517D5FF1F035525F4E6
:104BD800EF10F1566FC0FFE3EFC27FE12E85EF6063
:104BE800004CEF6050016FC0DFE2EFC25FE0EF60A2
:104BF800300B6FC01FE25C49E1175CC95CC5835785
:104C08002501A1072319F50083570501A1072318DA
:104C1800F5008280F1473305F50297F7FF1F938768
:104C2800275B9C433E9582808D476317F60603D722
:104C38004600854763F2E706EFC27FDB3685368498
:104C48002E89EF10401A39C1835744009314050187
:104C5800C18063ED97022285EF10E018FD1423123E
:104C680094009307A002630EF5009307B002630156
:104C7800F50293079002631BF5002285EFC0D07000
:104C880031A00146CA852285EF80E0016FC07FD838
:104C98002285EF003056DDBF828097F6FF1F93868E
:104CA80066539C42014599CF9843D44217F6FF1F9B
:104CB8002322E6526396D70097F6FF1F23AEE650ED
:104CC8001385C7FE8280EFC29FD27D2E71443305C3
:104CD80085029145EF70405501E565556FC07FD35A
:104CE80097F7FF1F23A4A74E452633058502914554
:104CF800EF7080537DD197F7FF1F23ABA74C692630
:104D080097F7FF1F239EA74A412697F7FF1F239A6D
:104D1800A74A978701009387E7C317F7FF1F232543
:104D2800F74A97070000938747ED17F7FF1F232BD4
:104D3800F748014565B7EFC29FCBAA8517F5FF1F56
:104D480013050548EF10001E6FC0BFCCEFC23FCA65
:104D5800DD37EF10A01E97F7FF1F9387A7479C43E7
:104D680081CF1387C7FE09CB83D5C7FF17F5FF1F70
:104D78001305C546EFF0E02A6FC0BFC9EFC23FC7B1
:104D8800293F11C9834785002A8493F7070491E7CF
:104D98000355E500653F6FC0DFC78347C50093042F
:104DA800450117F9FF1F1309E94285E38327090025
:104DB8005CC997F7FF1F23AF974083274900E1FF9E
:104DC80097F7FF1F23AA9740F9B7FD172306F500A9
:104DD8006105EF6060728307840063C90704834735
:104DE800840093E707F82304F400EF0071504205AC
:104DF800A94741813375F5028347840093F707FC7F
:104E0800C98F2304F4008347D4003E951C4023181F
:104E1800A40089CF984319CB8347C40050408145EB
:104E280085073305F502420541810297832709006A
:104E38005CC897F7FF1F23AF97388327490089E796
:104E480097F7FF1F23AA97388347C400A9D783552C
:104E5800040117F5FF1F13056538EFF0801C25BF07
:104E6800EFC2FFB897F7FF1F9387875C9C47014401
:104E78008583858B81EFAE84B2853A86EF10601109
:104E88002A8409C5EF106008829408CC22856FC077
:104E98005FB8EFC23FB441112E8932C6AA89692C86
:104EA800324713060502CA86970500009385C5D6C2
:104EB80017F5FF1F1305C53065372A8429CD9304DC
:104EC800C50065261946AA852685EF0090658545A3
:104ED8002685EF00706217850100130565A54E95BC
:104EE800834505002685EF00B0655C48314681455D
:104EF800A1075CC85CC483572401E1172319F40097
:104F080083570401E1172318F4001C4C3E85EFC0B9
:104F18001FB1A3042501228541016FC0FFAEEFC276
:104F28001FAD4111AA842EC632C4EF106000004D97
:104F3800B2452246834784000CC050C093F7F7035C
:104F480093E707042304F400231804002685EF00E0
:104F5800D07B83479400A9462317A40013D73700B2
:104F680005073307D7029D8B85072306F400A306A0
:104F7800E40083C70401D8488507230FF7FE17F715
:104F8800FF1F130727255843232A040093074401CA
:104F98001DEB17F7FF1F2321F72417F7FF1F232BFC
:104FA800F72217F4FF1F130464232285EFE0307DF6
:104FB8001C44858B5D8D09E581452285EFF06006EF
:104FC80041016FC01FA51CC317F7FF1F2326F72039
:104FD800C9BFEFC2DFA197050000938525C501452C
:104FE800EFF09FBF01456FC0DFA2EFC25FA0EFF0F7
:104FF800DFBF6FC01FA28347C500A1E7EFC23F9F75
:105008002A840355E500EFF01FD315C983478400B0
:1050180093F7F7FB2304F4001C4091C7DC4381C7D6
:105028004C4001458297EFF05FC717F5FF1F130546
:10503800E51AEFF080000355E400EFF03FD16FC0B0
:105048005F9D8280EFC2BF9A97F7FF1F93878718EB
:10505800970500009385C5D217F5FF1F130505189E
:1050680023A0070023A20700EFE0D06F6FC07F9A4C
:105078001C4D91CBDC4381CBEFC27F978345070062
:1050880082976FC01F99828097F7FF1F93874717F2
:105098009C4303C50700828097F7FF1F9387471635
:1050A8009C4303C51700828097F7FF1F9387471516
:1050B8009C4303C52700828097F7FF1F93874714F7
:1050C8009C4303C54700828097F7FF1F93874713C8
:1050D8009C4303C53700828097F7FF1F93874712C9
:1050E8009C4303C55700828097F7FF1F938747119A
:1050F8009C4303C56700828097F7FF1F938747107B
:105108009C4303C57700828097F7FF1F9387470F5B
:105118009C4303C58700828097F7FF1F9387470E3C
:105128009C4303C59700828097F7FF1F9387470D1D
:105138009C4303C5A700828097F7FF1F9387470CFE
:105148009C4303C5B70011E11D45828097F7FF1FF7
:105158009387070B9C4303C5C700828097F7FF1FFF
:105168009387070A9C4303C5D700828097F7FF1FE0
:10517800938707099C4303C5E700828097F7FF1FC1
:10518800938707089C4303D50701828097F7FF1F81
:10519800938707079C4303C52701828097F7FF1F62
:1051A800938707069C4303D54701828097F7FF1F23
:1051B800938707059C4303D56701828097F7FF1FF4
:1051C800938707049C4303D58701828097F7FF1FC5
:1051D800938707039C4303C5A701828097F7FF1FA6
:1051E800938707029C4303C5B701828097F7FF1F87
:1051F800938707019C4303C5C701828097F7FF1F68
:10520800938707009C4303C5D701828097F7FF1F48
:10521800938707FF9C438857828097F7FF1F9387E0
:1052280027FE9C4303D5C702828097F7FF1F938709
:1052380027FD9C4303D5E70219E11305800C828002
:1052480097F7FF1F9387C7FB9C4303C5070382801B
:1052580097F7FF1F9387C7FA9C43C85B828097F72D
:10526800FF1F938767F98843828097F7FF1F93870B
:10527800E7F88843828019E17D558280F5DE9842FF
:1052880065DFFDD917F7FF1F1307871A1847AA8785
:105298007155058B6316072203C507001547E37D83
:1052A800A7FC03C737001305F0057D171377F70F21
:1052B800E364E5FC03C35700E30003FC83C867000D
:1052C800E38C08FA03C77700494579171377F70F76
:1052D800E364E5FA03C7A70011481305F7FF137540
:1052E800F50FE36BA8F803CE97000D481305FEFFF2
:1052F8001375F50FE362A8F803C8B700630908003F
:1053080065181378F80F1305600DE36705F703C5F3
:10531800C700794879151375F50FE36FA8F403C82A
:10532800D7000D457D181378F80FE36705F503D806
:105338000701930E40175118420813580801E3ED6E
:105348000EF303C8E7007D181378F80FE36605F33A
:1053580003C827017D181378F80FE36F05F103C818
:105368008700C54E75181378F80FE3E70EF103D8D8
:105378006701856E938EBEE06D18420813580801C8
:10538800E3EC0EEF03D847016D18420813580801E3
:10539800E3E40EEF03D8870179184208135808018F
:1053A800E36C05ED03C8A7017D181378F80FE365D2
:1053B80005ED03C5B7011D487D151375F50FE36DA0
:1053C800A8EA03C5D701714879151375F50FE36588
:1053D800A8EA03D5E7011308E00F7D1542054181CE
:1053E800E36CA8E803C50702494879151375F50F5A
:1053F800E364A8E883AE470237C534001308F5BF55
:10540800E36CD8E703A88702130555BF5918E3656D
:1054180005E717F5FF1F2323C5DE03C6050117F5AA
:10542800FF1F232FF5DC0545E378C5E403D82501E4
:10543800D04933760603E31106E403C61501E30DEC
:1054480006E217F6FF1F2329B6DA83C527000146AF
:105458006387A50003C61700F1453306B60283C764
:1054680007039305C00272971A071307C7051603A7
:105478001A9796084697B387B70241553E973297D1
:1054880042074183636EE802EFC26FD63685EF604C
:10549800D063EFD0F0142A84EF80F0102A94EFC084
:1054A800D0182A94EF60507B2A94EFF0DF812A9479
:1054B800EF2010612A94EF50A06122956FC06FD53C
:1054C8008280EFC2CFD24111A307A100EF80C011A3
:1054D8009305F100170500001305C5B9EFF00FD2C9
:1054E800014541016FC0EFD2EFC2EFCD17F4FF1FA6
:1054F800130404F40328840079599368180097F476
:10550800FF1F23AB14F313781800631E0800BA8436
:10551800BE89368B328A2E89AA8AEFE07FDC7D1518
:10552800269509E531594A856FC06FCDEFE05FDBFD
:105538007D152695A167E357F5FE97F7FF1F93871B
:10554800E72598433E8C814B11C70145EFC0F031E8
:10555800933B15004A85DA865686D285EF70B02AC5
:105568002A8911CD1C44F99B17F7FF1F2326F7EC56
:1055780083270C00CDDBE3880BFA82976DB726856D
:1055880097F7FF1F23A807EAEFE05FD24146CE85D1
:1055980017F5FF1F130545F3EF50510DEFA0A07B42
:1055A8000325040BEFA0A07D0545EFA0B00305453A
:1055B800EFF03FF18DBF97F7FF1F938767E79C4791
:1055C800858BD5C7EFC2AFC217F5FF1F130505EED0
:1055D80097F7FF1F23AE07E497F7FF1F23AC07E4F5
:1055E80097F7FF1F23AA07E4EFE03025EF30D07FBD
:1055F800EFE0C07CEFE0500197F7FF1F9387C7E10A
:105608009C4381C70545EF60B02797F7FF1F938735
:1056180067CA9C4389C741657D15EF500067EFC095
:10562800B02DEFA0207497F7FF1F938727F59C43B1
:105638001397170163540700EFC0E03897F7FF1F6F
:1056480023A407E897F7FF1F23A207E897F7FF1F90
:1056580023A007E897F7FF1F23AE07E6EFF0FF98B0
:105668009D23EFF0EFC0EFC0C05A6FC08FBA8280A1
:10567800EFC24FB62A849304140201112E85B28911
:10568800A685214636C63A89EF50E17B1DE1B24630
:1056980038082686CE8513059404EF4080402146BD
:1056A8002C084A85EF50217A1335150005616FC023
:1056B800AFB50145E5BFEFC28FB39305450617F5B2
:1056C800FF1F130525B4EFE0D0156FC08FB4EFC2EC
:1056D8000FB241112EC6EFF08FC5B24588C1410106
:1056E8006FC02FB3EFC20FAFAA842E84EF60106E85
:1056F800AA8985452285A92583C7E40113899408C9
:1057080099E313890403CE8522851D2D214693052F
:1057180019022285392597F7FF1F938767D18C4394
:105728002285EF0060682146938584022285D52B67
:105738006FC08FADEFC22FA93971EFC0E043930559
:10574800400645EDEF609065630E051097F7FF1F63
:1057580083C707AD13B7170097F6FF1F2382E6AC80
:10576800014489CFC16417F9FF1F130969CC930954
:10577800400EFD14EFF05F9A6348A408EFF02FBBCA
:105788004169B7290900096AFD7A2A8B81447D1984
:105798009389F97B130A0A71938A8AC7EFF0DF9716
:1057A80063D5A4041304400EB387840217F7FF1FC0
:1057B800130707C80324070B3E948357C401638665
:1057C800270918403307EB4063EAE90083474400A0
:1057D8008507B3874703D6976369F706014681456E
:1057E8000945EFF00FEBAA8B29E1EF209059854787
:1057F800631FF50489659385057117F5FF1F130568
:1058080065A0EFE01002A1A8B30734030327090B32
:10581800BA9703D7C7016308970003C75700A38245
:1058280007002382E7000504B1B79305C500228568
:10583800EFF05FEB5E8522869775010093858510F2
:10584800EFF0EFED5E85EF00606F850481BF97F79D
:10585800FF1F9387E7BD9C478D83858BC1FF21611F
:105868006FC0EF9901468545094502D002D202D49E
:1058780002D6EFF00FE2AA847DD1EFC0202F138962
:10588800C4002A8481454A8565290C4041464A85D9
:10589800492983294400638809084E8502D802DA19
:1058A80002DC02DEEF50E17E2ACE141005462C08F9
:1058B80008184ECCEF4080161375F50F2DE583556B
:1058C800840093E525004A854D2911460C104A8528
:1058D8008929014697750100938545072685EFF0CC
:1058E8000FE42685EF0080655C40B5DB0146854501
:1058F8000D45EFF00FDAAA843DD148401389C40062
:10590800EF5021792AC64A85E12E3246636AC500DE
:105918004C404A853921014681452685EFF02FE024
:105928002685292D2DBF8355840071BFEFC22F8C8A
:1059380097F7FF1F9387C7AF9C4719CD93E7870059
:1059480017F5FF1F1305058C17F7FF1F2326F7AE62
:10595800EFE0C06B6FC0EF8BDD9B17F7FF1F232DA8
:10596800F7ACEF2010427DF517F5FF1F1305858969
:10597800EFE0A06CC5B7EFC20F854169AA892E8AEE
:10598800B28A368BBA8B814417FCFF1F130C4CAAC2
:10599800930C400E7D19EFF02FF863C4A400014466
:1059A8002DA03384940383270C0B3E948357C401A2
:1059B800638027055A87D6865286CE851305040349
:1059C800EFF01FCB11C523800B0022856FC02F83FA
:1059D8008347F40191CF5A87D6865286CE85130520
:1059E8009408EFF0FFC809C585472380FB00F1BF85
:1059F800850455B783574500638D0716EFB29FFDA1
:105A080001112A84CD2619C58547630AF504056165
:105A18006FB09FFFEFC040167DF983574400494798
:105A2800ED9BE396E7FEC1452285612CAA84228579
:105A3800D52E0357440002CE91472A896317F700F1
:105A4800228519293C082ACC3ECEEFC020125C558D
:105A5800DDDF74084A86A685054582974DBF035742
:105A68004400D147E3F5E7FA032A0400C169014974
:105A780097FAFF1F938ACA9B130B400EFD19EFF08C
:105A8800AFE96344A90C2285032A0400A92EA14585
:105A98002A8922853D24AA8422857D2E14402A86BF
:105AA800AA8978082685CA85EFF0FFECAA8425D153
:105AB80003C7F40189476315F7008347C101A1DBD8
:105AC8005546D28513856400EF50413A0145EF6091
